:020000040800F2
:10000000701F002045010008435600087D5000087D
:1000100041560008153000085B5F00080000000032
:100020000000000000000000000000005701000870
:1000300011310008000000005B010008D55C0008D9
:100040005F0100085F0100085F0100085F01000810
:100050005F0100085F0100085F0100085F01000800
:100060005F0100085F0100085F0100085F010008F0
:100070005F0100085F0100085F0100085F010008E0
:100080005F0100085F0100085F0100085F010008D0
:100090005F0100085F0100085F0100085F010008C0
:1000A0005F0100085F0100085F0100085F010008B0
:1000B0005F0100085F0100085F0100085F010008A0
:1000C0005F0100085F0100085F0100085F01000890
:1000D0005F0100085F0100085F0100085F01000880
:1000E000133100085F0100085F0100085F0100088C
:1000F0005F0100085F0100085F0100085F01000860
:100100005F010008655600085F0100085F010008F4
:100110005F0100085F0100085F0100085F0100083F
:100120005F0100085F0100085F0100081930000846
:10013000DFF80CD002F038FF00480047A59C00080B
:10014000701F00200648804706480047FEE7FEE78C
:10015000FEE7FEE7FEE7FEE7FEE7FEE7FEE7FEE777
:10016000415D00083101000810B5F949C4074FF09E
:1001700040434FF0804205D08B66CB66C1E91C320C
:100180008A67CA67840709D5C1F80031C1F804310C
:10019000C1E94232C1F81021C1F81421400709D544
:1001A000C1F89831C1F89C31C1E96832C1F8A82181
:1001B000C1F8AC2110BD2DE9F14F82B000210298A9
:1001C0008A468946806F00287DD000220020401C8E
:1001D0000428FCDB02984FF0000C00EBC203D3E9CB
:1001E0000010A1FB0167D3E9065400FB017701FB76
:1001F0000077CDE90067A646AE1B64EB0704AB466B
:100200000327A6FB075804FB078406FB0C44DDE923
:100210000067AD197C41A5FB016704FB017405FB78
:100220000045D3E90C47341B65EB0705CDE90045D4
:100230005D46A5FB05670324A6FB04580EFB0B7760
:100240000BFB0E7707FB048406FB0C44D3E9126317
:10025000761B63EB04034C18A4FB017C40EB000508
:1002600005FB01C504FB0055A7FB014C05FB01C5BF
:1002700007FB0055A4FB017C05FB01C504FB0054F2
:10028000F6196341DDE90045AD0045EA9475A40027
:10029000A4FB017C05FB01C104FB0014F01B73EB04
:1002A000040103D50023404263EB0101BAEB0004D3
:1002B00079EB010301DA82468946521C032A85DB69
:1002C0005046494600E010E002F03EFCA149896B2F
:1002D00002F043FA02F08CFC9D4AD2F80C2203B0E3
:1002E0009200BDE8F04F02F05DB9002003B0014676
:1002F000BDE8F08F2DE9F14F0020009A0146926F82
:10030000F2B300240022521C042AFCDB009A02EB08
:10031000C405AA46D5E90029A2FB023CD5E9067628
:100320009E46FB1A0325A3FB057809FB02CC02FBC2
:1003300009CB66EB0B0606FB05854FF0000C03FBB3
:100340000C5617EB0E03A3FB027C46EB0B0606FBD9
:1003500002C203FB0923DAE90C25BA1AAB4103D523
:100360000025524265EB0303851A71EB030501DAA0
:1003700010461946641C032CC4DB02F0E5FB00E0C8
:100380000EE07449896B02F0E8F902F031FC704A22
:10039000D2F80C22BDE8F84F02EB420202F002B99B
:1003A00000200146BDE8F88F2DE9FE43684D8046E8
:1003B0000024D5F810626F4605EBC4013246D1E93E
:1003C000020102F0D0F805EB8401B1F884100904B1
:1003D000401847F8240004F10104032CECDB5C48CE
:1003E0009821083002F017F90120FFF7BDFE95F8BB
:1003F000E8010199042807D1D5F81802B0F5201FAB
:1004000002DD052085F8E801524C0098636AC11AA4
:1004100001D40E4600E01E1A0198A26A801A01D487
:10042000074601E0019FD71BBE4206DD002901D42B
:10043000084606E00098181A03E0002801D5019844
:10044000101A029AE16A521A01D4134601E0029B83
:10045000CB1A834205DB002A01D4104601E0029842
:10046000081AD8F8241008F0E3FED5F818128142D3
:1004700006DD0321684609F0F7FA022009F04AFB7D
:10048000009860620198A0620298E062BDE8FE8375
:10049000304AC2E9020170472E4AC2E9060170479C
:1004A0002C4AC2E904017047294AD2F8E0310360BE
:1004B000D2E97402C1E900027047254AD2F8E0315E
:1004C0000360D2E97602C1E9000270472DE9FE47D8
:1004D00081460020EA468A6F22B901EB800339F990
:1004E0001020DA6701EB800239F91030D46F1D1B40
:1004F0004AF82050136E9D4200DD1566D36E9D4272
:1005000000DAD5660123002422464FEAE578A3FBF2
:10051000056704FB057403FB0844334602EB4206FF
:1005200001EBC60606EBC00CDCE90076FF1866415D
:10053000CCE90076521C042AE9DB401C0328CADB04
:10054000886F401C88670120C1F89000BDE8FE87D5
:10055000B0080020100B002030B5002302EB83050B
:1005600050F823405B1CEC66032BF7DBC2F88810C5
:10057000916F79B1002102EB810450F82130E56FD1
:100580005B1B00D55B42256E9D4200DA2366491C49
:100590000329F0DB906F401C90670120C2F89000A7
:1005A00030BD10B500210B4600EB8102491CD46E12
:1005B000D46713660329F7DBD0F8881040F8783F3A
:1005C000C0E9051310BDD0E92210081A7047014692
:1005D000D1E91802824200DB1046896E814200DBBD
:1005E000084670472DE9F0478046501E0126864098
:1005F0008946C2F12007404601F0D4FF04460D466B
:10060000404649463A4601F0AEFF3A4601F0CAFF7D
:10061000B04203DD641C45F1000505E071428842EB
:1006200002DA641E45F1FF3520462946BDE8F08711
:10063000F7490020086248628862C862086448641A
:100640008864C864086348638863C863086548654C
:100650008865C865704730B5EE4AD2F8483223B194
:10066000D2E990542D1A8C4101DAC2E990015B1C49
:10067000C2F8483230BD30B5E64AD2F8583223B11C
:10068000D2E994542D1A8C4101DAC2E994015B1C21
:10069000C2F8583230BD30B5DE4AD2F828322BB11C
:1006A000D2E98845041B71EB050401DAC2E988012F
:1006B0005B1CC2F8283230BD30B5D64AD2F8383289
:1006C0002BB1D2E98C45041B71EB050401DAC2E9B8
:1006D0008C015B1CC2F8383230BD2DE9F047024670
:1006E000CC48012508308046C36E016E046FC91ADC
:1006F000436E1B1B8B4200DB1946836ED8F87400D7
:10070000181A884200DB0146C14F6037F86B8842F7
:1007100004DA002400F00AFA204687E7108E01244C
:10072000BC4EC0054FF000010ED5D6F880303068C1
:10073000834209DBB2F87420D20506D5D6F8B02181
:10074000824201DB052400E00C4674B3600719D532
:10075000AF48C8388146FFF72EFD000D40EA013052
:100760000915C6E97601D7E904321B1A8A4102DA73
:100770000025FFF7A1FF9821484601F04CFF042017
:10078000FFF7F2FCE0070ED04046FFF714FDC6E984
:100790007C01D7E906340246181A8C4103DA002599
:1007A0001046FFF778FF284640E7FFE702203DE7C5
:1007B0001EB5044690F83000C0F38110032804D120
:1007C0009449201D0831FFF781FE94F87400C0F3AE
:1007D0008110032805D18E4904F14800C839FFF77C
:1007E00075FED4F8B8008B4AC0F38113A032694675
:1007F000032B0FD0C0F3411003281AD1002004EBC3
:100800008003D3F8A0309B1341F82030401C03280C
:10081000F5DB09E0002004EB4003B3F98C3041F82C
:100820002030401C0328F6DB6846D4F8C010FFF7E0
:1008300093FE1EBD2DE9F04705460020296BCA0531
:1008400067D501F05001402900D1012095F87410BE
:1008500001F05001402900D1012095F8B8106D4CED
:1008600001F05001402900D030B100F05FF90020C4
:10087000C4F8E00184F8E801654ED4F80812E86A8B
:100880006036814225D0C4F808020A28306B0ADAA3
:1008900040002060716B491CC4F80C1202F046F94C
:1008A0000BF068F804E02060706BC4F80C02B06BC9
:1008B000C4F81402D4F80C02C0F11000C4F81002FD
:1008C0004FF48040C4F8180296F83410192088407C
:1008D000F0632846FFF76CFF94F8E811DFF83491D5
:1008E00005274FF0020809F1A009072911D2DFE816
:1008F00001F0041127305E7E8500D4F8E001411C30
:10090000C4F8E0110A2804DB00F010F9012084F893
:10091000E80186E0D4F89800012810D12846FFF7B6
:10092000DCFE10B1012803D004E084F8E87101E096
:1009300084F8E8814846FFF734FEFFF779FE70E05F
:10094000032084F8E8012846FFF72EFD00F0EEF8BA
:1009500067E02846FFF7C1FEF0B3012861D1B5F882
:10096000B8004FF00403C00515D54846FFF72FFE29
:100970000146C017C4E97410D6E902C2BCEB0101FC
:10098000824102DA84F8E87108E04846FFF71BFE6E
:10099000316A884202D384F8E83124E0F4E9760130
:1009A000FFF769FED4E90601FFF755FE39E0B5F817
:1009B000B800C0050BD54846FFF709FE0146C01731
:1009C000C4E97410D6E90232591A824108DB28467C
:1009D000FFF783FE00B100E002E0012803D020E031
:1009E00084F8E8711DE02846FFF7DEFCD6E7062014
:1009F00084F8E801012009F08DF80DE02846FFF7A2
:100A00006CFE012801D038B10BE084F8E88108E0E1
:100A1000B00A0020B008002000F088F84846FFF730
:100A2000C0FD002002E610B500214010002802D0D1
:100A300001F10101F9DC454C4FF0010001F1010128
:100A400000FA01F0C4E90C0102F070F80AF092FF1C
:100A5000A06394F8341019208840E06310BD10B5ED
:100A60004FF418713A4801F0D6FD4021374801F0A3
:100A7000D2FD0720FFF778FB344840F2DC5100221A
:100A8000C0E906121421C0E902124FF41671C0E940
:100A9000041230492E4C01620120C4F8E4011920EF
:100AA000FFF7C1FF0020C4F8080210BD10B54FF4D5
:100AB0001871274801F0AFFD0720FFF755FB2448C8
:100AC00001210022C0F8E41180F8E811032101207F
:100AD00009F016F807226421AFF2A720BDE8104004
:100AE00008F02EBE10B5012009F014F8AFF2BB20BB
:100AF000BDE8104009F082B810B5FFF7B0FF00283C
:100B000005D1AFF25700BDE8104008F0A7BE10BDF8
:100B100010B5FFF7E7FFAFF26B00BDE8104009F03A
:100B20009BB80B49D1E97C0170477047084810B564
:100B30009821083001F06FFD9821074801F06BFD06
:100B4000BDE810400520FFF70FBB0000100B002090
:100B5000B00800200008AF2FE80900202DE9FC5F55
:100B60000D460026416B99469246B046002904DBAB
:100B7000D0F8BC00032800D10126FF492422081F19
:100B800001F022FDFC4FC03F0024C7F8E05007EB06
:100B90008400D0F8BC10404601F055FD641C80462E
:100BA0000A2CF4DBF54901F0D8FDF54C80464FF0F6
:100BB000C80BC7F8E400BAF1320F21DB4846C7F88A
:100BC0001CB101F0B3FF00900190EE49284601F0FE
:100BD000C4FD019901F08FFD214601F0BEFD0446E0
:100BE000BAF57A7F33DBE8492846009C01F0B5FD71
:100BF000214601F080FDE24901F0AFFD044626E008
:100C000041F2883199FBF1F04042D7F81C1100EB1A
:100C100080004018C7F81C0102D50020C7F81C014D
:100C2000484601F083FF8246D849284601F095FDE9
:100C3000514601F060FD214601F08FFD0446D7F8D2
:100C40001C0120B9D7F82801012800D10024D7F8C9
:100C5000200100B12C46CE49894500D12C4614F024
:100C6000FF4F11D04046C7F8E880414601F03DFDF6
:100C700020F00040C74902F04DF822D2D7F8B80062
:100C800010F0FF4F03D01CE0D7F8E800EDE7C6B145
:100C90004846C7F81CB101F06DFF04460E462846D1
:100CA00001F0E6FF0022BC4B01F0BAFE22463346BB
:100CB00001F044FE0022B94B01F0B2FE02F004F84C
:100CC00004462046BDE8FC9F2DE9F04FABB04FF045
:100CD000000AA94FCDF810A0C03FCDF814A0CDF860
:100CE00018A00446D7F82011022003297DD0002641
:100CF00020AD07EB8600D0F8A80001F017FF6FF0D9
:100D00001D0101F068FD45F82600761C042EF0DB7D
:100D10000FA807F095FE24A807F0E0FE964B24AA42
:100D2000183B0FA92046279300F0F4F9064604F17A
:100D3000180007F04FFF82099548D7F830318342F9
:100D400000DB034631462046FFF708FFBB4607F1AC
:100D5000B806D7F8EC1001F0CEFC30600BA807F015
:100D60006FFE13A90BA808F07DFC83480FAA3C3046
:100D70000BA9064608F0B1FA31460BA808F092FA22
:100D800000210DF13C080DF14C090DF1100E00226F
:100D90001346104601EB410C0CEB000759F8276095
:100DA00008EB8007401C7F680328C6FB0723F3DBA2
:100DB000900F40EA83004EF82100491C0329E6DB2E
:100DC000DBF820015F4600287DD05046CDF818A002
:100DD000404201F0ABFE6FF01D09494601F0FBFCFB
:100DE00006F0CCF8D046564600E074E0CDE9000AA3
:100DF0000698CDF808A0404201F098FE494601F05F
:100E0000EAFC0AF0F3FC0390D7F8300141F2883194
:100E100090FBF1F04FF0804A01F088FE2890299075
:100E2000069801F083FEDFF878B1594601F095FC91
:100E3000299901F092FC514601F08FFC01F0ABFEC4
:100E400040000690DDF8A0A001F070FE594601F0C8
:100E500052FC514601F04FFC01F09DFE069001F05E
:100E600065FE494601F0B7FC06F088F8CDE90706B3
:100E70000996069801F05AFE494601F0ACFC0AF0CA
:100E8000B5FC0A901CAA694620A808F07EFA6A46BA
:100E900007A91CA808F079FAD4F8BC00EA46002893
:100EA00010DD00261E215AF8260045F8260001F024
:100EB00092FC01F070FE07EB8601761CC1F8A800D9
:100EC000042EEFDB00E00BE0D4F8BC004FF0FF3560
:100ED00003280AD106E0C7F820012BB0BDE8F08F47
:100EE000069875E701F007FBF0B357F8A80F01F07B
:100EF0001DFE4E46494601F06EFC1C90786801F0DC
:100F000015FE314601F067FC1D90B86801F00EFE39
:100F1000314601F060FC1E90F86801F007FE314692
:100F200001F059FC1F90B86FA83F0028D5D0D7F822
:100F3000B8002946A83701F04EFC06F01FF81E2124
:100F400001F049FC01F027FEC7E90008C7F8088056
:100F50002946386901F03FFC0AF048FC1E2101F0E7
:100F60003AFC01F018FE00E01CE0F860D4F8C01074
:100F7000A83F279844E00000100C0020000020410A
:100F800000409C4500004843000048420000C84320
:100F900040420F000E2DB23D000079400088B34062
:100FA000E10237472946D7F8B80001F014FC05F0F4
:100FB000E5FFCDE90708CDF824802946D7F8B80029
:100FC00001F009FC0AF012FC0A906A4607A920A861
:100FD00008F0DBF9684608F096FA002556461E210F
:100FE00056F8250001F0F7FB01F0D5FD07EB850170
:100FF0006D1CC1F8A800042DF1DBD4F8C0102798AF
:1010000008F0D0FCD7F8200100288FD0401E62E7FE
:1010100070B590F8B810664ACC064FF000034FF058
:10102000030101D4C2E94813B0F82041E40509D412
:10103000048EE40503D5B0F87440E40502D4C2E997
:1010400048131AE0D2F8341139B1D0E93013C91A73
:101050004FF47A73B1FBF3F105E0D0F8B01044F629
:101060002064A14202DBC2F830110AE0D2F82C5110
:101070002944C2F82C11A14201DA002070BDC2E956
:101080004B31FFF721FEF8E710B54FF49C7148484B
:1010900001F0C1FA464C4FF080400021C4F8FC003A
:1010A00044F8A80F4248A83008F07CFC4FF47A704E
:1010B00060674FF07E50606410BD3D49C1F8EC00A0
:1010C000002070473A49C1F828010020704738498C
:1010D000C1F834010020704704224FF41671AFF2BA
:1010E000CF0008F02DBBAFF2D70008F087BD10B5D8
:1010F000FFF7CAFF2E490020C1F82801C1F83401CA
:10110000AFF22B00BDE8104008F0A8BBAFF23700EB
:1011100008F0A2BD2DE9FF470C46254915460746B4
:1011200099463C220C31224801F04EFA20495022C7
:101130005831A1F1100001F047FA1D4E95E8070063
:1011400006F13C031B4D83E807001ECC06F1980016
:1011500080E81E00D6F82401401CC6F824010628A9
:1011600002DD0620C6F82401C0F1060407F1A0083C
:1011700018E006EB04116A464846483108F0ADF81D
:1011800004EB440006EB80016A46404607F0DEFAB5
:10119000074625F0004120F0004001F0B1FD00D2EB
:1011A0003D46641C062CE4DB04B02846BDE8F0870D
:1011B000500B0020002474491FB5014610226846D8
:1011C00001F002FAF6489DE80E0080E80E00F549AD
:1011D0009DF80C0081F8B001002004B010BD1FB5CF
:1011E000EF490EC98DE80E00EE49102291F8B011BA
:1011F0008DF80C10694601F0E7F90020EDE72DE9C4
:10120000F04F91B000251821684601F004FA00243F
:10121000182106A801F0FFF9E249A046C14691F85D
:10122000C00101287ED1D1F8B8B1D1F8B4A1002213
:10123000C2EBC20000EB4001DA4800EB810E9EF8E1
:1012400050000F90002863D000215EE05EF821304E
:10125000DDE900676D1CD8170E939B197841CDE925
:1012600000300EEB8100EDB243690D93DDE9027CA5
:10127000DE17DB1946EB0C06CDE90236836ADDE9A1
:10128000047CDE170C93DB1946EB0C06CDE9043623
:10129000C06B0E9BDDE9067C83FB0063360C46EADF
:1012A0000346F6194CEB2343CDE906630D9BDDE9BC
:1012B000087C83FB00634FEA164646EA0346F619AC
:1012C0004CEB2343CDE908630C9BDDE90A7C83FBEF
:1012D00000634FEA164646EA0346F6194CEB2343F1
:1012E000CDE90A6380FB00634FEA164646EA0346EF
:1012F00016EB080849EB23490444584501DA8346B4
:1013000002E0504500DD8246491C0F9888429DDC72
:10131000521C052A8CDBA348AAEB0B01D0F8BC01B8
:10132000814200E053E052DBA5FB0872E017002683
:101330000F9006FB082005FB09000E9084FB0410AB
:10134000090C41EA00410014CDE90C0106A800EBAC
:10135000C601D1E90002A0FB05BC02FB05C20021C9
:1013600000FB012C684600EBC601D1E90002A0FB9E
:10137000043802FB04820F9900FB0120190C0CAA0F
:1013800041EA00494FEA204A92E80B0087EA01024D
:1013900083EA000852EA080212D07A1A63EB0003CB
:1013A000BBEB09006CEB0A0C4FEA0C4141EA10411F
:1013B000000401F0A7F87B4901EB8601C1F8A40104
:1013C000761C032EC2DB7748012180F8B01111B0E2
:1013D0000020BDE8F08FF8B5724D0E460446D5E901
:1013E0006D01091A052291FBF2F1301A90FBF1F020
:1013F000C0B28DF80000042801D92020F8BDC0EB50
:10140000C00000EB400005EB800191F8500005287A
:1014100016D0421C81F850209DF80010C1EBC1018C
:1014200001EB410105EB810202EB8001CE632368F1
:1014300042F8203060684861A06888620020F8BDEA
:1014400001F14003181F1022194601F0BDF89DF864
:1014500000001022C0EBC00000EB400005EB800054
:10146000011D01F0B1F89DF800001022C0EBC00092
:1014700000EB400005EB800000F11801143001F092
:10148000A3F89DF800001022C0EBC00000EB400064
:1014900005EB800000F12C01283001F095F80420C4
:1014A000BAE730B585B0044603A9684607F050FB9B
:1014B00004A807F003FC02282BD0D4F8E400039919
:1014C000401A384991F8B02112B308B3D1F8A421D9
:1014D000009C80FB0232150445EA1342224400922C
:1014E000D1F8A821019C80FB0232150445EA134281
:1014F00022440192D1F8AC11029A80FB011003043E
:1015000043EA1140104402900321684608F0ACFA07
:101510000CE0606B032809D107F030FB30B168465E
:101520000399FFF758FF08B9FFF769FE05B00020DF
:1015300030BD10B54FF4E2711A4801F06CF819484B
:101540001949C0F8B4114FF4AA01C0F8B8114FF40A
:10155000A021C0F8BC11012180F8C011002010BDED
:101560001049C1F8B801002070470E49C1F8B40114
:10157000002070470B49C1F8BC010020704758B1EA
:101580000849D1F8A4210260D1F8A8214260D1F81D
:10159000AC118160002070470520704724207047FF
:1015A0002C0E0020880C00200000D8FF20B12D490F
:1015B00081F8C0010020704724207047294B93F820
:1015C000B101002818D0D3E96D10401A052190FB15
:1015D000F1F00020C0EBC00101EB410103EB810100
:1015E00091F8502022B1002100E0491C8A42FCDC25
:1015F000401C0528EEDB00207047082296211A487F
:1016000008F09EB8184808F0F9BA10B5FFF791FF36
:101610004FF49A7310221549154808F0E9F820B9DB
:10162000AFF2290008F01AF908B1012010BD0D49E8
:10163000012081F8B101002010BD10B5094C94F8CB
:10164000B101002808D0084808F0D8FAAFF25500D8
:1016500008F002FB08B1012010BD002084F8B101A0
:1016600010BD0000880C0020A3140008DF11000842
:10167000B91100082DE9F043044699B01D46914682
:101680000E46806801F052FA014601F034F88046B7
:10169000606801F04BFA014601F02DF8074620681A
:1016A00001F044FA014601F026F8394600F0CBFF7C
:1016B000414600F0C8FF0AF05DF9074620F00040FF
:1016C0004FF08D4101F026FB7ED2306801F02EFAFA
:1016D0006FF01D08414601F07EF80490706801F03B
:1016E00025FA414601F077F80590B06801F01EFA3E
:1016F000414601F070F80690F06801F017FA414693
:1017000001F069F800260C960790206801F00EFAA7
:10171000394601F022F80D90606801F007FA394669
:1017200001F01BF80E90A06801F000FA394601F0B4
:1017300014F80F9010AA0CA904A807F026FE14A90B
:1017400004A807F0BBFD6A4614A910A807F01DFE07
:101750000199084600F0CFFF02990446084600F0C0
:10176000CAFF214600F06FFFFE49884201DAFE4CB5
:101770000BE0FE49884201DAFD4C06E0FD49884253
:1017800002DA4FF07A5400E0FB4C484601F0CEF903
:10179000FA4900F0E2FF214600F0ADFF044608964A
:1017A0002146029800F0A7FF09900198214680F099
:1017B000004000F0A0FFCDE90A066A4604A908A887
:1017C00007F0E3FD6A4600E025E004A9104607F0B3
:1017D00050FD684607F054FE1E21009800F0FBFF04
:1017E00001F0D9F928601E21019800F0F4FF01F002
:1017F000D2F968601E21029800F0EDFF01F0CBF9EC
:10180000A8601E21039800F0E6FF01F0C4F9E8602B
:1018100019B0BDE8F08396E80F0085E80F00F7E700
:101820002DE9F05F05460C46806801F07FF901461E
:1018300000F061FF0746686801F078F9014600F0A2
:101840005AFF0646286801F071F9014600F053FF7F
:10185000314600F0F8FE394600F0F5FE0AF08AF84D
:101860004FF07E59002706464FF08048484505DC7A
:10187000C4E90087A760E760BDE8F09FA86801F0B1
:1018800055F9314600F069FF82460146484600F0AE
:101890002CFF4FF40006B04200DA00204FF0FF3179
:1018A00000F099FF0AF066F883464946504600F07A
:1018B000CAFEB04200DA00204FF0FF3100F08BFF8B
:1018C0000AF058F88246686801F030F9014600F0E5
:1018D00012FF0646286801F029F9014600F00BFFC7
:1018E000314600F0B0FE0AF045F806464845BFDD37
:1018F0001E21504600F06FFF01F04DF9206068682E
:1019000001F014F9314600F028FF594600F0F3FECB
:101910001E2100F060FF01F03EF96060286801F0D0
:1019200005F9314600F019FF594600F0E4FE9449EC
:1019300000F0E1FE01F02FF9C4E902079CE72DE970
:10194000F04105460C46C06801F0F0F8014600F091
:10195000D2FE8046A86801F0E9F8014600F0CBFE0F
:101960000746686801F0E2F8014600F0C4FE06464A
:10197000286801F0DBF8014600F0BDFE314600F0BA
:1019800062FE394600F05FFE414600F05CFEB0F5B5
:10199000000F06DA4FF08040206000206060A060F9
:1019A0002DE009F0E7FF01464FF07E5000F0D5FE34
:1019B0001E2100F010FF0646286801F0B7F83146F6
:1019C00000F099FE01F0E7F82060686801F0AEF8D9
:1019D000314600F090FE01F0DEF86060A86801F08A
:1019E000A5F8314600F087FE01F0D5F8A060E86860
:1019F00001F09CF8314600F07EFE01F0CCF8E0608A
:101A0000BDE8F08170B5044690F8300088B040061B
:101A100076D5A069002801DB014600E041424FF481
:101A200080320026574D91420BDAE169002900DA35
:101A30004942914205DA216A002900DA494291427D
:101A400060DB002800DA40424FF4C80188420BDC1A
:101A5000E069002800DA4042884205DC206A00285C
:101A600000DA4042884201DD032000E00220A86342
:101A7000696BA06A814219D06863A06A01F056F8C8
:101A8000414900F06AFE1D2100F0A5FE01F0F0F8CA
:101A90003E4A3F4B00F052FF082201F030F800228E
:101AA0003C4B00F0BDFF01F0C4F828630496296B9D
:101AB000A06907F0BDFB0590296BE06907F0B8FB52
:101AC0000690296B206A07F0B3FB07906A4604A9C9
:101AD0002C4807F002FC00982A4A800100900198E7
:101AE000694680010190029880010290039880016C
:101AF0000390104607F0ABFB22490846FFF71FFF93
:101B000008B070BDAE63FBE72DE9F0430446D0F8A2
:101B100020018FB041067CD51A4DD4F810111E4B10
:101B20002A68891AD4F82C215A438A4201DA0321FF
:101B300000E00221A963810504F58870804601D583
:101B40001049D4E0002104A807F002F80D490C2246
:101B50003C3104A800F06AFD08BBD4F82801A96D47
:101B600088421BE017B75139A69BC43B0AD7233CD8
:101B70008FC2753DCDCC4C3ECDCCCC3E0014CD4774
:101B8000000080CE4C0E002000247449112D4454D6
:101B9000FB2109400080664071981C007ED020889F
:101BA00007AB80B204AA616A06F022FE099800F031
:101BB000BDFF014600F09FFD0746089800F0B6FF04
:101BC000014600F098FD0646079800F0AFFF014679
:101BD00000F091FD314600F036FD394600F033FD4E
:101BE00009F0C8FE0646E84900F085FDE74900F027
:101BF000B4FD6FF00F0100F0EEFD0746D4F82801A8
:101C000000F094FF394600F076FDE14900F0A5FDB3
:101C100000E06EE04FF0FF3100F0DDFD074605F01B
:101C2000ADF98146384609F0E1FD07464FF08040A6
:101C3000864204DAA8640020E864286533E01E21A7
:101C4000484600F0C8FD00F0A6FFA864079800F021
:101C50006DFF8146CF49384600F04DFD07464946A5
:101C600000F049FD314600F078FD00F094FFE86493
:101C7000089800F05BFF0146384600F03CFD314615
:101C800000F06BFD00F087FF2865099800F04EFF1B
:101C90000146384600F02FFD314600E00EE000F02E
:101CA0005CFD00F078FF04AB686593E8070005F180
:101CB0003C0383E80700D4F82801A8656A46B649C2
:101CC000404607F00AFBB4480AAA143069460446A5
:101CD00007F003FB2146404607F0E4FAAE486A46A7
:101CE0000AA9483807F0F9FAAB4968464839FFF7BE
:101CF00026FE0FB08DE51FB50446A7486946483853
:101D000007F0D0FAA44A6946283A204607F0E5FAD7
:101D1000A1491DCC383981E81D001FBD2DE9F047D0
:101D20009D4E0446483E90F8740006F15C0A06F1A8
:101D30002008012500F05001103692B004F5887992
:101D400004F15C07402906D094F8200100F050000F
:101D500040280DD01EE031463846FFF761FDB4F84B
:101D60002001C0050CD55146484607F09BFA07E014
:101D70005146484607F096FAB4F87400C00509D5F4
:101D800085486946483807F08DFA4246694630462C
:101D900007F0A3FAB4F82001C005204602D5FFF7EA
:101DA000B3FE01E0FFF72EFE7B493246483940463C
:101DB00007F093FA94F87400400671D5208EB4F8B9
:101DC00020110843C00578D50FAA3946304607F0E0
:101DD00022FCD4E9172080FB0001C2FB0201626EE5
:101DE0006D4FC2FB0201483F4FF08042801A71F1F3
:101DF000020014DB04A806F01DFFDDE9042080FBCF
:101E00000001C2FB0201069AC2FB02014FF08042B0
:101E1000801A71F1020002DB0420B8630BE0B86B9A
:101E2000042808D041F28832022806D0032804D0C2
:101E300001283AD009E0002507E0E16E91FBF2F5B8
:101E4000012D00DA0125032800D0AD0053480024FD
:101E50004543109807948002294607F0E9F9089055
:101E60000F9829464042800207F0E2F9CDE90904C3
:101E70000BAA314607A807F030FA32460BA91046E4
:101E800007F0E5F931460846FFF759FD4248694633
:101E9000483807F007FA42466946304607F01DFA0F
:101EA00012B00020BDE8F08707E0E06E90FBF2F092
:101EB000012800DA01204500C7E7334619463846B5
:101EC000E26EFFF7D7FBE1E770B50446008EC1056F
:101ED000D4F8200107D4B4F87410C90503D4C1059F
:101EE00001D4002070BDC0F30120032808D0204693
:101EF000FFF714FF2848A16B383807F06DFEF0E7B4
:101F000004F5887124482EC9383880E82E00F1E79E
:101F1000234807F073BE204810B56C21483800F004
:101F20007AFB1D484FF08041483801610160016231
:101F3000C163C165002010BD1D4810B5082219A15C
:101F4000006800F073FB08B1322010BD1322BDE819
:101F50001040C821124807F0F3BB10B5FFF7DBFFB4
:101F6000002805D1AFF22F00BDE8104007F076BC85
:101F700010BD10B50A4807F041FEAFF24300BDE8BE
:101F8000104007F069BE0000DB0F494000003443F9
:101F900000247449000080CE940E0020A69BC4004B
:101FA000C91E0008654D504C20352E310000000040
:101FB0000C000020002803DDFE490122C1E92002B7
:101FC0000020704710B5B821FA4800F024FBF9480A
:101FD000F949C160F9498160F9490160F9494160F5
:101FE0004FF0804141664FF4FA61C167F649C0F88D
:101FF0009C10002010BD2DE9F041EE4C0E46074626
:102000000025216800F086FE11D33846616800F093
:1020100077FE0CD32069012813D13046E16800F027
:1020200079FE04D33046A16800F06AFE09D2606FE1
:1020300020B9E048A16D183007F0B4FC0120C4E9D4
:102040001D05D4E91E01884204DB606F012800D120
:10205000E5656567BDE8F08170B50C46054606F09C
:10206000FDFCD44A002110B9D848854202DD116137
:10207000516102E01069002808D150692044506184
:10208000B0F5FA7F02DD0120C2E9040170BDF0B5B0
:102090008DB00D4614460646694607F0E3FA09AAD4
:1020A0003146284607F019F92946304607F0FAF874
:1020B0000021EC460DF1240E00231A46184601EBD0
:1020C00041073D180EEB80065CF825507668401CF1
:1020D000C5FB06320328F4DB980F40EA820044F87F
:1020E0002100491C0329E7DB0DB0F0BDB1490020F8
:1020F000C1F88C00704770B50446806800F016FD8A
:10210000014600F0F8FA0546606800F00FFD014650
:1021100000F0F1FA0646206800F008FD014600F0E4
:10212000EAFA314600F08FFA294600F08CFA09F0FD
:1021300021FCBDE870406FF00F0100F04CBB70B5A2
:102140000E4600259B4C012130B101280CD0C4F86B
:10215000981044F88C5F29E0C4F8A060C4E92965B0
:10216000E4E92415A56070BD3046D4F8A01000F055
:10217000BCFA20F00040D4F89C1000F0C1FD13D24E
:1021800054F8945F31466D1C2560206900F05BFABD
:102190002061943C312DE6DD022144F8901F8C49EA
:1021A00000F0DBFAA06170BD44F8905F656070BD1F
:1021B0002DE9FF4F8BB000267E4C05460396049612
:1021C0000596D4F888009346374600287ED006F05E
:1021D000E3FC10B103A806F0ABFCD4F88000A146E4
:1021E000002819DD01204C46C9F8840006F0D4FC13
:1021F00048B103A806F0EEFC8009B0F5C87F02D212
:10220000D4F8800004E0D4F88000401BC4F88000BB
:10221000002801DCC4F8847006F04CFF002855D07B
:1022200000240E9850F8240000F080FC82465BF8F1
:10223000240000F07BFC6FF00F08414600F0CBFA61
:10224000514600F058FA414600F0C5FA314600F018
:10225000FAF9641C0646032CE3DB5846FFF74BFFF4
:1022600001460690304600F078FA4FF07E58DFF8CD
:1022700064A1404501DD404602E0504500D950468A
:1022800004F088FC8346D9F88C004E4670B1316862
:10229000069800F035FD09D27168069800F03AFD05
:1022A00004D25946D6F89000FFF749FF684606F079
:1022B000E1FC40490C22AC31684600F0B7F918B98E
:1022C000D6F8980001286CD13A4800E0C6E09DE8B5
:1022D0000E00AC3080E80E00009818B9019808B9DB
:1022E000029858B36846FFF706FF044610F0FF4F08
:1022F00057D0DFF8E4902046494600F0F6F9014651
:1023000000F0F9F909F036FB70604946204600F00C
:102310009AF9014600F0EFF909F02CFB30600298C1
:1023200000F004FC6FF00F0100F055FA214600F0B8
:1023300014FA044640451FDD444620E02048306042
:1023400020487060D6F89800012804D01B48B0607F
:102350001948F06025E0D6F89C80D6F8A8404146A0
:10236000204600F0C2F9B0604146204600F06BF90B
:10237000C6F89870F06014E0544500D954462046E1
:1023800004F008FCD6F89C1000F0AFF9B0602046CD
:1023900004F000FCD6F89C1000F055F9C6F88C70DB
:1023A000F060DFF81080F16D08F1580801BB0120E2
:1023B000002413E0B80E00200000B4420000B4C2B4
:1023C000000070420000F0417B142E3E00401C468D
:1023D00000004842000080BF00002041F06506EB8D
:1023E00004104146183006F065FB641C042CF6DB33
:1023F000434907AA0C460C98FFF749FE21460C9862
:1024000006F050FF03A806F0E5FB00F098FB6FF024
:10241000050100F0E0F92946FFF71EFE594606982F
:10242000FFF7E9FDD6E91E01884201DA2844B067CA
:10243000706F90B9306E28443066B0F57A7F0CDD4D
:102440002F4930223C39A1F11000376600F0BCF86A
:102450002B4841461C3806F02DFB706F0FB0BDE8CD
:10246000F08F70B588B0044604A806F037FBD4E9B5
:102470003001451A684606F0E3FA064604AB04F15B
:10248000A00269462846FFF793FE07F09DFA08B0C0
:10249000304670BD04224FF49671AFF2390007F058
:1024A0004FB9AFF2410007F0A9BB10B5FFF78AFDA5
:1024B00000280DD1124800216438C0F88C10012189
:1024C000C0F88810AFF23300BDE8104007F0C6B97D
:1024D00010BD10B5AFF2750007F090FBAFF27D00B4
:1024E000BDE8104007F08ABB054901206439C1F8F6
:1024F0008C000020704702486438406F704700002D
:102500001C0F00202DE9F0410024061B254671F127
:10251000000605DA01240027D0EB070067EB010174
:10252000161E73F1000605DA0027D2EB070201251B
:1025300067EB030300F00EFC86460E4617469C46EA
:10254000AC4204D00025D0EB050E65EB010624B1AA
:102550000020D2EB000760EB030C704631463A4690
:102560006346BDE8F081202A04DB203A00FA02F13C
:10257000002070479140C2F1200320FA03F3194371
:1025800090407047202A04DB203A21FA02F0002113
:10259000704721FA02F3D040C2F120029140084373
:1025A00019467047202A06DBCB17203A41FA02F081
:1025B00043EAE07306E041FA02F3D040C2F12002A0
:1025C000914008431946704710B5431A934209D207
:1025D0008318881803E010F8011D03F8011D521E2E
:1025E000F9D210BD40EA01039B0703D009E008C9F6
:1025F000121F08C0042AFAD203E011F8013B00F8C8
:10260000013B521EF9D210BDD2B201E000F8012BFD
:10261000491EFBD270470022F6E710B513460A4662
:1026200004461946FFF7F0FF204610BD30B50446BA
:102630000020034600E05B1C934203D2E05CCD5CCB
:10264000401BF8D030BDF0B480EA0102D40F420044
:10265000B2EB410F02D20246084611464A0042D070
:10266000C30DDDB2C1F3C752AD1A202D35DAC1F367
:10267000160141F4000204B15242C5F1200602FAEB
:1026800006F12A411044B3EBD05F23D0C4B1012D31
:10269000A0EBC35009DCF0BC4FF0004202EAC35289
:1026A000DBB200F5000000F08FBB400000F180704D
:1026B00000EBC350A0F1807040EAD170490009E0FE
:1026C000490841EAC071A0EBC35000F50000400882
:1026D00000EBC350F0BC00F06EBB6142012202EB84
:1026E0004101001BF6E7F0BC704781F00041AAE70A
:1026F00080F00040A7E780EA010210B502F0004335
:10270000400022D04A001FD0010E01EB1261C0F33D
:102710005600C2F3560240F4000042F40002A0FB4F
:10272000022000047F39140400D0401C50EA1240FB
:1027300001D44000491EC2B20C0604EBD010401C6C
:102740004008802A02D003E0002010BD20F00100E4
:10275000002900DA0020184310BD30B480EA0102DD
:1027600002F0004530F0004221F0004013D090B15B
:10277000C30DD40DC2F31601C0F31600E41A41F4E0
:10278000000140F400027D34914201D3641C00E05A
:102790004900002C02DA30BC002070474FF40000E2
:1027A0000023914201D3891A034340084FEA4101B3
:1027B000F7D151B1914202D14FF0004105E002D270
:1027C0004FF0010101E06FF0010103EBC450284418
:1027D00030BC00F0F0BA420005D0C0F3C7525242FC
:1027E000914201DC0020704700EBC15070472DE999
:1027F000FE4F804681EA0300C00F0C46009021F096
:10280000004123F00045B8EB0200A94105D2404643
:10281000214690461C460B46024623F000401043DA
:1028200047D0270DC7F30A00C3F30A510290401A9C
:10283000019040286BDAC3F3130040F4801B00982A
:10284000924620B10023D2EB030A63EB0B0B0198F5
:102850005946C0F140025046FFF785FE06460D4638
:1028600050465946019AFFF79DFE10EB0800614162
:10287000002487EA115284EAE7731A4340D0009A91
:1028800062B3019A012A4FEA075215DC001B61EB83
:1028900002014FF0004202EA0752CDE90042001C5B
:1028A00041F5801132462B4600F018FB03B0BDE81D
:1028B000F08F40462146F9E7001B61EB0201001C46
:1028C00041F5801300185B412018A2F5001747EB73
:1028D000030140EAD570B6196D4111E06D084FEA69
:1028E000360645EAC0754FEA0752001B61EB02014C
:1028F000001C41F5801149084FEA30000019514190
:1029000032462B4603B0BDE8F04F00F0D8BA00982D
:10291000012240000023D0EB020263EBE073009839
:1029200021464FEAE074B8EB000061EB0401E9E7EF
:1029300083F000435BE781F0004158E72DE9FE4F4B
:1029400081EA030404F0004421F0004100944FF0B8
:10295000000B23F0004350EA01045ED052EA030466
:102960005BD0C3F30A54C1F30A552C44A4F2F334E8
:102970000194A0FB0254C1F3130141F48011C3F38D
:10298000130343F4801301FB024400FB034E840A4B
:10299000970A44EA815447EA8357A4FB07680295E3
:1029A0008D0A05FB07854FEA932C04FB0C54270581
:1029B000029D4FEA065847EA1637B5EB08056EEB5D
:1029C000070C870E920E47EA811742EA8312A7FB93
:1029D0000201B6EB0B0164EB00042B0D43EA0C3350
:1029E0005E1844EB1C50DA465146E7FB0201C5F382
:1029F00013044FEA0B3343EA14534FEA0432019CA9
:102A000043EA0603A4F10C040294009CCDE900B44F
:102A100000F064FA03B0BDE8F08F00200146F9E74A
:102A20002DE9F04D81EA030404F0004B21F000454C
:102A300014464FF0000A23F0004150EA050220D06E
:102A400054EA01021DD0C5F30A570246C5F3130329
:102A5000C1F31300C1F30A5640F4801543F4801308
:102A6000A7EB0608101BD64608F2FD3873EB0500ED
:102A700002D308F1010801E092185B41B8F1000FA0
:102A800003DA00200146BDE8F08D00204FF48011EC
:102A9000064684460EE0171B73EB050705D3121B91
:102AA00063EB050306434CEA010C49084FEA30008A
:102AB00092185B4150EA0107EDD152EA030012D0AF
:102AC00082EA040083EA0501084305D0101BAB41EC
:102AD00006D20122002306E000224FF0004302E06C
:102AE0006FF0010253101AEB06004CEB085110EB8B
:102AF0000A0041EB0B01BDE8F04D00F0E0B970B504
:102B000021F0004303430CD0C1F30A550024D5EB58
:102B1000040564EB0403D617AD1AB34102DB0020B1
:102B2000014670BD201841EB025170BDC10F80EA13
:102B3000E0700844CA079623002100F045B99623A7
:102B40000022114600F040B9F0B4CA17CB0F504034
:102B50005140C61841F100054FEAC37231462800C2
:102B60004FF0960303D0B623F0BC00F02DB93046E9
:102B70000021F9E70EB5C10F80EAE0700844CA07EA
:102B8000002140F233438DE80E000A460B4600F068
:102B9000A5F903B000BD00F0004220F00040C10DD7
:102BA000C0F3160040F400007F2901DA00207047CE
:102BB000962903DCC1F19601C84001E096398840AE
:102BC000002AF4D04042704720F00040C10DC0F30D
:102BD000160040F400007F2901DA00207047962992
:102BE00003DCC1F19601C8407047963988407047B0
:102BF00010B500F0004420F00040C20DC0F31600F4
:102C000040F400007F2A02DA0020014610BD0021B6
:102C1000962A03DCC2F19602D04002E0963AFFF712
:102C2000A2FC002CF2D00023D0EB030063EB0101E7
:102C300010BD70B5C1F30A5201F000450024C1F384
:102C4000130140F2FF3341F480119A4201DA00206F
:102C500070BD40F233439A42A2F2334203DC524247
:102C6000FFF790FC00E090402C43F1D0404270BD53
:102C700000F0004230F000400AD0C10D01F5607153
:102C8000C0F3160042EA0151C208400711437047E1
:102C9000002001467047000030B5041E71F10004A9
:102CA00004DB4FF00044404264EB0101141E73F159
:102CB000000405DB1C464FF00043524263EB040363
:102CC000994208BF904230BD01F0004330B421F07A
:102CD000004150EA010206D00A0DA2F56072C1F36C
:102CE0001301002A02DC30BC00207047440F44EA84
:102CF000C104C100E01830BC00EBC25000F05BB86A
:102D0000002801DBC0F10040002901DBC1F10041D6
:102D100081427047002801DBC0F10040002901DB3F
:102D2000C1F100418842704730B50B460146002092
:102D30002022012409E021FA02F59D4205D303FA7D
:102D400002F5491B04FA02F52844151EA2F10102FE
:102D5000F1DC30BD2DE9F05F0546002092469B4630
:102D600088460646814640241BE0284641464746A1
:102D70002246FFF707FC53465A46C01A914110D32A
:102D8000114618462246FFF7EEFB2D1A67EB0108A5
:102D90004F46224601200021FFF7E5FB17EB000913
:102DA0004E41201EA4F10104DFDC484631462A468C
:102DB0004346BDE8F09F0029A8BF7047401C49006A
:102DC00008BF20F00100704710B4B0FA80FC00FA90
:102DD0000CF050EA010404BF10BC704749B1CCF1BB
:102DE000200421FA04F411FA0CF118BF0121214347
:102DF0000843A3EB0C01CB1D4FEA00614FEA102002
:102E000042BF002010BC704700EBC35010440029A3
:102E1000A4BF10BC7047401C490008BF20F001004F
:102E200010BC7047F0B4002802DCF0BC00207047F2
:102E3000C0F3C751C0F3160040F40000CA0701D127
:102E40004000491E3F2202EB6105002211464FF46B
:102E5000000626FA01F31344D418844201D8001B5B
:102E60001A464000491C1729F3DD5100814202D265
:102E70004FF0FF3100E0002102EBC550F0BCFFF73E
:102E80009ABF10B541000CD0C0F3C751962908DC99
:102E90007E2909DC06DB410204D000F0004040F04E
:102EA0007E5010BD002010BDC1F19604C4F1200178
:102EB00000FA01F1E040FFF77EFFA04010BD10B521
:102EC000141E73F1000408DA401C41F1000192184D
:102ED0005B411A4301D120F0010010BD2DE9F04DF6
:102EE00092469B4611B1B1FA81F202E0B0FA80F24B
:102EF00020329046FFF737FB04460F4640EA0A00AF
:102F000041EA0B0153465A46084313D0114653EA8F
:102F1000010019D0C8F140025046FFF733FB0546C7
:102F20000E46504659464246FFF71DFB084305D062
:102F3000012004E020463946BDE8F08D002005431D
:102F400046EAE0762C4337430A986305E40AA0EB8F
:102F500008000022FD0A44EA47540A3002D5002046
:102F60000146E9E7010510196941DDE90845001945
:102F70006941BDE8F04DA2E7C1F30A52C1F3130164
:102F800040F2FF3341F480119A4202DA00200146F8
:102F9000704740F233439A42A2F2334202DC52427B
:102FA000FFF7F0BAFFF7DFBA064C074D06E0E0681E
:102FB00040F0010394E8070098471034AC42F6D380
:102FC000FDF7BAF824DF000844DF000838B502F046
:102FD000E7FA02F037FA0E4C60606068A0F5A901CC
:102FE000663904D06068A0F50041663901D102F06D
:102FF0004EF800204FF4F0734FF4A0720146009099
:1030000002F0C7F8142000F0ABFC606838BD000087
:1030100024000020FEE700000148806D00F088B920
:10302000D80000202DE9F0418EB080460B461746AF
:1030300000240025AA2101208DF800108DF8011030
:103040008DF8020000208DF80300304E18463146FE
:10305000FFF751FBFFF79FFD0D909DF835008DF8B0
:1030600004009DF834008DF8050031464046FFF716
:1030700042FBFFF790FD40420D909DF835008DF822
:1030800006009DF834008DF8070031463846FFF7FA
:1030900032FBFFF780FD0D909DF835008DF808009C
:1030A0009DF834008DF8090000200D909DF8370040
:1030B0008DF80A009DF836008DF80B009DF835005C
:1030C0008DF80C009DF834008DF80D00A0210F2024
:1030D0008DF80E100B218DF803106E4604E0315D63
:1030E0002944CDB2641CE4B28442F8D3411CCFB26F
:1030F0003554002404E0305D08F0A4FC641CE4B204
:10310000BC42F8D30EB0BDE8F08100000000C84218
:10311000FEE74FF4004000F0BBBC000070B5B3F513
:10312000804F05D06FF0704140F82210002070BD34
:103130008C690B68F025234395FAA5F54C68B5FA20
:1031400085F5AC404FF47F4696FAA6F68D68B6FA40
:1031500086F6B5402C4323434FF47024C96894FA93
:10316000A4F4B4FA84F4A1400B4350F82210034CA9
:1031700021400B4340F82230D8E700000000F0CF98
:1031800030B50A6850F8223023F0010340F82230AD
:103190008A68214C082A1ED04B681343D1E90325C5
:1031A0002A4313434A6913438A691343CA69134381
:1031B0000A6A13434A6A13438A6A1343CA6A134367
:1031C0000A6B0968134350F821202240134340F84A
:1031D0002130002030BDD1E903354A682B4342F04D
:1031E00008021A434B691A438B691A43CB691A4385
:1031F0000B6A1A434B6A1A438B6A1A43CB6A1A4307
:103200000B6B09681A4350F8213023401A4342F0EF
:10321000400240F82120DCE78100F7FF70B5F0257F
:10322000D1E9003495FAA5F5B5FA85F5AC4023430C
:103230004FF47F4595FAA5F58C68B5FA85F5AC4055
:103240004FF4702696FAA6F6CD68B6FA86F6B54023
:103250002C4323430C694FF4700595FAA5F5641EC1
:10326000B5FA85F5AC4023434C694FF0706595FA8B
:10327000A5F5A41EB5FA85F5AC40896923430B4337
:10328000521C50F8221001F040410B4340F822300C
:10329000002070BD2DE9F04104460D461746204E32
:1032A0003078002803D002F0AFF9002030702B787E
:1032B0006978102F18D0A13BC3EB031000EB43102B
:1032C00001EB4001A13901EBC1008101C81701EBFD
:1032D0005070C110482201F59621204602F0C8F92D
:1032E0002078FF2814D016E0A13BC3EB031000EBBD
:1032F000431001EB4000A1380102C81701EB5070E8
:10330000C110202201F52041204602F0B1F9E7E783
:103310006078FF2802D00120BDE8F0810020FBE7A3
:10332000240000200148008870470000340000207D
:103330002DE9F05F0446F94AF84DF84EF74FD114E5
:10334000DFF8D883DFF8D493DFF8D0A320680B022E
:10335000783D643E503FDFF8C8B34FF4004EA8F10B
:103360003C08A9F12809AAF1140A904236D9EC4A7E
:10337000083AD2F800C0A84201D108222BE0B0429E
:1033800001D1802227E0B84201D10A4623E040451E
:1033900001D172461FE0484501D11A461BE0504555
:1033A00002D14FF4000216E0584501D1082212E084
:1033B000DB4A1432904201D180220CE0D84A2832F4
:1033C000904201D10A4606E0D54A3C32904201D1F2
:1033D000724600E01A460CEA020C3AE0CF4A803A04
:1033E000D2F800C0A84201D1082230E0B04201D199
:1033F00080222CE0B84201D10A4628E0404501D1A4
:10340000724624E0484501D11A4620E0504502D1D9
:103410004FF400021BE0C14A904201D1020516E0C0
:10342000584501D1082212E0BD4A1432904201D120
:1034300080220CE0BA4A2832904201D10A4606E0C6
:10344000B74A3C32904201D1724600E01A460CEA7B
:10345000020CBCF1000F7FD00268D24312077BD46C
:10346000026822F008020260AC4A206890422FD91C
:10347000A84201D1082127E0B04201D1802123E0F8
:10348000B84221D0404501D171461DE0484501D1E7
:10349000194619E0504502D14FF4000114E0584597
:1034A00001D1082110E09E4A1432904201D18021BE
:1034B0000AE09B4A2832904206D099493C31884222
:1034C00001D1714600E019469548001F016033E0C4
:1034D000A84201D108212CE0B04201D1802128E08E
:1034E000B84226D0404501D1714622E0484501D17D
:1034F00019461EE0504502D14FF4000119E09042F8
:1035000002D14FF0006114E0584501D1082110E0CC
:10351000834A1432904201D180210AE0804A283245
:10352000904206D07E493C31884201D1714600E08C
:1035300019467A4880384160606B40F00100606352
:10354000042084F82100002084F82000216B09B1B8
:10355000204600E000E08847704A206811150B0102
:103560004FF4802E904236D96D4A083AD2F800C006
:10357000A84201D104222BE0B04201D1402227E031
:10358000B84201D10A4623E0404501D11A461FE066
:10359000484501D172461BE0504502D14FF48002EC
:1035A00016E0584501D1042212E05D4A14329042DF
:1035B00001D140220CE05A4A2832904201D10A46F9
:1035C00006E0574A3C32904201D11A4600E072466A
:1035D0000CEA020C3AE0514A803AD2F800C0A84204
:1035E00001D1042230E0B04201D140222CE0B842A7
:1035F00001D10A4628E0404501D11A4624E0484559
:1036000001D1724620E0504502D14FF480021BE008
:10361000424A904201D1C20416E0584501D1042229
:1036200012E03F4A1432904201D140220CE03C4A61
:103630002832904201D10A4606E0394A3C32904293
:1036400001D11A4600E072460CEA020CBCF1000FF0
:103650007CD00268D243520778D40268920603D421
:10366000026822F0040202602C4A206890422FD99E
:10367000A84201D1042127E0B04201D1402123E03A
:10368000B84221D0404501D119461DE0484501D13D
:10369000714619E0504502D14FF4800114E05845BD
:1036A00001D1042110E01E4A1432904201D1402180
:1036B0000AE01B4A2832904206D019493C31884220
:1036C00001D1194600E071461548001F016036E03F
:1036D000A84201D1042130E0B04201D140212CE0C8
:1036E000B8422AD0404501D1194626E0484501D1CB
:1036F000714622E0504502D14FF480011DE0904216
:1037000002D14FF0806118E0584501D1042114E046
:10371000034A1432904206D140210EE0800002405C
:103720000804024012E08C4A904206D08A491431C3
:10373000884201D1194600E0714688484160112055
:1037400084F82100E16A09B120468847DFF80CC2FD
:103750004FF4007120680CF1800C0B01604537D9E3
:103760007D4A303AD2F800E0A84201D102222CE092
:10377000B04201D1202228E0B84201D10A4624E01B
:10378000404501D11A4620E0484502D14FF40032AD
:103790001BE0504502D14FF4001216E0584501D10C
:1037A000022212E06C4A143A904201D120220CE02D
:1037B000694A904201D10A4607E0674A14329042B2
:1037C00001D11A4601E04FF400320EEA020E3AE04F
:1037D000624AD2F800E0A84201D1022231E0B042B0
:1037E00001D120222DE0B84201D10A4629E040450E
:1037F00001D11A4625E0484502D14FF4003220E0BD
:10380000504502D14FF400121BE0604502D14FF049
:10381000007216E0584501D1022212E04E4A143AD5
:10382000904201D120220CE04B4A904201D10A463D
:1038300007E0494A1432904201D11A4601E04FF4A0
:1038400000320EEA020EBEF1000F6ED00268D243C3
:1038500092077ED40268920603D4026822F0020224
:1038600002602068604530D9A84201D1022128E0D9
:10387000B04201D1202124E0B84222D0404501D1FC
:1038800019461EE0484502D14FF4003119E0504579
:1038900002D14FF4001114E0584501D1022110E08B
:1038A0002D4A143A904201D120210AE02A4A90423E
:1038B00007D029491431884201D1194601E04FF45B
:1038C000003125482C38016034E0A84201D10221A2
:1038D0002EE0B04201D120212AE0B84228D0404554
:1038E00001D1194624E0484502D14FF400311FE0D0
:1038F000504502D14FF400111AE0604502D14FF05B
:10390000007115E0584501D1022111E0124A143A24
:10391000904201D120210BE00F4A904208D00E497D
:103920001431884202D1194602E012E04FF400310E
:103930000A484160606B6063012084F82100002028
:1039400084F82000A16A002903D02046BDE8F05F7A
:103950000847BDE8F09F000030040240000002402C
:1039600031B500F0B7F9044600F0B4F90099001B36
:103970008842F9D338BD0000F0B585B03848816879
:1039800000296BD1012686603648816941F4807137
:103990008161816901F480710091816941F0800148
:1039A0008161816901F080010091816941F08001AC
:1039B0008161816901F080010091816941F080019C
:1039C0008161816901F080010091816941F04001CC
:1039D0008161816901F040010091816941F020011C
:1039E0008161816901F020010091416941F4807198
:1039F0004161406900F480700090019602240294B5
:103A000003250495184F01A9384600F04DF8E0024F
:103A100001900294049501A9144800F045F84FF66E
:103A2000807001900294049501A9114800F03CF8BF
:103A30004CF2337001900294049501A90D4800F0F6
:103A400033F8650200222946384600F03CF901951A
:103A50000296049401A9384600F026F805B0F0BD9E
:103A60002400002000100240001C01400020014002
:103A7000001801400014014000B54FF4004290428C
:103A800003D104F091FB0148026000BD1404014021
:103A900010B504490A68024202D00860FFF7ECFF43
:103AA00010BD0000140401402DE9F84F002300244C
:103AB000DFF8DC914FF00F0809F1040A0AF1040B5A
:103AC0000BF1040E0127A7400A683A40BA4275D1AB
:103AD000DFF8C0C14D68A5EB0C0665452BD00DDCA9
:103AE000032D34D005DC35B3012D19D0022D2FD193
:103AF0001BE0112D16D0122D2AD119E0B6F5881F22
:103B000019D006DCB6F5803F15D0B6F5801F1FD161
:103B100011E0B6F5001F0ED0B6F5041F18D10AE06B
:103B2000CB6815E0CB681B1D12E0CB6808330FE0B3
:103B3000CB680C330CE08B6823B1012B04D0082335
:103B4000476105E0042303E00823076100E0002348
:103B5000FF2A01D8054601E000F1040502D84FEA2A
:103B6000840603E0A4F108064FEA86062F6808FAE7
:103B700006FC27EA0C0703FA06F647EA06072F6059
:103B80004D68ED007ED5444DAE6946F00106AE614C
:103B9000AD6905F001050095404D24F00306771945
:103BA000BE68A5072D0F08FA05FC26EA0C06DFF80B
:103BB000F0C0604503D14FF0000C25E062E0DFF873
:103BC000E4C0604502D14FF0010C1DE0DFF8D8C021
:103BD000604502D14FF0020C16E0DFF8D0C060451E
:103BE00002D14FF0030C0FE0DFF8C4C0604502D1F2
:103BF0004FF0040C08E0DFF8BCC0604502D14FF084
:103C0000050C01E04FF0060C0CFA05FC4CEA060C22
:103C1000C7F808C04D68ED0305D5D9F80050154325
:103C2000C9F8005004E0D9F800509543C9F8005095
:103C30004D68AD0305D5DAF800501543CAF80050B9
:103C400004E0DAF800509543CAF800504D68ED02E0
:103C500005D5DBF800501543CBF8005004E0DBF845
:103C600000509543CBF800504D68AD0205D5DEF805
:103C700000501543CEF8005004E0DEF800509543A4
:103C8000CEF80050641C102CFFF41CAFBDE8F88F78
:103C9000000401400000111000100240000001402B
:103CA00000080140000C01400010014000140140D8
:103CB00000180140001C01408068084201D001202A
:103CC000704700207047002A01D001617047090445
:103CD000016170470148006870470000040000203F
:103CE00002480168491C0160704700000400002080
:103CF00010B50748016841F010010160032000F091
:103D000075F8002000F006F800F016F8002010BD4D
:103D10000020024010B5044600F0D6F94FF47A7244
:103D2000B0FBF2F001F05AF800222146501E00F0DC
:103D30003DF8002010BD000008B51548816941F02C
:103D400001018161806900F001000090052000F010
:103D50004DF8002211466FF00B0000F027F800220A
:103D600011466FF00A0000F021F8002211466FF0B2
:103D7000090000F01BF800221146101F00F016F891
:103D80000022BDE808401146501E00F00FB80000A8
:103D90000010024000F01F02012191404009800004
:103DA00000F1E020C0F8001170470000F0B40D46AB
:103DB0000D4B1B68C3F30223C3F10704042C00D985
:103DC0000424191D072901D2002300E0DB1E01266F
:103DD00006FA04F1491E294099409E40761E16407D
:103DE0003143F0BC01F02EBC0CED00E000F0070107
:103DF000054A10684FF6FF03184040EA01200349C6
:103E000008431060704700000CED00E00000FA0568
:103E10002DE9F04704460F46DFF8A492D9F80000D8
:103E2000A84D00F007010120430446064FF0020CA4
:103E300041F28838B9426FD2D9F8001021F0070159
:103E40003943C9F80010D9F8001001F00701B94250
:103E500001D0BDE8F0872178890705D56968A26897
:103E600021F0F001114369602178C90761D06168D0
:103E700001290BD002291FD09CFAACF2B2FA82F2CF
:103E800042F0200252092DD02A682CE093FAA3F2C6
:103E9000B2FA82F242F02002520901D02A6800E010
:103EA0006A6A93FAA3F3B3FA83F303F01F0398400B
:103EB000024223D10120CCE796FAA6F2B2FA82F2AE
:103EC00042F02002520901D02A6800E06A6A96FA9C
:103ED000A6F3B3FA83F303F01F03984002420DD117
:103EE0000120B6E76A6A9CFAACF3B3FA83F303F0F5
:103EF0001F039840024201D10120AAE7686820F020
:103F0000030008436860FFF7E5FE06466068012885
:103F10000AD0022815D021E025E0FFF7DBFE801B48
:103F2000404501D9032094E76868C0F38100012867
:103F3000F3D1ADE0FFF7CEFE801B404501D9032051
:103F400087E76868C0F381000228F3D1A0E0FFF79B
:103F5000C1FE801B404501D903207AE7686810F054
:103F60000C0FF4D194E02178890705D56968A2681F
:103F700021F0F001114369602178C90779D06168A7
:103F800001290BD002291FD09CFAACF2B2FA82F2BE
:103F900042F0200252092DD02A682CE093FAA3F2B5
:103FA000B2FA82F242F02002520901D02A6800E0FF
:103FB0006A6A93FAA3F3B3FA83F303F01F039840FA
:103FC000024223D1012044E796FAA6F2B2FA82F225
:103FD00042F02002520901D02A6800E06A6A96FA8B
:103FE000A6F3B3FA83F303F01F03984002420DD106
:103FF00001202EE76A6A9CFAACF3B3FA83F303F06C
:104000001F039840024201D1012022E7686820F096
:10401000030008436860FFF75DFE064660680128FC
:1040200009D0022814D020E0FFF754FE801B404541
:1040300001D903200DE76868C0F381000128F3D19E
:1040400017E0FFF747FE801B404501D9032000E73A
:104050006868C0F381000228F3D10AE0FFF73AFE56
:10406000801B404501D90320F3E6686810F00C0F6F
:10407000F4D1D9F8000020F007003843C9F8000057
:10408000D9F8000000F00700B84201D00120E0E6B6
:104090002078400705D56868E16820F4E0600843AF
:1040A00068602078000706D56868216920F46050B0
:1040B00040EAC10068600020FFF72CFE0020C8E63F
:1040C000002002400010024000B500F043F808490B
:1040D0004968F02292FAA2F201F0F001B2FA82F2FB
:1040E000D140044A515CC8400349086000BD00004B
:1040F0000010024068BA00080000002000B5FFF779
:10410000E3FF074949684FF4E06292FAA2F201F432
:10411000E061B2FA82F2D140024A515CC84000BD6F
:104120000010024068BA000800B5FFF7CDFF07494C
:1041300049684FF4605292FAA2F201F46051B2FA67
:1041400082F2D140024A515CC84000BD00100240DA
:1041500068BA000810B585B01AA0D0E90031D0E9DE
:104160000220CDE90131CDE903201AA000680090BA
:10417000194B5968194801F00C02042A1DD0082A6D
:104180001BD14FF4701494FAA4F401F47012B4FA31
:1041900084F4E24001ACA25CC90310D559684FF425
:1041A000003393FAA3F301F40031B3FA83F3D94057
:1041B0001DF80110B0FBF1F0504305B010BD0848E8
:1041C0005043FAE702030405060708090A0B0C0D21
:1041D0000E0F1010010200000010024000127A00C1
:1041E00000093D002DE9F84F0446F94D20784FF0C5
:1041F0000106C00775D068687704C0F38100012804
:1042000007D06868C0F3810002281DD16868C00328
:104210001AD597FAA7F0B0FA80F040F020004009D4
:1042200001D0286800E0686A97FAA7F1B1FA81F135
:1042300001F01F0206FA02F1084252D0606800281D
:104240004FD10120BDE8F88F286820F48030286025
:10425000286820F480202860FFF73CFD804607E0B6
:10426000FFF738FDA0EB0800642801D90320E9E737
:1042700097FAA7F0B0FA80F040F02000400901D092
:10428000286800E0686A97FAA7F1B1FA81F101F0B5
:104290001F0106FA01F10842E2D16068B0F5803FE3
:1042A00011D0A8B1B0F5A02F1CD0286820F4803020
:1042B0002860286820F4802028606068C8B3FFF771
:1042C00009FD80461FE0286840F480302860F4E74C
:1042D000286820F480302860286820F48020286036
:1042E000EBE748E0286840F480202860286840F424
:1042F00080302860E1E7FFF7EDFCA0EB08006428C0
:1043000001D903209EE797FAA7F0B0FA80F040F0B9
:104310002000400901D0286800E0686A97FAA7F1F8
:10432000B1FA81F101F01F0106FA01F10842E2D071
:1043300021E0FFE7FFF7CEFC804607E0FFF7CAFC6D
:10434000A0EB0800642801D903207BE797FAA7F0C7
:10435000B0FA80F040F02000400901D0286800E069
:10436000686A97FAA7F1B1FA81F101F01F0106FA24
:1043700001F10842E2D12078DFF8588280074FF03F
:10438000000B4FF0020732D568684FF0F80A10F0C2
:104390000C0F07D06868C0F38100022828D1686834
:1043A000C00325D497FAA7F0B0FA80F040F02000BF
:1043B000400901D0286800E0686A97FAA7F1B1FACD
:1043C00081F101F01F0106FA01F1084204D02069D1
:1043D000012801D0012035E728689AFAAAF261691C
:1043E000B2FA82F220F0F8009140084328605CE0C5
:1043F000206990B396FAA6F0B0FA80F048F82060F1
:10440000FFF768FC814607E0FFF764FCA0EB0900BA
:10441000022801D9032015E797FAA7F0B0FA80F037
:1044200040F02000400901D0286800E0686A97FA4F
:10443000A7F1B1FA81F101F01F0106FA01F108427A
:10444000E2D028689AFAAAF26169B2FA82F220F000
:10445000F80091400843286027E0FFE796FAA6F0AD
:10446000B0FA80F048F820B0FFF734FC814607E04E
:10447000FFF730FCA0EB0900022801D90320E1E698
:1044800097FAA7F0B0FA80F040F02000400901D080
:10449000286800E0686A97FAA7F1B1FA81F101F0A3
:1044A0001F0106FA01F10842E2D12078000770D519
:1044B000A069C0B396FAA6F0B0FA80F008EB8000CD
:1044C000C0F88064FFF706FC814607E0FFF702FCB6
:1044D000A0EB0900022801D90320B3E697FAA7F060
:1044E000B0FA80F040F06000B6EB501F01D12868B0
:1044F0000BE097FAA7F0B0FA80F040F06000B7EB5D
:10450000501F01D1286A00E0686A97FAA7F1B1FA52
:1045100081F101F01F0206FA02F10842D6D0012013
:10452000FFF71EFA35E0FFE796FAA6F0B0FA80F042
:1045300008EB8000C0F880B4FFF7CCFB814607E0B1
:10454000FFF7C8FBA0EB0900022801D9032079E698
:1045500097FAA7F0B0FA80F040F06000B6EB501F79
:1045600001D128680BE097FAA7F0B0FA80F040F08C
:104570006000B7EB501F01D1286A00E0686A97FA23
:10458000A7F1B1FA81F101F01F0206FA02F1084227
:10459000D6D12078400770D5E86940F08050E861B6
:1045A000E86900F080500090DFF82CA0DAF80000F5
:1045B00040F48070CAF80000FFF78CFB81460DE0E4
:1045C000FFF788FBA0EB0900642807D9032039E630
:1045D000001002400000424200700040DAF8000083
:1045E000C005EDD5286A20F001002862286A20F075
:1045F00004002862FFF76EFB814641F2883A07E02B
:10460000FFF768FBA0EB0900504501D9032019E62C
:1046100097FAA7F0B0FA80F040F04000B6EB501FD8
:1046200001D128680BE097FAA7F0B0FA80F040F0CB
:104630004000B7EB501F01D1286A00E0686A97FA82
:10464000A7F1B1FA81F101F01F0106FA01F1084268
:10465000D6D1E068012811D0A8B105281CD0286A5D
:1046600020F001002862286A20F004002862E06837
:10467000C8B3FFF72FFB81461FE06EE0286A40F0C9
:1046800001002862F3E7286A20F001002862286A06
:1046900020F004002862EAE7286A40F0040028625B
:1046A000286A40F001002862E1E7FFF713FBA0EB66
:1046B0000900504501D90320C4E597FAA7F0B0FAE4
:1046C00080F040F04000B6EB501F01D128680CE0AC
:1046D00097FAA7F0B0FA80F040F04000B7EB501F17
:1046E00002D1286A01E00BE0686A97FAA7F1B1FAF3
:1046F00081F101F01F0206FA02F10842D5D02CE048
:10470000FFF7E8FA814607E0FFF7E4FAA0EB0900BB
:10471000504501D9032095E597FAA7F0B0FA80F04B
:1047200040F04000B6EB501F01D128680BE097FA2B
:10473000A7F0B0FA80F040F04000B7EB501F01D175
:10474000286A00E0686A97FAA7F1B1FA81F101F0EE
:104750001F0206FA02F10842D6D1E06980B3696807
:10476000C1F38101022970D04FF080794FF00077BA
:10477000022809D099FAA9F0B0FA80F048F820B0E0
:10478000FFF7A8FA044668E099FAA9F0B0FA80F0B9
:1047900048F820B0FFF79EFA824607E0FFF79AFA42
:1047A000A0EB0A00022801D903204BE597FAA7F0F5
:1047B000B0FA80F040F02000400902D0286801E003
:1047C00060E0686A97FAA7F1B1FA81F101F01F0180
:1047D00006FA01F10842E1D1206AB0F5803F05D127
:1047E0006868A16820F4003008436860D4E90801D3
:1047F0000843696821F474110843686099FAA9F0C4
:10480000B0FA80F048F82060FFF764FA044606E04A
:10481000FFF760FA001B022801D9032012E597FA7E
:10482000A7F0B0FA80F040F02000400901D02968DC
:1048300000E0696A97FAA7F0B0FA80F000F01F0074
:1048400006FA00F00142E3D01CE01DE0FFF742FA57
:10485000001B022801D90320F4E497FAA7F0B0FA6C
:1048600080F040F02000400901D0296800E0696A2A
:1048700097FAA7F0B0FA80F000F01F0006FA00F0F7
:104880000142E3D10020DDE40120DBE410B5044661
:104890002168486BC0050AD54FF4807088630120F9
:1048A000A0640020E064204600F03EF835E0486B4C
:1048B000800706D502208863E064204600F035F8C2
:1048C0002BE0486B000707D5082088630420E064CC
:1048D000204600F02AF820E0486B800607D520200B
:1048E00088630620E064204600F01FF815E0486B5E
:1048F000C00607D5102088630520E064204600F03C
:1049000014F80AE0486B800507D54FF400708863FF
:104910000720E064204600F008F82068C16B4CF2E4
:104920003A329143C16310BD7047704710B50446D9
:10493000002C03D094F8510010B104E0012010BD08
:10494000204600F039F8022084F851002068016800
:1049500021F040010160D4E901010843D4E90312C8
:104960001143084361690843218B01F40071084336
:10497000E1690843216A0843A16A08432168086085
:10498000A069042101EA1040616A08432168486077
:104990002168E06A08612068C16921F40061C16191
:1049A0000449002008706065012084F8510000204F
:1049B00010BD00000800002010B586B000681F4937
:1049C000884239D11E48816941F4805181618169F1
:1049D00001F480510191816941F004018161816993
:1049E00001F004010191816941F004018161806954
:1049F00000F004000190A020029002200390032008
:104A00000590104C02A92046FFF74EF84021029174
:104A100000210391049102A92046FFF745F80122E5
:104A200010212046FFF74FF9102102910121039137
:104A300002A92046FFF738F806B010BD003001404B
:104A400000100240000801402DE9F8430446DDF85B
:104A500020800026009694F85100012806D094F892
:104A60005100222802D00220BDE8F88369B162B16A
:104A70005BB194F85000012809D0012784F85070E8
:104A800094F85100012804D006E00120ECE7022050
:104A9000EAE7322084F851006665A263A387E387C2
:104AA0002163A386E386A664E664A06A4FF40055FA
:104AB000A84209D12068016821F4005101602068F2
:104AC000016841F40051016020680168490603D47F
:104AD000016841F040010160E0684FF48271B0F577
:104AE000006F08D06068002875D0884202D1E08E3F
:104AF00001287CD084E0606820B188420CD1E08E2F
:104B0000012809D1206B21680088C860206B801CB7
:104B10002063E08E401EE086E08EE8BBA06AA842DB
:104B200004D12068016841F48051016043460022AD
:104B30000121204600F0DCFD08B1032094E7206845
:104B4000C068A16B0880A06B801CA063E08F401E32
:104B5000E087B6E0434600220221204600F0C8FD6F
:104B600008B1032080E7206B21680088C860206BB3
:104B7000801C2063E08E401E80B2E08638B9A06AB7
:104B8000A84204D12068016841F4805101600022EC
:104B900043460121204600E00EE000F0A9FD08B1E7
:104BA000032061E72068C068A16B0880A06B801CAF
:104BB000A063E08F401EE087E08E0028CAD16068C5
:104BC00000287ED1434600220121204600F090FDBE
:104BD00010B1032048E70AE02068C068A16B088094
:104BE000A06B801CA063E08F401EE08769E0206B13
:104BF000411C216321680078C860E08E401EE08679
:104C0000E08EE8BBA06AA84204D12068016841F4A4
:104C100080510160434600220121204600F068FDDA
:104C200008B1032020E72068C068A16B0870E08FFE
:104C3000401EE08745E0434600220221204600F066
:104C400057FD08B103200FE7206B411C2163216849
:104C50000078C860E08E401E80B2E08638B9A06A55
:104C6000A84204D12068016841F4805101604346A4
:104C700000220121204600F03BFD10B10320F3E6A5
:104C800008E02068C168A06B421CA2630170E08F3D
:104C9000401EE087E08E0028CDD1606888B9434689
:104CA00000220121204600F023FD08B10320DBE6AD
:104CB0002068C168A06B421CA2630170E08F401E97
:104CC000E087A06AA84211D1434600220121204674
:104CD00000F00EFD28B1606D40F002006065032019
:104CE000C2E62068C0680090BDF80000434601227B
:104CF0008021204600F0FCFC28B1606D40F01000DF
:104D000060650320B0E684F85170A06AA84215D10E
:104D100020688168C943C90610D4616D41F0020161
:104D20006165016821F4005101602068016841F467
:104D30000051016084F85060012095E684F85060CD
:104D4000002091E670B504460E461546002C03D0AF
:104D500094F83D0010B107E0012070BD002084F8F8
:104D60003C00204600F01AF804F108012068FEF724
:104D700007FA3146A2682068FEF750FAD4E901022A
:104D80002946236BFEF7CAF9A168206850F8212054
:104D900042F0010240F82120002070BDFEF7ECBD7A
:104DA0004FF0E021042804D0086920F004000861D5
:104DB0007047086940F00400086170470020064A07
:104DC00052F8201011B1491E42F82010401CC0B208
:104DD0000228F5D3704700001000002010B5401ED7
:104DE000B0F1807F01D3012010BD4FF0E02460615D
:104DF0000F21601700F026FC0020A0610720206131
:104E0000002010BD10B5FFF7D9FF10BD70B50446E6
:104E1000002C04D094F83900002510B106E00120E0
:104E200070BD84F83850204600F020F8022084F845
:104E300039002068C16821F40051C160204600F0AB
:104E4000A3FF2068016921F4904101612068416954
:104E500021F02A0141612068C16841F40051C1601C
:104E6000E563012084F83900002070BD10B586B0DC
:104E70000068114988421DD11048816941F4804180
:104E80008161806900F4804001904FF400700290CD
:104E90000220039003200590094C02A92046FEF74A
:104EA00003FE2115029100210391049102A92046DD
:104EB000FEF7FAFD06B010BD0038014000100240B8
:104EC000000801402DE9F04104460D46984694F84B
:104ED0003900012804D0122802D00220BDE8F08158
:104EE0009DB192B194F83800012810D0012684F8C1
:104EF00038600027E76394F83900122809D022208F
:104F000084F83900A285E28536E00120E6E7022038
:104F1000E4E7322084F83900F4E7401EE085A06819
:104F2000B0F5805F08D0434600222021204600F0E3
:104F3000B1FFC8B10320D1E743460022202120461B
:104F400000F0A8FF08B10320C8E7206928B1206855
:104F50004068C1B229806D1C0EE020684068C0F333
:104F600008012980AD1C07E0206990B120684068E5
:104F700000F07F0005F8010BE08D0028CDD194F8FA
:104F8000390032280AD084F8396084F8387000205B
:104F9000A4E72068406805F8010BEDE7122084F8CB
:104FA0003900F2E72DE9F04104460D46984694F8A1
:104FB0003900012804D0222802D00220BDE8F08167
:104FC0009DB192B194F83800012810D0012684F8E0
:104FD00038600027E76394F83900222809D01220AE
:104FE00084F83900A284E2842EE00120E6E7022062
:104FF000E4E7322084F83900F4E7401EE084A0683A
:10500000B0F5805F08D0434600228021204600F0A2
:1050100041FFA8B10320D1E743460022802120466A
:1050200000F038FF08B10320C8E728882168C0F3E2
:1050300008004860206908B16D1C05E0AD1C03E064
:10504000216815F8010B4860E08C0028D5D1434653
:1050500000224021204600F01DFF08B10320ADE7EB
:1050600094F83900322805D084F8396084F8387013
:105070000020A3E7222084F83900F7E7FEE710B507
:10508000052000F03BFCBDE8104000F091BC2DE98C
:10509000F0414FF0D844E0202080002060800721BC
:1050A00061801021618009216180172363800B22B8
:1050B000628041266680892262804B2262800A22B9
:1050C00062800C2565800E256580182767801B2768
:1050D00067800F2767804FF0E10CA4F800C0608064
:1050E00063801A2363804FF0040CA4F802C065802B
:1050F000062363802F2363804523638043236380DB
:105100000223638062806180322565803625658058
:105110006780F7252580A9256580512565802C2588
:10512000658082256580C025258011256580618088
:10513000C12121806680C52121806080628080211C
:105140006180B1212180B02161806580B4212180FE
:105150006380B6212180638022216180B721218074
:10516000C6216180BE2121806080A4F802C0E921AF
:1051700021806080012000F078F93A2020805520BD
:10518000608025807820FEF7EBFB29202080BDE899
:10519000F08170B51446049E1D462B46224600F051
:1051A00035F904FB05F03146BDE8704000F022B946
:1051B0002DE9F04393B09146DDE91A521C464FF0B9
:1051C0002C0801AF4FF0D846102A11D018231A46E8
:1051D00000F01CF9A6F800801822494601A8FEF745
:1051E00059F80022B95C0020CB0720D075801FE061
:1051F00010231A4600F00AF9A6F80080102249464A
:1052000001A8FEF747F80022B95C0020CB0701D0C7
:10521000758000E074804908401CC0B20828F5D3AE
:10522000521CD2B2202AEFD313B0BDE8F0837480B1
:105230004908401CC0B20828D6D3521CD2B2482A12
:10524000D0D3F1E72DE9F0411C46DDE90653203AC1
:10525000D7B24FF02C084FF0D846102B11D018239E
:105260000C2200F0D3F8A6F8008000221F4907EBBB
:10527000470001EB0013995C0020CF071DD075801B
:105280001CE01023082200F0C1F8A6F800800022DC
:10529000174800EB0713995C0020CF0701D07580F9
:1052A00000E074804908401CC0B20828F5D3521CA5
:1052B000D2B2102AEFD3BDE8F08174804908401CB7
:1052C000C0B20828D9D3521CD2B2995C0020CF07B3
:1052D00001D0758000E074804908401CC0B20428E9
:1052E000F5D3521CD2B2302AC5D3E4E768C0000817
:1052F00078BA00082DE9FF4F83B00446DDE9107845
:105300000D4616464FF0100B4FF4A0794FF4F07A8B
:1053100051E07F2A33D8B8F1100F18D004F10C00F7
:10532000484502D900241835ADB205F118005045A2
:1053300001D9002400251820CDE900702946204617
:10534000069BFFF77FFF761C0C34A4B233E004F118
:105350000800484502D900241035ADB205F110000F
:10536000504501D900240025CDE9007B294620467F
:10537000069BFFF767FF761C0834A4B21BE0B8F168
:10538000100F1ED004F11800484502D9002418352A
:10539000ADB205F11800504501D9002400251820B0
:1053A000CDE90070324629462046069BFFF700FFF4
:1053B000B61C1834A4B23278002AAAD107B0BDE8CE
:1053C000F08F04F11000484502D900241035ADB229
:1053D00005F11000504501D900240025CDE9007BDE
:1053E000324629462046069BFFF7E2FEB61C1034E3
:1053F000A4B2E0E710B500224FF0D8432C241C8063
:1054000001E05980521C8242FBD310BD30B54FF0F1
:10541000D8442A252580050A6580C5B265801044D8
:10542000401E020A6280C0B260802B202080080AE1
:105430006080C8B26080C818401E010A6180C0B296
:10544000608030BD0CB54FF0D84004210180418808
:10545000ADF800104188C9B24288D2B24088C0B2CB
:10546000090401EB022108440CBDF0B50022012320
:105470002A263F242B25DF274FF0360C4FF0D8414A
:10548000012806D0022813D0032820D004283BD1BD
:105490002CE0A1F800C0082048800E804A804A8095
:1054A0004B804C800D804A804A804B804F802BE09F
:1054B000A1F800C0682048800E804A804A804B8056
:1054C0004F800D804A804A804B804C801CE0A1F8C0
:1054D00000C0C82048800E804A804A804B804C80A3
:1054E0000D804A804A804B804C800DE0A1F800C0BE
:1054F000A82048800E804A804A804B804F800D80D3
:105500004A804A804B804C802C200880F0BD0000EF
:1055100000B585B00E48816941F010018161806954
:1055200000F0100000904FF40040019009480290F4
:105530000220039001A90848FEF7B6FA002211469E
:105540002820FEF733FC2820FEF724FC05B000BD20
:1055500000100240000011100020014082B00D48F0
:10556000816941F004018161806900F004000190CB
:105570000A48094901604FF4E1314160002181602E
:10558000C16001610C2242618161C16102B0FFF71B
:105590003DBC000000100240003801409400002093
:1055A00000B587B015484FF02041016014494160B3
:1055B000062181600021C160016110224261816188
:1055C000C1610162416212028262C1620163416390
:1055D00081630220009001910520029003910491C3
:1055E000059106916A4669460448FFF7ABFB0548FA
:1055F000C16941F48061C16107B000BD2002002093
:10560000040100A0000001400C480B4901604FF468
:105610008271416000218160C16002220261012229
:105620004261520282610822C2610162416281626A
:105630000A21C162FFF77AB900300140C801002099
:10564000FEE770470907090E002806DA00F00F0090
:1056500000F1E02080F8141D704700F1E02080F890
:10566000001470470148FFF711B90000D80000206E
:105670002DE9F04104460F461546124E0022102136
:105680003046FEF720FB032000F01EF8C7F307406A
:1056900000F01AF8C7F3072000F016F8F8B200F08F
:1056A00013F804E0FF2000F00FF804F8010B6D1E62
:1056B000ADB2F7D23046BDE8F04101221021FEF72D
:1056C00002BB0000000801400EB501906FF07F4062
:1056D0000090012302AA01A90448FFF7B5F908B117
:1056E000FF2002909DF808000EBD0000C8010020B8
:1056F0002DE9F05F04460F4693461D46FEF7EAFA91
:1057000006464FF000084FF4005A4FF00109BBF174
:10571000000F26D050E0681C23D025B1FEF7DAFA3E
:10572000801BA8421DD92068416821F0E00141603A
:105730002068016821F040010160A06A504509D14C
:105740002068016821F4005101602068016841F47B
:105750000051016084F8519084F850800320BDE826
:10576000F09F2068806837EA0000D4D129E0681CE7
:1057700022D025B1FEF7AEFA801BA8421CD92068C2
:10578000416821F0E00141602068016821F040019A
:105790000160A06A504509D12068016821F40051D8
:1057A00001602068016841F40051016084F8519063
:1057B00084F850800320D2E72068806837EA000030
:1057C000D5D00020CBE770B58EB000220023AA24EC
:1057D0008DF804408DF8054002248DF80640002421
:1057E0008DF807404C788DF808400C788DF809400A
:1057F000CC788DF80A408C788DF80B404C798DF878
:105800000C4009798DF80D1041788DF80E10017853
:105810008DF80F10C1788DF8101081788DF8111067
:1058200041798DF8121000798DF8130000208DF861
:10583000140012218DF815008DF816008DF8170050
:105840008DF81800002416208DF819408DF80710E7
:1058500001AD04E0A95C1944CBB2521CD2B2824221
:10586000F8D3411CCEB22B54002404E0285D06F08E
:10587000E9F8641CE4B2B442F8D30EB070BD2DE96F
:10588000F04707468846164699460024FDF74AFD2C
:105890000546F2B24B464146384600F035F800283E
:1058A0000AD0002D08D02146641CE4B2042903D894
:1058B0002846FEF755F8ECE7BDE8F0872DE9F047FC
:1058C00007468846164699460024FDF72BFD0546F7
:1058D000F2B24B464146384600F047F800280AD05D
:1058E000002D08D02146641CE4B2042903D82846C0
:1058F000FEF736F8ECE7BDE8F087000001490880C4
:1059000070470000340000202DE9F04106460F46A4
:1059100014461D4600F0EEF87006000E00F05AF92D
:1059200000281CD1384600F055F9002817D100F0A6
:10593000E1F8012000EB4600C0B200F04BF900286E
:105940000DD107E0012C0CD000F0A2F828706D1CDE
:10595000641EE4B2002CF5D100F000F90020BDE88F
:10596000F08100F063F82870F1E72DE9F04104467A
:105970000F4616461D4600F0BDF86006000E00F00A
:1059800029F9002812D1384600F024F900280DD159
:10599000002406E0285D00F01DF9002806D1641CF3
:1059A000E4B2B442F6D300F0D9F80020BDE8F081AB
:1059B00030B585B01848816941F00801816180697E
:1059C00000F008000090C0200190112002900120FA
:1059D0000490124C01A92046FEF766F800228021AF
:1059E0002046FEF770F9012240212046FEF76BF9B0
:1059F0000B4D284600F016F8012240212046FEF704
:105A000062F9012280212046FEF75DF9284600F068
:105A100009F805B030BD000000100240000C014044
:105A2000A0860100401EFDD17047000070B5174EE2
:105A3000012280213046FEF746F9002240213046FF
:105A4000FEF741F900240025012240213046FEF7EF
:105A50003AF90A20FFF7E6FF6006040E802130467F
:105A6000FEF72AF908B144F0010400224021304633
:105A7000FEF729F90A20FFF7D5FF6D1CEDB2082DBE
:105A8000E2D300F0DDF8204670BD0000000C0140BC
:105A900070B5174E012280213046FEF714F900221E
:105AA00040213046FEF70FF9002400250122402155
:105AB0003046FEF708F90A20FFF7B4FF6006040E2F
:105AC00080213046FEF7F8F808B144F001040022C6
:105AD00040213046FEF7F7F80A20FFF7A3FF6D1CC0
