:020000040800F2
:10000000A80500202D170008ED150008EF150008C1
:1000100000000000000000000000000000000000E0
:10002000000000000000000000000000F1150008C2
:100030000000000000000000F3150008F51500089E
:1000400063060008F306000803120008DB16000828
:10005000E716000855170008571700085917000839
:1000600000000000FD150008071600085B170008D7
:100070005D1700085F170008611700086317000884
:100080006517000800000000000000006717000866
:1000900000000000691700086B1700086D170008C2
:1000A000000000006F170008000000007117000832
:1000B000FEB5060019D0AD4C3078C00717D58027A3
:1000C000BF0260680C210140042909D060680C213E
:1000D0000140082941D160687908084088423CD134
:1000E0002068074003D07068002800D19BE1307879
:1000F00080071AD5F827FF4360680C21014007D01C
:1001000060680C21014008295AD16068C00357D4A7
:100110002068800703D5F068012800D083E12068BB
:1001200007403069C000384320603078000778D538
:100130000227F0690028606A64D0012101436162EE
:1001400000F04CFA0500606A38406AD100F046FAC7
:10015000401B0228F7D90320FEBD73687908012BE4
:1001600009D0B348B34A002B09D0052B07D120682A
:100170008A000243226020680143216005E0216873
:100180000A402260216808402060706800280BD077
:1001900000F024FA050020683840A8D100F01EFACB
:1001A000401B6528F7D3D6E700F018FA0500206851
:1001B00038409CD000F012FA401B6528F7D3CAE7FC
:1001C000F068002820680ED001210143216000F072
:1001D00005FA050020688007A1D400F0FFF9401B54
:1001E0000228F7D9B7E701218843206000F0F6F92B
:1001F00005002068800798D500F0F0F9401B022820
:10020000F7D9A8E701218843606200F0E7F905000B
:10021000606A384005D000F0E1F9401B0228F7D9A8
:1002200099E704273068384062D000200190B80672
:10023000E169014008D1E1690143E161E1690840F8
:1002400000900098012001907B480068C00512D4FE
:1002500079480068A10D01437748016000F0BEF9BC
:10026000050075480068C00505D400F0B7F9401BCB
:100270006528F6D36FE7B068012808D0002801D1BF
:10028000206A09E00528206A06D138432062206AE6
:1002900001210143216205E0012188432062206A97
:1002A000B8432062A4480090B06800280CD000F049
:1002B00095F90500206A800713D400F08FF9401BE0
:1002C00000998842F6D346E700F088F90500206AD5
:1002D000800706D500F082F9401B00998842F6D3CA
:1002E00039E70198002803D0E06994490140E161B1
:1002F0003078C0061DD57069F825ED43012837D147
:10030000606B07436763606B01210143616300F029
:1003100065F90700606B800705D400F05FF9C01B2A
:100320000228F7D917E7606B0540B069C000284381
:100330006063306A002878D061680C220A40082A7D
:100340005CD08027BF0492490228206848D1014030
:10035000216000F043F905002068384022D000F009
:100360003DF9401B0228F7D9F5E600BF0010024016
:100370000421C9438842606B02D101406163D2E726
:1003800007436763606B01218843606300F026F9CF
:100390000500606B8007CCD500F020F9401B0228D7
:1003A000F7D9D8E6E06A0F218843F16A0143E16298
:1003B000606878490140B06A0843716A014361602E
:1003C000206879080143216000F008F905002068E1
:1003D00038402AD100F002F9401B0228F7D9BAE6CA
:1003E0000140216000F0FAF80500206838401CD078
:1003F00000F0F4F8401B0228F7D9ACE6012812D02F
:100400006068E16A802252020240736A9A420AD10D
:100410000907090FF26A914205D1F02189030140D1
:10042000B06A814201D00120FEBD0020FEBD000067
:10043000FFFFFBFFFFFFFEFF00700040F8B5040068
:1004400060D0009154480068C107C90F00988142EC
:100450000CD25148016801229143009A0A4302607C
:100460000068C107C90F009881424BD121684B4DEC
:10047000022001420CD0490704D56968E022D2006D
:100480000A436A606968F0229143A2680A436A607D
:1004900001272168394025D06168012902D12868E7
:1004A000800303E0022903D12868800103D429E0F6
:1004B0002A68104026D0686803229043014369608F
:1004C00000F08CF8060068680C210140606880002C
:1004D000814207D000F082F8801B17498842F2D38E
:1004E0000320F2BD2C48009902683A4091420BD299
:1004F0000168B943009A0A43026000680740009807
:10050000874201D00120F2BD2078400705D56868F8
:1005100023490140E0680843686000F011F8214970
:100520006A681206120F895CC8401F4908600320E0
:1005300000F05AF80020F2BD89130000FFFFFFEF22
:100540001A4B19681A480C220A40082A00D0704732
:1005500030B50F2219A48D0C1540645D9B6AC90348
:1005600007D500BF19A11A40895C00F05FF860430D
:1005700030BD20000F49484330BD0B4800680E498C
:100580000A4A12685205520F895CC8407047000041
:10059000FFFFFFFEFFFFC2FF0020024000100240ED
:1005A000FFF8FFFF1C1700080C0000200410024099
:1005B00000127A0000093D004C17000802030405F0
:1005C000060708090A0B0C0D0E0F10100102030498
:1005D00005060708090A0B0C0D0E0F1001484068AC
:1005E000704700BF0000002038B505000D4CFA2010
:1005F0008000217800F01AF801000B48006800F034
:1006000015F800F059F800280AD1042D08D200226C
:1006100029000020C04300F042F8A560002032BD50
:10062000012032BD000000200C000020094214D03F
:1006300088420FD30122030C01D1000412040023CD
:1006400000185B418B4200D35B1A5241F8D319006A
:100650001000704701000020704708B500F048F80E
:1006600008BDFEE710B5C20018231340FF249C40CC
:10067000E2438907090E9940030004D418489B08F7
:100680009B00C01806E0174B0007000F08388008D1
:100690008000181803681A401143016010BD80B52E
:1006A000FFF7E0FF01BD010005D40121C006C00E27
:1006B00081400D480160704710B5401E80214904FB
:1006C000884201D3012010BD084C60600321002046
:1006D000C043FFF7C7FF0020A0600721216010BDC5
:1006E00000E400E01CED00E000E100E010E000E0CC
:1006F0007047FEE738B5040014D0250078356868E7
:10070000002803D12870200000F05BFA24206860E4
:1007100020680168012291430160200000F020F868
:10072000012801D1012032BD606A002802D02000DA
:1007300000F096F820684168084A0A404260206844
:1007400081682A2291438160FFE7206801680122C5
:100750000A430260200000F0E9F832BDFFB7FFFF56
:10076000F8B5050000260024286801689B4A0A4065
:10077000A96811432A690A4369691143EA690A436E
:1007800002604168964A0A40E96811434160816805
:10079000944A0A40A96911432A6A0A43826092482E
:1007A00000688007800F05D0022809D006D30328EF
:1007B00002D007E0002206E0022204E0042202E068
:1007C000082200E01022894F894880210902EB6944
:1007D0008B4221D1002A06D0022A18D0042A18D030
:1007E000082A04D037E0FFF7C8FE010034D06A6859
:1007F0004800510840181100FFF718FF0100103998
:10080000B94228D207400007400F38431BE00100DF
:10081000EDE7FFF795FEE8E7002A06D0022A08D0A8
:10082000042A13D0082A14D015E0FFF7A6FE0028EA
:1008300012D069684A088018FFF7F8FE01001039E5
:10084000B94208D280B22968C86005E0FFF778FE97
:10085000EDE70800EDE70124AE66EE662000F2BD8C
:100860002421415CC90706D501684A68874B1340BB
:10087000826A1A434A602421415C890706D50168CF
:100880004A68834B1340C26A1A434A602421415C80
:10089000490706D501684A687E4B1340026B1A432C
:1008A0004A602421415C090706D501684A687A4BF1
:1008B0001340426B1A434A602421415CC90606D5A5
:1008C00001688A68754B1340826B1A438A60242141
:1008D000415C890606D501688A68134B1340C26BD8
:1008E0001A438A602421415C490611D501684A688F
:1008F0006B4B1340026C1A434A60026C80235B030B
:100900009A4205D14A68674B1340426C1A434A60C9
:100910002421415C090606D501684A68624B1340F0
:10092000806C184348607047FFDFFFFFFEB506008C
:10093000370078370024FC60FFF750FE0190202537
:1009400030680068000717D570480090019B0022AE
:100950002904300000F04EF800280DD0EFF310808D
:10096000012181F3108831680A6880239A430A6064
:1009700080F310887D6026E030680068400725D548
:1009800062480090019B00226904300000F032F8B8
:1009900000281BD0EFF31080012181F3108831680B
:1009A0000A685B4B13400B6080F31088EFF31080F4
:1009B000012181F3108831688A6801239A438A6093
:1009C00080F31088BD603C700320FEBD7D60BD607B
:1009D000346674663C700020FEBD0000F369FFFFC2
:1009E000FFCFFFFFFFF4FFFF30100240F0FF0000D9
:1009F00000127A00FEB580273F010824002506007A
:100A000001916846027002933068C0690199014003
:100A10000198814201D1012000E000206946097857
:100A2000884231D108980021C9438842ECD0FFF7B1
:100A3000D5FD0299401A0899814201D3002901D1BC
:100A40000320FEBD306800684007DDD53068C0690E
:100A50002040306803D1C0693840D5D009E0046235
:100A6000300000F023F830007830C46005700120B9
:100A7000FEBD30680762300000F018F830007830B2
:100A80002021C1600570DBE70020FEBDFFFFFDFFF8
:100A9000FFFFFEFFFFFFFBFFFF7FFFFFFFEFFFFFFB
:100AA000FFFFEFFFFFFF9FFFFFFFF7FF10B5EFF323
:100AB0001081012282F3108802681368144C1C40D4
:100AC000146081F31088EFF31081012282F3108803
:100AD000026893680124A343936081F31088016E38
:100AE00001290BD1EFF31081012282F310880268F3
:100AF00013681024A343136081F3108820218022FF
:100B0000815000210166816610BD0000FFFFFF01DA
:100B1000DFFEFFFF81B0012059490A6802430A60E5
:100B20000A68104000900098802040054A680243FF
:100B30004A60496808400090009801B0704770B55D
:100B400086B004001422002101A800F0ABF8206850
:100B50004C49884233D14C48410D42680A434260B7
:100B600042681140009100998021890202680A437D
:100B700002600068014000910098782001900320F5
:100B800002900025039501A99020C00500F094F87B
:100B90003E4E3F4830607560B5608020F060803028
:100BA0003061800070612020B061F561300000F09C
:100BB00053F9002801D000F0FBFA2663746206B0F6
:100BC00070BDF1B586B01422002101A800F06AF8CA
:100BD000069800682F4988424FD12B488021C901CF
:100BE00042680A43426042681140009100998021A6
:100BF000890202680A43026000680140009100987F
:100C0000C020C00001900220029000240394032021
:100C100004900120059001A99020C00500F04CF837
:100C20001D4F1E4E3800143030607460B460802553
:100C3000F56034617461B461F461300000F00CF966
:100C4000002801D000F0B4FA069846670698706252
:100C5000134E376010207060B460F56034617461C9
:100C6000B461F461300000F0F7F8002801D000F022
:100C70009FFA069806670698706207B0F0BD0000FC
:100C8000181002400024014014100240D800002037
:100C900008000240003801401C0002401C010020F6
:100CA0006001002010B504000800110002002000BF
:100CB00000F080FA200010BDF0B585B000220F23AF
:100CC000039331E0052303E05E4B9842FAD10223FF
:100CD000B3402B4323605C4B9D68019BDC43254064
:100CE0004B68DB0202D52B00019D1D43564B9D60D6
:100CF000DD6825404E68B60202D52E00019D3543C1
:100D0000DD605D6825404E68B60302D52E00019D6A
:100D100035435D601D682C404D68ED0302D525000C
:100D2000019C2C431C60521C0B681C00D44000D159
:100D30007FE00124944023400193019B002BF2D0DB
:100D4000530003259D40EE4302964D68AE07B60F53
:100D5000012E03D0AD07AD0F022D0ED18568029E86
:100D60002E40CD689D40354385604568A5434C685D
:100D7000E606F60F96402E43466094006D466C7072
:100D800003244D682540032D25D0C568029E2E40C2
:100D90008D689D403543C5604D682540022D1AD1B0
:100DA000D508AD0045192E6A04966E4677781C2644
:100DB0003E406F463E70049EB446039F6E463678B2
:100DC000B7406646BE43B4460F696E463678B740B4
:100DD000664637432F620568029E2E404D682C40C0
:100DE0009C40344304604B68C024A4021C409AD049
:100DF0000123164C24681C43144D2C602C681C40A5
:100E00000294029C124C9508AD00641925686E4648
:100E100077780C263E40039FB740BD439027FF05DF
:100E2000B84201D1002353E70A4FB84200D04BE744
:100E30004EE705B0F0BD002A01D0816170478162A4
:100E400070470000000800480004014018100240EC
:100E5000080001400004004810B5040001D1012041
:100E600010BD022021216054206801680D4A0A400B
:100E700061681143A2680A43E168114322690A4389
:100E800061691143A2690A43E169114301602000CD
:100E900000F06AF80020A06301212122A154202142
:100EA000605410BD0FC0FFFFFEB5C16B0968019112
:100EB00001680A68009220220423019C056C042624
:100EC000AE40264011D0009C1C400ED00C68224041
:100ED00002D10A689A430A60016C8B40C16B4B6077
:100EE000C16A00293FD08847F7BD012302240025AD
:100EF000019EB446066C0227B7406646374016D0BE
:100F0000009E264013D00E68324005D10A680A269A
:100F1000B2430A6021214354016C8C40C16B4C6088
:100F200020214554816A00291DD08847F7BD082239
:100F30006446066C0827B740274014D0009C224026
:100F400011D00A680E24A2430A60016C01228A4073
:100F5000C16B4A6083632121435420214554016BB6
:100F6000002900D08847F7BD10B504002068054966
:100F700040181421FFF75AFB800020640248E06308
:100F800010BD0000F8FFFDBF00000240F8B586B0BC
:100F900000F038F900F0CCF8142200216846FFF781
:100FA00081FE8020C0035D4D2968014329602968C6
:100FB0000840059005988020800229680143296037
:100FC00029680840059005988020C00229680143DF
:100FD00029602968084005900598AC0D0022210081
:100FE0009020C005FFF727FF4D4F00221021380049
:100FF000FFF721FF00940126019600240294039438
:1010000069469020C005FFF757FE08200090019424
:10101000029669463800FFF74FFE102000900196B7
:101020000294039469463800FFF746FE286830436F
:101030002860286830400090009800220021092094
:10104000FFF72DFB0920FFF72EFB002200210A20CD
:10105000FFF725FB0A20FFF726FB0C22002168463C
:10106000FFF720FE2F4D304828606C60AC60EC60CC
:101070002E6104276F612C83AE76EC76FF20C230A0
:10108000E8612C6224216E54AE62280000F0CAF898
:10109000002801D000F08CF803200090300301906C
:1010A000000402906946280000F074F9002801D07D
:1010B00000F07EF800976946280000F06BF90028E0
:1010C00001D000F075F8052000906946280000F076
:1010D00061F9002801D000F06BF806200090694605
:1010E000280000F057F9002801D000F061F80F48FF
:1010F0002864E12040026864AC64EC642C650C2038
:101100006865AC65EC652C666C6628004030FFF7BE
:10111000F1FA002801D000F04BF8FEE7141002406D
:101120000004004810000020002401400038014065
:1011300070B594B03022002108A8FFF7B3FD10224B
:1011400000216846FFF7AEFD1022002104A8FFF73A
:10115000A9FD1220089001240B940D9410200C90EE
:101160000E900226109600251195A0208003129063
:10117000139508A8FEF79CFF002801D000F018F88E
:101180000720009001960295039501216846FFF71C
:1011900055F9002801D072B6FEE70494069504A81C
:1011A00000F088F9002801D072B6FEE714B070BDD7
:1011B00072B6FEE71206130A1A43130C1A4300BF55
:1011C000094205D0830705D00270401C491EF9D1A1
:1011D000704700001300103906D330B41400150016
:1011E00010393CC0FCD230BC490700D30CC000D53C
:1011F00004C0890002D30280801C002900D502703F
:101200007047FEE780B50648016810220A43026075
:101210000320FFF7E9F9FFF77DFC002002BD000085
:1012200000200240F8B504000025002C01D1012067
:10123000F2BDA06B002805D1E0633421605420008A
:10124000FFF77DFC10210122A06B084003D1236829
:1012500004209E68064000D090E0A76B4A4E3E40B6
:1012600002273743A7639E68B607B60F012E05D144
:101270001E6816400FD1DE6836040CD4DE681827CD
:10128000BE43A7683743DF6023681E69B600B6080F
:10129000676837431F612368DE683C4F3740DF6073
:1012A000A36A012B01D0860200E000262369022BED
:1012B00001D1009000E00095A37E207E8003677E30
:1012C000FF030743580338430643E0683043009E5A
:1012D00006432420205C40003043E67E012E0CD1E2
:1012E000002B03D103000803184306E0A36B20265C
:1012F0001E43A663E36B1343E363E369FF26C23631
:10130000B34202D00343206A18432368DE680643D1
:10131000DE60E36A0E06B3420DD0012B0BD0022B28
:1013200009D0032B07D0042B05D0052B03D0062BA7
:1013300001D0072B0CD123685E690727BE435E618D
:1013400023685E692C27E75D7F077F0F37435F6166
:101350000223DB432668F6680D4F3740874205D1EC
:10136000E563A06B03401A43A2630BE0A06B03404C
:101370001943A163E06B1043E06302E0A06B0143FB
:10138000A16301252800F2BDFFFEFFFF1902FEFF49
:10139000E7FF3F83F8B504000025002600953420C0
:1013A000205C012801D10220F2BD01203423E05449
:1013B000226893685B0765D40B68984000903648B4
:1013C0004B68364FBB42936A009F49D01F439762D8
:1013D000E26A80235B059A421FD0012A1DD0022AAF
:1013E0001BD0032A19D0042A17D0052A15D0062AA3
:1013F00013D0072A11D022688B6857697F077F0FA7
:10140000BB420AD053690727BB4353612268536923
:101410000F7A7F077F0F1F4357610A68102A19D080
:10142000112A1AD0122A32D18022520403681A4398
:101430000260086810282AD1194800681949FFF786
:10144000F5F80A2148430090009800281FD0009822
:10145000401EF8E780221204E8E78022D203E5E785
:10146000BB4393620968102908D0112908D01229BA
:101470000DD10D4902681140016008E00B49F9E700
:101480000B49F7E7A16B20220A43A263012634200F
:1014900025543000F2BD0000082701400110000073
:1014A0000C00002040420F00FFFFFFFEFFFF7FFF08
:1014B000FFFFBFFFF8B50400374D2068C00356D5C5
:1014C00000200090802040052968014008D129684B
:1014D000014329602968084000900098012000908D
:1014E0002E4F3868C00510D43868A90D0143396003
:1014F000FFF774F806003868C00506D4FFF76EF8E9
:10150000801B6528F7D30320F2BDC02080006968E6
:101510000140234F00291ED06268104081421AD03A
:10152000686838406968802252020A436A606968C4
:101530001C4A0A406A606860C0070CD5FFF74EF885
:1015400006006868800706D4FFF748F8801B164934
:101550008842F6D3D7E76868074060683843686018
:101560000098002803D0286810490140296020789D
:10157000C00705D5686903218843A16801436961F3
:101580002078800605D5686910218843E168014309
:1015900069610020F2BD00001C1002400070004094
:1015A000FFFCFFFFFFFFFEFF89130000FFFFFFEFBF
:1015B00070B40123002413E00168001D194202D019
:1015C0004D466918491E0C60091D121F042AFAD2E3
:1015D0000D00960701D50C80AD1C1A4000D02C7070
:1015E0000268001D002AE7D170BC7047FEE7FEE7E5
:1015F0007047704780B500F015F801BD80B506480A
:10160000FFF752FC01BD80B50448FFF74DFC0448CC
:10161000FFF74AFC01BD0000D80000206001002057
:101620001C01002002484168027889184160704717
:101630000000002030B401220EE00368C3184468A3
:101640000830144202D04D462C19641E1D682560D6
:101650001B1D241D091FF9D10168001D0029ECD1B3
:1016600030BC704710B5074979441831064C7C44AA
:10167000163404E0081D0A68891888470100A14251
:10168000F8D110BD080000002800000025FFFFFF72
:1016900094010000100000200000000099FFFFFFEF
:1016A0001000000098000000000000200000000072
:1016B00000F00DF8002801D0FFF7D4FF00BF00BFF5
:1016C000002000BF00BFFFF761FC00F002F801201E
:1016D000704780B500F002F801BDFEE707463846C6
:1016E00000F002F8FBE7FEE780B500BF00BF024A4A
:1016F00011001820ABBEFBE726000200054801469A
:1017000003B4684680F3098800BF00BF00BF00BF74
:10171000FFF7CEFFA5EDF5FE7047000000000000CA
:101720000000000001020304060708090148804781
:101730000148004719170008FD16000801000000C5
:10174000000000000400000000127A000000000009
:1017500001020304FEE7FEE7FEE7FEE7FEE7FEE721
:10176000FEE7FEE7FEE7FEE7FEE7FEE7FEE7FEE751
:02177000FEE792
:04000005080016FDDC
:00000001FF
