:020000040800F2
:100000000020002059A80008F5370008F73700083D
:1000100000000000000000000000000000000000E0
:10002000000000000000000000000000F937000898
:100030000000000000000000FB370008FD3700084A
:10004000A9A8000800000000A9A80008A9A80008A5
:10005000A9A80008A9A80008A9A80008A9A800083C
:1000600000000000A9380008B9380008C9380008A5
:10007000A9A80008A9A80008A9A800080000000075
:10008000A9A80008A9A8000800000000A9A8000865
:10009000A9A80008A9A80008A9A80008A9A80008FC
:1000A000A9A80008A9A80008A9A80008D93800082C
:1000B000E938000800000000000000000000000017
:1000C00010B5064C2378002B07D1054B002B02D02E
:1000D000044800E000BF0123237010BD6001002030
:1000E00000000000DCBA0008044B10B5002B03D060
:1000F0000349044800E000BF10BDC04600000000F6
:1001000064010020DCBA000803B4714649084000CD
:100110004900095E49008E4403BC70470022430831
:100120008B4274D303098B425FD3030A8B4244D3BF
:10013000030B8B4228D3030C8B420DD3FF22090201
:1001400012BA030C8B4202D31212090265D0030BC0
:100150008B4219D300E0090AC30B8B4201D3CB03B6
:10016000C01A5241830B8B4201D38B03C01A5241F8
:10017000430B8B4201D34B03C01A5241030B8B42FA
:1001800001D30B03C01A5241C30A8B4201D3CB02E5
:10019000C01A5241830A8B4201D38B02C01A5241CA
:1001A000430A8B4201D34B02C01A5241030A8B42CD
:1001B00001D30B02C01A5241CDD2C3098B4201D3E5
:1001C000CB01C01A524183098B4201D38B01C01A63
:1001D000524143098B4201D34B01C01A52410309DA
:1001E0008B4201D30B01C01A5241C3088B4201D389
:1001F000CB00C01A524183088B4201D38B00C01A36
:10020000524143088B4201D34B00C01A5241411A5C
:1002100000D20146524110467047FFE701B5002069
:1002200000F006F802BDC0460029F7D076E7704717
:100230007047C04670B500220C4B04000D0002F060
:100240001DF8002804D12000290001F03FFF70BDF7
:10025000064B00222000290001F0A6FB01F036FF2A
:1002600080231B069C466044F1E7C0460000E04145
:10027000F0B5C64643025B0A4E0245004F00DA0065
:10028000C40F9C46700A904600B52D0E3F0EC90F54
:10029000B6098C424BD0EA1B002A36DD002F61D014
:1002A000FF2D00D1ADE08023DB041E431B2A00DCC0
:1002B000D3E001204346181A430100D48CE08001AA
:1002C0008709380001F0E4FF05388740854200DCEB
:1002D000B6E02D1AB3483840430704D00F2303403B
:1002E000042B00D00430430100D478E06A1CFE2DBA
:1002F00065D08001430A9C46D2B26346D0051843BC
:10030000E407204380BCB846F0BD002A35D07A1BF4
:10031000002D00D0AFE04346002B00D1A7E0531ED4
:10032000012A00D12FE1FF2A69D01A00AAE0E91BB7
:10033000002970DD002F37D0FF2D62D08023DB0431
:100340001E431B2900DCB0E001204044430143D59B
:100350000135FF2D33D00123934A0340400810405C
:100360001843B9E7002E00D183E0511E012A00D1C5
:10037000D8E0FF2A45D00A0098E7FE276A1C1742FA
:1003800000D086E0002D00D0B7E04346002B00D11E
:10039000F3E00022002EB0D0981B430100D4FAE015
:1003A00043460C00F01A97E7002E00D1C8E04A1E21
:1003B000012900D1AEE0FF2923D01100C1E70023BD
:1003C000FF229C4699E7FE216A1C114277D0FF2A42
:1003D000F5D0150046447008430700D07EE7C308F7
:1003E000FF2D0ED05B025B0A9C46EAB285E7002E29
:1003F00007D08022D203134203D0104201D10C0057
:100400000300002BDBD08020C00318434002430AC6
:100410009C46FF2271E70029D5D07A1B002D60D1C0
:100420004346002B24D0531E012A73D0FF2AE7D065
:100430001A001B2A00DC85E001203D00801985E7B9
:1004400020233A00451B38000135EA405D1BA840D7
:10045000431E9841002510433EE7202330009B1A9D
:1004600031009840D140431E9841084322E70C00D8
:1004700003001500B4E7FF2FC1D080234046DB0402
:10048000184380461B2A51DD01200C003D00301A24
:1004900012E743469F1B7B012BD4002F00D010E7AF
:1004A0000023002400229C4627E72023320030004E
:1004B000CA40591A8840431E9841104345E7002D11
:1004C0004AD14346002B63D00022002E00D114E70E
:1004D00030004044430100D47EE7324B01351840E0
:1004E0007AE7FF2F8CD080234146DB0419438846EE
:1004F0009FE743460C00F71AE3E64246002A00D085
:1005000075E7002E00D07AE78023DB0300249C46A9
:10051000FF22F2E6300040440125430100D45BE7AE
:10052000022518E743460125981BC5E620234446CB
:100530004046D4409A1A9040431E98412043A4E775
:100540000D004DE7202341464046D1409A1A904085
:10055000431E9841084370E74246002A00D14FE706
:10056000002E00D14DE78022D203134200D148E78C
:10057000104200D045E7030043E7002E90D00C0066
:1005800084460022B9E643460C00F01A013593E692
:1005900084460022B1E6002800D01DE70023002495
:1005A0009C46AAE6FFFFFFFBFFFFFF7DF0B54F462D
:1005B0004646D6464502C0B547000C1C6D0A3F0EA4
:1005C000C60F002F00D170E0FF2F00D175E0EB00C7
:1005D0008025ED041D43002399469A467F3F600223
:1005E000430A984663001B0EE40F002B4ED0FF2BEE
:1005F00046D04246D0008022D204024390460022D8
:100600007F3B3100FF1A4B466140C9B213430F2BA9
:1006100000D9B5E06E489B00C3589F46002398461A
:100620002600454692465346022B00D189E0032B13
:1006300000D19EE0012B18D03B007F33002B69DDF9
:100640006A0704D00F222A40042A00D004352A0168
:1006500003D5604B1D403B008033FE2B00DD70E076
:10066000AD016D0AD8B202E00E0000200025C005E1
:100670002843F6073043E0BCBA46B146A846F0BD71
:100680004346002B3FD10222FF3F03E04346002BAD
:100690002DD1012231004B466140C9B213430F2BCB
:1006A00034D84D489B00C3589F46002D13D10423D6
:1006B0009946033B00279A4691E7002D05D1082370
:1006C0009946063BFF279A4689E70C239946093B42
:1006D000FF279A4683E7280001F0DAFD7627431FBB
:1006E0009D4000237F4299469A463F1A77E740464D
:1006F00001F0CEFD4246431F9A4076235B4290466E
:100700001B1A00227DE7FF2303227AE70E00FF2059
:100710000025ACE70120C01A1B28A6DC9E372A0062
:10072000BD40C2406B1E9D4115436B0704D00F2393
:100730002B40042B00D004356B0144D5012000254B
:1007400095E7FF20002592E780250026FF20ED0396
:100750008DE7002398468020C003054209D0434618
:10076000034206D1454605436D022600FF206D0A6F
:100770007DE78020C00305436D02FF206D0A76E708
:1007800042466B015001834219D21B220025013FD2
:1007900001261C006D005B00002C01DB984201D893
:1007A0001B1A3543013A002AF3D15A1E93411D43C7
:1007B0003B007F330E00002B00DD41E7AAE71A2241
:1007C00001251B1AE4E7AD0100206D0A4FE7C04682
:1007D000F4BA0008FFFFFFF734BB0008F0B54F463E
:1007E0004646D64644024500C0B5640A0F1C2D0E8D
:1007F000C60F002D00D18DE0FF2D00D192E0002327
:10080000802099469A46E400C00404437F3D780264
:10081000430A98467B001B0EFF0F002B00D170E0AF
:10082000FF2B00D186E04246D00080227F3BED18AE
:100830000023D204024390469C4631004B46794047
:10084000681C0F2B1CD8764A9B00D3589F46390052
:100850004446E2465346022B0FD0032B00D1D7E08B
:10086000012B37D100200024C0052043C9070843CD
:10087000E0BCBA46B146A846F0BDFF200024F3E72D
:10088000260C2404220C44462404240C434627004E
:100890001B0C574374435A435E4312193B0C9B187D
:1008A0009C4203D980225202944666443F041A04B3
:1008B0003F0CD2199401671EBC411B0C920E9B1970
:1008C00014439B011C431B0100D49BE001236208DD
:1008D0001C40144302007F32002A64DD630704D009
:1008E0000F232340042B00D00434230103D502003E
:1008F0004C4B80321C40FE2ABFDCA401640AD0B2FB
:10090000B2E74346002B3DD14A4601331A43914694
:100910009C4692E7002C29D104239946033B0025ED
:100920009A4674E7002C1BD108239946063BFF2505
:100930009A466CE74346FF35002B0BD102234A460B
:100940001A4391469C4678E753463100022B00D06B
:1009500083E792E703234A461A4391469C466CE795
:100960000C239946093BFF259A4650E7200001F0E9
:100970008FFC7625431F9C4000236D4299469A4682
:100980002D1A44E7404601F083FC4246431F9A403B
:1009900000232D1A90469C46763D4EE78024002188
:1009A000FF20E40360E701239B1A1B2B00DD59E7BE
:1009B00022009E30DA4084401300621E94411C43A2
:1009C000630704D00F232340042B00D004346301B9
:1009D0001AD50120002447E78020C003044209D033
:1009E0004346034206D14446044364023900FF20D3
:1009F000640A39E78020C003044364023100FF2009
:100A0000640A31E7280065E7A4010020640A2BE7A7
:100A10008020C00304436402FF20640A24E7C04628
:100A200074BB0008FFFFFFF7F8B5CE464746430208
:100A30005B0A4E02DA009446720A914645004A006B
:100A400080B52D0E1F00C40F120EC90FB609FF2A64
:100A50005BD0012041408C4239D0A81A00285ADDD1
:100A6000002A6AD0FF2D00D1D9E08022D20416439B
:100A70001B2800DCE9E001206346181A430100D47A
:100A8000B4E080018709380001F002FC0538874096
:100A9000854200DCCCE02D1AB5483840430704D02D
:100AA0000F230340042B00D00430430100D4A0E006
:100AB0006A1CFE2D00D18DE08001470AD2B2D0051C
:100AC0003843E4072043C0BCB946B046F8BDA81A75
:100AD0008046002845DD002A70D0FF2D00D19EE021
:100AE0008023DB041E4343461B2B00DCD2E00120A5
:100AF000604443017AD50135FF2D6BD001239D4A17
:100B00000340400810401843C8E7002E20D08C4214
:100B100023D02800FF38002839D0571B002D00D0E3
:100B20009DE06346002B00D1DBE07B1E012F00D14E
:100B30000DE1FF2F71D01F0098E0002E00D1A7E03B
:100B4000421E012800D1E6E0FF2868D010008FE7A0
:100B500001204140A14200D07FE7FF204042804673
:100B6000A8444046002838D0511B002D00D1AEE0EB
:100B7000FF2A00D1DFE080236046DB04184384466F
:100B80001B2900DCD9E0012015008019B1E7FE2007
:100B90006A1C104271D1002D00D0A6E06346002BE4
:100BA00000D1D9E00022002E00D188E7981B430134
:100BB00000D4E1E063460C00F01A6FE7002E00D18C
:100BC000B7E00200013A012800D19CE0FF2826D0BE
:100BD000904688E7FF22002771E7FE206A1C10423A
:100BE00064D0FF2AF6D0150066447008430700D091
:100BF00056E7C308FF2D12D05B025F0AEAB25EE738
:100C00006246002A00D196E0002E08D08022D2034E
:100C1000134204D04846104201D10C004B46002B31
:100C2000D8D08027FF031F437F02FF227F0A46E7B9
:100C300020233A00451B38000135EA405D1BA840DF
:100C4000431E98410025104328E720231B1A320039
:100C50009E40C2403000431E984110430CE7FF2ADB
:100C6000DBD080236046DB04184384461B2F56DD0F
:100C700001200C001500301A00E763469F1B7B0122
:100C80003DD4002F00D0FEE600240022002716E706
:100C90000500AFE7320043464146DA4020235B1AA5
:100CA0009E403000431E9841104321E7002DA7D1FC
:100CB0006346002B59D00022002E00D1FFE6300001
:100CC0006044430192D52A4B013518408EE76346B4
:100CD000002B47D04B1E012915D0FF292BD019001E
:100CE0004EE70C004B463D0084E76246002A8BD15C
:100CF000002E92D180270024FF22FF03DFE6634607
:100D00000C00F71ABFE6300060440125430100D40F
:100D10006CE70225F2E663460125981BAEE6202328
:100D200064466046FC40DF1BB840431E98412043A8
:100D30009FE705005EE74B4671E720236546604666
:100D4000CD40591A8840431E984128431CE763460A
:100D50000C000125F01A91E6002E95D00C004F46AC
:100D60000022ACE64B460D0044E74F460022A6E6C3
:100D7000FFFFFFFBFFFFFF7D002800D036E70024C8
:100D800000279CE641024200C30F490A0020120ED0
:100D90007E2A03DD9D2A02DD094A981870478020CB
:100DA00000040143952A07DC9620821AD14048426C
:100DB000002BF3D10800F1E7963A9140F7E7C046DF
:100DC000FFFFFF7FF8B5002813D0C317C6185E4099
:100DD000C40F300001F05CFA9E2305001B1A962B0D
:100DE0000FDC082801DD083DAE407602760AD8B255
:100DF00002E0002400200026C0053043E407204321
:100E0000F8BD992B0CDD05223100121AD1400A00E1
:100E1000010030001B318840411E8841024316000A
:100E2000052D12DC31000D4F3940720709D00F201B
:100E30003040042805D004314A0102D59F233940AF
:100E40005B1B89014E0AD8B2D6E76A1F9640310073
:100E5000024F39407207F4D0E9E7C046FFFFFFFBBD
:100E600070B5051E0ED001F013FA9E2304001B1A64
:100E7000962B0CDC082801DD083CA5406D026D0AAC
:100E8000D8B201E000200025C005284370BD992B91
:100E900009DD020029001B3291404A1E91410522C2
:100EA000121AD5400D43052C12DC29000C4E31409E
:100EB0006A0709D00F202840042805D004314A01D0
:100EC00002D59F2331401B1B89014D0AD8B2DBE7B5
:100ED000621F95402900024E31406A07F4D0E9E7CD
:100EE000FFFFFFFBF0B557464E464546DE46E0B5F0
:100EF000814605000C03480092461F0085B0240B74
:100F0000400DCE0F002800D156E1D44B984200D1BD
:100F100072E16B0FE4001C4380231B0423439846BB
:100F2000CF4BED009B4600239946834400933C033E
:100F30007B005046240B5B0DFF0F002B00D11FE1FF
:100F4000C64A934200D162E1C549420F8C46E40093
:100F500059461443802263441204CB1A14439B461F
:100F6000C200002033007B409A464B460F2B27D807
:100F7000BC499B00CB589F46B246009B022B16D023
:100F8000032B00D18EE2012B00D0D9E000230024F6
:100F9000002552461B052343D2071343280019009E
:100FA00005B0F0BCBB46B246A946A046F0BD002441
:100FB0000025AA4BEDE7BA46A04615000090DCE7F5
:100FC000444500D2C7E100D1C2E101235B429C4607
:100FD0002E0040460025E3442302140E1C431B0C44
:100FE000994623041F0C1202494600920197FFF70D
:100FF0001BF902007A430B04310C804619438A42E4
:1010000007D901235B429C460919E0448C4200D871
:1010100007E2881A4946FFF707F909048C463104AC
:101020006646019A090C4243030031438A4204D9BF
:101030000919013B8C4200D8EDE1881A424612049E
:101040001A4390464146009B0E041B0C1F0002935E
:10105000009B360C1B04190C0B007343120C7E43CF
:10106000039151437A431F0CBC4676186644B14243
:1010700003D9802149028C466244310C8A1831041C
:101080001E04360C8E19904202D312D1B54210D2F2
:101090004346591E009B9C4665441F009D429B4150
:1010A0005B421B19C018844200D2A0E100D19BE131
:1010B0008846AE1BB542AD41801A6D42401B84424A
:1010C00000D1D5E14946FFF7AFF8019A0B0442433E
:1010D000310C050019438A4200D96CE1881A49464F
:1010E000FFF7A2F8019A360442430904360C0300C4
:1010F0000E43B24200D953E10398B61A02002D0400
:101100001D43029F2B041B0C5A437B439C46290C16
:101110004843130C844463447943984203D98020A4
:10112000400284466144180C12041B04120C41183E
:101130009B188E4200D2FFE000D1FAE001231D434C
:10114000494A5A44002A00DCAAE06B0700D03DE17E
:10115000ED084346DB0106D54246444B1A40904613
:101160008022D2005A44424B9A4200DD1FE7434698
:101170005B071D43434652055C02240B530D08E7F1
:101180005246224300D17BE0002C00D1FAE020003F
:1011900001F07EF802000B3A1D2301009B1A524613
:1011A0000839DA408C40144352468A40314B584447
:1011B0009B4683440020D5E64B462343984644D0C3
:1011C000002C00D1CEE0200001F062F80100020006
:1011D0000B391D235B1A49461000D940083884405A
:1011E0000B004D462343984685402348831A9B466F
:1011F0000023994600939AE64B46234398461DD117
:1012000008239946063B0025834600938FE6524605
:10121000224309D1022349461943184B89469C466B
:1012200000240220E3449DE603234A461A43134B5D
:1012300091469C4652460320E34493E60C2399468C
:10124000093BA0468346009371E604239946002398
:101250009B4601330025009369E6C046FF07000066
:1012600001FCFFFFB4BB0008FF030000FFFFFFFE0F
:10127000FE070000F30300000DFCFFFF01F8FFFF75
:101280004946012319438946002401206AE60023C8
:1012900080249A4600258A4B24037AE601256D4274
:1012A00001239B1A382B00DD70E61F2B00DCBFE00A
:1012B0001F2149428A1A4146D1400A00202B04D0FE
:1012C0004146804B5B4499400D436B1E9D41072373
:1012D0002A431D0000241540134200D1D4E00F2101
:1012E00000231140042900D1CBE0111D914292410D
:1012F00052429B180A00190200D4C2E001230024C4
:10130000002546E6802341461B03194208D01C42B3
:1013100006D11C432403BA461500694B240B38E65A
:101320008024434624031C432403B246644B240B0D
:101330002FE6002B00D103E7A619681EA64200D2B3
:101340008DE08E4200D2A3E000D1B3E00500F5E6C7
:10135000AA4200D939E64346DE0758086B081E4307
:10136000ED0739E6484600F093FF01000200153111
:1013700020321C2900DC2CE74B460838834000252E
:10138000984632E700F084FF03001A00153220303F
:101390001C2A00DC00E75446083B00229C4005E77D
:1013A0003619013BB44200D9A6E6B24200D8A3E602
:1013B000831E3619A0E60919013D8C4200D98DE63D
:1013C0008A4200D88AE6851E091987E60F232B403A
:1013D000042B00D1BCE605235B42AB429B410435A4
:1013E0005B42ED089844B4E6AF4200D960E6824221
:1013F00004D800D05CE6AE4200D859E602235B4236
:101400009C46009BE0449C4665449D429B415B4258
:101410001B19C0184DE68A4200D80EE6831E091932
:101420000BE68A4200D8F4E5831E98460919F0E5D8
:101430002549280059448D4042468A40691E8D4105
:101440004146D840D94002432A430B00510700D1FE
:1014500051E70F211140042900D046E74BE7050072
:101460008E4200D06AE6009A934200D066E667E6B4
:10147000164A5A44002A00DC10E70123002598444C
:1014800067E65D075B021C0BD2080023154380E56D
:101490000098023D42008242BF417F423C1936190A
:1014A0000092DDE78024434624031C432403044BBD
:1014B000240B6EE5009A9A42EAD30500D3E7C046B2
:1014C000FF0700003E0400001E040000FF030000B0
:1014D000F0B557464E464546DE46E0B598460C0305
:1014E0004B000600924687B0240B5B0DCF0F002BFC
:1014F00000D15CE1D94A934200D175E1420FE4008A
:101500001443802212041443D54AC5009446634410
:101510000093002399469B46434642461E03D20F42
:101520005B0050469046360B5B0D00D120E1CB4A64
:10153000934200D162E1CA49420F8C46009963444C
:10154000F6008C46164380229C44120463461643E0
:10155000C200002000930099434601318C46494661
:101560007B4001930F2926D8BE4B890059588F46DE
:10157000434601933400150083465B46022B16D088
:10158000032B00D103E2012B00D0CDE00022002488
:101590000025019B12052243DB071A432800110096
:1015A00007B0F0BCBB46B246A946A046F0BD002439
:1015B0000025AA4AEDE7280C2D042D0C2B00110C58
:1015C0001204120C5343984613002F0043439946CC
:1015D0004F434F44BB4647460B003F0CBA4643437C
:1015E000DA440293D14504D980277F02B9464B449F
:1015F000029353461B0C9B4653461F0443461B0451
:101600001B0C98463B0043440493330C3604360CC1
:101610009846330043439946434643432F009A4636
:10162000434677435D43380C4D444519A94503D9DA
:1016300080235B029946CA443F04280C3F0C2D04CA
:10164000ED19270C2404240C0300200050437A4396
:1016500091463A0053440593030C9A464A4361432A
:1016600049445144AB44894503D980235B029946E0
:101670004A4400040B0C000C090409182000994688
:10168000434670435C437E435F43030C9846A41972
:1016900044444A440397A64204D980235B029846F7
:1016A000474403972304029E9A46059B5E4498464E
:1016B000AE42AD4176188E4289410004000C504480
:1016C00040446D424719B846934649428946C3444F
:1016D000D94498428041A845AD41934592418945FE
:1016E00089416D4240422843240C524249420A43F8
:1016F000039B00198018C7184B46DC0D049B75022C
:101700001D436A1E95414B46F60D7F0235435A0232
:101710003C431543FB0100D41CE101216A080D4044
:101720001543E207154364084F496144002900DC72
:10173000B0E06B0709D00F222A40042A05D02A1DE9
:10174000AA42AD416D4264191500E30104D5802120
:10175000464AC90014406144454A914200DD26E7EB
:101760006207ED08640249051543240B4A0D10E792
:101770005246324300D17FE0002E00D1DCE0300041
:1017800000F086FD02000B3A1D2301009B1A524611
:101790000839DA408E40164352468A40009B35494C
:1017A000181A03008C46634400200093D3E62500FA
:1017B00005434AD0002C00D1B0E0200000F068FDC5
:1017C000010002000B391D2310005B1A31003500A7
:1017D00008388440D94085400C432648831A00933A
:1017E000002399469B4697E60500254326D108220B
:1017F00000930223002491469B468DE65246009BAF
:10180000324310D1154900268C4663444946009363
:1018100002231943894602209DE65B460197022B6D
:1018200000D0ADE6C3E60D4A0320944663444A4621
:10183000009303231A43914652468CE60C220093F0
:101840000323050091469B4666E604239946002340
:101850000093013300249B465EE6C046FF0700006C
:1018600001FCFFFFF4BB0008FF030000FFFFFFFEC9
:10187000FE0700000DFCFFFF49460123194389467E
:101880000026012067E6002380240025434A0193B7
:1018900024037EE60120401A382800DD76E61F2862
:1018A0005BDD1F2223005242511ACB401900202831
:1018B00003D03B4A6244944025436A1E95412A0066
:1018C0000A4307210D000024154011425BD00F216F
:1018D00000241140042953D0111D914292415242DB
:1018E000A4180A0023024BD501220024002550E64B
:1018F00080231B031C4209D01E4207D133431C0323
:1019000043461500240B254A019342E68022120328
:1019100014432403214A240B01973AE600F0B8FC53
:1019200001000200153120321C2900DC4BE7340095
:1019300008380025844050E700F0AAFC03001A0094
:10194000153220301C2A00DC1EE75646083B0022D8
:101950009E4023E7009B9C46E6E612492200614434
:101960002E008D408A40C640691E8D4132432A4375
:10197000C4405307B6D00F2111400429ACD1B1E7C0
:1019800065076402240BD2081543002201E6802279
:10199000120314432403014A240BFAE5FF07000055
:1019A0003E0400001E040000F8B557464E4645466A
:1019B000DE46E0B51E0017004A000B03520D5B0A1D
:1019C0009046420F1A43CD0FCD4C3103C3009446CD
:1019D00070007A0F490AFF009A46B946400DF60F8B
:1019E0001143A04200D1B1E001225640B346B542B6
:1019F00000D188E04246121A002A00DCAEE000283E
:101A000000D1C1E0BE48804500D151E180200004F2
:101A10000143382A00DD7BE11F2A00DDEEE12020B2
:101A20003E00801A0C00D640D14087406246844078
:101A3000521A781E8741944634432743DC1BA34245
:101A40009B4162465B42D31A99464B461B0200D427
:101A500018E14B465802430A99464B46002B00D1E9
:101A600037E1484600F014FC010008392023220029
:101A700048465B1ADA4088408C404346104388450C
:101A800000DD36E1C91A4B1C1F2B00DDEAE02022E5
:101A90002600D21A01009440DE40D8400023914035
:101AA000621E94418146984631430C43630709D036
:101AB0000F232340042B05D0231DA342A4416442DD
:101AC000A1441C004B461B0200D4DEE041468C4B77
:101AD0000131994200D1E7E04B468A48E4080340CF
:101AE000180049055B07400223434A0D040B120509
:101AF000ED0722432A4318001100F0BCBB46B24652
:101B0000A946A046F8BD4246121A002A52DD002816
:101B100000D19CE0A04500D1CAE080200004014330
:101B2000382A00DD49E11F2A00DC97E110000E0091
:101B30002038C640202A04D04020821A91400F430A
:101B4000B9464C46621E944134433AE10A003A4396
:101B500028D0B346B5422BD06B4A4244002A5DD010
:101B600042464446821A002C00D0F5E065461D43EB
:101B700000D19CE1551E012A00D1FBE1604CA2423C
:101B800000D1BDE12A00F0E00800384300D1C3E0F5
:101B9000501E012A00D1A8E1594CA24200D187E091
:101BA000020036E701225640B346B54200D021E795
:101BB000554A4244002A00D1B5E042464446821AC2
:101BC000002C00D138E14E4EB04200D1DEE180263B
:101BD000644636043443A446382A00DD96E11F2AC1
:101BE00000DD24E22026B41AA24664465646B440DC
:101BF000A1461C004E46D440264334005646B3400E
:101C00005E1EB3411C436346D340C918E419BC426D
:101C1000BF417F42B94680468944D8E040463B4CAC
:101C20000130204200D0B4E04046002800D044E11A
:101C30006046184300D190E10800384300D0AAE183
:101C40006146DB0849070B436146CC0827E00800E2
:101C5000384361D0501E012A00D139E1A24227D079
:101C600002005DE702001F39CA401100202B03D09B
:101C70004022D31A98400443631E9C410023994696
:101C800098460C43630700D012E74B464A46E408E7
:101C90005B072343D408424619498A420ED02403E5
:101CA0005205240B520D22E70A00002400231EE7F0
:101CB000DB086246520713436246D4081A002243E7
:101CC00000D1FCE180221203144324030C4A240BAC
:101CD0000DE7200000F0DCFA010018311F2900DCBC
:101CE000C4E608388440434620000024884500DCD0
:101CF000C8E6044A5B1A104098468146D6E6C046BC
:101D0000FF070000FFFF7FFF01F8FFFFFE07000055
:101D10000F437A1E974191E66146DB0849070B4362
:101D20006146CC08B8E74046D34C0130204200D091
:101D3000A2E04046002800D001E16046184300D1EF
:101D40005EE10800384300D05FE16146DB084907E7
:101D50000B436146CC08A2E7C84DA84200D1CFE0B2
:101D6000802564462D042C43A446382A56DC1F2ABD
:101D700000DDD1E020251E00AD1A6446AB40AC402A
:101D8000D6405D1EAB41344323436446D440091B17
:101D900049E06046DC1B461AA3428041404281462E
:101DA00030004E46801B8146000276D44B462343CA
:101DB00000D052E60024002571E739430C00621E72
:101DC0009441E4189C429B415B42634499464B46D4
:101DD0001B0200D456E701239C46A84BE0449845DB
:101DE00038D04B46A648012203401800630814402F
:101DF0001C43C3071C434308994657E610000E00D6
:101E00002038C640202A04D04020821A91400F4337
:101E1000B9464F467A1E974137430FE662461A434A
:101E200013005A1E9341FC1AA742BF417F42CB1BAD
:101E300099465D46804608E666461E4300D1BEE0F0
:101E4000561E012A00D109E18C4CA24200D119E1B1
:101E50003200C1E642460024002348E620200C0060
:101E6000801A3E0087408440D640781E8741D1408A
:101E700034433C438C44A4E7804A904200D1E9E0DB
:101E8000DF199F429B4161445B42C918CC077F0820
:101E90004B08994680463C43F4E6FC1AA742BF41F2
:101EA00063467F42C91ACB1B99465D46D5E5FF08BC
:101EB0004B075D463B43CC08EEE662461A4300D032
:101EC00082E00B003B431BD1802400252403F9E66C
:101ED000DC199C429B41614489465B4299444B46D4
:101EE0001B0244D401239846CCE6DC1B6246A34285
:101EF0009B41511A5B42CB1A994601239846A4E5AF
:101F0000FF084B075D463B43CC08D7E662461A43C1
:101F10001400631E9C4179E615006446203DEC40A8
:101F2000A046202A05D040256446AA1A944023439F
:101F30009A465446631E9C414346234373E76246D8
:101F40001A4323D00A003A4300D0A0E06246DB08DF
:101F5000520713436246D408B0E60B003B4300D15E
:101F600028E7FF084B075D463B43CC0897E6022372
:101F7000984636E7FC1AA742BF4163467F42C91A1A
:101F8000CB1B994601235D4698465EE54B07FF084B
:101F90003B43CC0892E6DC1B6046A342B641401AA4
:101FA0007642801B8146000260D5FC1AA742BF41E1
:101FB00063467F42C91ACB1B99465D4676E5FF080A
:101FC0004B073B43CC0867E60A00DB083A4300D1E5
:101FD0006FE66246520713436246D408802212031A
:101FE000144207D0C808104204D15D460400FB0823
:101FF00049070B435A0FDB00DB08520713435DE62A
:102000004B07FF083B43CC0849E6DC199C429B4147
:10201000614489465B4299444B461B0200D431E639
:102020004A46174B1A400123914698462AE6160065
:102030006446203EF440A046202A05D0402664464F
:10204000B21A944023439A465446631E9C41434629
:102050001C43DBE502000024002348E5DC19BC42F8
:10206000BF41614489467F42B94438E74B46234328
:1020700000D19FE606E6C046FE070000FF0700000D
:10208000FFFF7FFFFF084B073B43CC0816E6624685
:10209000DB08520713436246D4088022120314421D
:1020A00007D0C808104204D15D460400FB08490768
:1020B0000B435A0FDB005207DB081343FEE50023F6
:1020C000014A1C0013E5C046FF0700000A0030B5B6
:1020D000134C530009030500090B00205B0DD20FC0
:1020E000A34204DD0F48834202DD0F4BD01830BD00
:1020F0008020400301430D48C01A1F2808DD0C480A
:10210000C31AD9400B005842002AF0D11800EEE75C
:10211000084CC540A446634499400B002B43F2E7AA
:10212000FE0300001D040000FFFFFF7F33040000DA
:1021300013040000EDFBFFFF10B5041E10D000F0EB
:10214000A7F80F4B1B1A0A2811DC0B222100121AC8
:10215000D14015300A035B058440120B5B0D01E092
:10216000002300221B0513432000190010BD22008C
:102170000B3882405B0512030024120B5B0DF1E764
:102180001E04000070B543004602C40FFE201B0E63
:10219000591C750A08420CD0E022920094466D0743
:1021A000360B63441B053343E4072343280019001F
:1021B00070BD002B14D1002D1BD0280000F068F852
:1021C0000A281CDC0B232E001B1ADE4003001533EB
:1021D0009D400E4A3603121A5205360B530DE1E7A5
:1021E000002D09D08022360B1203094B6D071643D0
:1021F000D8E700230026D5E70026054BD2E70300E9
:102200000B3B9D402E000025E3E7C04689030000FC
:10221000FF0700008446100062468C4619006346A2
:1022200000E0C0461FB500F0F9F8002801D40021F5
:10223000C8421FBD10B500F049F84042013010BD42
:1022400010B500F0EBF8002801DB002010BD0120E4
:1022500010BDC04610B500F0E1F8002801DD0020F7
:1022600010BD012010BDC04610B500F071F8002867
:1022700001DC002010BD012010BDC04610B500F0EB
:1022800067F8002801DA002010BD012010BDC0460B
:102290001C2101231B04984201D3000C10391B0A96
:1022A000984201D3000A08391B09984201D300095A
:1022B000043902A2105C40187047C04604030202B1
:1022C000010101010000000000000000F0B54E46D1
:1022D0004546DE4657469046E0B517001A03120BF6
:1022E0000500844619480E034C0091465A00DB0F46
:1022F0009B46360B640DC90F520D844219D08242A1
:1023000010D0012094420ED14E450CD10120C4457D
:1023100009D1594517D0002C05D130002843431E60
:10232000984100E00120F0BCBB46B246A946A04659
:10233000F0BD330001202B43F5D1A242F3D14B462F
:102340003B43F0D1E2E70020EDE7C046FF07000085
:10235000F0B54746CE460400180016001B031B0BC1
:102360002D4D4A00994680B543000F03A446B04660
:102370003F0B520DC90F5B0DC00FAA4221D0AB42DB
:1023800013D0002A22D13C43002B02D14D462E43CC
:1023900022D0002C10D0814222D0022001390840E6
:1023A0000138C0BCB946B046F0BD4D462E4329D1D8
:1023B000002AF0D13C43EED10028F2D10120404266
:1023C000EFE73D0025431DD19342EED0002BE2D133
:1023D0004C462643DFD1E0E70020002CE1D0DCE7CB
:1023E0009A420ADCE8DB4F45D7D80ED000204F4593
:1023F000D7D20029E2D00800D3E743425841400039
:102400000138CEE702204042CBE7C445C5D80020C2
:10241000C445C6D2EDE7C046FF070000F0B5474609
:10242000CE460400180016001B031B0B2C4D4A005F
:10243000994680B543000F03A446B0463F0B520DAA
:10244000C90F5B0DC00FAA420DD0AB4210D0002ABD
:1024500027D13C43002B11D14D462E430ED10020F5
:10246000002C15D00EE03D00254310D1934218D129
:102470004D462E430BD1002A02D13C43002C0BD0F9
:10248000814214D0022001390840013800E00220C6
:10249000C0BCB946B046F0BD0028F9D10120404289
:1024A000F6E7002BECD14C462643E9D1EAE79A4205
:1024B00004DD4342584140000138E9E79A42EBDB32
:1024C0004F45DFD806D000204F45E1D20029E5D0A6
:1024D0000800DDE7C445D5D80020C445D8D2F5E7CB
:1024E000FF070000F0B5C64600B584B004000F0039
:1024F0001500821880231B019A423FDA43420F22C3
:102500001E001640134200D11026B3B2AB4220D9B0
:10251000EEB21EE0A023B2B29046FF22224099B252
:10252000202302934346019300970123144806F0A9
:10253000C9FF002819D14444A4B24346ED1AADB2F4
:10254000BF192E1C102D00D91026F6B2052006F05A
:10255000E7FD002D0DD0230ADCD0E10949B20E239E
:1025600019406E3B0B43DBB2D5E7052006F0D8FDE2
:10257000EFE7002004B080BCB846F0BD0120F9E7C9
:1025800058040020F0B5C64600B584B004000F0022
:102590001500821880231B019A423CDA43420F2225
:1025A0001E001640134200D11026B3B2AB421DD913
:1025B000EEB21BE0A123B2B29046FF22224099B2B4
:1025C000142302934346019300970123134807F015
:1025D00049F8002816D14444A4B24346ED1AADB2DE
:1025E000BF192E1C102D00D91026F6B2002D0DD0CB
:1025F000230ADFD0E10949B20E2319406D3B0B439A
:10260000DBB2D8E7064808F0F9F9EFE7002004B09C
:1026100080BCB846F0BD0120F9E7C0465804002050
:1026200034BC000870B5040000250EE00122102122
:10263000184807F010FA6400A4B280210122C901F1
:10264000154807F008FA0135EDB20F2D0ED880219C
:102650000022C901104807F0FEF923B2002BE5DB88
:10266000002210210B4807F0F6F9E4E78025AD01C0
:10267000094C00222900200007F0EDF90122290071
:10268000200007F0E8F900222021024807F0E3F9D2
:1026900070BDC046000400480008004870B58025A1
:1026A0002D02084C00222900200007F0D4F9012255
:1026B0002900200007F0CFF9034B1888FFF7B2FF7D
:1026C00070BDC046000800480000002000B587B07B
:1026D00080235B010193012302930233049301A938
:1026E000024807F0E9F807B000BDC0460004004802
:1026F00000B587B080235B0101930023029301A9F9
:10270000024807F0D9F807B000BDC04600040048F1
:1027100010B5FFF7DBFF802101224901014807F0D6
:102720009AF910BD0004004805E00133DBB2002B2C
:10273000FBD0013880B2002801D00023F7E77047B2
:1027400070B50026002510E03220FFF7EDFF802154
:1027500049011E4807F078F901281AD00722521BB8
:10276000012393409E430135EDB2072D2AD8002462
:1027700080214901154807F067F90028E4D10134A8
:10278000A4B2FA239B009C421DD80120FFF7CCFF86
:10279000EEE70024802149010C4807F055F9012893
:1027A00009D10134A4B2FA239B009C420CD8012029
:1027B000FFF7BAFFEEE70722521B01239340DBB27B
:1027C0001E43D0E7300070BD0020FCE70004004845
:1027D00070B50500002404E0FA208000FFF7A4FF94
:1027E0000134AC42F8D370BDF0B5D6464F464646EC
:1027F000C0B50500FFF76AFF802676013E4C002237
:102800003100200007F027F91220FFF7E1FF012235
:102810003100200007F01FF91E20FFF785FFFFF7AA
:1028200067FF3100200007F00FF9061E0FD10024CA
:1028300080214901304807F007F900280ED1013402
:10284000A4B2642C55D80120FFF76EFFF0E70126F3
:102850003000E0BCBA46B146A846F0BD0024802155
:102860004901254807F0F0F8012807D10134A4B246
:10287000642CEDD80120FFF757FFF0E7FFF760FF6A
:102880002870FFF75DFF6870FFF75AFFA870FFF729
:1028900057FFE870FFF754FF814628712B78984660
:1028A00064241800604380B26B789A46C01880B2E6
:1028B000FFF742FC0022114BFEF714FBA860E96011
:1028C000AF787C43A0B2EC78001980B2FFF734FCFB
:1028D00000220A4BFEF706FB286169614346534418
:1028E000DBB2FF18FFB2E719FFB2B945B0D001263D
:1028F000AEE70600ACE7C0460004004800005940BF
:1029000010B50248FFF770FF10BDC04688010020D7
:1029100010B501238340044A1088184380B2108008
:10292000FFF780FE10BDC0467C01002010B50123DA
:102930008340034A108898431080FFF773FE10BD50
:102940007C010020F0B5C64600B505000C008021D2
:1029500000228901294807F07EF80A35EBB2984633
:102960001800FFF7E3FFFA20800000F0D8FF0025F1
:1029700016E0802100220902204807F06CF8802729
:10298000BF011E4E01223900300007F064F800221A
:102990003900300007F05FF86400A4B20135EDB2F1
:1029A000092D08D8A305E4D5802101220902134886
:1029B00007F051F8E3E78021104C002209022000C3
:1029C00007F049F88025AD0101222900200007F019
:1029D00042F800222900200007F03DF801222900DA
:1029E000200007F038F800222900200007F033F813
:1029F0004046FFF78DFF80BCB846F0BD000400489C
:102A0000F0B5C64600B5854B1A68FA23DB009A423A
:102A100000D9CDE080219024E4050901200007F0D1
:102A200013F88021C900200007F00EF88021090268
:102A3000200007F009F80121200007F005F8784B85
:102A40001B68002B00D0C9E0754B1B68002B00D120
:102A5000CAE001F0C9FC734B1B680A2B00D8A4E044
:102A6000704B00221A60704B1F683800FEF7AAF9FD
:102A7000FFF788FB6D4A6E4BFEF72AFDFDF7DAFB88
:102A80006C4B18806C4B1E683000FEF79BF9FFF70B
:102A900079FB664A664BFEF71BFDFDF7CBFB674BE8
:102AA0001880674B1D682800FEF78CF9FFF76AFB5A
:102AB0005E4A5F4BFEF70CFDFDF7BCFB614B1880D7
:102AC000614B1C682000FEF77DF9FFF75BFB574A5E
:102AD000574BFEF7FDFCFDF7ADFB5C4B18805C4BE4
:102AE0001B6898461800FEF76DF9FFF74BFB4F4A3D
:102AF0004F4BFEF7EDFCFDF79DFB564B1880002F6A
:102B000000DC77E0002E00DC78E0002D00DC79E0CE
:102B1000002C00DC7AE04346002B00DC7AE0454BD9
:102B20001A888023DB009A4202D3424B4A4A1A8019
:102B3000424B1A888023DB009A4202D33F4B464A1D
:102B40001A80404B1A888023DB009A4202D33D4B07
:102B5000414A1A803D4B1A888023DB009A4202D3F7
:102B60003A4B3D4A1A803B4B1A888023DB009A423D
:102B700002D3384B384A1A802E4B19880020FFF7B1
:102B8000E1FE2E4B19880120FFF7DCFE2D4B198842
:102B90000220FFF7D7FE2D4B19880320FFF7D2FE46
:102BA0002C4B19880420FFF7CDFE80BCB846F0BD41
:102BB0001A4B00221A6000F0BDFA284B9868D968B9
:102BC0000022274BFEF784FCFFF780FA00B2254B6A
:102BD0001860FFF795FE00F0A1FA1BE701228021A3
:102BE000214806F038FF2FE7002280211E4806F01A
:102BF00032FF2EE70F4B00221A8083E70F4B002293
:102C00001A8082E70F4B00221A8081E70F4B0022C7
:102C10001A8080E70F4B00221A8080E7AC01002069
:102C2000B4010020B00100201000002091ED7C3F95
:102C3000355EE03FA001002014000020A20100202A
:102C400018000020A40100201C000020A601002084
:102C500020000020A8010020FF03000088010020C0
:102C6000000024402400002000140048F0B5DE4697
:102C700057464E464546E0B58BB01422002105A8C4
:102C800007F041FE4E4B5969802000030143596112
:102C90005A6902400192019A59698020C003014398
:102CA00059615A6902400292029A59698020800251
:102CB000014359615A6902400392039A5A6980217B
:102CC000C9020A435A615B690B400493049BE024E8
:102CD00024023C4B9B4600222100180006F0BBFE5C
:102CE000394B9A469027FF0500221900380006F05C
:102CF000B2FE364B9946364E00221900300006F0DF
:102D0000AAFE344B98460022C021180006F0A3FE0C
:102D100005940125069500240794089405A95846B2
:102D200006F0CAFD2C4B05930694079505A93800BB
:102D300006F0C2FD5346059306950794089405A92D
:102D4000380006F0B9FD254B05930694079405A9B4
:102D5000300006F0B1FD4B460593069507940894A4
:102D600005A9300006F0A8FD80231B0105931C4B2C
:102D70000693079405A9300006F09EFD80235B01B1
:102D8000994605930694079505A9300006F094FD31
:102D90004B4605930694079405A9380006F08CFD70
:102DA000C023059306950794089405A9404606F0AC
:102DB00083FD0BB0F0BCBB46B246A946A046F0BDB1
:102DC00000100240000800480203000038A4000080
:102DD0000004004800140048018C00000640000078
:102DE0000000111000B583B0114A51690123194345
:102DF0005161526913400193019B00220021092077
:102E000006F058FF092006F085FF002200210A2065
:102E100006F050FF0A2006F07DFF002200210B2063
:102E200006F048FF0B2006F075FF03B000BDC0465A
:102E30000010024030B585B00C22002101A807F037
:102E400062FD1E4C1E4B236000236360A360E360A1
:102E5000012222610425656123766376A276E376FA
:102E6000C221FF31E16123622433E254A2622000D7
:102E700005F00AFB019580235B0102930223039373
:102E800001A9200005F0A4FC0523019301A920005D
:102E900005F09EFC0623019301A9200005F098FC93
:102EA0000723019301A9200005F092FC0823019358
:102EB00001A9200005F08CFC05B030BD4C030020BA
:102EC0000024014010B50D4C0D4B23600D4B636089
:102ED0000023A3600122E26023616361A361E361D7
:102EE0002362200006F088FA0021200006F08EFC04
:102EF0000021200006F0B6FC10BDC046580400209A
:102F000000540040D28C800010B50948094B036082
:102F100096239B01436000238360C36003610C22FE
:102F200042618361C3610362436207F0E7FB10BD46
:102F3000EC0400200038014010B50948094B03603B
:102F400096239B01436000238360C36003610C22CE
:102F500042618361C3610362436207F0CFFB10BD2E
:102F60007005002000440040044B1B78012B00D06A
:102F70007047034A138801331380F9E7F4050020F2
:102F8000F805002070B53E4C3E4B1B6823603E4B5D
:102F90001B6863603D4B1B68A3603D4B1B68E3608F
:102FA0003C4B1B6823613C4B1B6863613B4B1B68BC
:102FB000A3613B4B1B68E3613A4B1B6823623A4BAE
:102FC0001B686362394B1B68A362394B1B68E36261
:102FD000384B1B682363384B1B686363374B1B6894
:102FE000A363374B1B68E363364B1B682364364B84
:102FF0001B686364354B1B68A364354B1B68E36433
:10300000344B1B682365344B1B686365334D28685C
:10301000FDF7B8FE83001B185B00A3656868FDF729
:10302000B1FE83001B185B00E365A868FDF7AAFEEC
:1030300083001B185B002366294D2868FDF7A2FE5C
:1030400083001B185B0063666868FDF79BFE8300C6
:103050001B185B00A366A868FDF794FE83001B188D
:103060005B00E366002307E01E4AD15C044AD218E5
:103070007032117001339BB2102BF5D970BDC04670
:10308000FC05002010000020140000201800002083
:10309000080B00200C0B0020100B0020800A0020E1
:1030A000840A0020A00A0020A40A0020A80A002008
:1030B000580000205C000020600000206400002018
:1030C0009400002098000020EC0000209C0A0020C2
:1030D00068000020C00A0020B80A0020C4000020B8
:1030E0006C000020D40A002030B5FF24FF2508E042
:1030F000037863400749CC5C6C400749CD5C110004
:1031000001304A1E92B20029F2D12802204380B237
:1031100030BDC04648BC000848BD000810B5FA22C2
:1031200052000249024805F071FA10BD88060020DD
:103130004C03002010B5024805F0BCFA10BDC04693
:103140004C03002070B5984B1B68DA69D20600D496
:1031500070BD10221A62944C200006F09DFE236878
:103160000F221A62236F1B685A68C8239B1A9BB2EE
:103170008E4A13808E4A11788E4A126891421CD072
:103180008B4B1B78FA2B00D19BE0894B1B78FA2BD9
:1031900000D1B8E0864B1B78FA2B00D1D5E0864BE6
:1031A00000221A8090200221C00506F054FCC8229B
:1031B0007F497D4807F01EFBCAE77D49497803290E
:1031C000DED17B4989780029DAD17949C97800298B
:1031D000D6D1774909790029D2D17549497905298C
:1031E000CED1082BCCD1754B1A7003225A700732FE
:1031F0009A70734B1968734B1C68A14253DD01230D
:10320000714A1268944201DA022003436F48006851
:1032100084424ADA042423436D4C2478002C47D09E
:10322000082423436A4C6478002C44D010242343A0
:10323000674CA478002C41D0202423435F4C1D0A06
:10324000E57023710A23594323310DB22D126571A4
:10325000A1715A43233211B20912E1712272434320
:1032600023331AB212126272A3725A4B1B681A0AE3
:10327000E27223730D212000FFF736FF6073000A0E
:10328000A073902001220221C00506F0E4FB524801
:1032900005F010FA64230F222100434807F074F967
:1032A000FFF73CFF6CE70023AAE70424A343B3E73E
:1032B0000824A343B6E71024A343B9E72024A3437B
:1032C000BCE73B4B5B78042B00D05EE7384B9B7828
:1032D000D12B00D059E7364B5B79FB2B00D054E75C
:1032E000334CE2783A4B1A73902001220221C00538
:1032F00006F0B1FBFA23304A12889B0021002A48CD
:1033000007F042F941E72A4B5B78042B00D041E7F4
:10331000274B9B78D22B00D03CE7254B5B79FB2BCE
:1033200000D037E7224CE278294BDA739020012253
:103330000221C00506F08FFBFA231F4A12889B006A
:103340002100194807F020F924E7194B5B78042B7A
:1033500000D024E7164B9B78F12B00D01FE7144BCD
:103360005B79FB2B00D01AE7144C013B2370F63B32
:103370006370ED33A370FFF705FEE01C8722174949
:1033800007F0B8FA8A23FB22E2549020FA3A02218D
:10339000C00506F060FBFA239B008B222100024847
:1033A00007F0F2F8FBE6C04670050020800200201E
:1033B000B801002068000020F605002084020020EB
:1033C00010000020600000201400002018000020E1
:1033D000D40A0020800A00204C030020FC050020B5
:1033E00010B50648064B0360002343608360054A1E
:1033F000C260836106F000FD10BDC046A404002039
:10340000002C0140FFFF000030B595B030220021B4
:1034100008A807F078FA10241022002104A807F069
:1034200072FA10220021684607F06DFA1223089301
:10343000113B0B930D930C940E9402251095E022F2
:1034400052031292139308A805F05CFA0723049321
:103450000595002506950795012104A805F0D8FCDF
:103460002123009302950394684605F081FD15B071
:1034700030BD000010B505F031FEFFF7C5FFFFF7C6
:10348000F5FBFFF7AFFCFFF7D5FCFFF71BFDFFF7E0
:103490003BFDFFF751FDFFF7A3FFFFF739F900F000
:1034A0002EFAFA2252002249224805F0AFF800F025
:1034B000EFFA902000220221C00506F0CCFA1E4C43
:1034C000C8221E49200007F095F9226813681021D0
:1034D0000B431360FFF7E2F80020FFF727FA012003
:1034E000FFF724FA0220FFF721FA0320FFF71EFA64
:1034F0000420FFF71BFA0520FFF718FA0620FFF754
:1035000015FA0720FFF712FA0820FFF70FFA092033
:10351000FFF70CFAFA24A4002000FFF759F9200065
:10352000FFF756F92000FFF753F9FFF769FAFCE7B8
:10353000880600204C03002070050020B801002000
:103540007047000082B00A4B9969012211439961CA
:1035500099690A400092009ADA69802149050A4374
:10356000DA61DB690B400193019B02B07047C046F2
:103570000010024030B589B004001422002103A8D5
:1035800007F0C1F9264B22689A4201D009B030BD3C
:10359000244B996980208000014399619A69024017
:1035A0000092009A596980208002014359615A694A
:1035B00002400192019A5A698021C9020A435A6164
:1035C0005B690B400293029BF02303930325049550
:1035D000902003A9C00506F06FF901230393049519
:1035E0000025059503A9104806F066F90F48104B11
:1035F0000360456085608023C3608033036180235E
:10360000DB00436120238361C56106F051FA002885
:1036100003D1064B23635C62B8E7FFF791FFF8E73D
:103620000024014000100240000400488C030020E8
:103630000800024010B588B004001422002103A83D
:1036400007F061F92268134B9A4201D008B010BD0F
:10365000114C62698021C9020A43626163690B40AF
:103660000193019BC0239B00039312230493113BFE
:10367000059303220692079303A9084806F01CF954
:10368000E269802189030A43E261E3690B40029306
:10369000029BDBE700540040001002400004004899
:1036A00010B58AB004001422002105A807F02BF9F8
:1036B0002368404A934204D03F4A93423DD00AB027
:1036C00010BD3E4B99698020C001014399619A6900
:1036D00002400192019A5A698021C9020A435A6143
:1036E0005B690B400293029BC0230593BE3B06938C
:1036F0000133089305A9324806F0DEF83148324B11
:1037000003600023436083608022C26003614361E1
:103710008361C36106F0CCF900280BD1294B2367E4
:103720005C62002200211B2006F0C4FA1B2006F078
:10373000F1FAC4E7FFF704FFF0E7204BD9698022D4
:1037400092021143D961D9691140039103995969D2
:10375000114359615B691A400492049B0C23059341
:103760000A3B069301330893023B0993902005A975
:10377000C00506F0A1F81548154B0360002343600F
:1037800083608022C260036143618361C36106F08C
:103790008FF900280BD10D4B23675C6200220021BA
:1037A0001C2006F087FA1C2006F0B4FA87E7FFF722
:1037B000C7FEF0E70038014000440040001002401E
:1037C00000040048D0030020300002401404002010
:1037D0005800024082B0064A9169802000010143EE
:1037E0009161936903400193019B02B07047C04609
:1037F000001002407047FEE77047704710B505F0B3
:103800007DFC1D4A1368013313601C4A13680133A1
:1038100013601B4A1368013313601A4A136801339B
:103820001360194A136801331360FFF79DFB174BB0
:103830001B78013BDBB2022B03D8154A1368013316
:103840001360144A136801331360134A934206D974
:10385000104B00221A60114A136801331360104B99
:103860001B68002B02D0013B0D4A13600D4A136800
:103870000133136010BDC046B00100201C0B0020B6
:10388000000B0020AC010020940A0020080000205A
:103890008C0A00208406002060EA0000040B00204F
:1038A000B40100208001002010B5024806F0AAF9FA
:1038B00010BDC0468C03002010B5024806F0A2F9E6
:1038C00010BDC046D003002010B5024806F09AF99A
:1038D00010BDC0461404002010B5024806F066FB77
:1038E00010BDC046EC04002010B5034806F05EFB96
:1038F000FFF728FC10BDC04670050020704710B5CA
:1039000080219024E40501224900200006F0A3F85C
:10391000802101228900200006F09DF810BD0300DF
:10392000013880B2002BFAD1704770B58021902405
:10393000E40501224900200006F08DF88025AD0045
:1039400001222900200006F086F80022290020002C
:1039500006F081F870BD70B5802676009024E405ED
:1039600000223100200006F076F88025AD0000220C
:103970002900200006F06FF801223100200006F037
:103980006AF801222900200006F065F870BD70B5C4
:103990000500002410E08021902000228900C0054D
:1039A00006F059F86D088021902001224900C005D9
:1039B00006F051F80134E4B2072C10D88021902091
:1039C00000224900C00506F046F8EB07E3D5802148
:1039D000902001228900C00506F03DF8E2E770BDA5
:1039E00070B5FFF7A2FF4420FFF7D1FFFFF7B3FF49
:1039F000FFF79BFFC020FFF7CAFF234C2378234D1E
:103A0000E85CFFF7C4FFFFF7A6FFFFF78EFFC120BA
:103A1000FFF7BDFF6378E85CFFF7B9FFFFF79BFF97
:103A2000FFF783FFC220FFF7B2FFA378E85CFFF740
:103A3000AEFFFFF790FFFFF778FFC320FFF7A7FF68
:103A4000E378E85CFFF7A3FFFFF785FFFFF76DFF63
:103A5000C420FFF79CFF2379E85CFFF798FFFFF78E
:103A60007AFFFFF762FFC520FFF791FF6079FFF74C
:103A70008EFFFFF770FFFFF758FF8B20FFF787FFE0
:103A8000FFF769FF70BDC046200B0020A00000209A
:103A900070B5E64C02222100B220FEF773FD2268C9
:103AA000E34B9A4203DDE14BE12292001A60DF4CC6
:103AB000211D0222B420FEF765FD6268DC4B9A42AC
:103AC00003DDDA4BE12292005A60D84C2100083124
:103AD0000222B620FEF756FDA268D54B9A4203DDBE
:103AE000D24BE12292009A60D04C21000C3102228C
:103AF000B820FEF747FDE268CD4B9A4203DDCB4B81
:103B0000E1229200DA60C94C210010310222BA2071
:103B1000FEF738FD2269C64B9A4203DDC34BE12212
:103B200092001A61C14C210014310222BC20FEF720
:103B300029FD6269BE4B9A4203DDBC4BAF22920065
:103B40005A61BC4C02222100BE20FEF71BFD2268F8
:103B5000B74B9A4203DDB74BFA2292001A60B54C7C
:103B6000211D0222C020FEF70DFD6268B04B9A4273
:103B700003DDB04BFA2292005A60AE4C21000831AE
:103B80000222C220FEF7FEFCA268A94B9A4203DD86
:103B9000A84BFA2292009A60A64C21000C31022216
:103BA000C420FEF7EFFCE268A14B9A4203DDA14B73
:103BB000FA229200DA609F4C210010310222C620C6
:103BC000FEF7E0FC22699A4B9A4203DD994BFA22F8
:103BD00092001A61974C210014310222C820FEF78E
:103BE000D1FC6269924B9A4202DD924B924A5A6131
:103BF000924C042221000020FEF7C4FC2368182BFD
:103C000002D98E4B00221A608D4C042221003820EC
:103C1000FEF7B8FC23683C2B02D9894B00221A60BE
:103C2000884C042221000420FEF7ACFC2368FA2211
:103C3000920094466344FA22D200934202D9814B07
:103C400000221A60804C042221000820FEF79AFC12
:103C50002368FA22920094466344FA22D2009342E7
:103C600002D9794B00221A60784C042221000C20E2
:103C7000FEF788FC2368FA22920094466344FA22F5
:103C8000D200934202D9714B00221A60704C042278
:103C900021006420FEF776FC2368FA229200944605
:103CA0006344FA22D200934202D9694B00221A607F
:103CB000684C042221006820FEF764FC2368FA2285
:103CC000920094466344FA22D200934202D9614B97
:103CD00000221A60604D042229003C20FEF752FCAD
:103CE0005E4C042221004820FEF74CFC291D0422D2
:103CF0004020FEF747FC211D04224C20FEF742FC29
:103D00002900083104224420FEF73CFC2100083140
:103D100004225020FEF736FC29000C3104225420E6
:103D2000FEF730FC21000C3104225820FEF72AFC5B
:103D30002900103104225C20FEF724FC2100103100
:103D400004226020FEF71EFC454D04222900842039
:103D5000FEF718FC434C042221009820FEF712FCC9
:103D6000291D04228820FEF70DFC211D04229C2021
:103D7000FEF708FC2900083104228C20FEF702FC23
:103D8000210008310422A020FEF7FCFB29000C31A1
:103D900004229020FEF7F6FB21000C310422A4201F
:103DA000FEF7F0FB2900103104229420FEF7EAFB15
:103DB000210010310422AA20FEF7E4FB2A4C042241
:103DC00021001020FEF7DEFB2268FA23DB009A4276
:103DD00003D9254BFA2292001A60244C04222100B8
:103DE0001420FEF7CFFB2268FA23DB009A4203D9A6
:103DF0001E4BC82292001A601D4C0422210018207C
:103E0000FEF7C0FB2268FA23DB009A4202D9184B66
:103E1000184A1A60184C042221001C20FEF7B2FB3D
:103E20002268FA23DB009A422BD927E040000020C9
:103E3000DC05000028000020B6030000800A0020F6
:103E4000840A0020A00A0020A40A0020A80A00205A
:103E5000AC0A0020B00A0020C40000206C00002042
:103E6000D800002080000020580000205C000020C6
:103E7000600000201405000064000020394B3A4A1D
:103E80001A603A4C042221002020FEF77BFB2368B5
:103E9000053B5F2B02D9354B32221A60344C042289
:103EA00021002420FEF76EFB2368053B5F2B02D91F
:103EB0002F4B32221A602F4C042221002820FEF7BB
:103EC00061FB2368053B5F2B02D92A4B32221A6023
:103ED000294C042221002C20FEF754FB2368FE2BE2
:103EE00002D9254B01221A60244C042221003020E3
:103EF000FEF748FB2368022B02D9204B00221A60F0
:103F00001F4C042221003420FEF73CFB2368042BC5
:103F100002D91B4B03221A601A4C01222100AF2048
:103F2000FEF730FB2378012B02D9164B01221A70C1
:103F3000154C01222100B020FEF724FB2378012B31
:103F400002D9114B01221A70104C01222100B1201C
:103F5000FEF718FB2378012B02D90C4B01221A70B3
:103F600070BDC04664000020DC0500009400002005
:103F700098000020EC00002068000020C00A00200B
:103F8000B80A00209C0000209D0000209E00002018
:103F900070B586B01422002101A806F0B4FC0024FC
:103FA0001AE001A9A00093009B181B195B007F4D2C
:103FB0005B5B4558AC46634443500132632AF0D9F9
:103FC00001ADA60064217059FCF7A8F86300784A97
:103FD000D052002373510134042C05D8A30001AA48
:103FE000002199500022E9E7724A136801331360F7
:103FF000714A934200D8B0E06E4B00221A606F4BBA
:104000001B78002B00D093E06D4B1C78002C1AD14C
:104010006C4B1D686C4B1868FCF722FF011C281CB8
:10402000FCF7DCFB694B1968FCF7FEFC051C684BD0
:104030001868FCF7C7FE011C281CFCF719F9FCF7EF
:10404000A1FE644B1860002C1AD15E4B5D685E4B7C
:104050005868FCF705FF011C281CFCF7BFFB5B4BF5
:104060005968FCF7E1FC051C5B4B1868FCF7AAFEDD
:10407000011C281CFCF7FCF8FCF784FE574B186069
:10408000002C1AD14F4B9D684F4B9868FCF7E8FE07
:10409000011C281CFCF7A2FB4C4B9968FCF7C4FCE4
:1040A000051C4F4B1868FCF78DFE011C281CFCF703
:1040B000DFF8FCF767FE4B4B1860002C1AD1414B20
:1040C000DD68414BD868FCF7CBFE011C281CFCF7CF
:1040D00085FB3E4BD968FCF7A7FC051C424B1868D2
:1040E000FCF770FE011C281CFCF7C2F8FCF74AFE26
:1040F0003E4B1860002C27D1324B1C69324B18699B
:10410000FCF7AEFE011C201CFCF768FB2F4B196965
:10411000FCF78AFC041C364B1868FCF753FE011CA4
:10412000201CFCF7A5F8FCF72DFE324B18600BE0C5
:10413000314B1B68274A1360284A1360294A1360D1
:104140002A4A13602B4A13601F4B00221A605A60E0
:104150009A60DA601A6106B070BD1B4B1A68144B86
:104160001B889A4201D2184A1360174B5A68104BA9
:104170005B889A4201D2144A5360134B9A680C4BE5
:104180009B889A4201D2104A93600F4BDA68084B21
:10419000DB889A4201D20C4AD3600B4B1A69044B5C
:1041A0001B899A42D7D2084A1361D4E788060020B7
:1041B000700A0020BC0A0020B80B0000B40A0020DE
:1041C00008000020C4000020EC0A00206C00002041
:1041D000A00A002010000020A40A002014000020E3
:1041E000A80A002018000020AC0A00201C000020B3
:1041F000B00A0020200000209C0A0020F0B5C6462E
:1042000000B582B005000E0014006F4BC2186F4B52
:104210009A4200D9CEE0002C64D0012C68D0022C48
:104220006CD0032C70D0042C74D001AB18782D28DE
:1042300076D0202878D0664A0300303B537001AB1B
:1042400059782D2974D0202976D0614A0B00303B53
:10425000937001AB9A782D2A72D0202A74D05C4FCB
:104260001300303BFB7001ABDB7898462D2B6FD0F1
:10427000202B71D0564FBC461F00303F63461F7144
:10428000002802D1524810274770002902D1504916
:1042900010208870002A02D14D4A1021D170434667
:1042A000002B02D14A4B10221A71002C07D1092D84
:1042B00005DC2B00093302DB454B1222DA70042C9B
:1042C0004ED0012E57D0022E5CD0032E61D0012E8D
:1042D00068D0022E74D1633572DA3D4A9378123376
:1042E00093706DE002003B4901A806F091FB94E752
:1042F0002A00394901A806F08BFB90E72A003749CC
:1043000001A806F085FB8CE72A00354901A806F0D4
:104310007FFB88E72A00334901A806F079FB84E790
:104320002B4B1D225A708AE7294B10225A7086E7C0
:10433000274B1D229A708CE7254B10229A7088E734
:10434000234B1D27DF708EE7214B1027DF708AE794
:104350001F4F103B3B7193E71D4F103B3B718FE7A5
:10436000092DAEDC2B000933ABDB012EA9D1184B94
:104370001222DA70A5E7092DA5DD154AD37812338C
:10438000D370A0E7632DA0DD114A937812339370A8
:104390009BE7FA239B009D4299DB0D4A5378123329
:1043A000537094E72B00093393DA094AD378123318
:1043B000D3708EE7064B09225A709A70DA701A7120
:1043C00002B080BCB846F0BDE7030000F72A000049
:1043D000200B002060BE000864BE00086CBE000810
:1043E00074BE00087CBE000870B5604B1A68FA23E2
:1043F000DB009A421BD35D4BFA22D2001A605C4B61
:104400001B685C4A1268934201DD5A4A13605A4B9A
:104410001B685A4A1268934201DD584A1360584B90
:104420001B68584A1268934201DD564A1360504B8C
:104430001A68554B1B689A4207DC4F4909688B4242
:1044400003DB4F4909688B4202DA504B0121197096
:104450004F4B1B689A420ADA474909688B4206DDCE
:10446000474909688B4202DD484B00211970474BD0
:104470001B7B012B41D0022B43D0022B02D9434B93
:1044800000211973414B1B7B002B14D1414B196840
:104490000B015B1A9B004048006883420BD23F4CE3
:1044A00024681B19984206D2002904D0002C02D09F
:1044B000364B01211970374B19680B015B1A9B00B1
:1044C000364909685B18344909688B4202D2324B7D
:1044D000002119603249130032338B4215D9130081
:1044E000323302DA294B0121597196231B019A427A
:1044F0000EDD264B02225A710AE024490120087081
:10450000B9E7224900200870B7E7204B00225A7112
:10451000194B1B6819003231214A91420DD91A00FA
:10452000323202DA194A0121917196221201934224
:1045300006DD164B02229A7102E0144B00229A719A
:104540000F4B1B6819003231154A91422AD91A00C3
:10455000323202DA0D4A0121D171962212019342C0
:1045600023DD0A4B0222DA711FE0C046940A0020C4
:1045700010000020080B0020140000200C0B00206D
:1045800018000020100B002058000020D40A002042
:104590005C000020800A0020040B0020840A002018
:1045A00092090000AF4B0022DA710221AE4805F0FB
:1045B0004BFA012800D124E1AA4B00221A720421EF
:1045C000A94805F041FA012800D11EE1A54B0022BF
:1045D0005A72A64B1A6813003233A5498B420AD887
:1045E000A44909683231A248814204D8A249096825
:1045F0003231814203D99B490120487088739C491C
:104600008B420CD89B4B1B6832338B4207D89A4B9A
:104610001B6832338B4202D8924B00215970974B62
:104620001B689A4207DC934909688B4203DB924975
:1046300009688B4203DA8B4901208870887390499E
:1046400009685B1A9A420ADA8A4909688B4206DDD0
:10465000894909688B4202DD824B00219970894BA0
:104660001B689A4207DC834909688B4203DB824955
:1046700009688B4203DA7B490120C870887382493C
:1046800009685B1A9A420ADA7A4A1268934206DD8E
:10469000794A1268934202DD724B0022DA7080215F
:1046A00090204901C00505F0CFF9002800D0B0E006
:1046B0006C4B01221A719A736C4B1A686F4B1B6812
:1046C0009A420EDA6B4909688B420ADD6A48006833
:1046D000834206DD313204DB313102DB313000DB75
:1046E0009BE06A4B1A68614B1B689A4207DB614981
:1046F00009688A4203DB604909688A4202DA594A3A
:1047000001215174624A126893420ADA59490968D0
:104710008A4206DD584909688A4202DD514A002171
:1047200051745A4A5268934207DC524909688A42D6
:1047300003DB514909688A4202DA4A4A012191742D
:10474000534A526893420ADA4A4B1B689A4206DD82
:10475000494B1B689A4202DD424B00229A74414B3E
:104760001A78012A66D0012A02D03E4B0021D97462
:10477000464BD968474B1B68994202DA39490120F8
:1047800008754349C9688B4202DA364B0021197516
:104790003E4B1969404B1B68994202DA31490120AE
:1047A00048753B4909698B4202DA2E4B0021597545
:1047B000364B5969394B1B68994202DA2949012065
:1047C0008875334949698B4202DA264B0021997575
:1047D000244B1B7B012B30D00024022B2FD0304BDD
:1047E0001B78022B00D129E12DD8002B5CD0012BA6
:1047F00063D12C4B1B68642B5FD9294B02221A70A2
:104800005BE0184B01221A72D9E6164B01225A724C
:10481000DFE6144B00221A714EE7802190204901F7
:10482000C00505F011F9012800D05AE70D4B002210
:104830009A7356E70121D97495E71C00CDE701234F
:104840001C43E4B2CBE7032B37D1164B1A68FA238B
:10485000DB009A4231D90023114A1370114A1360C8
:104860002BE0C046D40A00200004004810000020BD
:1048700092090000140000201800002060000020B1
:104880009800002064000020EC0000202800002098
:10489000400000201C0000202000002024000020F8
:1048A000080000208C0A0020002A00D1AAE0012A7A
:1048B00000D1B5E0BB4B00221A60BB4B5B78012BEB
:1048C00000D1D5E0B84B5B78012B06D0B74B1B78F5
:1048D000002B00D1DBE010239C43B34B9B78012BD2
:1048E00000D1D8E0B04B9B78012B06D0AF4B1B78A2
:1048F000002B00D1DEE004239C43AB4BDB78012B83
:1049000000D1DBE0A84BDB78012B06D0A74B1B784E
:10491000002B00D1E1E008239C43A34B5B7C012BDF
:1049200000D1DEE0A04B5B7C012B04D09F4B1B78B9
:10493000002B00D1E1E09C4B9B7C012B00D1E0E0FF
:10494000994B9B7C012B04D0984B1B78002B00D1FA
:10495000E3E0954BDB7C012B00D1E2E0924BDB7C6A
:10496000012B04D0914B1B78002B00D1E5E08E4B3E
:104970001B7D012B00D1E4E08B4B1B7D012B04D070
:104980008A4B1B78002B00D1E7E0874B5B7D012B26
:1049900000D1E6E0844B5B7D012B04D0834B1B7878
:1049A000002B00D1E9E0804B9B7D012B00D1E8E09A
:1049B0007D4B9B7D012B04D07C4B1B78002B00D1C1
:1049C000EBE0794B9B7B012B00D1FBE0002B03D06C
:1049D000754BDB7B012B02D1754B00221A60724BA9
:1049E0001B7C012B00D1F6E0012B01D020239C433E
:1049F00020231C436F4B5C716F4B1B680A2B00D943
:104A0000EDE070BD02239C436C4B1B78012B03D05F
:104A10006A4B00221A704DE7694B01221A70F7E7C2
:104A200002231C43E4B2654B1B78002B02D1644B7C
:104A300001221A70614B01221A703BE7012A0BD048
:104A4000594B1B78012B03D0584B1B78002B0BD0F4
:104A50005B4B03221A7030E7544B1B78002BEFD1CD
:104A60000920FDF755FFEBE70920FDF75FFFEFE7B2
:104A70004E4B1B78002B06D10120FDF749FF102378
:104A80001C43E4B21EE70120FDF750FFF7E70120C9
:104A9000FDF74CFF1FE7454B1B78002B06D102208A
:104AA000FDF736FF04231C43E4B21BE70220FDF7A9
:104AB0003DFFF7E70220FDF739FF1CE73B4B1B7872
:104AC000002B06D10320FDF723FF08231C43E4B28B
:104AD00018E70320FDF72AFFF7E70320FDF726FF7D
:104AE00019E7324B1B78002B03D10420FDF710FF90
:104AF00018E70420FDF71AFF14E70420FDF716FF5E
:104B000019E72A4B1B78002B03D10520FDF700FF86
:104B100016E70520FDF70AFF12E70520FDF706FF5F
:104B200017E7224B1B78002B03D10620FDF7F0FE80
:104B300014E70620FDF7FAFE10E70620FDF7F6FE63
:104B400015E71A4B1B78002B03D10720FDF7E0FE79
:104B500012E70720FDF7EAFE0EE70720FDF7E6FE65
:104B600013E7124B1B78002B03D10820FDF7D0FE72
:104B700010E70820FDF7DAFE0CE70820FDF7D6FE67
:104B800011E70A4B1B78002B03D10920FDF7C0FE6B
:104B90000EE70920FDF7CAFE0AE70920FDF7C6FE69
:104BA0000FE7C0468C0A0020D40A0020B40A002077
:104BB000B4010020200B00201C0B0020880A0020DC
:104BC00008000020D04AD27B002A00D0FEE6CF4A5F
:104BD00064211160FAE620221443E4B204E7CC4BCE
:104BE00000221A60802190200901C00504F02CFFEA
:104BF000002814D1C74A1378013313700023C64A22
:104C00001370C64A1370C64A1370C6490A68013247
:104C10000A60C54A1360C54A1360C54A1360802103
:104C20009020C900C00504F00FFF002814D1002314
:104C3000B84A1370B8490A7801320A70B74A13703B
:104C4000B74A1370B74A1360B7490A6801320A605D
:104C5000B64A1360B64A1360802190200902C0054D
:104C600004F0F2FE002814D10023AA4A1370AA4AC5
:104C70001370AA490A7801320A70A94A1370A94A26
:104C80001360A94A1360A9490A6801320A60A84A58
:104C9000136090200121C00504F0D6FE002814D135
:104CA00000239C4A13709C4A13709C4A13709C49C1
:104CB0000A7801320A709B4A13609B4A13609B4A30
:104CC00013609B4A136801331360924B1B78042BCB
:104CD00071D8914B1B78042B7CD8904B1B78042BFC
:104CE00000D987E08E4B1B78042B00D992E08021FD
:104CF00090200901C00504F0A7FE002806D1894BC9
:104D00001B68632B02D98B4B01221A6080219020F3
:104D1000C900C00504F098FE002806D1824B1B682C
:104D2000632B02D9834B02221A6080219020090252
:104D3000C00504F089FE002806D17C4B1B68632B5C
:104D400002D97C4B03221A6090200121C00504F097
:104D50007BFE002806D1764B1B68632B02D9754B6E
:104D600004221A60802190200901C00504F06CFE25
:104D700001285ED080219020C900C00504F064FEA7
:104D800001285AD0802190200902C00504F05CFE61
:104D9000012856D090200121C00504F055FE0128BD
:104DA00053D0654B9B79492B01D902F06AFC9B00DB
:104DB000624AD3589F46802190200901C00504F023
:104DC00043FE012885D15B4B01221A60514B002222
:104DD0001A707EE780219020C900C00504F034FEDF
:104DE000012800D079E7534B02221A604A4B002277
:104DF0001A7072E7802190200902C00504F024FE99
:104E0000012800D06EE74B4B03221A60434B00226F
:104E10001A7067E790200121C00504F015FE0128F3
:104E200000D064E7434B04221A603D4B00221A7005
:104E30005DE73C4B00221A609CE73B4B00221A6066
:104E4000A0E73A4B00221A60A4E7394B00221A600F
:104E5000A7E73B4B00221A70374B0A321A70394AC7
:104E6000136801331360384B1868030032332BDAB0
:104E7000314B1D225A70002199702031D9701A715E
:104E80002C4B1B68012B31D0042B5FD0042B72D02C
:104E9000284B1B68022B00D187E0032B00D195E043
:104EA000194B1B7C002B00D0A1E0264B1A689623DF
:104EB0005B009A4200D2A8E0224B00221A601E4BEF
:104EC00001329A7102F0DDFB96231B01984208DD46
:104ED000194B1D225A70002199701F31D9701A7117
:104EE000CEE700220121FFF789F9C9E70D4A1268D0
:104EF000272AC9D9104B06229A7100230D4A136044
:104F0000084A136002F0BDFBD40A0020B40100205F
:104F10001C0B00207A0A00207B0A00207C0A00205B
:104F20007D0A0020C40A0020C80A0020CC0A002004
:104F3000D00A0020900A0020200B002084BE000828
:104F4000B40A0020500B002010000020D74A12683D
:104F5000272A9BD9D64B00221A60D64B1B7C934242
:104F600004D1D44B01321A7402F08BFBD14B0022D6
:104F70001A7402F086FB90200121C00504F064FD44
:104F8000012885D10023CC4A9371C94A1360C94BCB
:104F9000DB7B002B04D1C74B0122DA7302F071FBDB
:104FA000C44B0022DA7302F06CFBC14B00221A6082
:104FB000C04B1B7B934204D1BE4B01321A7302F0EB
:104FC00060FBBC4B00221A7302F05BFBB84B002263
:104FD0001A60B84B1B7B934204D1B64B02321A7352
:104FE00002F04FFBB34B00221A7302F04AFBB34BA3
:104FF0001A68B34B1B689A4207DDB24B00221A6055
:10500000AD4B01329A7102F03CFBA94B00221A60B1
:1050100002F037FBA84B0B221A70AA4A136801331F
:105020001360A64B1868030032332ADAA24B1D2204
:105030005A70002199702031D9701A719C4B1B68ED
:10504000012B30D0042B3CD0042B4FD0984B1B6845
:10505000022B65D0032B74D0964B1B7C002B00D009
:1050600080E0984B1A6896235B009A4201D202F0C6
:1050700008FB944B00221A608F4B02329A7102F0A7
:1050800000FB96231B01984208DD8B4B1D225A70B2
:10509000002199701F31D9701A71CFE700220121C8
:1050A000FFF7ACF8CAE7884A12683B2ACAD9824B94
:1050B00006229A7100237E4A1360834A136002F02D
:1050C000E0FA7A4A1268272ABED9794B00221A6080
:1050D000784B1B7C934204D1764B01321A7402F058
:1050E000D0FA744B00221A7402F0CBFA90200121FE
:1050F000C00504F0A9FC0128A8D100236E4A9371D1
:105100006B4A13606B4BDB7B002B04D1694B012294
:10511000DA7302F0B6FA674B0022DA7302F0B1FAE2
:10512000634B00221A60634B1B7B934204D1614B9B
:1051300001321A7302F0A5FA5E4B00221A7302F0D4
:10514000A0FA5B4B00221A605A4B1B7B934204D19E
:10515000584B02321A7302F094FA564B00221A731B
:1051600002F08FFA594B1A68544B1B689A4201DCC3
:1051700002F087FA534B00221A604F4B02329A71A9
:1051800002F07FFA4C4B0C221A704E4A136801331E
:1051900013604E4B1868030032332BDA464B1D2246
:1051A0005A70002199702031D9701A71404B1B68D8
:1051B000012B31D0042B3DD0042B50D03C4B1B682D
:1051C000022B66D0032B00D187E03A4B1B7C002BCF
:1051D00000D093E03B4B1A6896235B009A4201D2C1
:1051E00002F04FFA374B00221A60334B03329A71A8
:1051F00002F047FA96231B01984208DD2E4B1D2230
:105200005A70002199701F31D9701A71CEE70022AF
:105210000121FEF7F3FFC9E72B4A12683B2AC9D9DF
:10522000254B06229A710023214A1360264A1360F7
:1052300002F027FA1D4A1268272ABDD91C4B00220A
:105240001A601C4B1B7C934204D11A4B01321A7416
:1052500002F017FA174B00221A7402F012FA90208B
:105260000121C00504F0F0FB0128A7D10023124A58
:1052700093710F4A13600F4BDB7B002B04D10D4B56
:105280000122DA7302F0FDF90A4B0022DA7302F010
:10529000F8F9074B00221A60064B1B7B934217D18B
:1052A000044B01321A7302F0ECF9C046D00A002018
:1052B000900A0020D40A0020200B002014000020B7
:1052C00010000020500B0020C40A0020180000200D
:1052D000D34B00221A7302F0D4F9D24B00221A6089
:1052E000CF4B1B7B934204D1CD4B02321A7302F099
:1052F000C8F9CB4B00221A7302F0C3F9CA4B1A68E3
:10530000CA4B1B689A4201DC02F0BBF9C84B002271
:105310001A60C84B03329A7102F0B3F9C54B0D22E3
:105320001A70C34A136801331360C34B1868030033
:10533000323334DABF4B1D225A700021997020316C
:10534000D9701A71BD4B1B78002B05D1B84B0022C8
:105350001A60B84B04329A71B24B1B68012B30D0E3
:10536000042B3CD0042B4FD0AE4B1B68022B65D0D6
:10537000032B74D0AA4B1B7C002B00D080E0AC4BDD
:105380001A6896235B009A4201D202F07AF9A84B80
:1053900000221A60A74B04329A7102F072F9962328
:1053A0001B01984208DDA34B1D225A700021997001
:1053B0001F31D9701A71C5E700220121FEF71EFFC7
:1053C000C0E79F4A12683B2ACAD99A4B06229A71B3
:1053D0000023944A13609A4A136002F052F9994AE2
:1053E0001268272ABED98F4B00221A608C4B1B7C77
:1053F000934204D18A4B01321A7402F042F9884B6D
:1054000000221A7402F03DF990200121C00504F039
:105410001BFB0128A8D10023864A9371814A13609F
:105420007F4BDB7B002B04D17D4B0122DA7302F032
:1054300028F97B4B0022DA7302F023F9794B002222
:105440001A60774B1B7B934204D1754B01321A7360
:1054500002F017F9724B00221A7302F012F9714B25
:1054600000221A606E4B1B7B934204D16C4B0232BC
:105470001A7302F006F96A4B00221A7302F001F95E
:10548000694B1A686C4B1B689A4201DC02F0F9F810
:105490000023674A1360674A937102F0F2F8654B84
:1054A0000E221A70624A136801331360664B186843
:1054B0000300323334DA5F4B1D225A700021997099
:1054C0002031D9701A71614B1B78002B05D1584BD4
:1054D00000221A60574B05329A71524B1B68012B00
:1054E00030D0042B3CD0042B4FD04E4B1B68022BEA
:1054F00065D0032B74D04A4B1B7C002B00D080E07E
:105500004B4B1A6896235B009A4201D202F0B9F81D
:10551000474B00221A60474B05329A7102F0B1F8EE
:1055200096231B01984208DD424B1D225A70002130
:1055300099701F31D9701A71C5E700220121FEF759
:105540005DFEC0E73E4A12683B2ACAD9394B0622A3
:105550009A710023334A1360394A136002F091F8BC
:10556000384A1268272ABED92E4B00221A602C4BCB
:105570001B7C934204D12A4B01321A7402F081F849
:10558000274B00221A7402F07CF890200121C005FC
:1055900004F05AFA0128A8D10023264A9371214A1F
:1055A00013601F4BDB7B002B04D11D4B0122DA73F0
:1055B00002F067F81A4B0022DA7302F062F8194B16
:1055C00000221A60164B1B7B934204D1144B01320C
:1055D0001A7302F056F8124B00221A7302F051F8B7
:1055E000104B00221A600E4B1B7B934204D10C4BD4
:1055F00002321A7302F045F8094B00221A7302F0C6
:1056000040F8094B1A68104B1B689A4201DC02F003
:1056100038F80023064A1360064A937102F031F805
:10562000D40A0020900A002010000020180000205A
:10563000500B0020200B00201C0000209C000020AC
:10564000C40A0020D00A0020200000209D00002075
:10565000C24B1E221A70C24A136801331360C14B39
:105660001868C14B984232DABC4B1D225A70002197
:1056700099702031D9701A71BC4B1B78002B03D163
:10568000B74A1360B54A9371B94B1B68012B30D0F0
:10569000042B3CD0042B4FD0B54B1B68022B65D09C
:1056A000032B74D0B34B1B7C002B01D001F0E9FF1E
:1056B000AB4B1A6896235B009A4201D201F0E1FFDE
:1056C0000023A74A1360A54A937101F0DAFFFA2379
:1056D000DB00984208DDA14B1D225A700021997011
:1056E0001F31D9701A71C7E700220121FEF786FD2C
:1056F000C2E7A14A12683B2ACAD9984B06229A717E
:1057000000239B4A13609C4A136001F0BAFF9B4A36
:105710001268272ABED9964B00221A60954B1B7C33
:10572000934204D1934B01321A7401F0AAFF914BBA
:1057300000221A7401F0A5FF90200121C00504F099
:1057400083F90128A8D10023844A9371884A136001
:10575000884BDB7B002B04D1864B0122DA7301F0EE
:1057600090FF844B0022DA7301F08BFF804B002204
:105770001A60804B1B7B934204D17E4B01321A731B
:1057800001F07FFF7B4B00221A7301F07AFF784B08
:1057900000221A60774B1B7B934204D1754B023277
:1057A0001A7301F06EFF734B00221A7301F069FF48
:1057B000734B00221A70694B1C321A70714B1868B7
:1057C000183A0021FEF71AFD6F4B1B68272B05D8EE
:1057D000674A0021116001336B4A1360644B1B68F8
:1057E000012B22D0624B1B68042B6DD0604B1B68D1
:1057F000022B6FD05E4B1B68032B01D001F041FFE1
:10580000604B1B68012B02DD013B5E4A1360584B65
:1058100000221A605B4B1B68072B01D001F031FF9F
:10582000584B06321A6001F02CFF574B1B68272B90
:10583000D8D9554B00221A60524B1B68012B17D048
:10584000022B19D0032B1BD0042B1DD0052B1FD0EE
:10585000062B21D0082B23D0092B25D00A2B27D0AB
:105860000B2B29D00C2B2BD0414B00221A60B9E70F
:105870003A4A07219171E3E7384A0C219171E1E737
:10588000364A0F219171DFE7344A19219171DDE722
:10589000324A21219171DBE7304A23219171D9E706
:1058A0002E4A27219171D7E72C4A2D219171D5E7F6
:1058B0002A4A33219171D3E7284A36219171D1E7E1
:1058C000264B3E229A71CFE70023244A9371284A3F
:1058D00013608BE72B4B1B680B2B02DC0133294A2F
:1058E0001360234B00221A60264B1B68072B81D1C3
:1058F000244B08321A607DE7184B0A221A70234B9A
:10590000186800220121FEF779FC194B1B68012B56
:1059100012D0174B1B68042B15D0154B1B68022B9C
:1059200017D0134B1B68032B01D001F0AAFE104BBC
:1059300000221A6001F0A5FE084B08229A710C4B58
:1059400000221A60E5E70023044A9371084A1360B5
:10595000E3E7074B00221A60E3E7C046200B002074
:10596000500B00202400002018FCFFFF9E000020A8
:10597000900A0020D40A0020C40A0020D00A002087
:10598000B40A00200C000020980A0020080B002018
:10599000D04B0B221A70D04B186800220121FEF761
:1059A0002DFCCE4B1B68012B12D0CC4B1B68042B5B
:1059B00015D0CA4B1B68022B17D0C84B1B68032B92
:1059C00001D001F05EFEC54B00221A6001F059FEC5
:1059D000C04B09229A71C14B00221A60E5E70023EF
:1059E000BC4A9371BD4A1360E3E7BC4B00221A60C6
:1059F000E3E7B84B0C221A70B94B1868002201215A
:105A0000FEF7FCFBB54B1B68012B12D0B34B1B6898
:105A1000042B15D0B14B1B68022B17D0AF4B1B6862
:105A2000032B01D001F02DFEAC4B00221A6001F0D7
:105A300028FEA84B03229A71A84B00221A60E5E7C2
:105A40000023A44A9371A54A1360E3E7A34B002205
:105A50001A60E3E79F4B0D221A70A24B18680022D0
:105A60000121FEF7CBFB9D4B1B68012B12D09B4BFA
:105A70001B68042B15D0994B1B68022B17D0974B32
:105A80001B68032B01D001F0FCFD944B00221A602F
:105A900001F0F7FD8F4B04229A71904B00221A609F
:105AA000E5E700238B4A93718C4A1360E3E78B4B45
:105AB00000221A60E3E7874B0E221A708A4B18689F
:105AC00000220121FEF79AFB844B1B68012B12D0A8
:105AD000824B1B68042B15D0804B1B68022B17D000
