:020000040800F2
:1000000000200020D1920008F1680008F368000881
:1000100000000000000000000000000000000000E0
:10002000000000000000000000000000F56800086B
:100030000000000000000000F7680008F9680008F0
:10004000219300080000000021930008219300087C
:1000500021930008219300082193000821930008B0
:10006000000000008969000899690008A969000872
:10007000219300082193000821930008000000004C
:10008000219300082193000800000000219300083C
:100090002193000821930008219300082193000870
:1000A000219300082193000821930008B9690008F2
:1000B000C969000800000000000000000000000006
:1000C00010B5064C2378002B07D1054B002B02D02E
:1000D000044800E000BF0123237010BDF40000209D
:1000E0000000000054A50008044B10B5002B03D0FD
:1000F0000349044800E000BF10BDC04600000000F6
:10010000F800002054A5000803B4714649084000D7
:100110004900095E49008E4403BC70470022430831
:100120008B4274D303098B425FD3030A8B4244D3BF
:10013000030B8B4228D3030C8B420DD3FF22090201
:1001400012BA030C8B4202D31212090265D0030BC0
:100150008B4219D300E0090AC30B8B4201D3CB03B6
:10016000C01A5241830B8B4201D38B03C01A5241F8
:10017000430B8B4201D34B03C01A5241030B8B42FA
:1001800001D30B03C01A5241C30A8B4201D3CB02E5
:10019000C01A5241830A8B4201D38B02C01A5241CA
:1001A000430A8B4201D34B02C01A5241030A8B42CD
:1001B00001D30B02C01A5241CDD2C3098B4201D3E5
:1001C000CB01C01A524183098B4201D38B01C01A63
:1001D000524143098B4201D34B01C01A52410309DA
:1001E0008B4201D30B01C01A5241C3088B4201D389
:1001F000CB00C01A524183088B4201D38B00C01A36
:10020000524143088B4201D34B00C01A5241411A5C
:1002100000D20146524110467047FFE701B5002069
:1002200000F0F0F802BDC0460029F7D076E770472D
:1002300003460B437FD4002243088B4274D3030947
:100240008B425FD3030A8B4244D3030B8B4228D3E8
:10025000030C8B420DD3FF22090212BA030C8B420E
:1002600002D31212090265D0030B8B4219D300E0AE
:10027000090AC30B8B4201D3CB03C01A5241830B33
:100280008B4201D38B03C01A5241430B8B4201D3E3
:100290004B03C01A5241030B8B4201D30B03C01A0C
:1002A0005241C30A8B4201D3CB02C01A5241830A86
:1002B0008B4201D38B02C01A5241430A8B4201D3B5
:1002C0004B02C01A5241030A8B4201D30B02C01ADF
:1002D0005241CDD2C3098B4201D3CB01C01A524146
:1002E00083098B4201D38B01C01A524143098B42CF
:1002F00001D34B01C01A524103098B4201D30B01B8
:10030000C01A5241C3088B4201D3CB00C01A5241DC
:1003100083088B4201D38B00C01A524143088B42A1
:1003200001D34B00C01A5241411A00D2014652413A
:10033000104670475DE0CA0F00D04942031000D359
:100340004042534000229C4603098B422DD3030AAE
:100350008B4212D3FC22890112BA030A8B420CD3BE
:10036000890192118B4208D3890192118B4204D3E7
:1003700089013AD0921100E08909C3098B4201D367
:10038000CB01C01A524183098B4201D38B01C01AA1
:10039000524143098B4201D34B01C01A5241030918
:1003A0008B4201D30B01C01A5241C3088B4201D3C7
:1003B000CB00C01A524183088B4201D38B00C01A74
:1003C0005241D9D243088B4201D34B00C01A52414B
:1003D000411A00D20146634652415B10104601D3D8
:1003E0004042002B00D54942704763465B1000D362
:1003F000404201B5002000F005F802BD0029F8D008
:1004000016E770477047C046844608006146FFE71C
:100410001FB500F073FB002801D40021C8421FBDA6
:1004200010B500F0FFFA4042013010BD10B500F0E9
:1004300065FB002801DB002010BD012010BDC04677
:1004400010B500F05BFB002801DD002010BD01208D
:1004500010BDC04610B500F00BFB002801DC0020E9
:1004600010BD012010BDC04610B500F001FB0028F2
:1004700001DA002010BD012010BDC04670B5002279
:100480000C4B04000D0001F0B1FD002804D1200048
:10049000290001F0F9FC70BD064B00222000290064
:1004A00001F060F901F0F0FC80231B069C466044DB
:1004B000F1E7C0460000E041F0B5C64643025B0AE2
:1004C0004E0245004F00DA00C40F9C46700A904669
:1004D00000B52D0E3F0EC90FB6098C424BD0EA1B5A
:1004E000002A36DD002F61D0FF2D00D1ADE0802342
:1004F000DB041E431B2A00DCD3E001204346181A0C
:10050000430100D48CE080018709380001F078FDB8
:1005100005388740854200DCB6E02D1AB3483840E4
:10052000430704D00F230340042B00D004304301C1
:1005300000D478E06A1CFE2D65D08001430A9C46F9
:10054000D2B26346D0051843E407204380BCB846C6
:10055000F0BD002A35D07A1B002D00D0AFE0434615
:10056000002B00D1A7E0531E012A00D12FE1FF2A62
:1005700069D01A00AAE0E91B002970DD002F37D0EE
:10058000FF2D62D08023DB041E431B2900DCB0E07A
:1005900001204044430143D50135FF2D33D00123D1
:1005A000934A0340400810401843B9E7002E00D199
:1005B00083E0511E012A00D1D8E0FF2A45D00A006D
:1005C00098E7FE276A1C174200D086E0002D00D075
:1005D000B7E04346002B00D1F3E00022002EB0D05C
:1005E000981B430100D4FAE043460C00F01A97E749
:1005F000002E00D1C8E04A1E012900D1AEE0FF293B
:1006000023D01100C1E70023FF229C4699E7FE2179
:100610006A1C114277D0FF2AF5D0150046447008B5
:10062000430700D07EE7C308FF2D0ED05B025B0AB4
:100630009C46EAB285E7002E07D08022D2031342FF
:1006400003D0104201D10C000300002BDBD080202E
:10065000C00318434002430A9C46FF2271E7002969
:10066000D5D07A1B002D60D14346002B24D0531ED9
:10067000012A73D0FF2AE7D01A001B2A00DC85E08C
:1006800001203D00801985E720233A00451B3800F2
:100690000135EA405D1BA840431E984100251043E8
:1006A0003EE7202330009B1A31009840D140431E82
:1006B0009841084322E70C0003001500B4E7FF2F20
:1006C000C1D080234046DB04184380461B2A51DDFD
:1006D00001200C003D00301A12E743469F1B7B01AE
:1006E0002BD4002F00D010E70023002400229C46CA
:1006F00027E7202332003000CA40591A8840431EA1
:100700009841104345E7002D4AD14346002B63D062
:100710000022002E00D114E730004044430100D4F1
:100720007EE7324B013518407AE7FF2F8CD08023CB
:100730004146DB04194388469FE743460C00F71AFD
:10074000E3E64246002A00D075E7002E00D07AE7A3
:100750008023DB0300249C46FF22F2E63000404465
:100760000125430100D45BE7022518E74346012534
:10077000981BC5E6202344464046D4409A1A904030
:10078000431E98412043A4E70D004DE72023414636
:100790004046D1409A1A9040431E9841084370E762
:1007A0004246002A00D14FE7002E00D14DE78022BB
:1007B000D203134200D148E7104200D045E70300BE
:1007C00043E7002E90D00C0084460022B9E6434651
:1007D0000C00F01A013593E684460022B1E60028A9
:1007E00000D01DE7002300249C46AAE6FFFFFFFB84
:1007F000FFFFFF7DF0B54F464646D6464502C0B5E1
:1008000047000C1C6D0A3F0EC60F002F00D170E090
:10081000FF2F00D175E0EB008025ED041D43002380
:1008200099469A467F3F6002430A984663001B0E32
:10083000E40F002B4ED0FF2B46D04246D000802242
:10084000D2040243904600227F3B3100FF1A4B4600
:100850006140C9B213430F2B00D9B5E06E489B002D
:10086000C3589F4600239846260045469246534665
:10087000022B00D189E0032B00D19EE0012B18D080
:100880003B007F33002B69DD6A0704D00F222A402A
:10089000042A00D004352A0103D5604B1D403B00DB
:1008A0008033FE2B00DD70E0AD016D0AD8B202E0AE
:1008B0000E0000200025C0052843F6073043E0BCA9
:1008C000BA46B146A846F0BD4346002B3FD10222AE
:1008D000FF3F03E04346002B2DD1012231004B4660
:1008E0006140C9B213430F2B34D84D489B00C35805
:1008F0009F46002D13D104239946033B00279A46B7
:1009000091E7002D05D108239946063BFF279A461B
:1009100089E70C239946093BFF279A4683E728007D
:1009200001F06EFB7627431F9D4000237F429946CE
:100930009A463F1A77E7404601F062FB4246431F62
:100940009A4076235B4290461B1A00227DE7FF23E4
:1009500003227AE70E00FF200025ACE70120C01A31
:100960001B28A6DC9E372A00BD40C2406B1E9D415D
:1009700015436B0704D00F232B40042B00D0043504
:100980006B0144D50120002595E7FF20002592E763
:1009900080250026FF20ED038DE700239846802068
:1009A000C003054209D04346034206D145460543EC
:1009B0006D022600FF206D0A7DE78020C0030543FD
:1009C0006D02FF206D0A76E742466B0150018342BB
:1009D00019D21B220025013F01261C006D005B007F
:1009E000002C01DB984201D81B1A3543013A002A3A
:1009F000F3D15A1E93411D433B007F330E00002B61
:100A000000DD41E7AAE71A2201251B1AE4E7AD0140
:100A100000206D0A4FE7C04674A50008FFFFFFF7EE
:100A2000B4A5000870B5420045024E024C00C30F49
:100A30006D0A0120120E760A240EC90FFF2A06D075
:100A4000FF2C03D0A24201D1B54206D070BD002DCB
:100A5000FCD1FF2CFAD1002EF8D18B4206D0012018
:100A6000002AF3D12800431E9841EFE70020EDE76C
:100A700070B5420045024E024C00C30F6D0A120EC3
:100A8000760A240EC80FFF2A1BD0FF2C0ED0002A96
:100A90001BD1002C01D1002E1CD0002D0CD0834284
:100AA0001CD00221581E0840013870BD002E22D1F2
:100AB000002AF4D1002DF2D10028F6D101204042C5
:100AC000F3E7002D17D1FF2CF0D0002CE7D1002E3A
:100AD000E5D1E6E70020002DE7D0E2E7A24205DC01
:100AE000EADBB54202D8E7D30020DEE743425841B3
:100AF00040000138D9E702204042D6E770B54200F5
:100B000045024E024C00C30F6D0A120E760A240EE7
:100B1000C80FFF2A0BD0FF2C0DD0002A1FD1002CAC
:100B200016D1002E14D10020002D10D009E0002D88
:100B30000CD1FF2C13D1002E08D1002A08D08342FB
:100B400012D00221581E0840013800E0022070BD7A
:100B5000002DF4D10028FAD101204042F7E7002C03
:100B6000EDD1002EEBD1ECE7A24205DCF2DBB54281
:100B700002D8EFD30020EAE7434258414000013851
:100B8000E5E7C046F0B54F464646D6464402450026
:100B9000C0B5640A0F1C2D0EC60F002D00D18DE0CC
:100BA000FF2D00D192E00023802099469A46E40070
:100BB000C00404437F3D7802430A98467B001B0E25
:100BC000FF0F002B00D170E0FF2B00D186E04246E2
:100BD000D00080227F3BED180023D20402439046D0
:100BE0009C4631004B467940681C0F2B1CD8764A36
:100BF0009B00D3589F4639004446E2465346022B99
:100C00000FD0032B00D1D7E0012B37D100200024D7
:100C1000C0052043C9070843E0BCBA46B146A84610
:100C2000F0BDFF200024F3E7260C2404220C4446E8
:100C30002404240C434627001B0C574374435A4397
:100C40005E4312193B0C9B189C4203D9802252022E
:100C5000944666443F041A043F0CD2199401671E5F
:100C6000BC411B0C920E9B1914439B011C431B019E
:100C700000D49BE0012362081C40144302007F3231
:100C8000002A64DD630704D00F232340042B00D027
:100C90000434230103D502004C4B80321C40FE2A51
:100CA000BFDCA401640AD0B2B2E74346002B3DD1B9
:100CB0004A4601331A4391469C4692E7002C29D1BB
:100CC00004239946033B00259A4674E7002C1BD168
:100CD00008239946063BFF259A466CE74346FF35B5
:100CE000002B0BD102234A461A4391469C4678E7D3
:100CF00053463100022B00D083E792E703234A4694
:100D00001A4391469C466CE70C239946093BFF2504
:100D10009A4650E7200001F073F97625431F9C4066
:100D200000236D4299469A462D1A44E7404601F049
:100D300067F94246431F9A4000232D1A90469C466D
:100D4000763D4EE780240021FF20E40360E7012385
:100D50009B1A1B2B00DD59E722009E30DA408440AD
:100D60001300621E94411C43630704D00F232340E9
:100D7000042B00D0043463011AD50120002447E776
:100D80008020C003044209D04346034206D14446B2
:100D9000044364023900FF20640A39E78020C0035D
:100DA000044364023100FF20640A31E7280065E74C
:100DB000A4010020640A2BE78020C00304436402DE
:100DC000FF20640A24E7C046F4A50008FFFFFFF7F0
:100DD000F8B5CE46474643025B0A4E02DA00944617
:100DE000720A914645004A0080B52D0E1F00C40FBF
:100DF000120EC90FB609FF2A5BD0012041408C4278
:100E000039D0A81A00285ADD002A6AD0FF2D00D157
:100E1000D9E08022D20416431B2800DCE9E001203F
:100E20006346181A430100D4B4E0800187093800F2
:100E300001F0E6F805388740854200DCCCE02D1A49
:100E4000B5483840430704D00F230340042B00D09B
:100E50000430430100D4A0E06A1CFE2D00D18DE0D7
:100E60008001470AD2B2D0053843E4072043C0BC12
:100E7000B946B046F8BDA81A8046002845DD002ACC
:100E800070D0FF2D00D19EE08023DB041E4343463B
:100E90001B2B00DCD2E00120604443017AD50135F0
:100EA000FF2D6BD001239D4A03404008104018439A
:100EB000C8E7002E20D08C4223D02800FF3800281D
:100EC00039D0571B002D00D09DE06346002B00D188
:100ED000DBE07B1E012F00D10DE1FF2F71D01F0041
:100EE00098E0002E00D1A7E0421E012800D1E6E0E4
:100EF000FF2868D010008FE701204140A14200D0B8
:100F00007FE7FF2040428046A8444046002838D072
:100F1000511B002D00D1AEE0FF2A00D1DFE080237D
:100F20006046DB04184384461B2900DCD9E001201D
:100F300015008019B1E7FE206A1C104271D1002D06
:100F400000D0A6E06346002B00D1D9E00022002E9D
:100F500000D188E7981B430100D4E1E063460C0010
:100F6000F01A6FE7002E00D1B7E00200013A012825
:100F700000D19CE0FF2826D0904688E7FF2200277A
:100F800071E7FE206A1C104264D0FF2AF6D01500DB
:100F900066447008430700D056E7C308FF2D12D0FF
:100FA0005B025F0AEAB25EE76246002A00D196E081
:100FB000002E08D08022D203134204D048461042AB
:100FC00001D10C004B46002BD8D08027FF031F43D4
:100FD0007F02FF227F0A46E720233A00451B3800A4
:100FE0000135EA405D1BA840431E9841002510438F
:100FF00028E720231B1A32009E40C2403000431EC7
:10100000984110430CE7FF2ADBD080236046DB04C5
:10101000184384461B2F56DD01200C001500301AA2
:1010200000E763469F1B7B013DD4002F00D0FEE606
:1010300000240022002716E70500AFE732004346F0
:101040004146DA4020235B1A9E403000431E9841FF
:10105000104321E7002DA7D16346002B59D0002271
:10106000002E00D1FFE630006044430192D52A4BA8
:10107000013518408EE76346002B47D04B1E0129EF
:1010800015D0FF292BD019004EE70C004B463D0030
:1010900084E76246002A8BD1002E92D1802700245B
:1010A000FF22FF03DFE663460C00F71ABFE63000BD
:1010B00060440125430100D46CE70225F2E6634653
:1010C0000125981BAEE6202364466046FC40DF1BEA
:1010D000B840431E984120439FE705005EE74B461A
:1010E00071E7202365466046CD40591A8840431E6B
:1010F000984128431CE763460C000125F01A91E64D
:10110000002E95D00C004F460022ACE64B460D0059
:1011100044E74F460022A6E6FFFFFFFBFFFFFF7DEF
:10112000002800D036E7002400279CE64102420058
:10113000C30F490A0020120E7E2A03DD9D2A02DD1C
:10114000094A98187047802000040143952A07DC5B
:101150009620821AD1404842002BF3D10800F1E7D3
:10116000963A9140F7E7C046FFFFFF7FF8B50028A9
:1011700013D0C317C6185E40C40F300000F040FF04
:101180009E2305001B1A962B0FDC082801DD083D65
:10119000AE407602760AD8B202E000240020002693
:1011A000C0053043E4072043F8BD992B0CDD052230
:1011B0003100121AD1400A00010030001B31884072
:1011C000411E884102431600052D12DC31000D4FEF
:1011D0003940720709D00F203040042805D004316F
:1011E0004A0102D59F2339405B1B89014E0AD8B2C0
:1011F000D6E76A1F96403100024F39407207F4D09B
:10120000E9E7C046FFFFFFFB70B5051E0ED000F0FA
:10121000F7FE9E2304001B1A962B0CDC082801DD28
:10122000083CA5406D026D0AD8B201E000200025FF
:10123000C005284370BD992B09DD020029001B322F
:1012400091404A1E91410522121AD5400D43052CAA
:1012500012DC29000C4E31406A0709D00F202840CB
:10126000042805D004314A0102D59F2331401B1BBD
:1012700089014D0AD8B2DBE7621F95402900024E72
:1012800031406A07F4D0E9E7FFFFFFFBF0B55746AE
:101290004E464546DE46E0B598460C034B00060038
:1012A000924687B0240B5B0DCF0F002B00D15CE181
:1012B000D94A934200D175E1420FE40014438022E1
:1012C00012041443D54AC500944663440093002396
:1012D00099469B46434642461E03D20F5B0050464A
:1012E0009046360B5B0D00D120E1CB4A934200D1F2
:1012F00062E1CA49420F8C4600996344F6008C466D
:10130000164380229C44120463461643C200002008
:1013100000930099434601318C4649467B40019336
:101320000F2926D8BE4B890059588F464346019352
:101330003400150083465B46022B16D0032B00D1E8
:1013400003E2012B00D0CDE0002200240025019B08
:1013500012052243DB071A432800110007B0F0BC36
:10136000BB46B246A946A046F0BD00240025AA4AC5
:10137000EDE7280C2D042D0C2B00110C1204120C7F
:101380005343984613002F00434399464F434F441D
:10139000BB4647460B003F0CBA464343DA44029330
:1013A000D14504D980277F02B9464B440293534666
:1013B0001B0C9B4653461F0443461B041B0C9846BC
:1013C0003B0043440493330C3604360C98463300F8
:1013D00043439946434643432F009A464346774347
:1013E0005D43380C4D444519A94503D980235B0260
:1013F0009946CA443F04280C3F0C2D04ED19270CD4
:101400002404240C0300200050437A4391463A0000
:1014100053440593030C9A464A436143494451445B
:10142000AB44894503D980235B0299464A440004B2
:101430000B0C000C09040918200099464346704320
:101440005C437E435F43030C9846A41944444A44DA
:101450000397A64204D980235B029846474403972A
:101460002304029E9A46059B5E449846AE42AD41D7
:1014700076188E4289410004000C504440446D426D
:101480004719B846934649428946C344D9449842CD
:101490008041A845AD4193459241894589416D42BE
:1014A00040422843240C524249420A43039B0019FC
:1014B0008018C7184B46DC0D049B75021D436A1E3D
:1014C00095414B46F60D7F0235435A023C43154386
:1014D000FB0100D41CE101216A080D401543E2071D
:1014E000154364084F496144002900DCB0E06B07F4
:1014F00009D00F222A40042A05D02A1DAA42AD4154
:101500006D4264191500E30104D58021464AC900E3
:1015100014406144454A914200DD26E76207ED0828
:10152000640249051543240B4A0D10E75246324325
:1015300000D17FE0002E00D1DCE0300000F060FD43
:1015400002000B3A1D2301009B1A52460839DA406B
:101550008E40164352468A40009B3549181A0300B4
:101560008C46634400200093D3E6250005434AD00F
:10157000002C00D1B0E0200000F042FD010002008C
:101580000B391D2310005B1A3100350008388440E8
:10159000D94085400C432648831A0093002399467E
:1015A0009B4697E60500254326D108220093022397
:1015B000002491469B468DE65246009B324310D153
:1015C000154900268C46634449460093022319437B
:1015D000894602209DE65B460197022B00D0ADE6CE
:1015E000C3E60D4A0320944663444A46009303230E
:1015F0001A43914652468CE60C22009303230500C1
:1016000091469B4666E604239946002300930133E6
:1016100000249B465EE6C046FF07000001FCFFFF7A
:1016200034A60008FF030000FFFFFFFEFE070000D6
:101630000DFCFFFF4946012319438946002601207E
:1016400067E6002380240025434A019324037EE6B5
:101650000120401A382800DD76E61F285BDD1F22B6
:1016600023005242511ACB401900202803D03B4A94
:101670006244944025436A1E95412A000A4307218B
:101680000D000024154011425BD00F2100241140B1
:10169000042953D0111D914292415242A4180A00CC
:1016A00023024BD501220024002550E680231B0392
:1016B0001C4209D01E4207D133431C034346150088
:1016C000240B254A019342E680221203144324038B
:1016D000214A240B01973AE600F092FC0100020037
:1016E000153120321C2900DC4BE734000838002576
:1016F000844050E700F084FC03001A0015322030CB
:101700001C2A00DC1EE75646083B00229E4023E7C9
:10171000009B9C46E6E61249220061442E008D4063
:101720008A40C640691E8D4132432A43C440530754
:10173000B6D00F2111400429ACD1B1E7650764028E
:10174000240BD2081543002201E680221203144321
:101750002403014A240BFAE5FF0700003E040000C1
:101760001E040000F8B557464E464546DE46E0B535
:101770001E0017004A000B03520D5B0A9046420FF1
:101780001A43CD0FCD4C3103C300944670007A0F3D
:10179000490AFF009A46B946400DF60F1143A04290
:1017A00000D1B1E001225640B346B54200D188E0F5
:1017B0004246121A002A00DCAEE0002800D1C1E047
:1017C000BE48804500D151E1802000040143382A01
:1017D00000DD7BE11F2A00DDEEE120203E00801AC3
:1017E0000C00D640D140874062468440521A781E91
:1017F0008741944634432743DC1BA3429B41624606
:101800005B42D31A99464B461B0200D418E14B4663
:101810005802430A99464B46002B00D137E148460F
:1018200000F0EEFB010008392023220048465B1A35
:10183000DA4088408C4043461043884500DD36E15D
:10184000C91A4B1C1F2B00DDEAE020222600D21A09
:1018500001009440DE40D84000239140621E944134
:101860008146984631430C43630709D00F23234038
:10187000042B05D0231DA342A4416442A1441C00B3
:101880004B461B0200D4DEE041468C4B01319942AD
:1018900000D1E7E04B468A48E408034018004905B8
:1018A0005B07400223434A0D040B1205ED07224358
:1018B0002A4318001100F0BCBB46B246A946A04618
:1018C000F8BD4246121A002A52DD002800D19CE0E1
:1018D000A04500D1CAE0802000040143382A00DD81
:1018E00049E11F2A00DC97E110000E002038C640B5
:1018F000202A04D04020821A91400F43B9464C461A
:10190000621E944134433AE10A003A4328D0B34678
:10191000B5422BD06B4A4244002A5DD04246444631
:10192000821A002C00D0F5E065461D4300D19CE1F1
:10193000551E012A00D1FBE1604CA24200D1BDE15D
:101940002A00F0E00800384300D1C3E0501E012A0D
:1019500000D1A8E1594CA24200D187E0020036E74D
:1019600001225640B346B54200D021E7554A4244D1
:10197000002A00D1B5E042464446821A002C00D12C
:1019800038E14E4EB04200D1DEE180266446360496
:101990003443A446382A00DD96E11F2A00DD24E204
:1019A0002026B41AA24664465646B440A1461C00FE
:1019B0004E46D440264334005646B3405E1EB341E3
:1019C0001C436346D340C918E419BC42BF417F425F
:1019D000B94680468944D8E040463B4C013020421D
:1019E00000D0B4E04046002800D044E160461843EF
:1019F00000D190E10800384300D0AAE16146DB083D
:101A000049070B436146CC0827E00800384361D002
:101A1000501E012A00D139E1A24227D002005DE721
:101A200002001F39CA401100202B03D04022D31AD4
:101A300098400443631E9C410023994698460C43FA
:101A4000630700D012E74B464A46E4085B0723438E
:101A5000D408424619498A420ED024035205240B69
:101A6000520D22E70A00002400231EE7DB0862462D
:101A7000520713436246D4081A00224300D1FCE106
:101A800080221203144324030C4A240B0DE7200088
:101A900000F0B6FA010018311F2900DCC4E608384E
:101AA0008440434620000024884500DCC8E6044A00
:101AB0005B1A104098468146D6E6C046FF070000F4
:101AC000FFFF7FFF01F8FFFFFE0700000F437A1EB4
:101AD000974191E66146DB0849070B436146CC0814
:101AE000B8E74046D34C0130204200D0A2E0404647
:101AF000002800D001E16046184300D15EE10800F3
:101B0000384300D05FE16146DB0849070B4361467B
:101B1000CC08A2E7C84DA84200D1CFE0802564469A
:101B20002D042C43A446382A56DC1F2A00DDD1E0C0
:101B300020251E00AD1A6446AB40AC40D6405D1E69
:101B4000AB41344323436446D440091B49E060461B
:101B5000DC1B461AA34280414042814630004E467B
:101B6000801B8146000276D44B46234300D052E6C8
:101B70000024002571E739430C00621E9441E418EB
:101B80009C429B415B42634499464B461B0200D4F6
:101B900056E701239C46A84BE044984538D04B4675
:101BA000A648012203401800630814401C43C307E1
:101BB0001C434308994657E610000E002038C640E3
:101BC000202A04D04020821A91400F43B9464F4644
:101BD0007A1E974137430FE662461A4313005A1E96
:101BE0009341FC1AA742BF417F42CB1B99465D46F9
:101BF000804608E666461E4300D1BEE0561E012A16
:101C000000D109E18C4CA24200D119E13200C1E6B9
:101C100042460024002348E620200C00801A3E00A3
:101C200087408440D640781E8741D14034433C43AE
:101C30008C44A4E7804A904200D1E9E0DF199F423A
:101C40009B4161445B42C918CC077F084B08994609
:101C500080463C43F4E6FC1AA742BF4163467F42FC
:101C6000C91ACB1B99465D46D5E5FF084B075D4673
:101C70003B43CC08EEE662461A4300D082E00B00FC
:101C80003B431BD1802400252403F9E6DC199C4248
:101C90009B41614489465B4299444B461B0244D4B4
:101CA00001239846CCE6DC1B6246A3429B41511AB5
:101CB0005B42CB1A994601239846A4E5FF084B07DF
:101CC0005D463B43CC08D7E662461A431400631EC8
:101CD0009C4179E615006446203DEC40A046202A50
:101CE00005D040256446AA1A944023439A46544698
:101CF000631E9C414346234373E762461A4323D045
:101D00000A003A4300D0A0E06246DB0852071343C2
:101D10006246D408B0E60B003B4300D128E7FF0839
:101D20004B075D463B43CC0897E60223984636E7CF
:101D3000FC1AA742BF4163467F42C91ACB1B994692
:101D400001235D4698465EE54B07FF083B43CC0800
:101D500092E6DC1B6046A342B641401A7642801BE5
:101D60008146000260D5FC1AA742BF4163467F420C
:101D7000C91ACB1B99465D4676E5FF084B073B43E6
:101D8000CC0867E60A00DB083A4300D16FE66246FA
:101D9000520713436246D40880221203144207D02C
:101DA000C808104204D15D460400FB0849070B43F4
:101DB0005A0FDB00DB08520713435DE64B07FF08B1
:101DC0003B43CC0849E6DC199C429B41614489466F
:101DD0005B4299444B461B0200D431E64A46174BFE
:101DE0001A400123914698462AE616006446203E92
:101DF000F440A046202A05D040266446B21A9440FA
:101E000023439A465446631E9C4143461C43DBE5EC
:101E100002000024002348E5DC19BC42BF416144B4
:101E200089467F42B94438E74B46234300D19FE6B9
:101E300006E6C046FE070000FF070000FFFF7FFF29
:101E4000FF084B073B43CC0816E66246DB08520707
:101E500013436246D40880221203144207D0C808F4
:101E6000104204D15D460400FB0849070B435A0F9A
:101E7000DB005207DB081343FEE50023014A1C0088
:101E800013E5C046FF0700000A0030B5134C5300AD
:101E900009030500090B00205B0DD20FA34204DDEE
:101EA0000F48834202DD0F4BD01830BD8020400325
:101EB00001430D48C01A1F2808DD0C48C31AD94039
:101EC0000B005842002AF0D11800EEE7084CC5403C
:101ED000A446634499400B002B43F2E7FE03000045
:101EE0001D040000FFFFFF7F330400001304000007
:101EF000EDFBFFFF70B543004602C40FFE201B0E32
:101F0000591C750A08420CD0E022920094466D07D5
:101F1000360B63441B053343E407234328001900B1
:101F200070BD002B14D1002D1BD0280000F068F8E4
:101F30000A281CDC0B232E001B1ADE40030015337D
:101F40009D400E4A3603121A5205360B530DE1E737
:101F5000002D09D08022360B1203094B6D07164362
:101F6000D8E700230026D5E70026054BD2E703007B
:101F70000B3B9D402E000025E3E7C046890300008F
:101F8000FF0700008446100062468C461900634635
:101F900000E0C0461FB500F0F9F8002801D4002188
:101FA000C8421FBD10B500F049F84042013010BDD5
:101FB00010B500F0EBF8002801DB002010BD012077
:101FC00010BDC04610B500F0E1F8002801DD00208A
:101FD00010BD012010BDC04610B500F071F80028FA
:101FE00001DC002010BD012010BDC04610B500F07E
:101FF00067F8002801DA002010BD012010BDC0469E
:102000001C2101231B04984201D3000C10391B0A28
:10201000984201D3000A08391B09984201D30009EC
:10202000043902A2105C40187047C0460403020243
:10203000010101010000000000000000F0B54E4663
:102040004546DE4657469046E0B517001A03120B88
:102050000500844619480E034C0091465A00DB0FD8
:102060009B46360B640DC90F520D844219D0824233
:1020700010D0012094420ED14E450CD10120C44510
:1020800009D1594517D0002C05D130002843431EF3
:10209000984100E00120F0BCBB46B246A946A046EC
:1020A000F0BD330001202B43F5D1A242F3D14B46C2
:1020B0003B43F0D1E2E70020EDE7C046FF07000018
:1020C000F0B54746CE460400180016001B031B0B54
:1020D0002D4D4A00994680B543000F03A446B046F3
:1020E0003F0B520DC90F5B0DC00FAA4221D0AB426E
:1020F00013D0002A22D13C43002B02D14D462E435F
:1021000022D0002C10D0814222D002200139084078
:102110000138C0BCB946B046F0BD4D462E4329D16A
:10212000002AF0D13C43EED10028F2D101204042F8
:10213000EFE73D0025431DD19342EED0002BE2D1C5
:102140004C462643DFD1E0E70020002CE1D0DCE75D
:102150009A420ADCE8DB4F45D7D80ED000204F4525
:10216000D7D20029E2D00800D3E7434258414000CB
:102170000138CEE702204042CBE7C445C5D8002055
:10218000C445C6D2EDE7C046FF070000F0B547469C
:10219000CE460400180016001B031B0B2C4D4A00F2
:1021A000994680B543000F03A446B0463F0B520D3D
:1021B000C90F5B0DC00FAA420DD0AB4210D0002A50
:1021C00027D13C43002B11D14D462E430ED1002088
:1021D000002C15D00EE03D00254310D1934218D1BC
:1021E0004D462E430BD1002A02D13C43002C0BD08C
:1021F000814214D0022001390840013800E0022059
:10220000C0BCB946B046F0BD0028F9D1012040421B
:10221000F6E7002BECD14C462643E9D1EAE79A4297
:1022200004DD4342584140000138E9E79A42EBDBC4
:102230004F45DFD806D000204F45E1D20029E5D038
:102240000800DDE7C445D5D80020C445D8D2F5E75D
:10225000FF070000F0B5DE4657464E464546E0B55E
:102260008BB01422002105A807F089F8474B596963
:1022700080200003014359615A6902400192019A8A
:1022800059698020C003014359615A690240029292
:10229000029A596980208002014359615A690240BB
:1022A0000392039A5A698021C9020A435A615B6901
:1022B0000B400493049BE0242402354B9B460022F0
:1022C0002100180006F0C7F8324B9A469027FF0508
:1022D00000221900380006F0BEF82F4B99462F4E09
:1022E00000221900300006F0B6F82D4B9846002267
:1022F000C021180006F0AFF80594012506950024CA
:102300000794089405A9584605F0D8FF534605934D
:1023100006950794089405A9380005F0CFFF4B46B1
:10232000059306950794089405A9300005F0C6FFAB
:1023300080231B01059388235B030693079405A95B
:10234000300005F0BBFFF0231B02059306940795B0
:1023500005A9300005F0B2FFE0235B010593069468
:10236000079405A9380005F0A9FFC0230593069539
:102370000794089405A9404605F0A0FF0BB0F0BCF7
:10238000BB46B246A946A046F0BDC046001002407A
:1023900000080048828300003F0400000004004859
:1023A0000014004800B583B0114A51690123194354
:1023B0005161526913400193019B002200210920C1
:1023C00006F078F9092006F0A5F9002200210A207C
:1023D00006F070F90A2006F09DF9002200210B207A
:1023E00006F068F90B2006F095F903B000BDC04671
:1023F0000010024010B584B00C22002101A806F0A4
:10240000BEFF134C134B236000236360A360E360A3
:10241000012222610421616123766376A276E3764C
:10242000C221FF31E16123622433E254A262200021
:1024300004F0D6FC0523019380235B010293032360
:10244000039301A9200004F06FFE04B010BDC04644
:10245000100100200024014010B50D4C0D4B2360ED
:102460000D4B63600023A3600122E260236163617E
:10247000A361E3612362200005F0C0FC002120007D
:1024800005F0C6FE0021200005F0EEFE10BDC0469E
:102490001C02002000540040D28C800010B5094876
:1024A000094B036096239B01436000238360C36054
:1024B00003610C2242618361C3610362436206F0DF
:1024C00047FE10BD700200200038014010B50948D9
:1024D000094B036096239B01436000238360C36024
:1024E00003610C2242618361C3610362436206F0AF
:1024F0002FFE10BDF80200200044004030B595B01A
:102500003022002108A806F03AFF102410220021F2
:1025100004A806F034FF10220021684606F02FFFC1
:102520001A230893193B0B930D930C940E940F935D
:1025300002251095E02252031292139308A804F08A
:102540008DFE072304930595002506950795012127
:1025500004A805F0FBF82123009302950394684634
:1025600005F0A4F915B030BDF8B505F055FAFFF740
:10257000C5FFFFF76FFEFFF715FFFFF73BFFFFF704
:102580006BFFFFF78BFFFFF7A1FF00F0DBF9FA26E7
:10259000760032002549264804F0E4FC8021254CD1
:1025A00000228901200005F056FF234D0022102152
:1025B000280005F050FF00222021280005F04BFFE5
:1025C00000220821280005F046FF80210022C901D1
:1025D000200005F040FF80273F029025ED050022F6
:1025E0003900280005F037FF00223900200005F0EF
:1025F00032FF00F02BF800220221280005F02BFF0B
:102600000E4C32000E49200006F030FE226813689E
:1026100010210B431360012270310A4805F01BFFA3
:1026200004F0CEF803F05AF9FCE7C046800300201E
:10263000100100200008004800040048F8020020B3
:1026400028080020001400487047000010B5A14C75
:1026500004222100002000F05DFA2368182B02D923
:102660009C4B00221A609C4C04222100382000F070
:1026700051FA23683C2B02D9974B00221A60974CE1
:1026800004222100042000F045FA2368FA22920077
:1026900094466344FA22D200934202D98F4B00221F
:1026A0001A608F4C04222100082000F033FA2368BE
:1026B000FA22920094466344FA22D200934202D94D
:1026C000874B00221A60874C042221000C2000F066
:1026D00021FA2368FA22920094466344FA22D20037
:1026E000934202D97F4B00221A607F4C04222100C2
:1026F0005A2000F00FFA2368FA22920094466344AD
:10270000FA22D200934202D9774B00221A60774C0A
:10271000042221005E2000F0FDF92368FA229200D5
:1027200094466344FA22D200934202D96F4B0022AE
:102730001A6004226E493C2000F0ECF904226D4935
:10274000482000F0E7F904226B49402000F0E2F94C
:1027500004226A494C2000F0DDF904226849442033
:1027600000F0D8F904226749502000F0D3F9664CF4
:1027700004222100102000F0CDF92268FA23DB00AA
:102780009A4203D9604BFA2292001A605F4C0422ED
:102790002100142000F0BEF92268FA23DB009A42DF
:1027A00003D95A4BC82292001A60594C04222100C6
:1027B000182000F0AFF92268FA23DB009A4202D910
:1027C000534B544A1A60544C042221001C2000F040
:1027D000A1F92268FA23DB009A4202D94E4B4F4AF4
:1027E0001A604F4C04222100622000F093F9226805
:1027F000FA23DB009A4203D9494B962292001A60D1
:10280000484C04222100662000F084F92268FA2353
:10281000DB009A4203D9434B962292001A60424C45
:10282000042221006A2000F075F92268FA23DB00F7
:102830009A4203D93C4B962292001A603B4C0422E8
:102840002100202000F066F92368053B5F2B02D9A8
:10285000364B04221A60364C04222100242000F05A
:1028600059F92368053B5F2B02D9314B04221A60CA
:10287000304C04222100282000F04CF92368053B4D
:102880005F2B02D92B4B04221A602B4C042221000F
:102890002C2000F03FF92368FE2B02D9264B0122A1
:1028A0001A60264C04222100302000F033F92368FE
:1028B000022B02D9214B00221A60214C0422210054
:1028C000342000F027F92368042B02D91C4B032283
:1028D0001A6010BD7007002074070020A0070020B8
:1028E000A4070020A8070020AC070020B0070020A4
:1028F0004C00002038000020500000203C00002048
:102900005400002040000020180000201C0000207F
:10291000200000201405000024000020DC05000039
:10292000280000202C00002030000020440000205F
:10293000480000205800002034000020C807002074
:10294000B807002010B580219024E4050122490039
:10295000200005F080FD802101228900200005F083
:102960007AFD10BD0300013880B2002BFAD1704708
:1029700070B580219024E40501224900200005F073
:102980006AFD8025AD0001222900200005F063FDCD
:1029900000222900200005F05EFD70BD70B5802684
:1029A00076009024E40500223100200005F053FD5C
:1029B0008025AD0000222900200005F04CFD0122F9
:1029C0003100200005F047FD01222900200005F01C
:1029D00042FD70BD70B50500002410E080219020FC
:1029E00000228900C00505F036FD6D088021902089
:1029F00001224900C00505F02EFD0134E4B2072C88
:102A000010D88021902000224900C00505F023FD48
:102A1000EB07E3D58021902001228900C00505F055
:102A20001AFDE2E770BD70B505000C00FFF7A0FFCE
:102A30004420FFF7CFFFFFF7B1FFFFF799FFCF204B
:102A4000FFF7C8FF2800FFF7C5FFFFF7A7FFFFF755
:102A50008FFFCE20FFF7BEFF2000FFF7BBFFFFF781
:102A60009DFFFFF785FF8B20FFF7B4FFFFF796FF71
:102A700070BD0000F0B5C64600B584B004000F007C
:102A80001500821880231B019A423FDA43420F222D
:102A90001E001640134200D11026B3B2AB4220D91B
:102AA000EEB21EE0A023B2B29046FF22224099B2BD
:102AB000202302934346019300970123144805F015
:102AC00003FA002819D14444A4B24346ED1AADB22A
:102AD000BF192E1C102D00D91026F6B2052004F0C7
:102AE000BDFF002D0DD0230ADCD0E10949B20E2331
:102AF00019406E3B0B43DBB2D5E7052004F0AEFF77
:102B0000EFE7002004B080BCB846F0BD0120F9E733
:102B10001C020020F0B5C64600B584B004000F00CA
:102B20001500821880231B019A423CDA43420F228F
:102B30001E001640134200D11026B3B2AB421DD97D
:102B4000EEB21BE0A123B2B29046FF22224099B21E
:102B5000142302934346019300970123134805F081
:102B600083FA002816D14444A4B24346ED1AADB20C
:102B7000BF192E1C102D00D91026F6B2002D0DD035
:102B8000230ADFD0E10949B20E2319406D3B0B4304
:102B9000DBB2D8E7064806F06DFCEFE7002004B092
:102BA00080BCB846F0BD0120F9E7C0461C020020F9
:102BB00074A6000810B50020002304E05900274A3D
:102BC0008A5A80180133FA2252009342F6D3110038
:102BD000FDF7A4FA80B2224B1880224A1368013311
:102BE0001360FA229200934230D91E4B00221A60E1
:102BF0001D4B1B78002B1DD11C4B1B78002B21D1AA
:102C00001B4B1868FEF700FB1A4B1968FDF7BAFF5B
:102C1000194B1968FEF7DCF8041C184B1868FEF70E
:102C2000A5FA011C201CFDF747FCFEF77FFA144BA8
:102C3000186007E0134B1B68114A1360124A1360B7
:102C4000124A13600A4B00221A6010BD084B1B6821
:102C50009842FAD9064B1860F7E7C0468003002077
:102C600068070020C0070020B707002000000020F0
:102C7000DC0700204C00002038000020A0070020C6
:102C80000C00002004000020100000201400002090
:102C9000F8B5CE46474680B5814B1A780121884663
:102CA0008A431A70D2B201318C468A431A70D2B26A
:102CB0000427BA431A70D2B20826B2431A70D2B2AD
:102CC0001025AA431A70D2B22024A2431A70D2B29D
:102CD000402082431A70D1B27F2291461140197070
:102CE000704B1978424691431970C9B262469143BC
:102CF0001970C9B2B9431970C9B2B1431970C9B2D8
:102D0000A9431970C9B2A1431970C9B2814319709E
:102D1000C9B24A460A401A70634B1A68FA23DB00AC
:102D20009A421BD3604BFA22D2001A605F4B1B6899
:102D30005F4A1268934201DD5D4A13605D4B1B6878
:102D40005D4A1268934201DD5B4A13605B4B1B686E
:102D50005B4A1268934201DD594A1360534B1A686B
:102D6000584B1B689A4207DC524909688B4203DBC7
:102D7000524909688B4202DA534B01211970534BB7
:102D80001B689A420ADA4B4909688B4206DD4B49B7
:102D900009688B4202DD4C4B002119704C4B1B78AB
:102DA000012B42D0022B44D0022B02D9484B0021E8
:102DB0001970474B1B78002B14D1464B19680B0137
:102DC0005B1A9B004448006883420BD2434C246842
:102DD0001B19984206D2002904D0002C02D03A4B8D
:102DE000012119703B4B19680B015B1A9B003B4991
:102DF00009685B18384909688B4202D2364B0021BA
:102E0000196013002D33FF3335498B4215D9354BEB
:102E10009A4202DA344B0121197096231B019A421F
:102E20000EDD314B02221A700AE02749012008709A
:102E3000B8E7254900200870B6E72B4B00221A702E
:102E40001C4B1B6819002D31FF31254A91420DD9C9
:102E5000244A934202DA254A012111709622120176
:102E6000934206DD214B02221A7002E01F4B002222
:102E70001A70124B1B6819002D31FF31184A91420C
:102E800038D9184A934202DA194A01211170962260
:102E90001201934231DD164B02221A702DE0C0461A
:102EA000880700208C070020900700200C000020DD
:102EB000E807002010000020EC070020140000208C
:102EC000F007002018000020780700201C000020D8
:102ED0009A07002070070020E407002074070020F4
:102EE0008C0A0000D4FEFFFFB4070020B5070020C5
:102EF000B6070020D34B00221A7080219020C90011
:102F0000C00505F0A1FA012800D153E1CE4B002203
:102F10001A70802190200901C00505F095FA01285A
:102F200000D14BE1C94B00221A70C94B1B681A0033
:102F30002D32FF32C7498A4204D90121C6480170A7
:102F4000C6480170C3498A4202D8C34A00211170A1
:102F5000C34A1268934204DD0121C2480170BF4890
:102F60000170C1490968521A934202DABD4A002130
:102F70001170BE4A1268934204DD0121BC48017001
:102F8000B6480170BB490968521A934202DAB84B3D
:102F900000221A70B84B00221A70B84B1C68B84B4C
:102FA0001D682800FEF7E2F8061C011C201CFDF736
:102FB00051FA002806D1B34B1968301CFDF736FAD8
:102FC000002802D0AC4B01221A7028000A38FEF704
:102FD000CDF8051C011C201CFDF728FA00280BD099
:102FE000A84B1968281CFDF735FA002804D0A24A1E
:102FF000137801218B431370A34B1D682800FEF743
:10300000B5F8061C011C201CFDF724FA002806D187
:103010009C4B1968301CFDF709FA002804D0964A29
:10302000137802210B43137028000A38FEF79EF82C
:10303000051C011C201CFDF7F9F900280BD0914B51
:103040001968281CFDF706FA002804D08A4A13786C
:1030500002218B431370894B5E688C4B1C682000E7
:10306000FEF784F8051C011C301CFDF7F3F900285D
:1030700006D1844B5968281CFDF7D8F9002804D0E4
:103080007D4A137804210B43137020000A38FEF7A1
:103090006DF8041C011C301CFDF7C8F900280BD08A
:1030A000784B5968201CFDF7D5F9002804D0724AE6
:1030B000137804218B4313706F4B1B78DB0700D40C
:1030C00080E080210122C901714805F0C4F9714AEC
:1030D000137802210B431370674B1B789B077DD538
:1030E0008021902001220902C00505F0B4F9694A47
:1030F000137804210B4313705F4B1B785B077AD561
:10310000802101220902624805F0A5F9614A13787D
:1031100008210B431370802190204901C00505F060
:1031200093F9002873D101235B4A13704B4A137043
:10313000474B1A684A4B1B689A420EDA574909688E
:103140008B420ADD56480068834206DD554B9A42A1
:1031500003DB994201DB98425DDA534B1B78002B6D
:1031600008D1524A1178012081431170C9B202205E
:1031700001431170012B5AD0022B00D19CE0022B8D
:1031800002D9494B00221A70494B1B78022B00D1FF
:103190000EE100D99AE0002B00D1A5E0012B00D070
:1031A000ABE0444B1B68642B00D8A6E0404B0222E6
:1031B0001A70A2E0244B01221A70AAE6234B0122C6
:1031C0001A70B2E680210022C901314805F043F9A6
:1031D000304A137802218B4313707DE780219020C1
:1031E00000220902C00505F036F92A4A13780421A5
:1031F0008B43137080E7802100220902244805F0E8
:103200002AF9244A137808218B43137083E7224B51
:1032100000221A708CE7802190204901C00505F03A
:1032200013F9012899D10D4B00221A7095E71F4A16
:103230001178012001431170C9B20220814311703D
:103240009AE7C046B60700209E0700209F0700208F
:103250000C0000208C0A00009C070020C5070020FD
:10326000200000209D0700204800002024000020AE
:103270008007002058000020BC070020700B0020B1
:1032800028000020780B00202C00002030000020B7
:10329000000800488C0700206E0700201000002066
:1032A00014000020D5FEFFFF9A07002088070020A9
:1032B000000000207C0700206F4A117801200143A4
:1032C0001170C9B202208143117058E7032B14D149
:1032D0006A4B1A68FA23DB009A420ED90023684A27
:1032E0001370664A136008E0664B1B78002B48D0C9
:1032F000012B52D0614B00221A60634B1B78012BCB
:1033000000D16FE0012B04D0604A137801218B4378
:1033100013705F4B1B78012B6AD05D4B1B78012B20
:1033200000D070E05B4B1B78012B00D176E0594B4D
:103330001B78012B00D07CE0574B1B78012B00D170
:1033400082E0554B1B78012B00D083E0534B1B7858
:10335000012B00D184E0514B1B78002B03D0504B44
:103360001B78012B04D1002280214E4805F073F810
:103370004D4B1B680A2B00D99EE0C0BCB946B04635
:10338000F8BD4A4B1B78012B03D0484B00221A7022
:10339000B0E73B4B01221A70F7E7444B1B78002B38
:1033A00002D1374B01221A70404B01221A70A1E75B
:1033B000344B1B78012B07D0324B1B78012B0AD1E1
:1033C0002F4B03221A7098E7802101228901384887
:1033D00005F041F8F0E7802100228901344805F02A
:1033E0003AF8EDE729490A78012002430A7089E793
:1033F000012210212F4805F02EF81F4A13780421CE
:103400000B43137089E7002210212A4805F023F8A6
:10341000194A137804218B43137083E7012220217A
:10342000244805F018F8144A137808210B43137048
:103430007DE7002220211F4805F00DF80E4A137881
:1034400008218B43137077E701220821194805F002
:1034500002F876E700220821164804F0FCFF75E721
:103460000F4B1B78002B00D075E7012280210D48FF
:1034700004F0F1FF6FE7C046880700207C070020BA
:1034800000000020780700209C0700208C07002007
:103490009D070020800700206E070020C507002040
:1034A000C407002000140048F80700207907002016
:1034B0000008004800040048D54B00221A60802113
:1034C0008901D44804F0C0FF002814D1D24A1378EF
:1034D000013313700023D14A1370D14A1370D14ABB
:1034E0001370D1490A6801320A60D04A1360D04A89
:1034F0001360D04A136080214901C64804F0A4FF3C
:10350000002814D10023C44A1370C4490A78013238
:103510000A70C34A1370C34A1370C34A1360C34985
:103520000A6801320A60C24A1360C24A13608021ED
:103530000902B84804F088FF002814D10023B64AD5
:103540001370B64A1370B6490A7801320A70B54A48
:103550001370B54A1360B54A1360B5490A68013261
:103560000A60B44A13608021C901AA4804F06CFFC4
:10357000002814D10023A84A1370A84A1370A84A3F
:103580001370A8490A7801320A70A74A1360A74A43
:103590001360A74A1360A74A1368013313609E4B58
:1035A0001B78042B69D89D4B1B78042B73D89C4B3C
:1035B0001B78042B7DD89B4B1B78042B00D987E00C
:1035C00080218901934804F03FFF002806D1964BE3
:1035D0001B68632B02D9984B01221A608021490194
:1035E0008C4804F031FF002806D1904B1B68632BF8
:1035F00002D9914B02221A6080210902854804F009
:1036000023FF002806D18A4B1B68632B02D98A4B03
:1036100003221A608021C9017E4804F015FF0028AA
:1036200006D1844B1B68632B02D9834B04221A609A
:1036300080218901774804F007FF012857D08021B5
:103640004901744804F000FF012854D08021090288
:10365000704804F0F9FE012851D08021C9016D485D
:1036600004F0F2FE01284ED0744B1A88CA2A00D901
:10367000A2E39300724AD3589F468021890165488E
:1036800004F0E2FE01288ED16B4B01221A60624BDE
:1036900000221A7087E7802149015E4804F0D4FEB9
:1036A000012884D1644B02221A605C4B00221A70FC
:1036B0007DE780210902574804F0C6FE012800D0AA
:1036C00079E75D4B03221A60554B00221A7072E7AE
:1036D0008021C9014F4804F0B7FE012800D06FE7F0
:1036E000554B04221A604F4B00221A7068E74E4B6C
:1036F00000221A60A3E74D4B00221A60A6E74C4B4C
:1037000000221A60A9E74B4B00221A60ACE74D4C2F
:103710002368013323604C4B19684C4802F0F8FED3
:103720002368632B08D9474B00221A60484B1B784B
:10373000002B4CD0012B4ED0454B1B78002B4ED18B
:10374000444B1A7810210A431A70D2B220218A43BE
:103750001A70414C6068FDF7E9FC01003F4802F037
:10376000D7FE2068FDF7E2FC01003D4802F0D0FEE4
:10377000354B1B6819002D31FF313A4A914208D967
:10378000394A934276DB304B1A6896231B019A42E2
:1037900077DC294B1B68012B7AD0022B00D185E006
:1037A000032B00D191E0042B00D005E3214B1B68D3
:1037B000272B00D800E3204B00221A602B4B1B78EC
:1037C000934200D090E0294B01321A70F4E2204B72
:1037D00001221A70B0E71E4B00221A70ACE71D4B95
:1037E0001A7810218A431A70D2B220210A431A7023
:1037F0001F4C6068FDF79AFC0100184802F088FE33
:103800002068FDF793FC0100154802F081FEAFE748
:10381000F8070020000400486A0700206B0700201A
:103820006C0700206D070020CC070020D007002087
:10383000D4070020D8070020840700209807002024
:10384000E0A70008240800200C000020FC0700204E
:10385000F407002088070020700B002004080020D7
:103860000C0800208C0A0000D4FEFFFFC4070020D3
:10387000780B0020C54BC64A1168196012791A717D
:1038800081E7C24BC34A1168196012791A7180E747
:10389000C14A1268272A00D87FE7C04B03221A804A
:1038A0000023BF4A1360BC4A136085E2BC4B002270
:1038B0001A60BC4B1B78002B03D1BB4B01321A7032
:1038C0007AE2B94B00221A7076E2B54B00221A60F8
:1038D000B54B1B78002B03D1B34B02321A706BE24D
:1038E000B14B00221A7067E2AE4B00221A7063E2FD
:1038F000AE4B1A68AE49A54805F0C6FDAD4B1B6836
:10390000272B05D8A64A002111600133A94A13606C
:10391000A34B1B68012B17D0A14B1B68042B50D065
:103920009F4B1B68022B52D09D4B1B68032B00D072
:1039300042E29E4B1B68012B02DD013B9B4A136058
:10394000974B00221A6037E29A4B1B68272BE3D96A
:10395000984B00221A60954B1B68012B11D0022B4B
:1039600013D0032B15D0042B17D0052B19D0062B01
:103970001BD0082B1DD0092B1FD0894B00221A60A9
:10398000CAE7864A04211180E9E7844A07211180A9
:10399000E7E7824A28211180E5E7804A102111805B
:1039A000E3E77E4A18211180E1E77C4A1A21118061
:1039B000DFE77A4A1E211180DDE7784B24221A8046
:1039C000DBE70023754A1380754A1360A8E7774B3D
:1039D0001B68082B02DC0133744A1360704B002211
:1039E0001A60A1E7714B1A687349684805F04CFDED
:1039F000704B1B68272B05D8694A002111600133E1
:103A00006C4A1360664B1B68012B17D0644B1B6814
:103A1000042B29D0624B1B68022B2BD0604B1B68F8
:103A2000032B00D0C8E1614B1B68012B02DD013B79
:103A30005E4A13605A4B00221A60BDE15D4B1B6861
:103A4000272BE3D95B4B00221A60584B1B68122BC3
:103A500006D0524B03221A80514B00221A60D5E740
:103A60004E4B0A321A80F7E700234C4A13804C4A27
:103A70001360CFE74D4B1B68122B02DC01334B4A1E
:103A80001360474B00221A60C8E74C4B19683F4C43
:103A9000200002F03DFD41232370414B1B68012BA8
:103AA00010D03F4B1B68042B13D03D4B1B68022BDF
:103AB00015D03B4B1B68032B00D07DE1384B002217
:103AC0001A6079E1354B05221A80354B00221A60C5
:103AD000E7E70023314A1380314A1360E5E7304BB2
:103AE00000221A60E5E7364B1968284C200002F0E6
:103AF0000FFD422323702A4B1B68012B10D0284B4B
:103B00001B68042B13D0264B1B68022B15D0244BAB
:103B10001B68032B00D04FE1214B00221A604BE1C0
:103B20001E4B06221A801E4B00221A60E7E7002374
:103B30001A4A13801A4A1360E5E7194B00221A60EB
:103B4000E5E7204B1968114C200002F0E1FC43230B
:103B50002370134B1B68012B10D0114B1B68042BD7
:103B600032D00F4B1B68022B34D00D4B1B68032B3C
:103B700000D021E10A4B00221A601DE1074B03220D
:103B80001A80074B00221A60E7E7C046FC070020B6
:103B900088A6000890A60008CC07002098070020FF
:103BA00084070020C40700209A0700200800002096
:103BB00098A6000894070020A0A600080C0000208A
:103BC00010000020140000200023D14A1380D14AA5
:103BD0001360C6E7CF4B00221A60C6E7CE4BCF4A30
:103BE0001168196012791A71CA4B1B68012B10D029
:103BF000C84B1B68042B13D0C64B1B68022B15D077
:103C0000C44B1B68032B00D0D6E0C24B00221A60C5
:103C1000D2E0BF4B08221A80BE4B00221A60E7E7B1
:103C20000023BB4A1380BB4A1360E5E7B94B00226F
:103C30001A60E5E7BA4B1A68BA49B74805F024FCA0
:103C4000B44B1B68012B17D0B24B1B68042B1FD041
:103C5000B04B1B68022B21D0AE4B1B68032B00D04E
:103C6000AAE0AF4B1B68002B02D0013BAC4A1360AB
:103C7000A84B00221A609FE0A54B09221A80A54B91
:103C800000221A600432A6490020FEF7F3FEDBE7AB
:103C900000239F4A13809F4A1360D9E7A04B1B68FB
:103CA000172B02D801339E4A13609A4B00221A60E8
:103CB000D2E79D4B1A689D49974805F0E5FB954B67
:103CC0001B68012B16D0934B1B68042B1ED0914B05
:103CD0001B68022B20D08F4B1B68032B6CD1924B9F
:103CE0001B68002B02D0013B8F4A1360894B0022D6
:103CF0001A6061E0864B03221A80864B00221A600C
:103D0000043289493820FEF7B5FEDCE70023804AFB
:103D10001380804A1360DAE7834B1B683B2B02D881
:103D20000133814A13607B4B00221A60D3E7804B3A
:103D300000221A60784B7F4A1168196012791A7153
:103D4000744B1B68012B0FD0724B1B68042B18D0CF
:103D5000704B1B68022B1AD06E4B1B68032B2BD1A8
:103D60006C4B00221A6027E0694B0D221A80694BC8
:103D700000221A60704B1888FDF746FA6F4B1860E6
:103D8000E2E70023624A1380624A1360E0E7614B76
:103D900000221A60E0E7604B694A116819601279E5
:103DA0001A715C4B1B68012B1CD05A4B1B68042BEF
:103DB00040D0584B00221A6002F076FD5649C020D0
:103DC00002F068FB5F49C42002F064FB5E49C82032
:103DD00002F060FB5D4B19785D4B1878FEF723FE0F
:103DE000FFF7CBFA4A4B03221A804A4B00221A6093
:103DF000514B1888FDF708FA564B18604F4B1C685A
:103E0000211CFCF7E5FF011C5348FCF7F3FC011CE7
:103E1000524D2860201CFCF7B5FE514C2060042256
:103E200029003C20FEF726FE042221004820FEF750
:103E300021FEBAE70023364A1380364A1360B8E7FA
:103E4000354B484A1168196012791A71314B1B6859
:103E5000012B07D02F4B1B68042B0AD02D4B0022BF
:103E60001A60A9E72A4B11221A802A4B00221A60F5
:103E7000F0E70023264A1380264A1360EEE73A4B08
:103E80001D680A212800FCF7B9FA0C000A21280055
:103E9000FCF7CEF90200230034491F4805F0F4FA7C
:103EA0001C4B1B68012B20D01A4B1B68042B28D0FD
:103EB000184B1B68022B5DD0164B1B68032B6DD073
:103EC000144B1B68022B7BD0032B00D074E7284BCC
:103ED0001B68272B00D86FE7234B1B68002B00DCE7
:103EE0006AE7013B204A136066E7094B12221A80F9
:103EF000084B00221A6004321B491020FEF7BAFD5D
:103F0000D2E70023024A1380024A1360D0E7C0467A
:103F10009807002084070020FC070020A8A60008BE
:103F200070070020B0A6000874070020B8A600089B
:103F300004000020C0A60008680700201C0800201C
:103F4000C8A60008040800200C0800208C070020E8
:103F500088070020200800200000FA444C000020C0
:103F600038000020D0A6000818000020D8A60008BD
:103F7000D407002080214901C84804F065FA0128CF
:103F80009AD1C74B1B68FA22D200934202DA01335E
:103F9000C34A1360C34B00221A608DE780210902D7
:103FA000BE4804F051FA01288AD1BD4B1B68002B92
:103FB00002DD013BBA4A1360BA4B00221A607FE768
:103FC000B94A1268272A00D87EE7B54A1268FA2152
:103FD000C9008A4200DB77E70132B1490A6073E722
:103FE000B24BB34A1168196012791A71AD4B1B6854
:103FF000012B10D0AB4B1B68042B13D0A94B1B68B3
:10400000022B15D0A74B1B68032B00D0D4E6A54B81
:1040100000221A60D0E6A74B13221A80A14B00227F
:104020001A60E7E70023A34A13809E4A1360E5E77E
:104030009C4B00221A60E5E79F4B1D680A2128006F
:10404000FCF7DCF90C000A212800FCF7F1F802006B
:1040500023009A49954805F017FA924B1B68012BEB
:1040600020D0904B1B68042B28D08E4B1B68022B52
:104070002AD08C4B1B68032B3AD08A4B1B68022B2F
:1040800048D0032B00D097E68D4B1B68272B00D818
:1040900092E6894B1B68002B00DC8DE6013B864ACB
:1040A000136089E6834B14221A807E4B00221A602B
:1040B000043281491420FEF7DDFCD2E700237D4A5B
:1040C0001380784A1360D0E780214901734804F0D7
:1040D000BBF90128CDD1784B1B68FA22D20093425C
:1040E00002DA0133744A13606E4B00221A60C0E793
:1040F00080210902694804F0A7F90128BDD16E4B5F
:104100001B68002B02DD013B6B4A1360654B0022EC
:104110001A60B2E7644A1268272AB2D9664A12685E
:10412000FA21C9008A42ACDA013263490A60A8E781
:104130005E4B644A1168196012791A71594B1B68F9
:10414000012B07D0574B1B68042B0AD0554B00227C
:104150001A6031E6574B15221A80524B00221A6022
:10416000F0E70023534A13804E4A1360EEE7564BA4
:104170001D680A212800FCF741F90C000A212800DB
:10418000FCF756F8020023004C49484805F07CF93A
:10419000444B1B68012B20D0424B1B68042B28D0BA
:1041A000404B1B68022B2AD03E4B1B68032B3AD096
:1041B0003C4B1B68022B48D0032B00D0FCE5404B46
:1041C0001B68272B00D8F7E53F4B1B68002B00DC52
:1041D000F2E5013B3C4A1360EEE5364B16221A80AD
:1041E000304B00221A60043237491820FEF742FC97
:1041F000D2E700232F4A13802A4A1360D0E7802198
:104200004901264804F020F90128CDD12E4B1B6826
:10421000FA22D200934202DA01332B4A1360214B77
:1042200000221A60C0E7802109021C4804F00CF942
:104230000128BDD1244B1B68002B02DD013B224A23
:104240001360184B00221A60B2E7174A1268272A37
:10425000B2D91D4A1268FA21C9008A42ACDA013289
:1042600019490A60A8E7114B184A116819601279B8
:104270001A710C4B1B68012B2AD00A4B1B68042BAC
:104280002DD0084B1B68022B2FD0064B1B68032B2D
:1042900000D091E5034B00221A608DE50004004830
:1042A0001800002084070020D0070020FC07002011
:1042B000E4A60008980700201C000020D8A60008EB
:1042C000D4070020ECA6000820000020F4A6000877
:1042D000C94B17221A80C94B00221A60CDE7002370
:1042E000C54A1380C54A1360CBE7C44B00221A604D
:1042F000CBE7C34B1D680A212800FCF77FF80C00B0
:104300000A212800FBF794FF02002300BD49BE48A4
:1043100005F0BAF8B94B1B68012B20D0B74B1B68CE
:10432000042B28D0B54B1B68022B2AD0B34B1B683B
:10433000032B3AD0B14B1B68022B48D0032B00D083
:104340003AE5B24B1B68272B00D835E5AC4B1B6810
:10435000002B00DC30E5013BA94A13602CE5A64B9D
:1043600064221A80A54B00221A600432A4491C2042
:10437000FEF780FBD2E700239F4A13809F4A136019
:10438000D0E780214901A24804F05EF80128CDD190
:104390009B4B1B68FA22D200934202DA0133984AFF
:1043A0001360964B00221A60C0E7802109029848EA
:1043B00004F04AF80128BDD1914B1B68002B02DDA7
:1043C000013B8F4A13608D4B00221A60B2E7914A7D
:1043D0001268272AB2D98A4A1268FA21C9008A4289
:1043E000ACDA013286490A60A8E7874B8A4A11682D
:1043F000196012791A71814B1B68012B07D07F4B12
:104400001B68042B0AD07D4B00221A60D4E47A4B3F
:1044100065221A80794B00221A60F0E70023764A61
:104420001380764A1360EEE77C4B1D680A21280052
:10443000FBF7E4FF0C000A212800FBF7F9FE02005D
:1044400023007049704805F01FF86C4B1B68012B66
:1044500020D06A4B1B68042B28D0684B1B68022BAA
:104460002AD0664B1B68032B3AD0644B1B68022B87
:1044700048D0032B00D09FE4644B1B68272B00D847
:104480009AE4664B1B68002B00DC95E4013B634A11
:10449000136091E4584B66221A80584B00221A6030
:1044A00004325E496220FEF7E5FAD2E70023524A61
:1044B0001380524A1360D0E780214901544803F029
:1044C000C3FF0128CDD1554B1B68FA22D20093427D
:1044D00002DA0133514A1360484B00221A60C0E7E8
:1044E000802109024A4803F0AFFF0128BDD14B4BA0
:1044F0001B68002B02DD013B484A13603F4B002242
:104500001A60B2E7434A1268272AB2D9434A1268AE
:10451000FA21C9008A42ACDA013240490A60A8E7B0
:10452000394B3F4A1168196012791A71334B1B6875
:10453000012B07D0314B1B68042B0AD02F4B0022D4
:104540001A6039E42C4B67221A802C4B00221A6027
:10455000F0E70023284A1380284A1360EEE7314B26
:104560001D680A212800FBF749FF0C000A212800DA
:10457000FBF75EFE020023002249234804F084FF7B
:104580001E4B1B68012B24D01C4B1B68042B2CD00A
:104590001A4B1B68022B47D0184B1B68032B57D0B4
:1045A000164B1B68022B65D0032B01D0FFF704FCD0
:1045B000164B1B68272B01D8FFF7FEFB194B1B6816
:1045C000002B01DCFFF7F8FB013B164A1360FFF7F5
:1045D000F3FB094B68221A80084B00221A60043250
:1045E00010496620FEF746FACEE70023024A138000
:1045F000024A1360CCE7C0469807002084070020D9
:1046000024000020D8A60008FC070020D4070020C2
:1046100000040048D0070020FCA600082800002065
:1046200004A700082C00002080214901CC4803F099
:104630000BFF0128B0D1CB4B1B68FA22D20093426A
:1046400002DA0133C74A1360C74B00221A60A3E79E
:1046500080210902C24803F0F7FE0128A0D1C14B16
:104660001B68002B02DD013BBE4A1360BE4B0022DB
:104670001A6095E7BD4A1268272A95D9B94A126887
:10468000FA21C9008A428FDA0132B6490A608BE703
:10469000B74BB84A1168196012791A71B24B1B688E
:1046A000012B08D0B04B1B68042B0BD0AE4B002263
:1046B0001A60FFF781FBB04B69221A80AA4B0022D7
:1046C0001A60EFE70023AC4A1380A74A1360EDE7B6
:1046D000AA4B1D680A212800FBF790FE0C000A2156
:1046E0002800FBF7A5FD02002300A549A04804F01F
:1046F000CBFE9D4B1B68012B24D09B4B1B68042BCE
:104700002CD0994B1B68022B2ED0974B1B68032B88
:104710003ED0954B1B68022B4CD0032B01D0FFF7EA
:104720004BFB984B1B68272B01D8FFF745FB934B9E
:104730001B68002B01DCFFF73FFB013B8F4A136036
:10474000FFF73AFB8C4B03221A80874B00221A603A
:1047500004328A496A20FEF78DF9CEE70023864AA3
:104760001380814A1360CCE7802149017C4803F023
:104770006BFE0128C9D1814B1B68FA22D2009342FB
:1047800002DA01337D4A1360774B00221A60BCE7DE
:1047900080210902724803F057FE0128B9D1774BF6
:1047A0001B68002B02DD013B744A13606E4B002234
:1047B0001A60AEE76D4A1268272AAED96F4A1268AE
:1047C000FA21C9008A42A8DA01326C490A60A4E7DA
:1047D000674B6D4A1168196012791A71624B1B6838
:1047E000012B12D0604B1B68042B15D05E4B1B684D
:1047F000022B17D05C4B1B68032B01D0FFF7DCFAB0
:10480000594B00221A60FFF7D7FA5B4B19221A8026
:10481000554B00221A60E5E70023574A1380524A9D
:104820001360E3E7504B00221A60E3E7574B012285
:104830001A70574B1C68002C3DDB0A212000FBF747
:10484000DDFD0D000A212000FBF7F2FC02002B0029
:104850005049474804F018FE434B1B68012B3BD0DE
:10486000414B1B68042B40D03F4B1B68022B45D0AB
:104870003D4B1B68032B54D03B4B1B68022B62D073
:10488000032B00D18CE0022B00D197E0032B01D049
:10489000FFF792FA3B4B1B684F2B01D8FFF78CFABE
:1048A0003B4B1B680A2B01DCFFF786FA0A3B384AB0
:1048B0001360FFF781FA60420A21FBF79FFD0D00AC
:1048C0000A2149422000FBF7B3FC02002B003249C9
:1048D000274804F0D9FDBFE7274B03221A800023A5
:1048E000214A1360294A1370BAE70023224A138031
:1048F0001D4A13600022254B1A70B5E7802149013B
:10490000174803F0A1FD0128B2D1214B1B68234AAF
:10491000934202DC01331E4A1360134B00221A60DB
:10492000A6E7802109020E4803F08EFD0128A3D1DD
:10493000174B1B68002B02DD013B154A13600A4B25
:1049400000221A6098E7094A1268272A98D9104A63
:10495000126812498A4293DC01320D490A608FE7DE
:10496000000400482C00002084070020D00700200D
:10497000FC0700200CA7000898070020300000204A
:10498000D8A60008D407002014A70008B707002005
:10499000040000201CA7000828A70008C309000085
:1049A000C54A1268272A00D86DE7C44A1268002A4F
:1049B00000DC68E7013AC1490A6064E7C04A12684E
:1049C0004F2A00D862E7BD4A1268BE498A4200DD1C
:1049D0005CE70A32B9490A6058E7BB4BBB4A116829
:1049E000196012791A71BA4B1B68012B12D0B84B9F
:1049F0001B68042B15D0B64B1B68022B17D0B44B89
:104A00001B68032B01D0FFF7D7F9B14B00221A60C6
:104A1000FFF7D2F9AF4B1B221A80AD4B00221A6070
:104A2000E5E70023AB4A1380A94A1360E3E7A84BEC
:104A300000221A60E3E7A84B1A68A849A24804F0CC
:104A400023FDA34B1B68012B28D0A14B1B68042B13
:104A500030D09F4B1B68022B32D09D4B1B68032B21
:104A600040D09B4B1B68022B4ED0032B58D0022BFF
:104A700062D0032B01D0FFF79FF98F4B1B684F2BA0
:104A800001D8FFF799F9944B1B680B2B01D8FFF75E
:104A900093F90A3B904A1360FFF78EF98D4B1C2265
:104AA0001A808B4B00221A6004328B492C20FDF7B0
:104AB000E1FFCAE70023874A1380854A1360C8E7ED
:104AC00080214901864803F0BFFC0128C5D1824BF3
:104AD0001B68EF2B02D801337F4A13607C4B002206
:104AE0001A60BAE7802109027D4803F0ADFC012875
:104AF000B7D1794B1B68012B02D9013B764A136071
:104B0000734B00221A60ACE76D4A1268272AACD9B1
:104B1000714A1268EF2AA8D801326F490A60A4E7E7
:104B2000654A1268272AA2D96B4A1268012A9ED9BF
:104B3000013A69490A609AE7614A12684F2A98D98E
:104B4000654A1268E52A94D80A3263490A6090E7F8
:104B5000644B1A6864495C4804F096FC5C4B1B6823
:104B6000012B24D05A4B1B68042B2CD0584B1B68AC
:104B7000022B2ED0564B1B68032B3DD0544B1B6889
:104B8000022B4BD0032B01D0FFF716F94A4B1B68C1
:104B9000272B01D8FFF710F9524B1B68002B01D1CE
:104BA000FFF70AF9013B4F4A1360FFF705F9494B3C
:104BB0001D221A80464B00221A60043249493020D7
:104BC000FDF758FFCEE70023424A1380404A1360A6
:104BD000CCE780214901424803F036FC0128C9D1C5
:104BE000404B1B68012B03D9394B00221A60C1E7E7
:104BF00001333C4A1360F7E780210902384803F08B
:104C000023FC0128BAD1374B1B68002B02D0013B93
:104C1000344A13602E4B00221A60AFE7284A12680C
:104C2000272AAFD92F4A1268012AABD801322D4961
:104C30000A60A7E72D4B1A682B49234804F024FC8F
:104C4000234B1B68012B24D0214B1B68042B2CD039
:104C50001F4B1B68022B4BD01D4B1B68032B59D0DD
:104C60001B4B1B68022B67D0032B01D0FFF7A4F866
:104C7000114B1B68272B01D8FFF79EF81B4B1B68B5
:104C8000002B01D1FFF798F8013B184A1360FFF79A
:104C900093F8104B03221A800D4B00221A60043245
:104CA00012493420FDF7E6FECEE70023094A1380BF
:104CB000074A1360CCE7C046D40700200400002058
:104CC000D0070020B9090000FC07002034A7000825
:104CD0008407002098070020340000203CA700082B
:104CE00000040048C807002044A70008B8070020B7
:104CF00080214901CE4803F0A7FB0128ACD1CD4B60
:104D00001B68032B02D80133CA4A1360CA4B002226
:104D10001A60A1E780210902C54803F095FB01282C
:104D20009ED1C44B1B68002B02D0013BC14A1360CB
:104D3000C14B00221A6093E7C04A1268272A93D910
:104D4000BC4A1268032A8FD80132BA490A608BE73D
:104D5000BB4BBC4A1168196012791A71B64B1B68BB
:104D6000012B12D0B44B1B68042B15D0B24B1B681F
:104D7000022B17D0B04B1B68032B01D0FFF71CF898
:104D8000AD4B00221A60FFF717F8AF4B1F221A80B5
:104D9000A94B00221A60E5E70023AB4A1380A64A1C
:104DA0001360E3E7A44B00221A60E3E7A74B1C68FB
:104DB000002C37DB0A212000FBF720FB0D000A2125
:104DC0002000FBF735FA02002B00A1499C4804F0B3
:104DD0005BFB994B1B68012B37D0974B1B68042B4F
:104DE0003FD0954B1B68022B41D0934B1B68032B84
:104DF0004FD0914B1B68022B5DD0032B01D0FEF7E7
:104E0000DBFF944B1B68272B01D8FEF7D5FF8F4B98
:104E10001B68052B01DCFEF7CFFF013B8B4A1360BB
:104E2000FEF7CAFFE317E4185C400A212000FBF7F5
:104E3000E5FA0D000A212000FBF7FAF902002B0029
:104E400085497F4804F020FBC3E77F4B20221A806E
:104E5000794B00221A6004327C492020FDF75AFE6B
:104E6000BBE70023784A1380734A1360B9E78021B7
:104E700049016F4803F0E8FA0128B6D1734B1B686B
:104E8000632B02DC0133714A13606B4B00221A6002
:104E9000ABE780210902664803F0D6FA0128A8D1C1
:104EA0006A4B1B68052B02DD013B684A1360624BAD
:104EB00000221A609DE7614A1268272A9DD9634A39
:104EC0001268632A99DC013260490A6095E75C4BFD
:104ED000624A1168196012791A71574B1B68012BCD
:104EE00012D0554B1B68042B15D0534B1B68022B5B
:104EF00017D0514B1B68032B01D0FEF75DFF4E4BC3
:104F000000221A60FEF758FF4F4B21221A804A4BAD
:104F100000221A60E5E700234B4A1380464A1360DB
:104F2000E3E7454B00221A60E3E74D4B1C68002C79
:104F300037DB0A212000FBF761FA0D000A2120006F
:104F4000FBF776F902002B0046493D4804F09CFA35
:104F5000394B1B68012B35D0374B1B68042B3DD0D8
:104F6000354B1B68022B3FD0334B1B68032B4DD0B6
:104F7000314B1B68022B79D0032B01D0FEF71CFFAD
:104F8000344B1B68272B01D8FEF716FF344B1B68E8
:104F9000052B01DCFEF710FF013B314A1360FEF7E1
:104FA0000BFF60420A21FBF729FA0D000A21494252
:104FB0002000FBF73DF902002B002B49204804F0AC
:104FC00063FAC5E7204B22221A801B4B00221A608D
:104FD000043223492420FDF79DFDBDE700231A4A32
:104FE0001380154A1360BBE780214901104803F084
:104FF0002BFA0128B8D11A4B1B68632B02DC013352
:10500000174A13600C4B00221A60ADE78021090299
:10501000074803F019FA0128AAD1114B1B68052B88
:1050200002DD013B0E4A1360034B00221A609FE72A
:1050300000040048B807002084070020D0070020A3
:10504000FC0700204CA7000898070020440000201F
:1050500054A70008D40700205CA7000868A7000830
:1050600048000020D8A6000828A70008C54A1268F2
:10507000272A00D880E7C44A1268632A00DD7BE74C
:105080000132C1490A6077E7C04BC14A1168196013
:1050900012791A71BF4B1B68012B12D0BD4B1B68D4
:1050A000042B15D0BB4B1B68022B17D0B94B1B68C8
:1050B000032B01D0FEF780FEB64B00221A60FEF7EC
:1050C0007BFEB54B23221A80B24B00221A60E5E723
:1050D0000023B14A1380AF4A1360E3E7AD4B0022CF
:1050E0001A60E3E7AD4B1C68002C37DB0A21200077
:1050F000FBF784F90D000A212000FBF799F8020064
:105100002B00A749A14804F0BFF9A24B1B68012B53
:1051100035D0A04B1B68042B3DD09E4B1B68022B47
:105120003FD09C4B1B68032B4DD09A4B1B68022B26
:105130005BD0032B01D0FEF73FFE9A4B1B68272B59
:1051400001D8FEF739FE954B1B68052B01DCFEF7F5
:1051500033FE013B914A1360FEF72EFE60420A21A6
:10516000FBF74CF90D000A2149422000FBF760F8DB
:1051700002002B008C49854804F086F9C5E7864B70
:1051800003221A80834B00221A60043283492820AC
:10519000FDF7C0FCBDE700237F4A13807D4A136002
:1051A000BBE780214901814803F04EF90128B8D1BD
:1051B0007A4B1B68632B02DC0133784A1360754B12
:1051C00000221A60ADE780210902784803F03CF91B
:1051D0000128AAD1714B1B68052B02DD013B6F4AE8
:1051E00013606C4B00221A609FE7664A1268272AF8
:1051F0009FD96A4A1268632A9BDC013267490A60B8
:1052000097E7624B6A4A1168196012791A71614B0B
:105210001B68012B12D05F4B1B68042B15D05D4B14
:105220001B68022B17D05B4B1B68032B01D0FEF7CA
:10523000C3FD584B00221A60FEF7BEFD564B2522D7
:105240001A80544B00221A60E5E70023524A13806B
:10525000504A1360E3E74F4B00221A60E3E7554BD7
:105260001C68002C38DB0A212000FBF7C7F80D0072
:105270000A212000FAF7DCFF02002B004E494348C8
:1052800004F002F9434B1B68012B36D0414B1B68DD
:10529000042B3ED03F4B1B68022B40D03D4B1B687C
:1052A000032B4FD03B4B1B68022B5ED0032B01D04E
:1052B000FEF782FD3B4B1B68272B01D8FEF77CFDD8
:1052C0003C4B1B683D4A934201DAFEF775FD013BFA
:1052D000384A1360FEF770FD60420A21FBF78EF832
:1052E0000D000A2149422000FAF7A2FF02002B001C
:1052F0003349264804F0C8F8C4E7274B26221A8011
:10530000244B00221A6004322A490420FDF7B2FB24
:10531000BCE70023204A13801E4A1360BAE78021AD
:105320004901224803F090F80128B7D1214B1B68AE
:10533000244A934202DC01331E4A1360154B0022BB
:105340001A60ABE780210902184803F07DF80128B4
:10535000A8D1184B1B68194A934202DB013B154A3E
:1053600013600C4B00221A609CE7064A1268272A39
:105370009CD9104A126813498A4297DC01320D49C0
:105380000A6093E7D007002048000020FC070020B7
:1053900070A700088407002098070020580000200C
:1053A000D8A60008D407002028A700080004004859
:1053B00078A70008A007002080A700081AFCFFFFBC
:1053C0008CA70008E6030000CC4B1C68002C38DBDF
:1053D0000A212000FBF712F80D000A212000FAF73D
:1053E00027FF02002B00C649C64804F04DF8C64B03
:1053F0001B68012B36D0C44B1B68042B3ED0C24B1C
:105400001B68022B40D0C04B1B68032B4FD0BE4BF8
:105410001B68022B5ED0032B01D0FEF7CDFCBB4BEB
:105420001B68272B01D8FEF7C7FCB44B1B68B84A92
:10543000934201DAFEF7C0FC013BB04A1360FEF76D
:10544000BBFC60420A21FAF7D9FF0D000A2149424C
:105450002000FAF7EDFE02002B00AE49A94804F047
:1054600013F8C4E7AC4B27221A80A74B00221A601E
:105470000432A2490820FDF7FDFABCE70023A64A42
:105480001380A14A1360BAE780214901A34802F0C2
:10549000DBFF0128B7D1994B1B68A14A934202DC7C
:1054A0000133964A1360984B00221A60ABE78021C3
:1054B00009029A4802F0C8FF0128A8D18F4B1B6847
:1054C000934A934202DB013B8C4A13608E4B0022CD
:1054D0001A609CE7934A1268272A9CD9874A126867
:1054E0008F498A4297DC013284490A6093E78E4BE8
:1054F0001C68002C38DB0A212000FAF77FFF0D0022
:105500000A212000FAF794FE02002B0087497D480B
:1055100003F0BAFF7C4B1B68012B36D07A4B1B681B
:10552000042B3ED0784B1B68022B40D0764B1B6877
:10553000032B4FD0744B1B68022B5ED0032B01D082
:10554000FEF73AFC714B1B68272B01D8FEF734FCA1
:10555000754B1B686E4A934201DAFEF72DFC013B46
:10556000714A1360FEF728FC60420A21FAF746FFF1
:105570000D000A2149422000FAF75AFE02002B00D2
:105580006B49604803F080FFC4E7634BC9221A806F
:105590005D4B00221A60043263490C20FDF76AFA61
:1055A000BCE700235C4A1380574A1360BAE78021A6
:1055B00049015A4802F048FF0128B7D15A4B1B68ED
:1055C000574A934202DC0133574A13604E4B002284
:1055D0001A60ABE780210902504802F035FF01282C
:1055E000A8D1514B1B684A4A934202DB013B4E4A09
:1055F0001360454B00221A609CE74A4A1268272A2A
:105600009CD9494A126846498A4297DC0132464988
:105610000A6093E7474B1C68002C39DB0A21200005
:10562000FAF7ECFE0D000A212000FAF701FE020055
:105630002B004149334803F027FF334B1B68012BF4
:1056400037D0314B1B68042B3FD02F4B1B68022BEC
:1056500041D02D4B1B68032B72D02B4B1B68022BA8
:1056600000D180E0032B01D0FEF7A6FB274B1B687F
:10567000272B01D8FEF7A0FB2B4B1B68244A934233
:1056800001DAFEF799FB013B274A1360FEF794FB12
:1056900060420A21FAF7B2FE0D000A2149422000B9
:1056A000FAF7C6FD02002B002449164803F0ECFE71
:1056B000C3E7194BCA221A80134B00221A60043226
:1056C0001C490C20FDF7D6F9BBE70023124A1380D2
:1056D0000D4A1360B9E780214901104802F0B4FE79
:1056E0000128B6D1134B1B680D4A934202DC0133EB
:1056F000104A1360044B00221A60AAE7A407002096
:1057000098A70008FC07002084070020D407002089
:105710001AFCFFFFA4A70008980700200004004817
:10572000E6030000D0070020A8070020B0A700086B
:10573000BCA70008AC070020C8A70008D4A7000831
:1057400080210902594802F07FFE012885D1584B7B
:105750001B68584A934202DB013B554A1360564B83
:1057600000221A6079E7554A1268272A00D879E79B
:105770004F4A126852498A4200DD73E701324C49B0
:105780000A606FE74F4B1C68002C38DB0A212000B1
:10579000FAF734FE0D000A212000FAF749FD020055
:1057A0002B004949494803F06FFE434B1B68012B0E
:1057B00036D0414B1B68042B3ED03F4B1B68022B5D
:1057C00040D03D4B1B68032B4FD03B4B1B68022B3B
:1057D0005ED0032B01D0FEF7EFFA3D4B1B68272B61
:1057E00001D8FEF7E9FA374B1B68324A934201DAD7
:1057F000FEF7E2FA013B334A1360FEF7DDFA60423E
:105800000A21FAF7FBFD0D000A2149422000FAF7B0
:105810000FFD02002B002F492C4803F035FEC4E792
:105820002D4B03221A80244B00221A600432254992
:105830000C20FDF71FF9BCE70023274A13801E4AFE
:105840001360BAE780214901184802F0FDFD0128E4
:10585000B7D11C4B1B681A4A934202DC0133194A28
:105860001360154B00221A60ABE7802109020F4834
:1058700002F0EAFD0128A8D1124B1B680D4A9342A1
:1058800002DB013B0F4A13600B4B00221A609CE7BE
:105890000A4A1268272A9CD90A4A126808498A4289
:1058A00097DC013207490A6093E7C04600040048CC
:1058B000AC0700201AFCFFFF84070020D00700205F
:1058C000E6030000B007002080A70008FC070020C6
:1058D000D40700208CA700089807002030B583B0BB
:1058E000FDF7D6F92D4B1A68C8239B009A422CD994
:1058F0002A4B00221A602A4B1B78002B27D1284BF9
:1059000001321A70274C6D462749280000F062FECC
:10591000230006CD06C325492068FBF733F9051C93
:10592000234B1868FBF722FC291CFAF7C5FD206001
:105930001E496068FBF726F9051C1E4B1868FBF72B
:1059400015FC291CFAF7B8FD606003B030BD144B9C
:1059500000221A70184C6D461849280000F03AFED3
:10596000230006CD06C311492068FBF70BF9051C7F
:10597000134B1868FBF7FAFB291CFAF79DFD206012
:105980000A496068FBF7FEF8051C0E4B1868FBF728
:10599000EDFB291CFAF790FD6060D6E714080020A3
:1059A00012080020700B00205C0000200000204145
:1059B000A4070020A8070020780B0020700000201A
:1059C000AC070020B007002030B5FF24FF2508E019
:1059D000037863400749CC5C6C400749CD5C1100FB
:1059E00001304A1E92B20029F2D12802204380B22F
:1059F00030BDC0460CAB00080CAC000810B55C4CC8
:105A00005C4B1B6823605C4B1B6863605B4B1B68D3
:105A1000A3605B4B1B68E3605A4B1B6823615A4BC6
:105A20001B686361594B1B68A361594B1B68E36199
:105A3000584B1B682362584B1B686362574B1B68AB
:105A4000A362574B1B68E362564B1B682363564B9C
:105A50001B686363554B1B68A363554B1B68E3636B
:105A6000544B1B682364544B1B686364534B1B6883
:105A7000A364534B1B68E364524B1B682365524B72
:105A80001B686365514B1868FBF750FB03008000EF
:105A9000C0184000A0654E4B1868FBF747FB030099
:105AA0008000C0184000E0654A4B1868FBF73EFBD9
:105AB00003008000C01840002066474B1868FBF7C1
:105AC00035FB03008000C01840006066434B186837
:105AD000FBF72CFB03008000C0184000A066404B81
