:020000040800F2
:10000000001000205D3500082F0D0008350D000898
:1000100000000000000000000000000000000000E0
:100020000000000000000000000000003B0D000880
:100030000000000000000000450D0008510D000800
:10004000AD350008AD350008AD350008AD35000808
:10005000AD350008AD350008AD350008AD350008F8
:10006000000000006D0D0008850D0008AD3500088A
:10007000AD350008AD350008AD350008AD350008D8
:10008000AD3500080000000000000000AD3500089C
:1000900000000000AD350008AD350008AD350008A2
:1000A00000000000AD35000800000000AD3500087C
:1000B0000000000000000000000000000000000040
:1000C00010B5064C2378002B07D1054B002B02D02E
:1000D000044800E000BF0123237010BD1000002081
:1000E0000000000008360008044B10B5002B03D0B8
:1000F0000349044800E000BF10BDC04600000000F6
:100100001400002008360008002243088B4274D3F4
:1001100003098B425FD3030A8B4244D3030B8B4208
:1001200028D3030C8B420DD3FF22090212BA030C11
:100130008B4202D31212090265D0030B8B4219D3F2
:1001400000E0090AC30B8B4201D3CB03C01A524112
:10015000830B8B4201D38B03C01A5241430B8B425A
:1001600001D34B03C01A5241030B8B4201D30B0343
:10017000C01A5241C30A8B4201D3CB02C01A52416A
:10018000830A8B4201D38B02C01A5241430A8B422D
:1001900001D34B02C01A5241030A8B4201D30B0216
:1001A000C01A5241CDD2C3098B4201D3CB01C01A30
:1001B000524183098B4201D38B01C01A524143093A
:1001C0008B4201D34B01C01A524103098B4201D328
:1001D0000B01C01A5241C3088B4201D3CB00C01A95
:1001E000524183088B4201D38B00C01A524143080D
:1001F0008B4201D34B00C01A5241411A00D2014632
:10020000524110467047FFE701B5002000F006F8A4
:1002100002BDC0460029F7D076E770477047C04658
:1002200080B584B000AF78600023FB600023BB6022
:100230000023FB6005E0BB680133BB60FB68013352
:10024000FB60FB68022BF6D9C046C046BD4604B031
:1002500080BD80B584B000AF78600023FB600023D0
:10026000FB6007E096239B001800FFF7D9FFFB68AF
:100270000133FB60FA687B689A42F3D3C046C046FC
:10028000BD4604B080BD000080B582B000AFBB1D8C
:1002900000221A80E84B01221021180002F0B9F95F
:1002A0000120FFF7D6FFE44B00221021180002F0D6
:1002B000B0F90120FFF7CDFFDF4B0122102118001C
:1002C00002F0A7F90120FFF7C4FFDB4B082118005B
:1002D00002F082F90300012B05D1BB1DBA1D128863
:1002E000D6490A431A80D44B00221021180002F08C
:1002F00090F90120FFF7ADFFCF4B0122102118002C
:1003000002F087F90120FFF7A4FFCB4B082118006A
:1003100002F062F90300012B06D1BB1DBA1D128841
:100320008021C9010A431A80C34B00221021180002
:1003300002F06FF90120FFF78CFFBF4B0122102163
:10034000180002F066F90120FFF783FFBA4B08217D
:10035000180002F041F90300012B06D1BB1DBA1DA4
:100360001288802189010A431A80B34B0022102190
:10037000180002F04EF90120FFF76BFFAE4B01228F
:100380001021180002F045F90120FFF762FFAA4B87
:100390000821180002F020F90300012B06D1BB1D33
:1003A000BA1D1288802149010A431A80A24B0022FB
:1003B0001021180002F02DF90120FFF74AFF9E4B93
:1003C00001221021180002F024F90120FFF741FF5B
:1003D000994B0821180002F0FFF80300012B06D109
:1003E000BB1DBA1D1288802109010A431A80924B55
:1003F00000221021180002F00CF90120FFF729FF5C
:100400008D4B01221021180002F003F90120FFF7A3
:1004100020FF894B0821180002F0DEF80300012BB1
:1004200006D1BB1DBA1D12888021C9000A431A805B
:10043000814B00221021180002F0EBF80120FFF799
:1004400008FF7D4B01221021180002F0E2F8012084
:10045000FFF7FFFE784B0821180002F0BDF80300FB
:10046000012B06D1BB1DBA1D1288802189000A43C9
:100470001A80714B00221021180002F0CAF80120E6
:10048000FFF7E7FE6C4B01221021180002F0C1F8C3
:100490000120FFF7DEFE684B0821180002F09CF8EF
:1004A0000300012B06D1BB1DBA1D12888021490013
:1004B0000A431A80604B00221021180002F0A9F8AC
:1004C0000120FFF7C6FE5C4B01221021180002F04C
:1004D000A0F80120FFF7BDFE574B0821180002F0DD
:1004E0007BF80300012B05D1BB1DBA1D12888021AA
:1004F0000A431A80504B00221021180002F089F89C
:100500000120FFF7A6FE4C4B01221021180002F03B
:1005100080F80120FFF79DFE474B0821180002F0EC
:100520005BF80300012B05D1BB1DBA1D12884021C9
:100530000A431A80404B00221021180002F069F88B
:100540000120FFF786FE3C4B01221021180002F02B
:1005500060F80120FFF77DFE374B0821180002F0FC
:100560003BF80300012B05D1BB1DBA1D12882021C9
:100570000A431A80304B00221021180002F049F87B
:100580000120FFF766FE2C4B01221021180002F01B
:1005900040F80120FFF75DFE274B0821180002F00C
:1005A0001BF80300012B05D1BB1DBA1D12881021B9
:1005B0000A431A80204B00221021180002F029F86B
:1005C0000120FFF746FE1C4B01221021180002F00B
:1005D00020F80120FFF73DFE174B0821180001F01D
:1005E000FBFF0300012B05D1BB1DBA1D128808219A
:1005F0000A431A80104B00221021180002F009F85B
:100600000120FFF726FE0C4B01221021180002F0FA
:1006100000F80120FFF71DFE074B0821180001F02C
:10062000DBFF0300012B0BD1BB1DBA1D1288042177
:100630000A431A8004E0C046000400480080FFFF1F
:10064000274B00221021180001F0E3FF0120FFF7E3
:1006500000FE234B01221021180001F0DAFF0120D7
:10066000FFF7F7FD1E4B0821180001F0B5FF03004E
:10067000012B05D1BB1DBA1D128802210A431A8025
:10068000174B00221021180001F0C3FF0120FFF7D3
:10069000E0FD134B01221021180001F0BAFF0120E8
:1006A000FFF7D7FD0E4B0821180001F095FF03005E
:1006B000012B05D1BB1DBA1D128801210A431A80E6
:1006C000074B00221021180001F0A3FF0120FFF7C3
:1006D000C0FDBB1D1B881800BD4602B080BDC046D2
:1006E0000004004880B500AFC8235A000349044BFA
:1006F000180000F0D1FDC046BD4680BDC0010020FD
:100700002C00002090B58BB000AF78600823FB1858
:10071000180018231A00002102F06EFF00233B622C
:1007200046E00823FB183A6A92000021D1503B6A48
:10073000032B03D93B6A042B2AD030E000237B62D1
:1007400013E008243B193A6A9200D3581C4A796A8C
:100750008800396A411849008A5A99183B193A6A3F
:100760009200D1507B6A01337B627B6A632BE8D9AC
:100770000823FB183A6A9200D35864211800FFF747
:10078000C3FC030099B20F4B3A6A5200D15206E003
:10079000FFF77AFD03001A000A4B1A81C0460823AE
:1007A000FB183A6A92000021D1503B6A01333B6248
:1007B0003B6A042BB5D9C046C046BD460BB090BDC0
:1007C000C0010020E0040020B0B588B000AF786020
:1007D0001F243B1900221A703B191B783A19591C27
:1007E00011701A0008257B19FA2199543B191B78BE
:1007F0003A19591C11701A007B19F52199547B681C
:1008000019883B191B783A19581C10701A00C9B284
:100810007B1999547B681B881B0A99B23B191B787A
:100820003A19581C10701A00C9B27B1999547B6888
:10083000023319883B191B783A19581C10701A009A
:10084000C9B27B1999547B6802331B881B0A99B281
:100850003B191B783A19581C10701A00C9B27B1941
:1008600099547B68043319883B191B783A19581C32
:1008700010701A00C9B27B1999547B6804331B8825
:100880001B0A99B23B191B783A19581C10701A00B0
:10089000C9B27B1999547B68063319883B191B78B8
:1008A0003A19581C10701A00C9B27B1999547B6808
:1008B00006331B881B0A99B23B191B783A19581C3E
:1008C00010701A00C9B27B1999547B6808331988D3
:1008D0003B191B783A19581C10701A00C9B27B19C1
:1008E00099547B6808331B881B0A99B23B191B7803
:1008F0003A19581C10701A00C9B27B1999543B1947
:100900001B783A19591C11701A007B19FA21995455
:100910003B191B783A19591C11701A007B19FD21DB
:100920009954802359009023DB050122180001F01F
:1009300070FE3B191B789AB27919044B180002F02B
:100940004FF9C046BD4608B0B0BDC046B00000205B
:1009500080B500AF01F074FC00F022F800F060F9FF
:1009600000F038F900F084F800F004F9FFF7BAFE5F
:10097000084B1A68084B1B689A42F9D9064B1B684A
:100980000133F5D0034B00221A60044B1800FFF727
:100990001BFFEDE7EC04002000000020E004002035
:1009A00090B595B000AF20243B19180030231A00F1
:1009B000002102F021FE1023FB18180010231A005A
:1009C000002102F019FE3B00180010231A0000213C
:1009D00002F012FE21007B1812221A607B180122FD
:1009E000DA607B1801225A617B1810221A617B1889
:1009F00010229A617B1802221A627B1800225A6226
:100A00007B18A02292039A627B180022DA627B187C
:100A1000180000F0E9FE031E01D000F083F9102158
:100A20007B1807221A607B1802225A607B1800226A
:100A30009A607B180022DA607B180121180001F00F
:100A4000EDF9031E01D000F06DF93B0001221A60A0
:100A50003B0000229A603B00180001F023FB031EBC
:100A600001D000F05FF9C046BD4615B090BD000052
:100A700080B584B000AF3B1D18000C231A00002184
:100A800002F0BAFD394B3A4A1A60384B00225A60DC
:100A9000364B00229A60354B0022DA60334B01223C
:100AA0001A61324B04225A61304B00221A762F4BC6
:100AB00000225A762D4B01229A762C4B0022DA76B0
:100AC0002A4BC222FF32DA61284B00221A62274BDE
:100AD000242201219954254B01229A62234B1800AC
:100AE00000F09AFA031E01D000F01CF93B1D03220E
:100AF0001A603B1D802252015A603B1D07229A60FA
:100B00003A1D1A4B1100180000F058FC031E01D0CA
:100B100000F008F93B1D04221A603A1D134B110026
:100B2000180000F04BFC031E01D000F0FBF83B1D49
:100B300005221A603A1D0D4B1100180000F03EFC12
:100B4000031E01D000F0EEF83B1D06221A603A1D8C
:100B5000064B1100180000F031FC031E01D000F01C
:100B6000E1F8C046BD4604B080BDC0462C00002060
:100B70000024014080B500AF144B154A1A60134B96
:100B8000E12252025A60114B00229A600F4B002260
:100B9000DA600E4B00221A610C4B0C225A610B4B8F
:100BA00000229A61094B0022DA61084B00221A6286
:100BB000064B00225A62054B180001F0BDFF031ED0
:100BC00001D000F0AFF8C046BD4680BDB0000020A7
:100BD0000038014080B582B000AF104B5A690F4B0E
:100BE00001210A435A610D4B5B69012213407B606E
:100BF0007B6800220021092001F06CFF092001F030
:100C00007EFF002200210A2001F064FF0A2001F08B
:100C100076FFC046BD4602B080BDC046001002400F
:100C200090B589B000AF0C243B19180014231A00AA
:100C3000002102F0E1FC394B5A69384B8021C9038D
:100C40000A435A61354B5A698023DB031340BB606A
:100C5000BB68324B5A69314B802189020A435A6181
:100C60002E4B5A6980239B0213407B607B682B4B81
:100C70005A692A4B8021C9020A435A61274B5A6993
:100C80008023DB0213403B603B68802359009023A4
:100C9000DB050022180001F0BCFC214B00221021D2
:100CA000180001F0B6FC3B19802252001A603B1973
:100CB00001225A603B1900229A603B190022DA6037
:100CC0003A199023DB051100180001F01DFB3B19B8
:100CD00008221A603B1900225A603B1901229A60CF
:100CE0003B190F4A1900100001F00EFB21007B1880
:100CF00010221A607B1801225A607B1800229A6029
:100D00007B180022DA607B18054A1900100001F0F8
:100D1000FBFAC046BD4609B090BDC0460010024077
:100D20000004004880B500AF72B6C046FEE780B54B
:100D300000AFFEE780B500AFFEE780B500AFC0466C
:100D4000BD4680BD80B500AFC046BD4680BD000039
:100D500080B500AF01F0BCFA034B1B685A1C024B74
:100D60001A60C046BD4680BDEC04002080B500AFCF
:100D7000034B180001F018FDC046BD4680BDC046BB
:100D80006C00002080B500AF054B180001F00CFD91
:100D9000044B180001F008FDC046BD4680BDC046AA
:100DA0007C0100203801002080B582B000AF0F4BDD
:100DB0009A690E4B01210A439A610C4B9B690122EF
:100DC00013407B607B68094BDA69084B8021490539
:100DD0000A43DA61054BDA6980235B0513403B6007
:100DE0003B68C046BD4602B080BDC0460010024010
:100DF00090B58BB000AF786014243B191800142311
:100E00001A00002102F0F8FB7B681B682D4A934210
:100E100053D12D4B9A692C4B802189000A439A614A
:100E2000294B9A6980239B0013403B613B69264B09
:100E30005A69254B802189020A435A61224B5A691B
:100E400080239B021340FB60FB683B1978221A60E9
:100E50003B1903225A603B1900229A603A199023E9
:100E6000DB051100180001F04FFA184B184A1A6000
:100E7000164B00225A60154B00229A60134B8022B9
:100E8000DA60124B802252001A61104B8022D2008D
:100E90005A610E4B20229A610C4B0022DA610B4BF7
:100EA000180001F0D3FB031E01D0FFF73BFF7B6866
:100EB000064A1A63054B7A685A62C046BD460BB0B3
:100EC00090BDC04600240140001002406C0000208C
:100ED0000800024090B58BB000AF786014243B1935
:100EE000180014231A00002102F086FB7B681B689F
:100EF000434A934200D07FE0424B9A69414B8021A4
:100F0000C9010A439A613F4B9A698023DB01134070
:100F10003B613B693B4B5A693A4B802189020A434A
:100F20005A61384B5A6980239B021340FB60FB686F
:100F30003B19C022D2001A6021007B1802225A609D
:100F40007B1800229A607B180322DA607B1801224A
:100F50001A617A189023DB051100180001F0D4F90A
:100F6000294B2A4A1A60284B00225A60264B00223D
:100F70009A60254B8022DA60234B00221A61224BB3
:100F800000225A61204B00229A611F4B0022DA6135
:100F90001D4B180001F05AFB031E01D0FFF7C2FEE3
:100FA0007B68194A5A67184B7A685A62184B194A73
:100FB0001A60174B10225A60154B00229A60144B8E
:100FC0008022DA60124B00221A61114B00225A6112
:100FD0000F4B00229A610E4B0022DA610C4B180075
:100FE00001F034FB031E01D0FFF79CFE7B68084A2A
:100FF0001A67074B7A685A62C046BD460BB090BD6F
:10100000003801400010024038010020300002404A
:101010007C0100201C00024080B584B000AF7860E5
:101020000F23FB1800221A700023BB607B68002B83
:1010300001D1012325E17B689B6B002B0AD17B68E2
:101040000022DA637B683422002199547B681800FF
:10105000FFF7CEFE7B689B6B1022134000D003E1AC
:101060000F23FB181B78002B00D0FDE07B681B686A
:101070009B680422134000D0F6E07B689B6B834A98
:10108000134002221A437B689A637B681B689B6843
:1010900003221340012B12D17B681B681B680122BD
:1010A0001340012B09D07B681B68DA6880231B0280
:1010B0001A4080231B029A4201D1012300E0002341
:1010C000002B16D17B681B68DB681822934319003C
:1010D0007B689A687B681B680A43DA607B681B68D8
:1010E0001B699B0099087B685A687B681B680A43E8
:1010F0001A617B681B68DA687B681B6864490A4070
:10110000DA607B681B7E9A037B685B7EDB031A4395
:101110007B689B7E5B031A437B689B6A012B02D032
:1011200080235B0100E000231A437B68DB681A43DD
:101130007B681B69022B01D1042300E000231A43C2
:101140007B6824215B5C5B001343BA681343BB607C
:101150007B68DB7E012B15D17B689B7E002B05D144
:10116000BB68802252021343BB600BE07B689B6B21
:1011700020221A437B689A637B68DB6B01221A4347
:101180007B68DA637B68DA69C223FF339A4207D04F
:101190007B68DA697B681B6A1343BA681343BB60D8
:1011A0007B681B68D9687B681B68BA680A43DA6089
:1011B0007B68DA6A80235B059A421BD07B68DB6A16
:1011C000012B17D07B68DB6A022B13D07B68DB6AAC
:1011D000032B0FD07B68DB6A042B0BD07B68DB6AA8
:1011E000052B07D07B68DB6A062B03D07B68DB6AA4
:1011F000072B12D17B681B685A697B681B68072123
:101200008A435A617B681B6859697B68DB6A0722DD
:101210001A407B681B680A435A617B681B68DB685D
:101220001C4A1340BA689A420BD17B680022DA63E9
:101230007B689B6B0322934301221A437B689A636A
:101240001CE07B689B6B1222934310221A437B683D
:101250009A637B68DB6B01221A437B68DA630F2396
:10126000FB1801221A7009E07B689B6B10221A435D
:101270007B689A630F23FB1801221A700F23FB1857
:101280001B781800BD4604B080BDC046FDFEFFFFC0
:101290001902FEFFE7FF3F8390B587B000AFF8600B
:1012A000B9607A601723FB1800221A70FB681B686C
:1012B0009B68042213405ED1FB6834229B5C012BA7
:1012C00001D102235EE0FB68342201219954FB68BE
:1012D0005B7E012B07D01723FC18FB68180000F079
:1012E0007BF9030023701723FB181B78002B46D1D2
:1012F000FB689B6B254A1340802252001A43FB680F
:101300009A63FB680022DA63FB6834220021995457
:10131000FB681B6B1E4A9A62FB681B6B1D4ADA62F4
:10132000FB681B6B1C4A1A63FB681B681C221A6053
:10133000FB681B685A68FB681B6810210A435A60E7
:10134000FB681B68DA68FB681B6801210A43DA60E6
:10135000FB68186BFB681B6840331900BA687B6830
:1013600001F0BCF9FB681B689A68FB681B680421E4
:101370000A439A6003E01723FB1802221A7017230E
:10138000FB181B781800BD4607B090BDFEF0FFFFAC
:10139000E116000895170008B317000880B582B061
:1013A00000AF7860C046BD4602B080BD80B582B057
:1013B00000AF7860C046BD4602B080BD80B584B045
:1013C00000AF786039600F23FB1800221A700023E9
:1013D000BB607B68DA6A80235B059A4211D07B6828
:1013E000DB6A012B0DD07B68DB6A022B09D07B689E
:1013F000DB6A032B05D07B68DB6A042B01D07B689A
:10140000DB6A7B6834229B5C012B01D10223D0E094
:101410007B683422012199547B681B689B680422F5
:10142000134000D0B4E03B685B68644A934200D14B
:1014300082E07B681B68996A3B681B6801229A40BE
:101440007B681B680A439A627B68DA6A80235B05C3
:101450009A4237D07B68DB6A012B33D07B68DB6A2A
:10146000022B2FD07B68DB6A032B2BD07B68DB6AD7
:10147000042B27D07B68DB6A052B23D07B68DB6AD3
:10148000062B1FD07B68DB6A072B1BD03B689A6852
:101490007B681B685B6907210B409A4212D07B680E
:1014A0001B685A697B681B6807218A435A617B68FD
:1014B0001B6859693B689B6807221A407B681B6858
:1014C0000A435A613B681B68102B07D03B681B68B6
:1014D000112B03D03B681B68122B63D1384B196862
:1014E0003B681B68102B09D03B681B68112B02D18D
:1014F0008023DB0304E080235B0401E080231B04E2
:101500002F4A0B4313603B681B68102B4AD12D4BAD
:101510001B682D491800FEF7F7FD03001A001300A1
:101520009B009B185B00BB6002E0BB68013BBB609B
:10153000BB68002BF9D135E07B681B689A6A3B6871
:101540001B68012199400B00D9437B681B680A4046
:101550009A623B681B68102B07D03B681B68112BF5
:1015600003D03B681B68122B1CD1154B19683B68D4
:101570001B68102B07D03B681B68112B01D1134B44
:1015800002E0134B00E0134B0D4A0B40136009E0DF
:101590007B689B6B20221A437B689A630F23FB189E
:1015A00001221A707B683422002199540F23FB1802
:1015B0001B781800BD4604B080BDC0460110000075
:1015C000082701400C00002040420F00FFFFBFFF32
:1015D000FFFFFFFEFFFF7FFF80B584B000AF7860A4
:1015E0000023FB600023BB607B681B689B680322B1
:1015F0001340012B12D17B681B681B68012213402A
:10160000012B09D07B681B68DA6880231B021A4013
:1016100080231B029A4201D1012300E00023002B0A
:1016200052D17B681B689B682A4A13400DD07B68A7
:101630009B6B10221A437B689A637B68DB6B0122E9
:101640001A437B68DA6301233FE07B681B689A6872
:101650007B681B6801210A439A601F4B1B681F4966
:101660001800FEF751FD0300BB6002E0BB68013BC0
:10167000BB60BB68002BF9D100F03CFE0300FB60AF
:101680001BE000F037FE0200FB68D31A022B14D9CE
:101690007B681B681B6801221340012B0DD07B68FF
:1016A0009B6B10221A437B689A637B68DB6B012279
:1016B0001A437B68DA63012307E07B681B681B68B9
:1016C00001221340012BDCD100231800BD4604B0D9
:1016D00080BDC046170000800C00002040420F0073
:1016E00080B584B000AF78607B685B6AFB60FB68A4
:1016F0009B6B5022134040D1FB689B6B8022920071
:101700001A43FB689A63FB681B68DA68C0231B01F5
:1017100013402DD1FB689B7E002B29D1FB681B68F1
:101720001B6808221340082B22D1FB681B689B68AA
:101730000422134010D1FB681B685A68FB681B68C1
:101740000C218A435A60FB689B6B114A13400122AB
:101750001A43FB689A630BE0FB689B6B20221A43D9
:10176000FB689A63FB68DB6B01221A43FB68DA6350
:10177000FB681800FEF7C6FF05E0FB681B6B1B6BE0
:101780007A6810009847C046BD4604B080BDC04688
:10179000FEFEFFFF80B584B000AF78607B685B6AB7
:1017A000FB60FB681800FFF7F9FDC046BD4604B0BA
:1017B00080BD80B584B000AF78607B685B6AFB60F9
:1017C000FB689B6B40221A43FB689A63FB68DB6BE8
:1017D00004221A43FB68DA63FB681800FFF7E6FD92
:1017E000C046BD4604B080BD80B588B000AF78600B
:1017F0007B68002B01D1012301E37B681B68012278
:10180000134000D18DE0C34B5B680C221340042BC6
:101810000ED0C04B5B680C221340082B16D1BD4B79
:101820005A6880235B021A4080235B029A420DD1E2
:10183000B84B1A6880239B02134000D170E07B688C
:101840005B68002B00D06BE00123D8E27B685B680B
:10185000012B07D1AF4B1A68AE4B802149020A43D6
:101860001A602FE07B685B68002B0CD1A94B1A68CB
:10187000A84BA9490A401A60A64B1A68A54BA7496C
:101880000A401A601EE07B685B68052B0ED1A14BF5
:101890001A68A04B8021C9020A431A609D4B1A683E
:1018A0009C4B802149020A431A600BE0994B1A684D
:1018B000984B99490A401A60964B1A68954B97497C
:1018C0000A401A607B685B68002B14D000F012FDA0
:1018D0000300BB6108E000F00DFD0200BB69D31AF4
:1018E000642B01D903238AE28A4B1A6880239B0266
:1018F0001340F0D015E000F0FDFC0300BB6108E0F0
:1019000000F0F8FC0200BB69D31A642B01D9032351
:1019100075E2804B1A6880239B021340F0D100E0EF
:10192000C0467B681B680222134000D169E0794BF6
:101930005B680C2213400BD0764B5B680C22134083
:10194000082B1CD1734B5A6880235B02134016D1BD
:10195000704B1B680222134005D07B68DB68012BAB
:1019600001D001234BE26B4B1B68F8229343190013
:101970007B681B69DA00674B0A431A6041E07B68A9
:10198000DB68002B24D0634B1A68624B01210A43A9
:101990001A6000F0AFFC0300BB6108E000F0AAFC95
:1019A0000200BB69D31A022B01D9032327E2594B4A
:1019B0001B6802221340F1D0564B1B68F822934358
:1019C00019007B681B69DA00524B0A431A6018E061
:1019D000504B1A684F4B01218A431A6000F08AFC71
:1019E0000300BB6108E000F085FC0200BB69D31A6C
:1019F000022B01D9032302E2464B1B68022213404B
:101A0000F1D17B681B680822134036D07B68DB6904
:101A1000002B19D03F4B5A6A3E4B01210A435A62B0
:101A200000F068FC0300BB6108E000F063FC02000A
:101A3000BB69D31A022B01D90323E0E1354B5B6A62
:101A400002221340F1D018E0324B5A6A314B012187
:101A50008A435A6200F04EFC0300BB6108E000F0CC
:101A600049FC0200BB69D31A022B01D90323C6E14A
:101A7000284B5B6A02221340F1D17B681B68042269
:101A8000134000D1B4E01F203B1800221A70214BF4
:101A9000DA6980235B05134010D11E4BDA691D4BB8
:101AA000802149050A43DA611A4BDA6980235B0514
:101AB0001340FB60FB683B1801221A70184B1A6830
:101AC00080235B0013401AD1154B1A68144B8021F8
:101AD00049000A431A6000F00DFC0300BB6108E0F6
:101AE00000F008FC0200BB69D31A642B01D9032360
:101AF00085E10B4B1A6880235B001340F0D07B68B4
:101B00009B68012B0ED1034B1A6A024B01210A4339
:101B10001A6235E000100240FFFFFEFFFFFFFBFFEF
:101B2000007000407B689B68002B0CD1B64B1A6A92
:101B3000B54B01218A431A62B34B1A6AB24B042196
:101B40008A431A621CE07B689B68052B0CD1AE4B64
:101B50001A6AAD4B04210A431A62AB4B1A6AAA4BAC
:101B600001210A431A620BE0A74B1A6AA64B012116
:101B70008A431A62A44B1A6AA34B04218A431A624D
:101B80007B689B68002B14D000F0B4FB0300BB61A2
:101B900009E000F0AFFB0200BB69D31A9B4A9342F5
:101BA00001D903232BE1984B1B6A02221340F0D08A
:101BB00013E000F09FFB0300BB6109E000F09AFB1B
:101BC0000200BB69D31A914A934201D9032316E15B
:101BD0008D4B1B6A02221340F0D11F23FB181B7888
:101BE000012B05D1884BDA69874B89490A40DA61B4
:101BF0007B681B681022134063D07B685B69012BF4
:101C00002AD1814B5A6B804B04210A435A637E4B85
:101C10005A6B7D4B01210A435A6300F06BFB0300B2
:101C2000BB6108E000F066FB0200BB69D31A022B1F
:101C300001D90323E3E0744B5B6B02221340F1D024
:101C4000714B5B6BF822934319007B689B69DA0048
:101C50006D4B0A435A6334E07B685B69053311D1ED
:101C6000694B5A6B684B04218A435A63664B5B6B22
:101C7000F822934319007B689B69DA00624B0A43A0
:101C80005A631EE0604B5A6B5F4B04210A435A6350
:101C90005D4B5A6B5C4B01218A435A6300F02AFB6F
:101CA0000300BB6108E000F025FB0200BB69D31A0A
:101CB000022B01D90323A2E0534B5B6B022213409A
:101CC000F1D17B681B6A002B00D197E04E4B5B681B
:101CD0000C221340082B00D16BE07B681B6A022B9F
:101CE0004CD1494B1A68484B4A490A401A6000F0E7
:101CF00001FB0300BB6108E000F0FCFA0200BB69D5
:101D0000D31A022B01D9032379E03F4B1A688023B1
:101D10009B041340F0D13C4BDB6A0F229343190024
:101D20007B68DA6A384B0A43DA62374B5B683A4AB7
:101D3000134019007B689A6A7B685B6A1A43324BCE
:101D40000A435A60304B1A682F4B802149040A43DA
:101D50001A6000F0CFFA0300BB6108E000F0CAFA95
:101D60000200BB69D31A022B01D9032347E0264B9B
:101D70001A6880239B041340F0D03FE0224B1A687E
:101D8000214B24490A401A6000F0B4FA0300BB61F9
:101D900008E000F0AFFA0200BB69D31A022B01D9A8
:101DA00003232CE0184B1A6880239B041340F0D1C6
:101DB00024E07B681B6A012B01D101231FE0124B39
:101DC0005B687B61104BDB6A3B617A6980235B0255
:101DD0001A407B685B6A9A420ED13B690F221A4017
:101DE0007B68DB6A9A4207D17A69F0239B031A4029
:101DF0007B689B6A9A4201D0012300E0002318000F
:101E0000BD4608B080BDC0460010024088130000E7
:101E1000FFFFFFEFFFFFFFFEFFFFC2FF80B584B0B3
:101E200000AF786039607B68002B01D10123B3E0FB
:101E30005B4B1B68012213403A689A4211D9584BF8
:101E40001B68012293431900554B3A680A431A60F4
:101E5000534B1B68012213403A689A4201D0012378
:101E60009AE07B681B680222134015D07B681B68D0
:101E70000422134006D04B4B5A684A4BE021C9005C
:101E80000A435A60474B5B68F022934319007B6812
:101E90009A68444B0A435A607B681B6801221340CE
:101EA00040D07B685B68012B07D13E4B1A688023CA
:101EB0009B02134014D101236EE07B685B68022B08
:101EC00007D1384B1A6880239B04134008D10123A3
:101ED00062E0344B1B680222134001D101235BE016
:101EE000304B5B680322934319007B685A682D4B83
:101EF0000A435A6000F0FEF90300FB6009E000F0BD
:101F0000F9F90200FB68D31A274A934201D9032347
:101F100042E0244B5B680C221A407B685B689B00A4
:101F20009A42ECD11E4B1B68012213403A689A4238
:101F300011D21B4B1B68012293431900184B3A68BE
:101F40000A431A60164B1B68012213403A689A42F2
:101F500001D0012320E07B681B680422134009D0D4
:101F6000104B5B68114A134019007B68DA680D4B0F
:101F70000A435A6000F020F801000A4B5B681B0915
:101F80000F2213400A4AD35C0A00DA40094B1A6058
:101F9000032000F069F900231800BD4604B080BD9D
:101FA000002002400010024088130000FFF8FFFFED
:101FB000403600080C00002080B586B000AF00233A
:101FC000FB600023BB6000237B6100237B60002358
:101FD0003B61204B5B68FB60FB680C221340042BC9
:101FE00002D0082B03D02CE01B4B3B612CE0FB689C
:101FF0009B0C0F221340194AD35C7B60154BDB6AA4
:102000000F221340164AD35CBB60FA6880235B0240
:10201000134009D0B9681048FEF776F803001A009B
:102020007B6853437B6109E079680A005201521AC8
:1020300093019B1ADB005B181B027B617B693B6190
:1020400002E0054B3B61C0463B691800BD4606B047
:1020500080BDC0460010024000127A002036000801
:102060003036000880B500AF024B1B681800BD4633
:1020700080BDC0460C00002080B500AFFFF7F2FF26
:102080000100064B5B681B0A07221340044AD35C1D
:10209000D9400B001800BD4680BDC046001002406C
:1020A0005036000880B586B000AF786000233B61F1
:1020B0000023FB607B681A6880235B02134000D119
:1020C0008EE017203B1800221A70574BDA698023E4
:1020D0005B05134010D1544BDA69534B80214905FD
:1020E0000A43DA61504BDA6980235B051340BB6019
:1020F000BB683B1801221A704C4B1A6880235B00A6
:1021000013401AD1494B1A68484B802149000A43B1
:102110001A6000F0EFF803003B6108E000F0EAF815
:1021200002003B69D31A642B01D9032377E03F4BAC
:102130001A6880235B001340F0D03B4B1A6AC0231F
:102140009B001340FB60FB68002B34D07B685A680F
:10215000C0239B001340FA689A422CD0324B1B6A72
:10216000334A1340FB60304B1A6A2F4B80214902DF
:102170000A431A622C4B1A6A2B4B2E490A401A62E8
:10218000294BFA681A62FB680122134013D000F051
:10219000B1F803003B6109E000F0ACF802003B69D4
:1021A000D31A254A934201D9032338E01E4B1B6AF8
:1021B00002221340F0D01C4B1B6A1D4A1340190029
:1021C0007B685A68184B0A431A621723FB181B785E
:1021D000012B05D1144BDA69134B18490A40DA6117
:1021E0007B681B680122134009D00F4B1B6B032235
:1021F000934319007B689A680B4B0A431A637B6808
:102200001B682022134009D0074B1B6B10229343FD
:1022100019007B68DA68044B0A431A63002318002C
:10222000BD4606B080BDC0460010024000700040B0
:10223000FFFCFFFFFFFFFEFF88130000FFFFFFEF23
:1022400080B500AF074B1A68064B10210A431A608D
:10225000032000F009F8FEF7A7FD00231800BD4693
:1022600080BDC0460020024090B583B000AF7860CA
:10227000144B1C68144B1B781900FA239800FDF7C7
:1022800043FF030019002000FDF73EFF0300180084
:1022900000F045FC031E01D001230FE07B68032BF7
:1022A0000BD8796801235B420022180000F012FC71
:1022B000064B7A681A60002300E001231800BD462F
:1022C00003B090BD0C000020080000200400002096
:1022D00080B500AF054B1B781A00054B1B68D21860
:1022E000034B1A60C046BD4680BDC04608000020B2
:1022F000F004002080B500AF024B1B681800BD46FB
:1023000080BDC046F004002080B586B000AF786084
:10231000396000237B6149E13B681B6801217A69D0
:1023200091400A001340FB60FB68002B00D13AE1AA
:102330003B685B6803221340012B05D03B685B6858
:1023400003221340022B30D17B689B683B617B6981
:102350005B0003229A401300DA433B6913403B6160
:102360003B68DA687B695B009A4013003A69134363
:102370003B617B683A699A607B685B683B610122DC
:102380007B699A401300DA433B6913403B613B6829
:102390005B681B0901221A407B699A4013003A6965
:1023A00013433B617B683A695A603B685B68032270
:1023B0001340032B17D07B68DB683B617B695B00B4
:1023C00003229A401300DA433B6913403B613B68A8
:1023D0009A687B695B009A4013003A6913433B613A
:1023E0007B683A69DA603B685B6803221340022B22
:1023F00023D17B69DA087B6808329200D3583B61AD
:102400007B69072213409B000F229A401300DA4396
:102410003B6913403B613B681A697B6907210B40AC
:102420009B009A4013003A6913433B617B69DA08C9
:102430007B68083292003969D1507B681B683B6128
:102440007B695B0003229A401300DA433B69134027
:102450003B613B685B6803221A407B695B009A40E2
:1024600013003A6913433B617B683A691A603B6821
:102470005A68C0239B02134000D194E0514B9A69E3
:10248000504B01210A439A614E4B9B690122134034
:10249000BB60BB684C4A7B699B0802339B009B581E
:1024A0003B617B69032213409B000F229A4013007B
:1024B000DA433B6913403B617A689023DB059A421B
:1024C0000DD07B68414A934207D07B68404A9342D3
:1024D00001D1022304E0052302E0012300E00023F0
:1024E0007A6903210A40920093403A6913433B61A1
:1024F00035497B699B0802339B003A695A50354B3A
:102500009B683B61FB68DA433B6913403B613B6876
:102510005A6880235B03134003D03A69FB68134376
:102520003B612C4B3A699A602A4BDB683B61FB6844
:10253000DA433B6913403B613B685A6880239B0345
:10254000134003D03A69FB6813433B61214B3A695E
:10255000DA60204B5B683B61FB68DA433B69134000
:102560003B613B685A6880239B02134003D03A6961
:10257000FB6813433B61174B3A695A60154B1B6864
:102580003B61FB68DA433B6913403B613B685A6837
:1025900080235B02134003D03A69FB6813433B611D
:1025A0000C4B3A691A607B6901337B613B681A689E
:1025B0007B69DA40131E00D0AEE6C046C046BD4679
:1025C00006B080BD00100240000001400004004839
:1025D000000800480004014080B584B000AF786076
:1025E0000A00BB1C1A807B681B69BA1C1288134046
:1025F00004D00F23FB1801221A7003E00F23FB18ED
:1026000000221A700F23FB181B781800BD4604B077
:1026100080BD80B582B000AF786008001100BB1C9F
:10262000021C1A807B1C0A1C1A707B1C1B78002B56
:1026300004D0BB1C1A887B689A6103E0BB1C1A8813
:102640007B689A62C046BD4602B080BD80B584B04A
:1026500000AF78600023FB607B68002B01D1012371
:1026600036E07B682122022199547B681B681B6835
:10267000FB60FB68184A1340FB607B685A687B6804
:102680009B681A437B68DB681A437B681B691A43A3
:102690007B685B691A437B689B691A437B68DB69CB
:1026A0001343FA681343FB607B681B68FA681A607F
:1026B0007B68180000F046F97B6800229A637B680B
:1026C0002122012199547B68202200219954002362
:1026D0001800BD4604B080BD0FC0FFFF80B586B0B6
:1026E00000AFF860B9607A603B601723FB180022E6
:1026F0001A70FB6820229B5C012B01D102234FE062
:10270000FB68202201219954FB6821229B5CDBB2EB
:10271000012B3AD1FB68212202219954FB68002247
:102720009A63FB681B681A68FB681B6801218A436F
:102730001A603B687A68B968F86800F0D7F8FB68F7
:10274000DB6A002B08D0FB681B681A68FB681B68F3
:102750000E210A431A600FE0FB681B681A68FB68C9
:102760001B680A210A431A60FB681B681A68FB6829
:102770001B6804218A431A60FB681B681A68FB689F
:102780001B6801210A431A6007E0FB682022002130
:1027900099541723FB1802221A701723FB181B7871
:1027A0001800BD4606B080BD80B584B000AF78602B
:1027B0007B68DB6B1B68FB607B681B681B68BB600E
:1027C0007B681B6C04229A401300FA68134024D0E3
:1027D000BB680422134020D07B681B681B68202242
:1027E000134007D17B681B681A687B681B6804214B
:1027F0008A431A607B681A6C7B68DB6B042191400A
:102800000A005A607B68DB6A002B00D16AE07B68B3
:10281000DB6A7A681000984764E07B681B6C0222D0
:102820009A401300FA6813402BD0BB680222134071
:1028300027D07B681B681B68202213400BD17B6864
:102840001B681A687B681B680A218A431A607B68C8
:102850002122012199547B681A6C7B68DB6B022171
:1028600091400A005A607B682022002199547B68BD
:102870009B6A002B36D07B689B6A7A681000984769
:1028800030E07B681B6C08229A401300FA68134002
:1028900028D0BB680822134024D07B681B681A68C4
:1028A0007B681B680E218A431A607B681A6C7B6800
:1028B000DB6B012191400A005A607B6801229A6318
:1028C0007B682122012199547B68202200219954A0
:1028D0007B681B6B002B05D07B681B6B7A68100034
:1028E0009847FFE7C046BD4604B080BD80B584B0C0
:1028F00000AFF860B9607A603B60FB681A6CFB68F7
:10290000DB6B012191400A005A60FB681B683A6842
:102910005A60FB685B68102B08D1FB681B687A68FB
:102920009A60FB681B68BA68DA6007E0FB681B689E
:10293000BA689A60FB681B687A68DA60C046BD4670
:1029400004B080BD80B582B000AF78607B681B6842
:10295000084A9446634414211800FDF7D5FB030090
:102960009A007B681A647B68034ADA63C046BD46F6
:1029700002B080BDF8FFFDBF0000024080B582B00C
:1029800000AF0200FB1D1A70FB1D1B787F2B09D8BE
:10299000FB1D1B781A001F231A40044B0121914094
:1029A0000A001A60C046BD4602B080BD00E100E0EA
:1029B00090B583B000AF02003960FB1D1A70FB1D9B
:1029C0001B787F2B28D82F4AFB1D1B785BB29B08F6
:1029D000C0339B009B58FA1D1278110003220A4055
:1029E000D200FF2191400A00D2431A4011003B68F7
:1029F0009B01FF221A40FB1D1B7818000323034094
:102A0000DB009A401F48FB1D1B785BB29B080A4302
:102A1000C0339B001A5031E01B4AFB1D1B78190084
:102A20000F230B40083B9B0806339B00D31804334D
:102A30001B68FA1D1278110003220A40D200FF2100
:102A400091400A00D2431A4011003B689B01FF22CB
:102A50001A40FB1D1B78180003230340DB009A403B
:102A60000948FB1D1B781C000F232340083B9B08D3
:102A70000A4306339B00C31804331A60C046BD46A0
:102A800003B090BD00E100E000ED00E080B582B051
:102A900000AF78607B685A1E80235B049A4201D3A2
:102AA000012310E00A4B7A68013A5A6001235B4225
:102AB00003211800FFF77CFF054B00229A60044BAE
:102AC00007221A6000231800BD4602B080BDC04630
:102AD00010E000E080B584B000AFB9607A600F21EB
:102AE0007B18021C1A70BA687B181B785BB2110045
:102AF0001800FFF75DFFC046BD4604B080BD80B53D
:102B000082B000AF0200FB1D1A70FB1D1B785BB288
:102B10001800FFF733FFC046BD4602B080BD80B548
:102B200082B000AF78607B681800FFF7AFFF03004A
:102B30001800BD4602B080BD80B582B000AF78609D
:102B40007B68002B01D1012344E07B68DB6F002B05
:102B500007D17B687822002199547B681800FEF722
:102B6000B9F97B682422DA677B681B681A687B687E
:102B70001B6801218A431A607B68180000F0D8F8AE
:102B80000300012B01D1012324E07B685B6A002B49
:102B900003D07B68180000F0F3F97B681B685A6863
:102BA0007B681B680D490A405A607B681B689A68FD
:102BB0007B681B682A218A439A607B681B681A68B5
:102BC0007B681B6801210A431A607B68180000F0CB
:102BD0008BFA03001800BD4602B080BDFFB7FFFFAF
:102BE00080B588B000AFF860B960BB1D1A80FB6883
:102BF000DB6F202B00D077E0BB68002B03D0BB1D20
:102C00001B88002B01D101236FE0FB689A688023A9
:102C10005B019A4209D1FB681B69002B05D1BB6897
:102C20000122134001D001235FE0FB68BA68DA6437
:102C3000FB68BA1D502112885A52FB68BA1D5221F6
:102C400012885A52FB68842200219950FB68212285
:102C5000DA67FB681B6F002B27D0FB681B6F254AC8
:102C60009A62FB681B6F244ADA62FB681B6F234A77
:102C70001A63FB681B6F00225A63FB68186FFB68BE
:102C8000DB6C1900FB681B6828331A00BB1D1B880E
:102C9000FFF724FD031E08D0FB6884221021995001
:102CA000FB682022DA6701231FE0FB681B684022D3
:102CB0001A62EFF310833B613B69FB6101237B6187
:102CC0007B6983F31088C046FB681B689A68FB68C1
:102CD0001B6880210A439A60FB69BB61BB6983F36F
:102CE0001088C046002300E002231800BD4608B04B
:102CF00080BDC0461D340008B1340008CF34000840
:102D000080B582B000AF7860C046BD4602B080BDDD
:102D100080B582B000AF7860C046BD4602B080BDCD
:102D200080B582B000AF7860C046BD4602B080BDBD
:102D300080B588B000AF78601E23FB1800221A709F
:102D40007B689A687B681B691A437B685B691A43D6
:102D50007B68DB6913437B617B681B681B68834A64
:102D6000134019007B681B687A690A431A607B6804
:102D70001B685B687E4A134019007B68DA687B68D1
:102D80001B680A435A607B689B697B617B681B6A8E
:102D90007A6913437B617B681B689B68754A1340A3
:102DA00019007B681B687A690A439A60724B1B6B37
:102DB00003221340032B0DD01BD8022B14D018D89C
:102DC000002B02D0012B0AD013E01F23FB18002296
:102DD0001A7012E01F23FB1802221A700DE01F2345
:102DE000FB1804221A7008E01F23FB1808221A702F
:102DF00003E01F23FB1810221A70C0467B68DA69B3
:102E000080231B029A425CD11F23FB181B78082BDE
:102E100015D018DC042B0DD015DC002B02D0022BB2
:102E200005D010E0FFF728F90300BB6112E0534B17
:102E3000BB610FE0FFF7C0F80300BB610AE080232D
:102E40001B02BB6106E00023BB611E23FB180122AD
:102E50001A70C046BB69002B00D17AE0BB695A00EA
:102E60007B685B685B08D2187B685B6819001000A0
:102E7000FDF74AF903003B613B690F2B1CD93A6906
:102E800080235B029A4217D23B699AB20E203B180C
:102E90000F218A431A803B695B089BB207221340CB
:102EA00099B23B183A1812880A431A807B681B684B
:102EB0003A181288DA604CE01E23FB1801221A70BF
:102EC00047E01F23FB181B78082B15D018DC042BB8
:102ED0000DD015DC002B02D0022B05D010E0FFF73F
:102EE000CBF80300BB6112E0244BBB610FE0FFF79E
:102EF00063F80300BB610AE080231B02BB6106E0AC
:102F00000023BB611E23FB1801221A70C046BB6957
:102F1000002B1ED07B685B685A08BB69D2187B689F
:102F20005B6819001000FDF7EFF803003B613B6997
:102F30000F2B0AD93A6980235B029A4205D23B697A
:102F40009AB27B681B68DA6003E01E23FB1801223B
:102F50001A707B6800229A667B680022DA661E235C
:102F6000FB181B781800BD4608B080BDF369FFFF51
:102F7000FFCFFFFFFFF4FFFF0010024000127A00B6
:102F800080B582B000AF78607B685B6A0122134035
:102F90000BD07B681B685B684A4A134019007B684A
:102FA0009A6A7B681B680A435A607B685B6A0222E4
:102FB00013400BD07B681B685B68434A13401900C1
:102FC0007B68DA6A7B681B680A435A607B685B6AC5
:102FD000042213400BD07B681B685B683B4A13409C
:102FE00019007B681A6B7B681B680A435A607B6810
:102FF0005B6A082213400BD07B681B685B68344A0D
:10300000134019007B685A6B7B681B680A435A603F
:103010007B685B6A102213400BD07B681B689B683F
:103020002C4A134019007B689A6B7B681B680A4323
:103030009A607B685B6A202213400BD07B681B6818
:103040009B68254A134019007B68DA6B7B681B6814
:103050000A439A607B685B6A402213401DD07B68FC
:103060001B685B681D4A134019007B681A6C7B68FB
:103070001B680A435A607B681A6C80235B039A4280
:103080000BD17B681B685B68154A134019007B688D
:103090005A6C7B681B680A435A607B685B6A8022B3
:1030A00013400BD07B681B685B680E4A1340190005
:1030B0007B689A6C7B681B680A435A60C046BD46B1
:1030C00002B080BDFFFFFDFFFFFFFEFFFFFFFBFF24
:1030D000FF7FFFFFFFEFFFFFFFDFFFFFFFFFEFFFC0
:1030E000FFFF9FFFFFFFF7FF80B592B002AF786050
:1030F0007B68842200219950FFF7FCF80300FB63F2
:103100007B681B681B6808221340082B2CD1FB6BC3
:10311000802291037868464A0092002200F08CF8E1
:10312000031E21D0EFF310837B627B6ABB63012314
:10313000BB62BB6A83F31088C0467B681B681A6851
:103140007B681B6880218A431A60BB6BFB62FB6A49
:1031500083F31088C0467B682022DA677B68782278
:103160000021995403235FE07B681B681B680422DD
:103170001340042B46D1FB6B8022D10378682C4A84
:103180000092002200F058F8031E3BD0EFF31083AA
:10319000FB60FB687B6301233B613B6983F3108821
:1031A000C0467B681B681A687B681B6821490A4017
:1031B0001A607B6B7B617B6983F31088C046EFF3F9
:1031C0001083BB61BB693B630123FB61FB6983F334
:1031D0001088C0467B681B689A687B681B68012161
:1031E0008A439A603B6B3B623B6A83F31088C0461C
:1031F0007B688022202199507B6878220021995495
:10320000032311E07B682022DA677B68802220217B
:1032100099507B6800221A667B6800225A667B6898
:1032200078220021995400231800BD4610B080BDBB
:10323000FFFFFF01DFFEFFFF80B584B000AFF86045
:10324000B9603B60FB1D1A704BE0BB69013348D08D
:10325000FFF750F802003B68D31ABA699A4202D3CA
:10326000BB69002B01D103234BE0FB681B681B6883
:103270000422134035D0FB681B68DB690822134029
:10328000082B11D1FB681B6808221A62FB68180022
:1032900000F060F8FB68842208219950FB687822CE
:1032A0000021995401232CE0FB681B68DA69802314
:1032B0001B011A4080231B019A4212D1FB681B6834
:1032C000802212011A62FB68180000F043F8FB68C4
:1032D000842220219950FB687822002199540323ED
:1032E0000FE0FB681B68DB69BA681340BA68D31A41
:1032F0005A425341DBB21A00FB1D1B789A42A4D0FC
:1033000000231800BD4604B080BD80B586B000AF74
:103310007860EFF31083BB60BB687B610123FB60C7
:10332000FB6883F31088C0467B681B681A687B685B
:103330001B68C0218A431A607B693B613B6983F348
:103340001088C0467B682022DA67C046BD4606B0BA
:1033500080BD000080B58EB000AF7860EFF31083C1
:103360007B617B697B630123BB61BB6983F310884D
:10337000C0467B681B681A687B681B6826490A4040
:103380001A607B6BFB61FB6983F31088C046EFF327
:1033900010833B623B6A3B6301237B627B6A83F35E
:1033A0001088C0467B681B689A687B681B6801218F
:1033B0008A439A603B6BBB62BB6A83F31088C0464A
:1033C0007B681B6E012B18D1EFF31083BB60BB68C9
:1033D000FB620123FB60FB6883F31088C0467B68B7
:1033E0001B681A687B681B6810218A431A60FB6A95
:1033F0003B613B6983F31088C0467B6880222021B3
:1034000099507B6800221A667B6800229A66C04643
:10341000BD460EB080BDC046DFFEFFFF80B58CB05C
:1034200000AF78607B685B6AFB627B689B69202BDE
:1034300035D0FB6A522200219952EFF31083FB60D2
:10344000FB68BB6201233B613B6983F31088C04684
:10345000FB6A1B689A68FB6A1B6880218A439A6032
:10346000BB6A7B617B6983F31088C046EFF31083EE
:10347000BB61BB697B620123FB61FB6983F310883D
:10348000C046FB6A1B681A68FB6A1B6840210A4336
:103490001A607B6A3B623B6A83F3108804E0FB6A34
:1034A0001800FFF72DFCC046C046BD460CB080BDDD
:1034B00080B584B000AF78607B685B6AFB60FB68B6
:1034C0001800FFF725FCC046BD4604B080BD80B59E
:1034D00086B000AF78607B685B6A7B617B69DB6F7D
:1034E0003B617B6980229B58FB607B691B689B6802
:1034F00080221340802B0AD13B69212B07D17B69A5
:103500005222002199527B691800FFF7FEFE7B6969
:103510001B689B6840221340402B0AD1FB68222B7A
:1035200007D17B695A22002199527B691800FFF765
:1035300011FF7B6984229B5810221A437B698421E6
:103540005A507B691800FFF7EBFBC046BD4606B03A
:1035500080BD80B500AFC046BD4680BD0D488546E4
:10356000FFF7F7FF0C480D490D4A002302E0D4583D
:10357000C4500433C4188C42F9D30A4A0A4C0023BD
:1035800001E013600432A242FBD300F011F8FDF712
:10359000DFF9FEE7001000200000002010000020EE
:1035A0006036000810000020F4040020FEE7000050
:1035B00070B500260C4D0D4C641BA410A64209D119
:1035C000002600F021F80A4D0A4C641BA410A64204
:1035D00005D170BDB300EB5898470136EEE7B30054
:1035E000EB5898470136F2E758360008583600087D
:1035F000583600085C36000803008218934200D158
:10360000704719700133F9E7F8B5C046F8BC08BC3B
:103610009E467047F8B5C046F8BC08BC9E46704749
:1036200002030405060708090A0B0C0D0E0F101003
:103630000102030405060708090A0B0C0D0E0F1002
:103640000000000000000000010203040607080952
:08365000000000000102030468
:04365800E90000087D
:04365C00C1000008A1
:1036600032000000040000000100000000127A0097
:040000050800355D5D
:00000001FF
