:020000040800F2
:10000000001000200119000893040008950400085E
:1000100000000000000000000000000000000000E0
:10002000000000000000000000000000970400082D
:100030000000000000000000990400089B04000874
:1000400051190008511900085119000851190008E8
:1000500051190008511900085119000851190008D8
:1000600000000000A5040008B504000851190008AC
:1000700051190008511900085119000851190008B8
:10008000511900080000000000000000511900088C
:10009000000000005119000851190008511900080A
:1000A000000000005119000800000000511900086C
:1000B0000000000000000000000000000000000040
:1000C00010B5064C2378002B07D1054B002B02D02E
:1000D000044800E000BF0123237010BD0C00002085
:1000E00000000000AC190008044B10B5002B03D031
:1000F0000349044800E000BF10BDC04600000000F6
:1001000010000020AC190008002243088B4274D371
:1001100003098B425FD3030A8B4244D3030B8B4208
:1001200028D3030C8B420DD3FF22090212BA030C11
:100130008B4202D31212090265D0030B8B4219D3F2
:1001400000E0090AC30B8B4201D3CB03C01A524112
:10015000830B8B4201D38B03C01A5241430B8B425A
:1001600001D34B03C01A5241030B8B4201D30B0343
:10017000C01A5241C30A8B4201D3CB02C01A52416A
:10018000830A8B4201D38B02C01A5241430A8B422D
:1001900001D34B02C01A5241030A8B4201D30B0216
:1001A000C01A5241CDD2C3098B4201D3CB01C01A30
:1001B000524183098B4201D38B01C01A524143093A
:1001C0008B4201D34B01C01A524103098B4201D328
:1001D0000B01C01A5241C3088B4201D3CB00C01A95
:1001E000524183088B4201D38B00C01A524143080D
:1001F0008B4201D34B00C01A5241411A00D2014632
:10020000524110467047FFE701B5002000F006F8A4
:1002100002BDC0460029F7D076E770477047C04658
:10022000F0B589B01422002103A801F0B7FB244BDC
:1002300059698020C003014359615A690240009204
:10024000009A596980208002014359615A6902402D
:100250000192019A5A698021C9020A435A615B6975
:100260000B400293029B802464009027FF0500222C
:100270002100380001F022F8124D00221021280040
:1002800001F01CF8039401260496002405940694BA
:1002900003A9380000F052FF082303930494059645
:1002A00003A9280000F04AFF102303930496059445
:1002B000069403A9280000F041FF09B0F0BDC04634
:1002C000001002400004004800B583B00D4A516997
:1002D000012319435161526913400193019B00228C
:1002E0000021092001F080F8092001F0ADF800227A
:1002F00000210A2001F078F80A2001F0A5F803B0E7
:1003000000BDC0460010024072B6FEE700B585B0E1
:100310000C22002101A801F041FB2648264B036076
:10032000002343608360C3600122026104214161B4
:10033000037643768276C376C221FF31C1610362C0
:100340002433C254826200F091F9002827D103239C
:10035000019380235B01029380235B05039301A932
:10036000144800F045FA00281BD10423019301A989
:10037000104800F03DFA002815D10523019301A98A
:100380000C4800F035FA00280FD10623019301A98B
:10039000084800F02DFA002809D105B000BDFFF78C
:1003A000B3FFFFF7B1FFFFF7AFFFFFF7ADFFFFF7B9
:1003B000ABFFC046280000200024014010B50B48C8
:1003C0000B4B0360E1235B02436000238360C36047
:1003D00003610C2242618361C3610362436201F0E5
:1003E00057FA002800D110BDFFF78EFF340100201E
:1003F0000038014010B594B03022002108A801F067
:10040000CDFA10241022002104A801F0C7FA10220E
:100410000021684601F0C2FA12230893113B0B93A6
:100420000D930C940E9401331093A0239B0312930D
:1004300008A800F083FA002817D107230493053B8E
:100440000593002306930793012104A800F0EEFC16
:1004500000280CD10123009300230293684600F08A
:1004600095FD002805D114B010BDFFF74DFFFFF733
:100470004BFFFFF749FF10B500F03EFEFFF7BAFF54
:10048000FFF7CEFEFFF720FFFFF740FFFFF796FFD5
:10049000FEE7FEE7FEE77047704710B500F03CFE50
:1004A00010BD000010B5024800F048FF10BDC04666
:1004B0006800002010B5034800F040FF024800F03B
:1004C0003DFF10BDF0000020AC00002082B00A4BC0
:1004D000996901221143996199690A400092009A31
:1004E000DA69802149050A43DA61DB690B4001932F
:1004F000019B02B07047C0460010024010B588B0A2
:1005000004001422002103A801F048FA1E4B2268BF
:100510009A4201D008B010BD1C4B99698020800020
:10052000014399619A6902400192019A5A698021B6
:1005300089020A435A615B690B400293029B78234C
:100540000393753B04937138FF3803A9C00500F08D
:10055000F5FD0F480F4B036000234360836080224A
:10056000C260803202618022D20042612022826118
:10057000C36100F0BBFE002803D1054B23635C621E
:10058000C8E7FFF7C1FEF8E7002401400010024071
:10059000680000200800024010B588B00400142252
:1005A000002103A801F0FAF92A4B22689A4201D0EF
:1005B00008B010BD284B99698020C00101439961A2
:1005C0009A6902400192019A5A69802189020A437C
:1005D0005A615B690B400293029BC023DB000393CB
:1005E0000223049301330693023B0793902003A94F
:1005F000C00500F0A3FD1948194B036000234360B8
:1006000083608022C260036143618361C36100F043
:100610006DFE002817D1114B63675C621148124BC5
:10062000036010234360002383608022C260036163
:1006300043618361C36100F059FE002806D1094B74
:1006400023675C62B4E7FFF75FFEE4E7FFF75CFE59
:10065000F5E7C0460038014000100240AC00002021
:1006600030000240F00000201C00024070B5041E63
:1006700000D1B4E0836B002B00D180E0A36BDB06DC
:1006800000D5A6E022689168042005000D400842CC
:1006900000D09EE0A16B534B19400633FF33194342
:1006A000A163916801330B40012B6ED0D3681821F0
:1006B0008B43A1680B43D360226813699B009B089E
:1006C00061680B4313612268D36847490B40D360CC
:1006D000237E9B03627ED2031343A17E4A0313430E
:1006E000A26A012A58D0802252011343E2681343C0
:1006F0002269022A52D02B432422A25C52001343C7
:10070000E27E012A4CD0E269C221FF318A4202D046
:10071000216A0A4313432168CA681A43CA60E26A1D
:10072000802149058A420DD0012A0BD0022A09D026
:10073000032A07D0042A05D0052A03D0062A01D0AF
:10074000072A0AD120684169072291434161206844
:100750004169E56A2A400A4342612268D268234916
:100760000A409A422BD0A36B12229343023A1343BE
:10077000A363E36B0F3A1343E36301202EE0C363EB
:1007800034228354FFF7BAFE78E71368DB079AD464
:10079000D3681B0497D489E72A00A6E70425AAE7B3
:1007A000002903D1802252021343ACE7A26B20211F
:1007B0000A43A263E26B1F390A43E263A3E7002303
:1007C000E363A36B03229343023A1343A363002022
:1007D00004E0A36B10221343A363012070BD01202A
:1007E000FCE7C046FDFEFFFF1902FEFFE7FF3F8367
:1007F00030B583B00400002301933433C35C012B74
:1008000000D18AE034230122C25403689A68520757
:1008100075D4434A4868904256D09A6A01200D68C0
:10082000A84002439A62E36A8022520593421ED096
:10083000012B1CD0022B1AD0032B18D0042B16D05E
:10084000052B14D0062B12D0072B10D0226850692C
:10085000072303408868984209D0506907239843CA
:100860005061206842698D682B40134343610B68D7
:100870001A00103A022A4CD82A4A1268102B0ED0BD
:10088000112B09D080235B041343264A13600B68A5
:10089000102B07D0002037E08023DB03F4E7802310
:1008A0001B04F1E7204B18682049FFF72DFC83005B
:1008B0001B185B00019302E0019B013B0193019B2C
:1008C000002BF9D100201FE09A6A01200D68A84092
:1008D00082439A620B681A00103A022A1BD8114A06
:1008E0001268102B09D0112B05D0114B13400D4A63
:1008F0001360002008E00F4BF8E70F4BF6E7836B1F
:10090000202213438363012034230022E25403B0E6
:1009100030BD0020F8E70020F6E70220F7E7C046E8
:1009200001100000082701400800002040420F008D
:10093000FFFFFFFEFFFFBFFFFFFF7FFF70B582B02D
:10094000041E00D12EE20368DB0726D5AE4B5A68A1
:100950000C231340042B18D0AB4B5A680C231340C4
:10096000082B0ED06368012B3CD0002B51D1A64B35
:100970001A68A6490A401A601A68A5490A401A600E
:1009800036E0A14B5B68DB03ECD59F4B1B689B03F8
:1009900003D56368002B00D107E223689B0772D55B
:1009A000994B5B680C221A425DD0974B5A680C2316
:1009B0001340082B53D0E368002B00D185E0924A06
:1009C000136801210B43136000F0B2FB05008E4B4E
:1009D0001B689B0770D400F0ABFB401B0228F6D9C4
:1009E0000320E0E1884A116880235B020B43136017
:1009F0006368002B25D000F09BFB0500824B1B6831
:100A00009B03CAD400F094FB401B6428F6D9032052
:100A1000C9E1052B09D07C4B1A687C490A401A6051
:100A20001A687B490A401A60E2E7774B196880220E
:100A3000D2020A431A601968802252020A431A60DD
:100A4000D6E700F075FB05006F4B1B689B03A4D530
:100A500000F06EFB401B6428F6D90320A3E16A4B2B
:100A60005B68DB03A7D4684B1B689B0703D5E3686F
:100A7000012B00D09BE164490B68F8229343226963
:100A8000D20013430B6023681B0744D5E369002B96
:100A90002ED05D4A536A01210B43536200F048FB9C
:100AA0000500594B5B6A9B0735D400F041FB401BA6
:100AB0000228F6D9032076E153490B68F8229343C4
:100AC0002269D20013430B60DDE74F4A136801210E
:100AD0008B43136000F02CFB05004B4B1B689B07FE
:100AE000D1D500F025FB401B0228F6D903205AE19E
:100AF000454A536A01218B43536200F019FB0500FC
:100B0000414B5B6A9B0706D500F012FB401B022895
:100B1000F6D9032047E123685B0700D480E03A4B15
:100B2000DB69DB001DD4384AD169802040050143D0
:100B3000D161D36903400193019B0125354B1B68AB
:100B4000DB0510D5A368012B21D0002B36D12E4B0D
:100B50001A6A01218A431A621A6A03318A431A62A5
:100B60001AE00025EAE72B4A116880235B000B435B
:100B7000136000F0DDFA0600264B1B68DB05E1D4AC
:100B800000F0D6FA801B6428F6D903200BE11E4A38
:100B9000136A01210B431362A368002B24D000F0D9
:100BA000C7FA0600184B1B6A9B0737D400F0C0FA3F
:100BB000801B194B9842F5D90320F4E0052B09D08E
:100BC000114B1A6A01218A431A621A6A03318A4355
:100BD0001A62E1E70C4B1A6A04210A431A621A6A84
:100BE00003390A431A62D7E700F0A2FA0600064B5F
:100BF0001B6A9B0712D500F09BFA801B064B98429C
:100C0000F5D90320CFE0C04600100240FFFFFEFFF1
:100C1000FFFFFBFF0070004088130000012D33D060
:100C20002368DB0610D56369012B33D0053351D11E
:100C3000654A536B04218B435363536BF4318B43ED
:100C4000A169C9000B435363236A002B00D1B0E0B4
:100C50005D4A51680C220A40082A00D18AE0022B22
:100C60004FD0594A136859490B40136000F060FA9D
:100C70000400554B1B689B017AD500F059FA001B04
:100C80000228F6D903208EE04F4AD36950490B4021
:100C9000D361C5E74C4B5A6B04210A435A635A6B24
:100CA00003390A435A6300F043FA0500464B5B6B75
:100CB0009B0706D400F03CFA401B0228F6D903201B
:100CC00071E041494B6BF8229343A269D200134370
:100CD0004B63B9E73C4B5A6B04210A435A635A6B86
:100CE00003398A435A6300F023FA0500364B5B6BE5
:100CF0009B07A9D500F01CFA401B0228F6D9032057
:100D000051E0314A136831490B40136000F010FA8A
:100D100005002D4B1B689B0106D500F009FA401B0E
:100D20000228F6D903203EE0274BDA6A0F218A43D6
:100D3000E16A0A43DA625A6826490A40A16A606A8F
:100D400001430A435A601968802252040A431A6018
:100D500000F0EEF904001C4B1B689B0106D400F068
:100D6000E7F9001B0228F6D903201CE000201AE056
:100D7000002018E0012B1ED0134B5A68D96A80233B
:100D80005B021340606A834217D10F230B40E16A74
:100D90008B4214D1F0239B031A40A36A9A4210D1CC
:100DA000002000E0012002B070BD0120FBE701201F
:100DB000F9E70020F7E70120F5E70120F3E701203C
:100DC000F1E70120EFE7C04600100240FFFFFFFE01
:100DD000FFFFFFEFFFFFC2FF10B5104B5A680C2357
:100DE0001340082B01D00E4810BD910C0733194059
:100DF0000C48445C0949C96A0B400B49C95CD303E0
:100E000004D50748FFF780F96043EDE763011B1B3A
:100E10009801C01AC00000190002E5E70010024066
:100E200000127A00C4190008D419000870B5040033
:100E30000D00002800D17EE0434B1A6801231340C7
:100E40008B420AD240490B68012293432B430B602B
:100E50000B681A40AA4200D06FE023689A070ED5AB
:100E60005B0705D5394A5168E023DB000B4353602B
:100E7000364A5368F0218B43A1680B4353602368C3
:100E8000DB072DD56368012B1ED0022B22D02F4A01
:100E90001268920753D52D494A68032082431343B1
:100EA0004B6000F045F90600284B5B680C221A40A5
:100EB00063689B009A4213D000F03AF9801B244BE0
:100EC0009842F1D9032035E0204A12689203E2D417
:100ED00001202FE01D4A12689201DCD4012029E094
:100EE000194B1A6801231340AB4209D916490B6804
:100EF000012293432B430B600B681A40AA4220D176
:100F000023685B0706D5114A536812490B40E16814
:100F10000B435360FFF760FF0C4B5A6812090F2315
:100F200013400D4AD35CD8400C4B1860032000F0EE
:100F3000BBF8002070BD0120FCE70120FAE701208A
:100F4000F8E70120F6E7C04600200240001002400A
:100F500088130000FFF8FFFFE419000808000020D4
:100F6000014B18687047C0460800002010B5FFF715
:100F7000F7FF044B5A68120A07231340024AD35C56
:100F8000D84010BD00100240F419000870B582B0BE
:100F900004000368DB0337D53D4BDB69DB0049D434
:100FA0003B4AD169802040050143D161D3690340A8
:100FB0000193019B0125374B1B68DB053CD5344B66
:100FC0001A6AC0239B00110019401A4213D06268AC
:100FD00013408B420FD02E4B186A2F4A02401E6AD4
:100FE0008021490231431962196A2C4E314019623D
:100FF0001A62C30734D4264A136A27490B40616832
:101000000B431362012D3AD02368DB0706D5204A33
:10101000136B03218B43A1680B43136323689B0667
:1010200032D51B4A136B10218B43E1680B431363CA
:1010300000202AE00025BEE7164A116880235B00E5
:101040000B43136000F074F80600124B1B68DB05BD
:10105000B5D400F06DF8801B6428F6D9032014E0A5
:1010600000F066F806000A4B1B6A9B07C3D400F029
:101070005FF8801B0A4B9842F5D9032005E0D3693D
:1010800008490B40D361BFE7002002B070BDC046E5
:101090000010024000700040FFFCFFFFFFFFFEFF5A
:1010A00088130000FFFFFFEF10B504000F4B197805
:1010B000FA208000FFF728F801000D4B1868FFF7B1
:1010C00023F800F0CDF900280DD1032C01D901201F
:1010D0000AE0013000222100404200F085F9054B72
:1010E0001C60002000E0012010BDC0460000002070
:1010F000080000200400002010B5064A13681021E3
:101100000B4313600320FFF7CFFFFFF7DFF9002049
:1011100010BDC04600200240034A1168034B1B78F3
:101120005B1813607047C046BC010020000000201F
:10113000014B18687047C046BC010020F0B583B071
:10114000002357E084685F000326BE40B4432600B6
:10115000CC68BC4034438460446894434A681609B0
:10116000012232409A402243426053E0DC080834B6
:10117000A400265805321A4092000F279740BE431C
:101180000F6997403A003243225057E0022600E0B0
:101190000026A64034003C4302329200424E945155
:1011A000424A9468EA432600AE434F68FF0201D5E5
:1011B0002C4326003D4CA660E468260016404F688C
:1011C000BF0201D52C432600384CE6606468260037
:1011D00016404F68BF0301D52C432600334C666090
:1011E000246822404E68F60301D52A0022432F4C82
:1011F000226001330C682200DA4052D001229A406A
:10120000250015401442F4D003244E683440013CBC
:10121000012C97D903224C682240032A09D0C268C6
:101220005E000324B440A24314008A68B240224303
:10123000C26003224C682240022A97D004685E00F4
:1012400003221700B740BC434F683A40B2402243E4
:101250000260C02292024C681442CAD0144CA669A3
:1012600001221643A661A46922400192019A9A08BC
:10127000941CA4000C4EA75903241C40A4000F2664
:10128000A640B7439026F605B04281D0094EB04241
:1012900005D0094EB04200D178E7052679E701264E
:1012A00077E703B0F0BDC0460000014000040140F4
:1012B000001002400004004800080048002A01D045
:1012C000816170478162FCE710B504000068054B3E
:1012D0009C4660441421FEF717FF80002064024BF7
:1012E000E36310BDF8FFFDBF0000024070B5041EAF
:1012F00020D021250223435501680B680E4A1A406D
:10130000436880680343E0680343206903436069DE
:101310000343A0690343E069034313430B602000C8
:10132000FFF7D2FF0023A363012262551F32A354AB
:10133000002070BD0120FCE70FC0FFFF70B5C36B3C
:101340001A6804682568016C04238B401A4212D085
:101350006B0710D523689B0603D4236804229343AC
:101360002360C26B0423016C8B405360C36A002B63
:1013700000D0984770BD02238B401A4218D0AB07AB
:1013800016D523689B0606D423680A22934323605C
:101390002123093AC254C26B0223016C8B40536073
:1013A00020230022C254836A002BE3D09847E1E750
:1013B00008238B401A42DDD02B07DBD523680E2291
:1013C00093432360C26B01231900046CA140516058
:1013D0008363212283541F330022C254036B002BEA
:1013E000C8D09847C6E7000070B5002811DB830815
:1013F000134EC0339B009D5903242040C000FF22A0
:1014000014008440A54389010A4082402A439A512E
:1014100070BD0F230340083B9B0806339B00094A1D
:10142000944663445C6803221040C000FC321500FF
:101430008540AC4389010A40824022435A60E7E775
:1014400000E100E000ED00E0002805DB1F2318406C
:101450001E3B8340014A13607047C04600E100E034
:10146000013880235B0498420FD2094A5060094832
:10147000036A1B021B0AC02109060B4303620023F7
:10148000936007331360002070470120FCE7C046DB
:1014900010E000E000ED00E010B5EFF3108C012249
:1014A00082F3108801680B68124C23400B608CF3A8
:1014B0001088EFF3108C82F3108801688B689343D7
:1014C0008B608CF31088036E012B06D080232022C2
:1014D000C25000230366836610BDEFF3108183F3CF
:1014E0001088026813683234FF34A343136081F319
:1014F0001088EBE7DFFEFFFF10B504008368026988
:10150000134342691343C269134301680A68484898
:10151000024013430B602268536846490B40E16860
:101520000B435360226AA3691A4321688B684248BF
:10153000034013438B60414B1A6B03231340022B70
:1015400027D022D8002B26D0012B26D10333E069E7
:1015500080221202904224D0042B62D051D8002B5A
:1015600059D0022B4BD1364863685B081818616864
:10157000FEF7CAFD0200103A324B9A4256D8236851
:101580000004000CD860002041E0032B07D1013B90
:10159000DDE70823DBE70023D9E71023D7E7102393
:1015A000D5E7042B28D01DD8002B1FD0022B17D134
:1015B0002348400063685B08C0186168FEF7A4FD1B
:1015C0000200103A1F4B9A422ED882B20F239A4340
:1015D0004008083B184010432368D860002016E0FC
:1015E000012014E0082BE4D0012010E0FFF7BEFC3E
:1015F0000028DED100200AE0FFF7EEFBF8E701202B
:1016000005E0082B02D180200002ADE70120002375
:10161000A366E36610BDFFF7A9FC0028A4D1002053
:10162000F5E7FFF7D9FBF8E70120F0E70120EEE747
:10163000F369FFFFFFCFFFFFFFF4FFFF0010024041
:1016400000127A00EFFF0000436ADB0706D502684C
:1016500053682C490B40816A0B435360436A9B07D4
:1016600006D50268536828490B40C16A0B43536092
:10167000436A5B0706D50268536824490B40016B37
:101680000B435360436A1B0706D502685368204921
:101690000B40416B0B435360436ADB0606D502687F
:1016A00093681C490B40816B0B439360436A9B0614
:1016B00006D50268936818490B40C16B0B439360D1
:1016C000436A5B060BD50268536814490B40016CF2
:1016D0000B43536080235B03026C9A420AD0436A37
:1016E0001B0606D5026853680D490B40816C0B43FD
:1016F00053607047026853680A490B40416C0B43C2
:101700005360ECE7FFFFFDFFFFFFFEFFFFFFFBFF66
:10171000FF7FFFFFFFEFFFFFFFDFFFFFFFFFEFFF99
:10172000FFFFF7FFFFFF9FFFF8B5CE46474680B5A6
:1017300006000D0017009946089B98463368DC693F
:101740002C40641B63425C41BC422FD143460133B1
:10175000F4D0FFF7EDFC4B46C01A40452BD843466A
:10176000002B2AD033681A685207E7D5DA691207C6
:1017700010D4DA691205E1D5802212011A62300014
:10178000FFF78AFE84232022F2500C3B0022F25401
:1017900003200CE008241C623000FFF77DFE842348
:1017A000F4500C3B0022F254012000E00020C0BCA9
:1017B000B946B046F8BD0320F9E70320F7E700007B
:1017C00030B583B0040084230022C250FFF7B0FC80
:1017D00005002268126813070FD423681B685B0793
:1017E00029D42023E3678022A35000232366636665
:1017F000083AA354002003B030BD8021224B00934F
:101800000300002289032000FFF78EFF0028E4D0A8
:10181000EFF31081012383F310882268136880207E
:101820008343136081F310882023E3675833002239
:10183000E2547D38DFE78021134B00932B00002218
:10184000C9032000FFF770FF0028CAD0EFF3108013
:10185000012282F3108821680B680C4D2B400B602D
:1018600080F31088EFF3108082F3108821688B6872
:1018700093438B6080F3108880231F32E250083B33
:101880000022E2540320B6E7FFFFFF01DFFEFFFF67
:1018900010B5041E2ED0C36F002B21D02423E36784
:1018A0002268136801218B4313602000FFF724FE98
:1018B000012814D0636A002B18D1226853680E499E
:1018C0000B405360226893682A218B4393602268FF
:1018D000136829390B4313602000FFF771FF10BD17
:1018E00078330022C254FEF757FED7E72000FFF7F7
:1018F000ABFEE2E70120F2E7FFB7FFFF7047000011
:101900000D488546FFF7FAFF0C480D490D4A0023A4
:1019100002E0D458C4500433C4188C42F9D30A4AA4
:101920000A4C002301E013600432A242FBD300F012
:1019300011F8FEF7A0FDFEE70010002000000020D7
:101940000C000020041A00080C000020C001002038
:10195000FEE7000070B500260C4D0D4C641BA41072
:10196000A64209D1002600F021F80A4D0A4C641B5A
:10197000A410A64205D170BDB300EB5898470136BC
:10198000EEE7B300EB5898470136F2E7FC19000880
:10199000FC190008FC190008001A0008030082184E
:1019A000934200D1704719700133F9E7F8B5C0468A
:1019B000F8BC08BC9E467047F8B5C046F8BC08BCE9
:0419C0009E46704788
:1019C40002030405060708090A0B0C0D0E0F10107C
:1019D4000102030405060708090A0B0C0D0E0F107B
:1019E40000000000000000000102030406070809CB
:0819F4000000000001020304E1
:0419FC00E9000008F6
:041A0000C100000819
:0C1A0400010000000400000000127A0045
:0400000508001901D5
:00000001FF
