:020000040800F2
:10000000002000202D7B00085151000853510008AA
:1000100000000000000000000000000000000000E0
:100020000000000000000000000000005551000822
:10003000000000000000000057510008595100085E
:100040007D7B0008000000007D7B00087D7B0008B0
:100050007D7B00087D7B00087D7B00087D7B0008A0
:1000600000000000E9510008F95100080952000899
:100070007D7B00087D7B00087D7B00080000000080
:100080007D7B00087D7B0008000000007D7B000870
:100090007D7B00087D7B00087D7B00087D7B000860
:1000A0007D7B00087D7B00087D7B000819520008DD
:1000B00029520008000000000000000000000000BD
:1000C00010B5064C2378002B07D1054B002B02D02E
:1000D000044800E000BF0123237010BDEC000020A5
:1000E00000000000B08D0008044B10B5002B03D0B9
:1000F0000349044800E000BF10BDC04600000000F6
:10010000F0000020B08D000803B47146490840009B
:100110004900095E49008E4403BC70470022430831
:100120008B4274D303098B425FD3030A8B4244D3BF
:10013000030B8B4228D3030C8B420DD3FF22090201
:1001400012BA030C8B4202D31212090265D0030BC0
:100150008B4219D300E0090AC30B8B4201D3CB03B6
:10016000C01A5241830B8B4201D38B03C01A5241F8
:10017000430B8B4201D34B03C01A5241030B8B42FA
:1001800001D30B03C01A5241C30A8B4201D3CB02E5
:10019000C01A5241830A8B4201D38B02C01A5241CA
:1001A000430A8B4201D34B02C01A5241030A8B42CD
:1001B00001D30B02C01A5241CDD2C3098B4201D3E5
:1001C000CB01C01A524183098B4201D38B01C01A63
:1001D000524143098B4201D34B01C01A52410309DA
:1001E0008B4201D30B01C01A5241C3088B4201D389
:1001F000CB00C01A524183088B4201D38B00C01A36
:10020000524143088B4201D34B00C01A5241411A5C
:1002100000D20146524110467047FFE701B5002069
:1002200000F006F802BDC0460029F7D076E7704717
:100230007047C046F0B5C64643025B0A4E02450011
:100240004F00DA00C40F9C46700A904600B52D0E90
:100250003F0EC90FB6098C424BD0EA1B002A36DD8F
:10026000002F61D0FF2D00D1ADE08023DB041E43C1
:100270001B2A00DCD3E001204346181A430100D4B6
:100280008CE080018709380001F0F8F805388740D4
:10029000854200DCB6E02D1AB3483840430704D04D
:1002A0000F230340042B00D00430430100D478E036
:1002B0006A1CFE2D65D08001430A9C46D2B263467B
:1002C000D0051843E407204380BCB846F0BD002A9F
:1002D00035D07A1B002D00D0AFE04346002B00D173
:1002E000A7E0531E012A00D12FE1FF2A69D01A008E
:1002F000AAE0E91B002970DD002F37D0FF2D62D066
:100300008023DB041E431B2900DCB0E001204044B5
:10031000430143D50135FF2D33D00123934A0340D8
:10032000400810401843B9E7002E00D183E0511E69
:10033000012A00D1D8E0FF2A45D00A0098E7FE271D
:100340006A1C174200D086E0002D00D0B7E043467B
:10035000002B00D1F3E00022002EB0D0981B430107
:1003600000D4FAE043460C00F01A97E7002E00D1C3
:10037000C8E04A1E012900D1AEE0FF2923D01100B8
:10038000C1E70023FF229C4699E7FE216A1C114227
:1003900077D0FF2AF5D0150046447008430700D0F7
:1003A0007EE7C308FF2D0ED05B025B0A9C46EAB2D3
:1003B00085E7002E07D08022D203134203D01042DB
:1003C00001D10C000300002BDBD08020C0031843B8
:1003D0004002430A9C46FF2271E70029D5D07A1BD0
:1003E000002D60D14346002B24D0531E012A73D028
:1003F000FF2AE7D01A001B2A00DC85E001203D001F
:10040000801985E720233A00451B38000135EA4072
:100410005D1BA840431E9841002510433EE7202362
:1004200030009B1A31009840D140431E9841084348
:1004300022E70C0003001500B4E7FF2FC1D0802392
:100440004046DB04184380461B2A51DD01200C0086
:100450003D00301A12E743469F1B7B012BD4002F2F
:1004600000D010E70023002400229C4627E7202329
:1004700032003000CA40591A8840431E9841104348
:1004800045E7002D4AD14346002B63D00022002EC1
:1004900000D114E730004044430100D47EE7324BE2
:1004A000013518407AE7FF2F8CD080234146DB04CA
:1004B000194388469FE743460C00F71AE3E6424695
:1004C000002A00D075E7002E00D07AE78023DB03F6
:1004D00000249C46FF22F2E63000404401254301FF
:1004E00000D45BE7022518E743460125981BC5E6C3
:1004F000202344464046D4409A1A9040431E9841D7
:100500002043A4E70D004DE7202341464046D1405B
:100510009A1A9040431E9841084370E74246002AC9
:1005200000D14FE7002E00D14DE78022D2031342C5
:1005300000D148E7104200D045E7030043E7002E12
:1005400090D00C0084460022B9E643460C00F01A15
:10055000013593E684460022B1E6002800D01DE76D
:10056000002300249C46AAE6FFFFFFFBFFFFFF7D60
:10057000F0B54F464646D6464502C0B547000C1C6E
:100580006D0A3F0EC60F002F00D170E0FF2F00D183
:1005900075E0EB008025ED041D43002399469A4643
:1005A0007F3F6002430A984663001B0EE40F002B56
:1005B0004ED0FF2B46D04246D0008022D2040243C8
:1005C000904600227F3B3100FF1A4B466140C9B282
:1005D00013430F2B00D9B5E06E489B00C3589F46CC
:1005E000002398462600454692465346022B00D1EA
:1005F00089E0032B00D19EE0012B18D03B007F3314
:10060000002B69DD6A0704D00F222A40042A00D09B
:1006100004352A0103D5604B1D403B008033FE2B7F
:1006200000DD70E0AD016D0AD8B202E00E000020DE
:100630000025C0052843F6073043E0BCBA46B14662
:10064000A846F0BD4346002B3FD10222FF3F03E006
:100650004346002B2DD1012231004B466140C9B2E7
:1006600013430F2B34D84D489B00C3589F46002D91
:1006700013D104239946033B00279A4691E7002DA6
:1006800005D108239946063BFF279A4689E70C23A4
:100690009946093BFF279A4683E7280000F0EEFEC3
:1006A0007627431F9D4000237F4299469A463F1A72
:1006B00077E7404600F0E2FE4246431F9A40762329
:1006C0005B4290461B1A00227DE7FF2303227AE754
:1006D0000E00FF200025ACE70120C01A1B28A6DC75
:1006E0009E372A00BD40C2406B1E9D4115436B07DB
:1006F00004D00F232B40042B00D004356B0144D5CC
:100700000120002595E7FF20002592E7802500269F
:10071000FF20ED038DE7002398468020C0030542AB
:1007200009D04346034206D1454605436D022600E3
:10073000FF206D0A7DE78020C00305436D02FF2086
:100740006D0A76E742466B015001834219D21B22A3
:100750000025013F01261C006D005B00002C01DB21
:10076000984201D81B1A3543013A002AF3D15A1E88
:1007700093411D433B007F330E00002B00DD41E71A
:10078000AAE71A2201251B1AE4E7AD0100206D0A31
:100790004FE7C046C88D0008FFFFFFF7088E00082E
:1007A000F0B54F464646D64644024500C0B5640AF9
:1007B0000F1C2D0EC60F002D00D18DE0FF2D00D196
:1007C00092E00023802099469A46E400C004044346
:1007D0007F3D7802430A98467B001B0EFF0F002BDB
:1007E00000D170E0FF2B00D186E04246D00080228D
:1007F0007F3BED180023D204024390469C46310013
:100800004B467940681C0F2B1CD8764A9B00D35866
:100810009F4639004446E2465346022B0FD0032B35
:1008200000D1D7E0012B37D100200024C0052043A0
:10083000C9070843E0BCBA46B146A846F0BDFF2050
:100840000024F3E7260C2404220C44462404240C40
:10085000434627001B0C574374435A435E43121907
:100860003B0C9B189C4203D980225202944666445A
:100870003F041A043F0CD2199401671EBC411B0CA3
:10088000920E9B1914439B011C431B0100D49BE057
:10089000012362081C40144302007F32002A64DDF9
:1008A000630704D00F232340042B00D0043423011A
:1008B00003D502004C4B80321C40FE2ABFDCA40151
:1008C000640AD0B2B2E74346002B3DD14A46013319
:1008D0001A4391469C4692E7002C29D1042399465D
:1008E000033B00259A4674E7002C1BD10823994648
:1008F000063BFF259A466CE74346FF35002B0BD19C
:1009000002234A461A4391469C4678E753463100F3
:10091000022B00D083E792E703234A461A4391460D
:100920009C466CE70C239946093BFF259A4650E705
:10093000200000F0A3FD7625431F9C4000236D425C
:1009400099469A462D1A44E7404600F097FD4246E4
:10095000431F9A4000232D1A90469C46763D4EE751
:1009600080240021FF20E40360E701239B1A1B2B56
:1009700000DD59E722009E30DA4084401300621EF9
:1009800094411C43630704D00F232340042B00D061
:10099000043463011AD50120002447E78020C003F6
:1009A000044209D04346034206D14446044364024C
:1009B0003900FF20640A39E78020C0030443640241
:1009C0003100FF20640A31E7280065E7A401002018
:1009D000640A2BE78020C00304436402FF20640AFA
:1009E00024E7C046488E0008FFFFFFF7F8B5CE4663
:1009F000474643025B0A4E02DA009446720A914669
:100A000045004A0080B52D0E1F00C40F120EC90FFD
:100A1000B609FF2A5BD0012041408C4239D0A81A88
:100A200000285ADD002A6AD0FF2D00D1D9E08022AB
:100A3000D20416431B2800DCE9E001206346181AA3
:100A4000430100D4B4E080018709380000F016FDAE
:100A500005388740854200DCCCE02D1AB548384087
:100A6000430704D00F230340042B00D0043043017C
:100A700000D4A0E06A1CFE2D00D18DE08001470A61
:100A8000D2B2D0053843E4072043C0BCB946B046D3
:100A9000F8BDA81A8046002845DD002A70D0FF2D39
:100AA00000D19EE08023DB041E4343461B2B00DC69
:100AB000D2E00120604443017AD50135FF2D6BD08F
:100AC00001239D4A0340400810401843C8E7002E08
:100AD00020D08C4223D02800FF38002839D0571B63
:100AE000002D00D09DE06346002B00D1DBE07B1E93
:100AF000012F00D10DE1FF2F71D01F0098E0002ED3
:100B000000D1A7E0421E012800D1E6E0FF2868D00E
:100B100010008FE701204140A14200D07FE7FF2075
:100B200040428046A8444046002838D0511B002D42
:100B300000D1AEE0FF2A00D1DFE080236046DB0475
:100B4000184384461B2900DCD9E0012015008019D8
:100B5000B1E7FE206A1C104271D1002D00D0A6E042
:100B60006346002B00D1D9E00022002E00D188E797
:100B7000981B430100D4E1E063460C00F01A6FE7D4
:100B8000002E00D1B7E00200013A012800D19CE01C
:100B9000FF2826D0904688E7FF22002771E7FE2035
:100BA0006A1C104264D0FF2AF6D015006644700813
:100BB000430700D056E7C308FF2D12D05B025F0A3F
:100BC000EAB25EE76246002A00D196E0002E08D025
:100BD0008022D203134204D04846104201D10C00B7
:100BE0004B46002BD8D08027FF031F437F02FF22F4
:100BF0007F0A46E720233A00451B38000135EA40CA
:100C00005D1BA840431E98410025104328E7202380
:100C10001B1A32009E40C2403000431E98411043D0
:100C20000CE7FF2ADBD080236046DB0418438446B0
:100C30001B2F56DD01200C001500301A00E763461B
:100C40009F1B7B013DD4002F00D0FEE60024002234
:100C5000002716E70500AFE7320043464146DA4079
:100C600020235B1A9E403000431E9841104321E729
:100C7000002DA7D16346002B59D00022002E00D1B1
:100C8000FFE630006044430192D52A4B01351840FD
:100C90008EE76346002B47D04B1E012915D0FF2954
:100CA0002BD019004EE70C004B463D0084E762460E
:100CB000002A8BD1002E92D180270024FF22FF032F
:100CC000DFE663460C00F71ABFE6300060440125FA
:100CD000430100D46CE70225F2E663460125981B28
:100CE000AEE6202364466046FC40DF1BB840431E4E
:100CF000984120439FE705005EE74B4671E72023BC
:100D000065466046CD40591A8840431E98412843A5
:100D10001CE763460C000125F01A91E6002E95D0E1
:100D20000C004F460022ACE64B460D0044E74F4610
:100D30000022A6E6FFFFFFFBFFFFFF7D002800D09B
:100D400036E7002400279CE641024200C30F490A0F
:100D50000020120E7E2A03DD9D2A02DD094A981822
:100D60007047802000040143952A07DC9620821AF0
:100D7000D1404842002BF3D10800F1E7963A914068
:100D8000F7E7C046FFFFFF7FF8B5002813D0C31771
:100D9000C6185E40C40F300000F070FB9E230500B3
:100DA0001B1A962B0FDC082801DD083DAE407602A9
:100DB000760AD8B202E0002400200026C0053043A5
:100DC000E4072043F8BD992B0CDD05223100121AEF
:100DD000D1400A00010030001B318840411E88418B
:100DE00002431600052D12DC31000D4F3940720709
:100DF00009D00F203040042805D004314A0102D523
:100E00009F2339405B1B89014E0AD8B2D6E76A1F7F
:100E100096403100024F39407207F4D0E9E7C046EE
:100E2000FFFFFFFB70B5051E0ED000F027FB9E23D1
:100E300004001B1A962B0CDC082801DD083CA54099
:100E40006D026D0AD8B201E000200025C0052843DC
:100E500070BD992B09DD020029001B3291404A1E0A
:100E600091410522121AD5400D43052C12DC2900B0
:100E70000C4E31406A0709D00F202840042805D0C5
:100E800004314A0102D59F2331401B1B89014D0AC1
:100E9000D8B2DBE7621F95402900024E31406A0755
:100EA000F4D0E9E7FFFFFFFBF0B557464E46454655
:100EB000DE46E0B598460C034B000600924687B02C
:100EC000240B5B0DCF0F002B00D15CE1D94A93427C
:100ED00000D175E1420FE400144380221204144350
:100EE000D54AC500944663440093002399469B4627
:100EF000434642461E03D20F5B0050469046360BD7
:100F00005B0D00D120E1CB4A934200D162E1CA4996
:100F1000420F8C4600996344F6008C4616438022AB
:100F20009C44120463461643C200002000930099BB
:100F3000434601318C4649467B4001930F2926D810
:100F4000BE4B890059588F46434601933400150023
:100F500083465B46022B16D0032B00D103E2012B04
:100F600000D0CDE0002200240025019B1205224381
:100F7000DB071A432800110007B0F0BCBB46B2469D
:100F8000A946A046F0BD00240025AA4AEDE7280C9A
:100F90002D042D0C2B00110C1204120C53439846F7
:100FA00013002F00434399464F434F44BB464746E7
:100FB0000B003F0CBA464343DA440293D14504D9AF
:100FC00080277F02B9464B44029353461B0C9B4635
:100FD00053461F0443461B041B0C98463B004344E6
:100FE0000493330C3604360C984633004343994639
:100FF000434643432F009A46434677435D43380CAC
:101000004D444519A94503D980235B029946CA443A
:101010003F04280C3F0C2D04ED19270C2404240C4C
:101020000300200050437A4391463A00534405930D
:10103000030C9A464A43614349445144AB448945B1
:1010400003D980235B0299464A4400040B0C000C30
:101050000904091820009946434670435C437E43C7
:101060005F43030C9846A41944444A440397A6429C
:1010700004D980235B029846474403972304029EC9
:101080009A46059B5E449846AE42AD4176188E4224
:1010900089410004000C504440446D424719B84651
:1010A000934649428946C344D94498428041A84561
:1010B000AD4193459241894589416D424042284363
:1010C000240C524249420A43039B00198018C71856
:1010D0004B46DC0D049B75021D436A1E95414B4631
:1010E000F60D7F0235435A023C431543FB0100D401
:1010F0001CE101216A080D401543E207154364080D
:101100004F496144002900DCB0E06B0709D00F2291
:101110002A40042A05D02A1DAA42AD416D42641915
:101120001500E30104D58021464AC90014406144FA
:10113000454A914200DD26E76207ED086402490551
:101140001543240B4A0D10E75246324300D17FE08D
:10115000002E00D1DCE0300000F090F902000B3AE4
:101160001D2301009B1A52460839DA408E4016436F
:1011700052468A40009B3549181A03008C46634446
:1011800000200093D3E6250005434AD0002C00D16F
:10119000B0E0200000F072F9010002000B391D23BD
:1011A00010005B1A3100350008388440D940854072
:1011B0000C432648831A0093002399469B4697E6E2
:1011C0000500254326D108220093022300249146DE
:1011D0009B468DE65246009B324310D115490026AE
:1011E0008C466344494600930223194389460220F2
:1011F0009DE65B460197022B00D0ADE6C3E60D4AA3
:101200000320944663444A46009303231A439146BD
:1012100052468CE60C2200930323050091469B4620
:1012200066E60423994600230093013300249B467D
:101230005EE6C046FF07000001FCFFFF888E000845
:10124000FF030000FFFFFFFEFE0700000DFCFFFF95
:1012500049460123194389460026012067E60023F9
:1012600080240025434A019324037EE60120401A8E
:10127000382800DD76E61F285BDD1F22230052425E
:10128000511ACB401900202803D03B4A62449440B5
:1012900025436A1E95412A000A4307210D000024B8
:1012A000154011425BD00F2100241140042953D076
:1012B000111D914292415242A4180A0023024BD5BB
:1012C00001220024002550E680231B031C4209D084
:1012D0001E4207D133431C0343461500240B254A05
:1012E000019342E68022120314432403214A240B73
:1012F00001973AE600F0C2F80100020015312032F1
:101300001C2900DC4BE7340008380025844050E7F6
:1013100000F0B4F803001A00153220301C2A00DC5B
:101320001EE75646083B00229E4023E7009B9C4652
:10133000E6E61249220061442E008D408A40C640F4
:10134000691E8D4132432A43C4405307B6D00F2152
:1013500011400429ACD1B1E765076402240BD2081F
:101360001543002201E68022120314432403014A9C
:10137000240BFAE5FF0700003E0400001E040000F5
:101380000A0030B5134C530009030500090B002077
:101390005B0DD20FA34204DD0F48834202DD0F4BE9
:1013A000D01830BD8020400301430D48C01A1F28CB
:1013B00008DD0C48C31AD9400B005842002AF0D16E
:1013C0001800EEE7084CC540A446634499400B0062
:1013D0002B43F2E7FE0300001D040000FFFFFF7F28
:1013E0003304000013040000EDFBFFFF70B5430061
:1013F0004602C40FFE201B0E591C750A08420CD071
:10140000E022920094466D07360B63441B0533437C
:10141000E40723432800190070BD002B14D1002DD0
:101420001BD0280000F02AF80A281CDC0B232E0011
:101430001B1ADE40030015339D400E4A3603121A74
:101440005205360B530DE1E7002D09D08022360BF3
:101450001203094B6D071643D8E700230026D5E792
:101460000026054BD2E703000B3B9D402E000025D4
:10147000E3E7C04689030000FF0700001C210123A9
:101480001B04984201D3000C10391B0A984201D367
:10149000000A08391B09984201D30009043902A245
:1014A000105C40187047C0460403020201010101AC
:1014B0000000000000000000F0B5DE4657464E4632
:1014C0004546E0B58BB01422002105A806F085FB47
:1014D0004B4B596980200003014359615A6902400E
:1014E0000192019A59698020C003014359615A69E8
:1014F00002400292029A5969802080020143596198
:101500005A6902400392039A5A698021C9020A4328
:101510005A615B690B400493049BE0242402394B1D
:101520009B4600222100180005F0C3FB364B9A466B
:101530009027FF0500221900380005F0BAFB334B55
:101540009946334E00221900300005F0B2FB314BB2
:1015500098460022C021180005F0ABFB0594012538
:10156000069500240794089405A9584605F0D4FA76
:101570005346059306950794089405A9380005F08D
:10158000CBFA022305930694079405A9300005F0D1
:10159000C3FA4B46059306950794089405A93000B5
:1015A00005F0BAFA80231B01059388235B03069399
:1015B000079405A9300005F0AFFAF0231B0205934C
:1015C0000694079505A9300005F0A6FAE0235B0113
:1015D00005930694079405A9380005F09DFAC023E9
:1015E000059306950795089405A9404605F094FAD9
:1015F0000BB0F0BCBB46B246A946A046F0BDC04603
:101600000010024000080048028300003C04000073
:10161000000400480014004800B583B0114A516925
:10162000012319435161526913400193019B002228
:101630000021092005F06CFC092005F099FC00222E
:1016400000210A2005F064FC0A2005F091FC00222C
:1016500000210B2005F05CFC0B2005F089FC03B099
:1016600000BDC0460010024030B585B00C220021FC
:1016700001A806F0B2FA184C184B236000236360EF
:10168000A360E3600125256104226261237663760D
:10169000A576E376C222FF32E26123622433E55469
:1016A000A562200003F0CAFF0523019380235B019C
:1016B0000293039501A9200004F064F90623019325
:1016C00001A9200004F05EF90723019301A920007D
:1016D00004F058F905B030BDC803002000240140D3
:1016E00010B50D4C0D4B23600D4B63600023A360C0
:1016F0000122E26023616361A361E3612362200050
:1017000004F0AAFF0021200005F0B0F9002120001C
:1017100005F0D8F910BDC046D404002000540040A4
:10172000D28C800010B50948094B036096239B01B9
:10173000436000238360C36003610C2242618361C4
:10174000C3610362436206F031F910BD2805002031
:101750000038014010B50948094B036096239B01EE
:10176000436000238360C36003610C224261836194
:10177000C3610362436206F019F910BDB005002091
:101780000044004030B5FF24FF2508E003786340A3
:101790000749CC5C6C400749CD5C110001304A1E02
:1017A00092B20029F2D12802204380B230BDC04657
:1017B000C88E0008C88F000810B5404C404B1B680D
:1017C0002360404B1B6863603F4B1B68A3603F4B2B
:1017D0001B68E3603E4B1B6823613E4B1B686361E3
:1017E0003D4B1B68A3613D4B1B68E3613C4B1B6891
:1017F00023623C4B1B6863623B4B1B68A3623B4B01
:101800001B68E3623A4B1B6823633A4B1B686363B4
:10181000394B1B68A363394B1B68E363384B1B6868
:101820002364384B1B686364374B1B68A364374BD6
:101830001B68E364364B1B682365364B1B68636586
:10184000354B1868FFF780FA83001B185B00A3650F
:10185000324B1868FFF778FA83001B185B00E365CA
:101860002F4B1868FFF770FA83001B185B00236684
:101870002C4B1868FFF768FA83001B185B0063663F
:10188000294B1868FFF760FA83001B185B00A366FA
:10189000264B1868FFF758FA83001B185B00E366B5
:1018A000002307E0224AD15C044AD218703211703A
:1018B00001339BB2102BF5D910BDC0463C06002069
:1018C000080000200C00002010000020F81200206A
:1018D000FC12002000130020841200208812002037
:1018E000A4120020A8120020AC1200201400002036
:1018F000180000201C0000202000002034000020E0
:101900003800002078000020A012002024000020D1
:10191000BC120020B41200206000002064000020EF
:1019200068000020280000202C000020300000204B
:10193000D012002070B5AD4C236810221A6220002E
:1019400005F07EFB23680F221A62636F1B685A68DA
:10195000FA235B009B1A9BB2A54A1380A54A117813
:10196000A54A126891421BD0A24B1B78FA2B00D1DA
:10197000A3E0A04B1B78FA2B00D1CDE09D4B1B7848
:10198000FA2B00D1F7E0FA2252009A49974806F064
:101990009BF8902000220221C00505F08AF970BD55
:1019A000944949780329DFD1924989780029DBD10C
:1019B0009049C9780029D7D18E4909790029D3D116
:1019C0008C4949790529CFD1082BCDD18B4B1A7081
:1019D00003225A7007329A70894B1868894B1C6829
:1019E000A0425CDD0123884A11688C4201DA0222A0
:1019F0001343864A1268944253DA04242343844CE6
:101A00002478002C50D008242343814C6478002C87
:101A10004DD0102423437E4CA478002C4AD020249F
:101A20002343764C1D0AE57023718300C3185B00C5
:101A3000233318B200126071A3718B00CB185B00C6
:101A4000233319B20912E17123729300D3185B009A
:101A500023331AB212126272A3726E4B1B681A0AF7
:101A6000E27223730D212000FFF78CFE6073000AE1
:101A7000A073902001220221C00505F01AF9664DDD
:101A8000280003F0F1FE64230F222100574805F0DF
:101A9000ACFE624A6249280003F092FE64E700232C
:101AA000A1E70424A343AAE70824A343ADE7102435
:101AB000A343B0E72024A343B3E74E4B5B78042B4A
:101AC00000D056E74B4B9B78D12B00D051E7494BC8
:101AD0005B79FB2B00D04CE7454B1B88062B00D0D5
:101AE00047E7444DEA784A4B1A734B4C200003F009
:101AF000BBFE902001220221C00505F0DAF8494B17
:101B00001A8864232900394805F06FFE434A444986
:101B1000200003F055FE2CE7364B5B78042B00D0F9
:101B20002CE7344B9B78D22B00D027E7314B5B79E5
:101B3000FB2B00D022E72E4B1B88062B00D01DE785
:101B40002C4DEA78324BDA73334C200003F08CFED4
:101B5000902001220221C00505F0ABF8314B1A8814
:101B600064232900214805F040FE2C4A2C4920001E
:101B700003F026FE02E71F4B5B78042B00D002E740
:101B80001C4B9B78F12B00D0FDE61A4B5B79FB2BAD
:101B900000D0F8E6164B1B88062B00D0F3E6174C56
:101BA000F4332370F63B6370ED33A370FFF704FE4C
:101BB000E01C81221C4906F007F88423FB22E25432
:101BC000154D280003F050FE902001220221C0058F
:101BD00005F06FF8642385222100044805F005FE16
:101BE0000E4A0F49280003F0EBFDCCE6B0050020BB
:101BF000FC02002008010020240000200003002037
:101C0000080000201C0000200C0000201000002014
:101C1000D012002084120020C8030020DC05000040
:101C2000C0060020380600203C06002030B595B0E4
:101C30003022002108A805F0D0FF10241022002136
:101C400004A805F0CAFF10220021684605F0C5FF70
:101C50001A230893193B0B930D930C940E940F9336
:101C600002251095E02252031292139308A803F064
:101C700023FF072304930595002506950795012169
:101C800004A804F091F92123009302950394684677
:101C900004F03AFA15B030BD10B504F0EBFAFFF7D6
:101CA000C5FFFFF709FCFFF7B7FCFFF7DDFCFFF707
:101CB00017FDFFF737FDFFF74DFD03F023F900F0A7
:101CC00056F8224A2249234803F07AFD8021224C0B
:101CD00000228901200004F0ECFF80210022C901CC
:101CE000200004F0E6FF1D4C00221021200004F02B
:101CF000E0FF00222021200004F0DBFF0022082169
:101D0000200004F0D6FF80219024E405002209027F
:101D1000200004F0CEFF00F0EDF8002202212000A8
:101D200004F0C7FFFA220E4C52000E49200005F0C5
:101D3000CBFE2268136810210B431360012270311F
:101D4000094804F0B6FF03F0BDF9FCE7DC0500002C
:101D5000C0060020C8030020000800480004004816
:101D6000B00500200801002000140048704710B59D
:101D700080219024E40501224900200004F099FF0D
:101D8000802101228900200004F093FF10BD70B56E
:101D900080219024E40501224900200004F089FFFD
:101DA0008025AD0001222900200004F082FF0022DE
:101DB0002900200004F07DFF70BD70B580267600FC
:101DC0009024E40500223100200004F072FF8025F9
:101DD000AD0000222900200004F06BFF0122310039
:101DE000200004F066FF01222900200004F061FFBA
:101DF00070BD70B50500002410E080219020002205
:101E00008900C00504F055FF6D0880219020012253
:101E10004900C00504F04DFF0134E4B2072C10D88E
:101E20008021902000224900C00504F042FFEB070A
:101E3000E3D58021902001228900C00504F039FFFC
:101E4000E2E770BD70B5FFF7A2FF4420FFF7D1FFB6
:101E5000FFF7B3FFFFF79BFFC020FFF7CAFF234C3C
:101E60002378234DE85CFFF7C4FFFFF7A6FFFFF7D9
:101E70008EFFC120FFF7BDFF6378E85CFFF7B9FF75
:101E8000FFF79BFFFFF783FFC220FFF7B2FFA378A6
:101E9000E85CFFF7AEFFFFF790FFFFF778FFC32086
:101EA000FFF7A7FFE378E85CFFF7A3FFFFF785FFE5
:101EB000FFF76DFFC420FFF79CFF2379E85CFFF775
:101EC00098FFFFF77AFFFFF762FFC520FFF791FF4A
:101ED0006079FFF78EFFFFF770FFFFF758FF8B2049
:101EE000FFF787FFFFF769FF70BDC04608130020AA
:101EF0003C00002010B5794C04222100002003F0A2
:101F000091F82368182B02D9744B00221A60744C84
:101F100004222100382003F085F823683C2B02D9E5
:101F20006F4B00221A606F4C04222100042003F042
:101F300079F82368FA22920094466344FA22D20088
:101F4000934202D9674B00221A60674C0422210099
:101F5000082003F067F82368FA229200944663444D
:101F6000FA22D200934202D95F4B00221A605F4CE2
:101F7000042221000C2003F055F82368FA22920075
:101F800094466344FA22D200934202D9574B00226E
:101F90001A60042256493C2003F044F804225549B3
:101FA000482003F03FF804225349402003F03AF858
:101FB000042252494C2003F035F8042250494420B1
:101FC00003F030F804224F49502003F02BF84E4C18
:101FD00004222100102003F025F82268FA23DB00F8
:101FE0009A4203D9484BFA2292001A60474C0422C5
:101FF0002100142003F016F82268FA23DB009A422D
:1020000003D9424BC82292001A60414C042221009D
:10201000182003F007F82268FA23DB009A4202D95D
:102020003B4B3C4A1A603C4C042221001C2002F02D
:10203000F9FF2268FA23DB009A4202D9364B374A6D
:102040001A60374C04222100202002F0EBFF2368A5
:10205000053B5F2B02D9324B04221A60314C04221B
:102060002100242002F0DEFF2368053B5F2B02D90C
:102070002C4B04221A602C4C04222100282002F050
:10208000D1FF2368053B5F2B02D9274B04221A603E
:10209000264C042221002C2002F0C4FF2368FE2BD2
:1020A00002D9224B01221A60214C04222100302047
:1020B00002F0B8FF2368022B02D91D4B00221A60E0
:1020C0001C4C04222100342002F0ACFF2368042BB6
:1020D00002D9184B03221A6010BDC046841200209A
:1020E00088120020A4120020A8120020AC120020A8
:1020F0006000002028000020640000202C00002048
:10210000680000203000002014000020180000208B
:102110001C0000201405000020000020DC05000049
:102120003400002038000020780000202400002027
:10213000BC120020B412002070B506680D68B542CC
:1021400013DC34001068A04200DD0400B54200DB5F
:102150003500A84200DB2800241A312C07DC186067
:10216000049B1860059B186070BD2C00EAE71E6098
:102170000B6804990B601368059A1360F4E700007C
:1021800070B586B0002303930493059300241CE0EC
:1021900003A9A00053009B181B195B00854D5B5BD6
:1021A0004558AC46634443500132FA235B009A42DF
:1021B000EED303ADA60019007059FDF7AFFF630021
:1021C0007D4AD052002373510134022C05D8A3005C
:1021D00003AA002199500022E7E7784A13680133E7
:1021E0001360774A934200D8CAE0744B00221A6009
:1021F000744B1B78002B53D1734B1C78002C18D1D7
:10220000724B9868FEF70EFE714B1968FEF7C8FA1C
:10221000704B1968FEF7EAFB051C6F4B1868FEF758
:10222000B3FD011C281CFEF705F8FEF78DFD6B4B76
:102230001860002C18D1654B1868FEF7F3FD684B49
:102240001968FEF7ADFA674B1968FEF7CFFB051C5E
:10225000654B1868FEF798FD011C281CFDF7EAFF86
:10226000FEF772FD614B1860002C21D1574B586866
:10227000FEF7D8FD5E4B1968FEF792FA5D4B1968C0
:10228000FEF7B4FB041C5C4B1868FEF77DFD011CD7
:10229000201CFDF7CFFFFEF757FD584B186007E0F5
:1022A000574B1B684D4A1360504A1360534A1360E2
:1022B000464B00221A605A609A60484B1B681E33D6
:1022C0003C2B02D8454B00221A60444B1B68233B31
:1022D000FF3B282B03D8414B9B2252001A603F4BF7
:1022E0001B68484A94466344322B03D83B4BFA227E
:1022F000D2001A603D4B1B681E333C2B02D83B4B6F
:1023000000221A60394B1B68233BFF3B282B03D864
:10231000364B9B2252001A60344B1B68394A944654
:102320006344322B03D8314BFA22D2001A60334B6C
:102330001B681E333C2B02D8304B00221A602F4BF7
:102340001B68233BFF3B282B03D82C4B9B225200BE
:102350001A602A4B1B682B4A94466344322B03D8DD
:10236000264BFA22D2001A60274B0193274B009389
:10237000274B224A1D491948FFF7DEFE06B070BD03
:10238000124B1A680C4B1B889A4201D20F4A1360F9
:102390000E4B5A68084B5B889A4201D20B4A536035
:1023A0000A4B9A68044B9B889A4200D385E7074AF8
:1023B000936082E7C006002078120020B812002047
:1023C000B80B0000B012002000000020E412002032
:1023D0006000002028000020A41200200800002037
:1023E000640000202C000020A81200200C00002017
:1023F0006800002030000020AC12002010000020F7
:10240000A012002044F8FFFF74000020700000209C
:102410006C000020F0B583B006000F0014005F4B85
:10242000C5185F4B9D4200D9B0E0002A48D0012C6E
:102430004CD0022C50D0032C54D0042C58D001ABDB
:102440001B782D2B5AD0202B5CD0303B554A537033
:1024500001AB5B782D2B59D0202B5BD0303B514A00
:10246000937001AB9B782D2B58D0202B5AD0303B4A
:102470004C4AD37001ABDB782D2B57D0202B59D091
:10248000303B484A1371002C07D1092E05DC33007C
:10249000093302DB434B1222DA70042C4ED0012F99
:1024A00055D0022F5AD0032F5FD0012F66D0022FB4
:1024B00072D1633670DA3B4A9378123393706BE0D3
:1024C0000200394901A805F00DFCB0E73200374998
:1024D00001A805F007FCACE73200354901A805F07A
:1024E00001FCA8E73200334901A805F0FBFBA4E793
:1024F0003200314901A805F0F5FBA0E7294B1D2268
:102500005A70A5E7274B10225A70A1E7254B1D22D0
:102510009A70A6E7234B10229A70A2E7214B1D2246
:10252000DA70A7E71F4B1022DA70A3E71D4B1D22BC
:102530001A71A8E71B4B10221A71A4E7092EAEDC12
:1025400033000933ABDB174B1222DA70A7E7092EF1
:10255000A7DD144AD3781233D370A2E7632EA2DD2D
:10256000104A9378123393709DE7FA239B009E42A2
:102570009BDB0C4A53781233537096E733000933D0
:1025800095DA084AD3781233D37090E7054B0922C5
:102590005A709A70DA701A7103B0F0BDE703000048
:1025A000F72A000008130020C8900008CC9000080B
:1025B000D4900008DC900008E490000870B5614BEE
:1025C0001A68FA23DB009A421BD35E4BFA22D20030
:1025D0001A605D4B1B685D4A1268934201DD5B4ADD
:1025E00013605B4B1B685B4A1268934201DD594ADA
:1025F0001360594B1B68594A1268934201DD574AD0
:102600001360514B1A68564B1B689A4207DC5049BD
:1026100009688B4203DB504909688B4202DA514B4F
:1026200001211970504B1B689A420ADA484909681F
:102630008B4206DD484909688B4202DD494B002187
:102640001970484B1B7B012B42D0022B44D0022B2C
:1026500002D9444B00211973424B1B7B002B14D130
:10266000424B19680B015B1A9B004148006883428A
:102670000BD2404C24681B19984206D2002904D082
:10268000002C02D0374B01211970384B19680B010F
:102690005B1A9B00374909685B18354909688B420A
:1026A00002D2334B0021196013002D33FF3332491E
:1026B0008B4215D9314B9A4202DA2A4B01215971CA
:1026C00096231B019A420EDD264B02225A710AE024
:1026D000244901200870B8E7224900200870B6E7B5
:1026E000204B00225A711A4B1B6819002D31FF3103
:1026F000214A91420DD9214A934202DA194A012115
:10270000917196221201934206DD164B02229A71B4
:1027100002E0144B00229A710F4B1B6819002D31F7
:10272000FF31154A91422BD9144A934202DA0D4ADD
:102730000121D17196221201934224DD094B02221C
:10274000DA7120E09812002008000020F812002022
:102750000C000020FC1200201000002000130020BC
:1027600014000020D0120020180000208412002045
:10277000F4120020881200208C0A0000D4FEFFFF13
:10278000B74B0022DA7180219020C900C00504F007
:1027900089FA012800D1B3E0B14B00221A728021DE
:1027A00090200901C00504F07DFA012800D1ABE0BA
:1027B000AB4B00225A72AB4B1A6813002D33FF3318
:1027C000A9498B420CD8A94909682D31FF31A64887
:1027D000814205D8A64909682D31FF31814203D9CC
:1027E0009F490120487088739F498B420ED89F4BA8
:1027F0001B682D33FF338B4208D89D4B1B682D334C
:10280000FF338B4202D8964B00215970994B1B68BD
:102810009A4207DC954909688B4203DB94490968B1
:102820008B4203DA8E4901208870887392490968C7
:102830005B1A9A420ADA8D4909688B4206DD8C4997
:1028400009688B4202DD864B002199708B4B1B6817
:102850009A4207DC854909688B4203DB8449096891
:102860008B4203DA7E490120C87088738449096865
:102870005B1A9A420ADA7D4A1268934206DD7C4A64
:102880001268934202DD764B0022DA70802190209C
:102890004901C00504F006FA002839D1704B012225
:1028A0001A719A736F4B1A68724B1B689A420EDA50
:1028B0006E4909688B420ADD6D480068834206DD77
:1028C000704B9A4203DB994201DB984224DA644B55
:1028D0001B7B012B2CD00024022B2BD06A4B1B78A6
:1028E000022B00D1ECE029D8002B35D0012B3ED1B2
:1028F000664B1B68642B3AD9634B02221A7036E090
:10290000574B01221A724AE7554B01225A7252E77D
:10291000534B00221A71C5E7802190204901C00560
:1029200004F0C0F90128D2D14D4B00229A73CEE7B2
:102930001C00D1E701231C43E4B2CFE7032B16D1DF
:10294000524B1A68FA23DB009A4210D900234E4AF0
:1029500013704E4A13600AE0414B1B78002B00D1E4
:1029600070E0012B00D19DE0484B00221A603C4BE7
:102970005B78012B00D1C5E0394B5B78012B06D089
:10298000434B1B78002B00D1D1E010239C43344BE8
:102990009B78012B00D1D1E0314B9B78012B06D0E5
:1029A0003B4B1B78002B00D1DBE004239C432C4BDA
:1029B000DB78012B00D1DAE0294BDB78012B06D044
:1029C000334B1B78002B00D1E4E008239C43244BBD
:1029D0001B79012B00D1E3E0214B1B79012B04D0A3
:1029E0002B4B1B78002B00D1EAE01D4B5B79012BB0
:1029F00000D1EBE01A4B5B79012B04D0244B1B7800
:102A0000002B00D1F6E0164B9B7B012B00D1F9E0A7
:102A1000002B03D0124BDB7B012B02D11D4B00227C
:102A20001A600F4B1B7C012B00D1F5E0012B01D06C
:102A300020239C43184B5C71184B1B680A2B00D950
:102A4000EEE070BD02239C43154B1B78012B03D095
:102A5000134B00221A7087E70B4B01221A70F7E71D
:102A6000D0120020080000208C0A00000C0000207A
:102A7000100000201C000020380000202000002052
:102A800078000020D5FEFFFF0000002090120020FB
:102A9000B01200203413002008130020041300207B
:102AA0008C12002002231C43E4B2D04B1B78002B75
:102AB00002D1CF4B01221A70CC4B01221A7053E77E
:102AC000CC4B1B78012B0BD0CA4B1B78012B03D0AE
:102AD000C94B1B78002B0ED0C54B03221A7046E75A
:102AE000C54B1B78002BEFD1802101228901C348FF
:102AF00004F0DFF8E8E7802100228901BF4804F0F4
:102B0000D8F8E9E7BC4B1B78002B09D180210122C2
:102B1000C901BA4804F0CDF810231C43E4B22BE7F6
:102B200080210022C901B54804F0C3F8F4E78021F0
:102B30000022C901B14804F0BCF826E7AE4B1B786F
:102B4000002B08D101221021AD4804F0B2F8042373
:102B50001C43E4B220E700221021A94804F0A9F8A0
:102B6000F5E700221021A64804F0A3F81DE7A24BC8
:102B70001B78002B08D101222021A14804F099F8EC
:102B800008231C43E4B217E7002220219C4804F0EC
:102B900090F8F5E700222021994804F08AF814E71C
:102BA000954B1B78002B05D101220821944804F095
:102BB00080F811E700220821914804F07AF80BE729
:102BC000002208218E4804F074F80EE78A4B1B7827
:102BD000002B07D18021902001220902C00504F0BA
:102BE00068F807E78021902000220902C00504F060
:102BF00060F8FFE68021902000220902C00504F061
:102C000058F800E77B4AD27B002A00D000E77D4AD3
:102C1000FA2149001160FBE620221443E4B205E7E3
:102C2000794B00221A6080218901754804F03AF836
:102C3000002814D1754A1378013313700023744AA5
:102C40001370744A1370744A137074490A6801321D
:102C50000A60734A1360734A1360734A13608021D9
:102C60004901674804F01EF8002814D10023674A80
:102C7000137067490A7801320A70664A1370664A0F
:102C80001370664A136066490A6801320A60654A31
:102C90001360654A136080210902594804F002F864
:102CA000002814D10023594A1370594A1370594906
:102CB0000A7801320A70584A1370584A1360584A09
:102CC000136058490A6801320A60574A136080212C
:102CD000C9014B4803F0E6FF002814D100234B4AFA
:102CE00013704B4A13704B4A13704B490A780132E8
:102CF0000A704A4A13604A4A13604A4A13604A4AB1
:102D0000136801331360414B1B78042B00D993E007
:102D10003F4B1B78042B00D99DE03E4B1B78042BC6
:102D200000D9A7E03C4B1B78042B00D9B1E08021EF
:102D30008901334803F0B6FF002806D1374B1B68E2
:102D4000632B02D9394B01221A60802149012C489A
:102D500003F0A8FF002806D1314B1B68632B02D972
:102D6000324B02221A6080210902254803F09AFFA3
:102D7000002806D12B4B1B68632B02D92B4B032257
:102D80001A608021C9011E4803F08CFF002806D17B
:102D9000254B1B68632B02D9244B04221A60802127
:102DA0008901174803F07EFF012800D180E08021CF
:102DB0004901134803F076FF012800D17CE080210F
:102DC00009020F4803F06EFF012879D08021C90164
:102DD0000B4803F067FF012876D0154B9B79282B11
:102DE00000D9CCE29B00134AD3589F468C12002096
:102DF00000000020D0120020B0120020000800487F
:102E00000004004834130020041300207E12002028
:102E10007F1200208012002081120020C0120020AA
:102E2000C4120020C8120020CC12002094120020EE
:102E300008130020EC90000880218901C64803F0A7
:102E400031FF012800D063E7C44B01221A60C44B54
:102E500000221A705CE780214901BF4803F022FF7D
:102E6000012800D059E7BD4B02221A60BD4B002259
:102E70001A7052E780210902B74803F013FF0128B6
:102E800000D04FE7B54B03221A60B74B00221A70EF
:102E900048E78021C901B04803F004FF012800D0B1
:102EA00045E7AE4B04221A60B04B00221A703EE791
:102EB000AF4B00221A607AE7AE4B00221A607EE721
:102EC000AD4B00221A6081E7AC4B00221A6084E708
:102ED000AB4B00221A70AB4B0A321A70AA4A136825
:102EE00001331360A94B1B68A94A934227DAA54B0B
:102EF0004A32FF325A70002199702031D9701A710C
:102F0000964B1B68012B2ED0042B39D0042B4AD0B2
:102F1000924B1B68022B5ED0032B6BD09D4B1B7C0E
:102F2000002B76D1984B1A6896235B009A427DD38A
:102F3000954B00221A60934B01329A711FE2962240
:102F40001201934208DD8F4B1D225A7000219970A7
:102F50001F31D9701A71D3E78F4B186800220121F5
:102F6000FFF758FACCE7824A1268272ACCD9854B5A
:102F700003229A710023794A13607D4A1360FEE1AF
:102F80007E4A1268272AC1D9744B00221A60814BED
:102F90001B7C002B03D17F4B01321A74EFE17D4B78
:102FA00000221A74EBE18021C9016B4803F07AFE1C
:102FB0000128ADD10023734A9371684A1360754BA1
:102FC000DB7B002B03D1734B0122DA73D7E1714B0A
:102FD0000022DA73D3E1614B00221A606D4B1B7B38
:102FE000002B03D16B4B01321A73C8E1694B0022ED
:102FF0001A73C4E1594B00221A60664B1B7B002BED
:1030000003D1644B02321A73B9E1624B00221A7386
:10301000B5E1624B1A685D4B1B689A4206DD5A4B5C
:1030200000221A60574B01329A71A8E14B4B0022E3
:103030001A60A4E1534B0B221A70534A13680133F0
:103040001360564B1B68524A93422ADA4D4B4A3260
:10305000FF325A70002199702031D9701A713F4B9C
:103060001B68012B31D0042B3CD0042B4DD03B4BA3
:103070001B68022B61D0032B00D193E0454B1B7CD6
:10308000002B00D09DE0404B1A6896235B009A42CB
:1030900000D274E13C4B00221A603A4B02329A7122
:1030A0006DE196221201934208DD364B1D225A70C3
:1030B000002199701F31D9701A71D0E7384B186808
:1030C00000220121FFF7A6F9C9E7294A12683B2A25
:1030D000C9D92C4B03229A710023204A1360244A39
:1030E00013604CE1254A1268272ABED91B4B0022E7
:1030F0001A60284B1B7C002B03D1264B01321A741B
:103100003DE1244B00221A7439E18021C9011248A3
:1031100003F0C8FD0128AAD100231A4A93710F4A6F
:1031200013601C4BDB7B002B03D11A4B0122DA739B
:1031300025E1184B0022DA7321E1084B00221A60C6
:10314000144B1B7B002B03D1124B01321A7316E177
:10315000104B00221A7312E1000400489412002060
:103160007E1200207F120020801200208112002099
:10317000C0120020C4120020C8120020CC1200206F
:10318000B01200200813002028130020080000209F
:10319000D4FEFFFFD01200206C0000200C000020A5
:1031A00070000020BB4B00221A60BB4B1B7B002B26
:1031B00003D1B94B02321A73E1E0B74B00221A7304
:1031C000DDE0B64B1A68B64B1B689A4200DCD6E0CD
:1031D000B44B00221A60B44B02329A71CFE0B24B6A
:1031E0000C221A70AF4A136801331360AB4B1B6893
:1031F000AE4A934227DAAC4B4A32FF325A70002172
:1032000099702031D9701A71A24B1B68012B2ED0F6
:10321000042B39D0042B4AD09E4B1B68022B5ED066
:10322000032B6BD09C4B1B7C002B76D19D4B1A68DB
:1032300096235B009A4200D2A1E00023994A1360D2
:10324000994A93719BE096221201934208DD964BB6
:103250001D225A70002199701F31D9701A71D3E75D
:10326000934B186800220121FFF7D4F8CCE7914A6C
:1032700012683B2ACCD98C4B03229A710023854AD1
:1032800013608C4A13607AE08B4A1268272AC1D9EE
:10329000804B00221A60804B1B7C002B03D17E4B9D
:1032A00001321A746BE07C4B00221A7467E08021B3
:1032B000C901824803F0F6FC0128ADD100237A4A07
:1032C0009371744A1360744BDB7B002B03D1724BF8
:1032D0000122DA7353E0704B0022DA734FE06D4B3A
:1032E00000221A606C4B1B7B002B03D16A4B01320E
:1032F0001A7344E0684B00221A7340E0654B0022C9
:103300001A60654B1B7B002B03D1634B02321A738F
:1033100035E0614B00221A7331E0694B1A685F4B4C
:103320001B689A422BDD00235E4A13605E4A93714C
:1033300025E0644B00221A705B4B1C321A70624B02
:1033400018681A3A0021FFF765F8604B1B68272BB5
:1033500005D8504A0021116001335C4A13604D4B7F
:103360001B68012B0FD04B4B1B68042B48D0494BDB
:103370001B68022B4AD0474B1B68032B51D0FEF72A
:1033800061FDFFF75EFB514B1B68272BEBD94F4BC1
:1033900000221A604C4B1B68012B11D0022B13D05A
:1033A000032B15D0042B17D0052B19D0062B1BD0BF
:1033B000082B1DD0092B1FD0364B00221A60D2E7F4
:1033C000394A04219171E9E7374A07219171E7E70A
:1033D000354A28219171E5E7334A10219171E3E7DD
:1033E000314A18219171E1E72F4A1A219171DFE7E3
:1033F0002D4A1E219171DDE72B4B24229A71DBE7C8
:103400000023294A9371234A1360B0E72E4B1B68AF
:10341000082B02DC01332C4A13601E4B00221A6079
:10342000A9E7294B1B68012B02DD013B264A1360EB
:10343000184B00221A60A2E71B4B0A221A70244B79
:10344000186800220121FEF7E5FF124B1B68012BD3
:103450000FD0104B1B68042B12D00E4B1B68022B95
:1034600014D00C4B1B68032B89D10A4B00221A6025
:1034700085E70D4B05229A71064B00221A60E8E79A
:103480000023094A9371034A1360E6E7014B0022C7
:103490001A60E6E794120020D012002010000020ED
:1034A0000C0000202813002008130020D4FEFFFF8A
:1034B00074000020C0120020CC120020000400483C
:1034C00008000020B0120020040000209C12002000
:1034D000F8120020CD4B0B221A70CD4B1868002239
:1034E0000121FEF797FFCB4B1B68012B10D0C94B76
:1034F0001B68042B13D0C74B1B68022B15D0C54B80
:103500001B68032B00D03AE7C24B00221A6036E753
:10351000BE4B06229A71BF4B00221A60E7E70023D8
:10352000BA4A9371BB4A1360E5E7BA4B00221A60AE
:10353000E5E7B64B0C221A70B74B18680022012140
:10354000FEF768FFB34B1B68012B10D0B14B1B6813
:10355000042B13D0AF4B1B68022B15D0AD4B1B684F
:10356000032B00D00BE7AB4B00221A6007E7A74BF9
:1035700003229A71A74B00221A60E7E70023A34AAF
:103580009371A44A1360E5E7A24B00221A60E5E7B5
:103590009E4B1C221A7001325A700F219970023909
:1035A000D9701A719B4B1B68012B10D0994B1B686B
:1035B000042B13D0974B1B68022B15D0954B1B681F
:1035C000032B00D0DBE6934B00221A60D7E68F4B2B
:1035D000153A9A718F4B00221A60E7E700238B4A55
:1035E00093718C4A1360E5E78A4B00221A60E5E785
:1035F000864B1F221A70894B18681D3A0021FEF76E
:1036000009FF844B1B68012B17D0824B1B68042BCE
:103610001FD0804B1B68022B21D07E4B1B68032BD5
:1036200000D0ACE67D4B1B68002B02D0013B7B4AEF
:103630001360784B00221A60A1E6744B09229A713C
:10364000744B00221A6004327449002001F09AFC85
:10365000DBE700236D4A93716E4A1360D9E76F4B25
:103660001B68172B02D801336C4A1360694B002288
:103670001A60D2E7654B1E221A70694B18681C3A13
:103680000021FEF7C7FE634B1B68012B17D0614B6F
:103690001B68042B1FD05F4B1B68022B21D05D4B96
:1036A0001B68032B00D06AE65D4B1B68002B02D021
:1036B000013B5B4A1360574B00221A605FE6534B95
:1036C00003229A71534B00221A6004325449382065
:1036D00001F058FCDBE700234C4A93714D4A13601C
:1036E000D9E74F4B1B683B2B02D801334C4A136080
:1036F000484B00221A60D2E74A4B01221A7000227E
:10370000494B1A60414B0A2119705A709A70DA704D
:103710001A71404B1B68012B10D03E4B1B68042BC9
:1037200019D03C4B1B68022B1BD03A4B1B68032B58
:1037300000D024E6374B00221A6020E6334B0B32D0
:103740009A71344B00221A60384B9888FDF76AFB57
:10375000374B1860E1E700232C4A93712D4A136020
:10376000DFE72C4B00221A60DFE7284B0B221A7090
:1037700000225A709A70DA701A71264B1B68012B5E
:1037800010D0244B1B68042B19D0224B1B68022B32
:103790001BD0204B1B68032B00D0F0E51D4B0022F3
:1037A0001A60ECE5194B0C329A711A4B00221A6020
:1037B0001E4B1888FDF736FB1E4B1860E1E700230F
:1037C000124A9371134A1360DFE7124B00221A600A
:1037D000DFE70E4B0C221A7000225A709A70DA70D2
:1037E0001A710C4B1B68012B26D00A4B1B68042B4B
:1037F0002FD0084B1B68022B31D0064B1B68032BC4
:1038000000D0BCE5034B00221A60B8E50813002085
:10381000FC120020941200200013002084120020CB
:1038200088120020B0120020A01200207812002080
:103830001013002018130020D04B0D329A71D04B7A
:1038400000221A60CF4B5888FDF7ECFACE4B186077
:10385000CBE70023C94A9371C94A1360C9E7C84B33
:1038600000221A60C9E7C54B0A221A7000225A705A
:1038700002219970DA701A71C14B1B68012B10D0AC
:10388000BF4B1B68042B34D0BD4B1B68022B36D0BA
:10389000BB4B1B68032B00D071E5B94B00221A60AB
:1038A0006DE5B64B0E329A71B54B00221A60B54BDE
:1038B0009888FDF7B7FAB54B1860B54B1C68211C0A
:1038C000FDF794F8011CB348FCF752FE011CB24D01
:1038D0002860201CFCF764FFB04C20600422290003
:1038E0003C2001F04FFB04222100482001F04AFB5C
:1038F000C6E70023A14A9371A14A1360C4E7A04B15
:1039000000221A60C4E79D4B0B221A7000225A70E5
:1039100002219970DA701A71994B1B68012B10D033
:10392000974B1B68042B34D0954B1B68022B36D069
:10393000934B1B68032B00D021E5914B00221A60AA
:103940001DE58E4B0F329A718D4B00221A608D4B04
:103950001888FDF767FA924B1860924B1C68211C7F
:10396000FDF744F8011C8B48FCF702FE011C8E4D4C
:103970002860201CFCF714FF8C4C206004222900D6
:10398000402001F0FFFA042221004C2001F0FAFA55
:10399000C6E70023794A9371794A1360C4E7784BEC
:1039A00000221A60C4E7754B0C221A7000225A706C
:1039B00002219970DA701A71714B1B68012B10D0BB
:1039C0006F4B1B68042B38D06D4B1B68022B3AD011
:1039D0006B4B1B68032B00D0D1E4694B00221A60AB
:1039E000CDE4664B03329A710024654B1C60654B35
:1039F0005888FDF717FA6E4B1860634B1D68291C39
:103A0000FCF7F4FF011C6348FCF7B2FD011C694E92
:103A10003060281CFCF7C4FE674D2860042231008A
:103A2000442001F0AFFA04222900502001F0AAFA44
:103A3000624B1C70624B1C60C2E700234F4A9371BB
:103A40004F4A1360C0E74E4B00221A60C0E74B4B51
:103A50001E221A70013A5A700A2199700939D970D8
:103A60001A71474B1B68012B10D0454B1B68042B68
:103A700013D0434B1B68022B15D0414B1B68032B03
:103A800000D07CE43E4B00221A6078E43B4B0C3AB9
:103A90009A713B4B00221A60E7E70023374A937183
:103AA000374A1360E5E7364B00221A60E5E7334BEF
:103AB0001E221A70434B186800220121FEF7AAFC4F
:103AC0002F4B1B68012B20D02D4B1B68042B28D0BB
:103AD0002B4B1B68022B2AD0294B1B68032B3AD097
:103AE000274B1B68022B73D0032B00D047E4364BC7
:103AF0001B68272B00D842E4324B1B68002B00DCEC
:103B00003DE4013B2F4A136039E41C4B12229A71A9
:103B10001B4B00221A6004322A49102001F032FAAD
:103B2000D2E70023154A9371154A1360D0E780212C
:103B30004901264803F0B6F80128CDD1214B1B6876
:103B4000FA22D200934202DA01331E4A13600C4B70
:103B500000221A60C0E7802109021C4803F0A2F885
:103B60000128BDD1174B1B68002B02DD013B154A14
:103B70001360034B00221A60B2E7C046081300200E
:103B8000941200207812002020130020141300202B
:103B9000101300200000FA446000002028000020DC
:103BA0001C13002018130020640000202C000020AB
:103BB000241300206800002030000020B0120020F4
:103BC000A012002014000020C812002000040048A9
:103BD000CA4A1268272A87D9C94A1268FA21C90035
:103BE0008A4200DB80E70132C5490A607CE7C54BA9
:103BF0001E221A70013A5A700A2199700839D97038
:103C00001A71C14B1B68012B12D0BF4B1B68042BD0
:103C100015D0BD4B1B68022B17D0BB4B1B68032B69
:103C200001D0FFF7ACFBB84B00221A60FFF7A7FBEF
:103C3000B44B0A3A9A71B44B00221A60E5E70023AC
:103C4000B04A9371B04A1360E3E7AF4B00221A60A9
:103C5000E3E7AC4B1E221A70AC4B1868002201211E
:103C6000FEF7D8FBA84B1B68012B24D0A64B1B6882
:103C7000042B2CD0A44B1B68022B2ED0A24B1B680C
:103C8000032B3ED0A04B1B68022B4CD0032B01D042
:103C9000FFF775FB9E4B1B68272B01D8FFF76FFBC7
:103CA0009A4B1B68002B01DCFFF769FB013B974A2D
:103CB0001360FFF764FB934B14229A71924B00221E
:103CC0001A6004329149142001F05CF9CEE7002318
:103CD0008C4A93718C4A1360CCE7802149018D484E
:103CE00002F0E0FF0128C9D1884B1B68FA22D200FC
:103CF000934202DA0133854A1360834B00221A6033
:103D0000BCE780210902834802F0CCFF0128B9D129
:103D10007E4B1B68002B02DD013B7C4A13607A4B13
:103D200000221A60AEE7754A1268272AAED9774A90
:103D30001268FA21C9008A42A8DA013273490A607E
:103D4000A4E7704B1E221A70013A5A700A2199702A
:103D50000739D9701A716C4B1B68012B12D06A4B52
:103D60001B68042B15D0684B1B68022B17D0664BC1
:103D70001B68032B01D0FFF702FB634B00221A6084
:103D8000FFF7FDFA5F4B083A9A715F4B00221A6009
:103D9000E5E700235B4A93715B4A1360E3E75A4B04
:103DA00000221A60E3E7574B1E221A705A4B18681C
:103DB00000220121FEF72EFB534B1B68012B24D060
:103DC000514B1B68042B2CD04F4B1B68022B2ED061
:103DD0004D4B1B68032B3ED04B4B1B68022B4CD02A
:103DE000032B01D0FFF7CBFA494B1B68272B01D8D7
:103DF000FFF7C5FA484B1B68002B01DCFFF7BFFA41
:103E0000013B454A1360FFF7BAFA3E4B16229A71FE
:103E10003D4B00221A6004323F49182001F0B2F8ED
:103E2000CEE70023374A9371374A1360CCE78021ED
:103E30004901384802F036FF0128C9D1364B1B68CA
:103E4000FA22D200934202DA0133334A13602E4B36
:103E500000221A60BCE7802109022E4802F022FFEE
:103E60000128B9D12C4B1B68002B02DD013B2A4AEB
:103E70001360254B00221A60AEE7204A1268272AF9
:103E8000AED9254A1268FA21C9008A42A8DA01325D
:103E900021490A60A4E71B4B1E221A70013A5A708E
:103EA0000A2199700639D9701A71174B1B68012BBA
:103EB00012D0154B1B68042B15D0134B1B68022B1B
:103EC00017D0114B1B68032B01D0FFF758FA0E4B8C
:103ED00000221A60FFF753FA0A4B063A9A710A4B0E
:103EE00000221A60E5E70023064A9371064A136030
:103EF000E3E7054B00221A60E3E7C046C412002046
:103F00001400002008130020941200201800002044
:103F1000C8120020000400481C000020B74B1E22DD
:103F20001A70B74B186800220121FEF773FAB54BDF
:103F30001B68012B24D0B34B1B68042B2CD0B14B36
:103F40001B68022B2ED0AF4B1B68032B3ED0AD4B12
:103F50001B68022B4CD0032B01D0FFF710FAAA4BA1
:103F60001B68272B01D8FFF70AFAA54B1B68002B0B
:103F700001DCFFF704FA013BA14A1360FFF7FFF9E8
:103F80009E4B03229A719F4B00221A6004329C4977
:103F90001C2000F0F7FFCEE70023984A9371994A5E
:103FA0001360CCE780214901984802F07BFE01288C
:103FB000C9D1934B1B68FA22D200934202DA013333
:103FC0008F4A13608F4B00221A60BCE780210902E0
:103FD0008E4802F067FE0128B9D1894B1B68002B7F
:103FE00002DD013B864A1360864B00221A60AEE771
:103FF000874A1268272AAED9814A1268FA21C90075
:104000008A42A8DA01327E490A60A4E77B4B1E226D
:104010001A70013A5A700C2199701331D9701A71C3
:10402000784B1B68012B12D0764B1B68042B15D0E4
:10403000744B1B68022B17D0724B1B68032B01D0EB
:10404000FFF79DF96F4B00221A60FFF798F96B4B51
:10405000043A9A716B4B00221A60E5E70023674A25
:104060009371684A1360E3E7664B00221A60E3E746
:10407000684B01221A70614B1D321A70664B18682A
:1040800000220121FEF7C6F95E4B1B68012B28D0E8
:104090005C4B1B68042B2DD05A4B1B68022B31D074
:1040A000584B1B68032B40D0564B1B68022B4ED03D
:1040B000032B59D0022B63D0032B01D0FFF75FF9FC
:1040C000514B1B684F2B01D8FFF759F9524B1B6816
:1040D0000A2B01DCFFF753F90A3B4F4A1360FFF745
:1040E0004EF9464B03229A710023464A1360494A0F
:1040F0001370CDE70023414A9371424A1360454A49
:104100001370C9E780214901404802F0CBFD012826
:10411000C6D1414B1B68414A934202DC01333E4AFF
:104120001360384B00221A60BAE780210902374831
:1041300002F0B8FD0128B7D1374B1B68002B02DD18
:10414000013B354A13602F4B00221A60ACE7304A1E
:104150001268272AACD9304A126830498A42A7DC53
:1041600001322D490A60A3E7274A1268272AA1D9FC
:10417000294A1268002A9DDD013A27490A6099E719
:10418000234A12684F2A97D9234A126824498A423F
:1041900092DC0A3220490A608EE7184B1E221A7000
:1041A000013A5A700D219970D9701A71154B1B681C
:1041B000012B12D0134B1B68042B15D0114B1B681D
:1041C000022B17D00F4B1B68032B01D0FFF7D7F83A
:1041D0000C4B00221A60FFF7D2F8084B023A9A7192
:1041E000084B00221A60E5E70023044A9371054A50
:1041F0001360E3E7034B00221A60E3E70813002093
:104200002000002094120020C81200200004004862
:10421000C4120020B0120020A0120020C309000028
:10422000B9090000BC4B1E221A70BC4B18681B3A1F
:104230000021FEF7EFF8BA4B1B68012B28D0B84BD2
:104240001B68042B30D0B64B1B68022B32D0B44B0A
:104250001B68032B40D0B24B1B68022B4ED0032BA4
:1042600058D0022B62D0032B01D0FFF788F8AD4B5A
:104270001B684F2B01D8FFF782F8A84B1B680B2B4C
:1042800001D8FFF77CF80A3BA44A1360FFF777F8E0
:10429000A14B1C229A71A24B00221A6004329F4942
:1042A0002C2000F06FFECAE700239B4A93719C4AC2
:1042B0001360C8E7802149019B4802F0F3FC012804
:1042C000C5D1964B1B68EF2B02D80133934A13607C
:1042D000934B00221A60BAE780210902924802F04B
:1042E000E1FC0128B7D18D4B1B68012B02D9013BA2
:1042F0008A4A13608A4B00221A60ACE78B4A126824
:10430000272AACD9854A1268EF2AA8D801328349F6
:104310000A60A4E7834A1268272AA2D97F4A126852
:10432000012A9ED9013A7D490A609AE77F4A1268BC
:104330004F2A98D9794A1268E52A94D80A327749DF
:104340000A6090E7744B1E221A70794B18681C3A69
:104350000021FEF75FF8724B1B68012B24D0704BD5
:104360001B68042B2CD06E4B1B68022B2ED06C4B81
:104370001B68032B3DD06A4B1B68022B4BD0032BD1
:1043800001D0FEF7FCFF674B1B68272B01D8FEF717
:10439000F6FF674B1B68002B01D1FEF7F0FF013BD6
:1043A000634A1360FEF7EBFF5B4B1D229A715C4B77
:1043B00000221A6004325E49302000F0E3FDCEE7AF
:1043C0000023554A9371564A1360CCE78021490176
:1043D000554802F067FC0128C9D1554B1B68012BD9
:1043E00003D94F4B00221A60C1E70133504A1360D2
:1043F000F7E7802109024C4802F054FC0128BAD1A9
:104400004B4B1B68002B02D0013B494A1360444BC5
:1044100000221A60AFE7454A1268272AAFD9444AFA
:104420001268012AABD8013241490A60A7E73A4B2A
:104430001E221A703F4B18681D3A0021FDF7EAFF53
:10444000374B1B68012B24D0354B1B68042B2CD019
:10445000334B1B68022B2ED0314B1B68032B3CD0F7
:104460002F4B1B68022B4AD0032B01D0FEF787FF8E
:104470002C4B1B68272B01D8FEF781FF2D4B1B68A7
:10448000002B01D1FEF77BFF013B2A4A1360FEF7A8
:1044900076FF214B03229A71214B00221A600432CD
:1044A0002449342000F06EFDCEE700231A4A9371B0
:1044B0001B4A1360CCE7802149011B4802F0F2FB44
:1044C0000128C9D11B4B1B68032B02D80133194AA1
:1044D0001360134B00221A60BEE7802109021248C4
:1044E00002F0E0FB0128BBD1124B1B68002B02D06D
:1044F000013B104A13600A4B00221A60B0E70B4AD6
:104500001268272AB0D90B4A1268032AACD80132A4
:1045100008490A60A8E7C0460813002024000020CC
:1045200094120020C812002000040048C412002089
:10453000BC120020B4120020BE4B1E221A70013A99
:104540005A700F2199701031D9701A71BA4B1B68CB
:10455000012B12D0B84B1B68042B15D0B64B1B682F
:10456000022B17D0B44B1B68032B01D0FEF707FFBB
:10457000B14B00221A60FEF702FFAE4B02329A7175
:10458000AD4B00221A60E5E70023AA4A9371AA4ABC
:104590001360E3E7A84B00221A60E3E7A54B1E2255
:1045A0001A70A64B186800220121FDF733FFA24BB9
:1045B0001B68012B24D0A04B1B68042B2CD09E4BD6
:1045C0001B68022B2ED09C4B1B68032B3CD09A4BB4
:1045D0001B68022B4AD0032B01D0FEF7D0FE984B6C
:1045E0001B68272B01D8FEF7CAFE944B1B68052BCE
:1045F00001DCFEF7C4FE013B904A1360FEF7BFFEEC
:104600008C4B20229A718C4B00221A6004328B4909
:10461000202000F007FDCEE70023864A9371864AEA
:104620001360CCE780214901864802F03BFB01285A
:10463000C9D1824B1B68632B02DC01337F4A1360B4
:104640007D4B00221A60BEE7802109027D4802F0FE
:1046500029FB0128BBD1794B1B68052B02DD013BEF
:10466000764A1360744B00221A60B0E7764A1268EB
:10467000272AB0D9714A1268632AACDC01326F492B
:104680000A60A8E76B4B1E221A70013A5A700F217C
:1046900099700C39D9701A71674B1B68012B12D0B5
:1046A000654B1B68042B15D0634B1B68022B17D07E
:1046B000614B1B68032B01D0FEF761FE5E4B0022AD
:1046C0001A60FEF75CFE5B4B04329A715A4B002273
:1046D0001A60E5E70023574A9371574A1360E3E7EE
:1046E000554B00221A60E3E7524B1E221A70574BBB
:1046F000186800220121FDF78DFE4F4B1B68012B2E
:1047000024D04D4B1B68042B2CD04B4B1B68022B29
:104710002ED0494B1B68032B3CD0474B1B68022B08
:104720004AD0032B01D0FEF72AFE454B1B68272BEE
:1047300001D8FEF724FE454B1B68052B01DCFEF774
:104740001EFE013B414A1360FEF719FE394B22223F
:104750009A71394B00221A6004323C49242000F03F
:1047600061FCCEE70023334A9371334A1360CCE7F0
:1047700080214901334802F095FA0128C9D1334B11
:104780001B68632B02DC0133304A13602A4B002282
:104790001A60BEE7802109022A4802F083FA012844
:1047A000BBD12A4B1B68052B02DD013B274A136056
:1047B000214B00221A60B0E7234A1268272AB0D999
:1047C000224A1268632AACDC013220490A60A8E759
:1047D000184B1E221A70013A5A700F2199700B392A
:1047E000D9701A71144B1B68012B12D0124B1B6825
:1047F000042B15D0104B1B68022B17D00E4B1B68D7
:10480000032B01D0FEF7BBFD0B4B00221A60FEF715
:10481000B6FD084B06329A71074B00221A60E5E795
:104820000023044A9371044A1360E3E7024B002219
:104830001A60E3E7081300209412002034000020DF
:10484000C812002000040048C412002038000020D4
:10485000CA4B1E221A70CA4B186800220121FDF7AC
:10486000D9FDC84B1B68012B24D0C64B1B68042BF9
:104870002CD0C44B1B68022B2ED0C24B1B68032BC1
:104880003CD0C04B1B68022B4AD0032B01D0FEF753
:1048900076FDBD4B1B68272B01D8FEF770FDB84B8A
:1048A0001B68052B01DCFEF76AFD013BB44A13606F
:1048B000FEF765FDB14B03229A71B24B00221A60DC
:1048C0000432AF49282000F0ADFBCEE70023AB4A0D
:1048D0009371AC4A1360CCE780214901AB4802F0E8
:1048E000E1F90128C9D1A64B1B68632B02DC013317
:1048F000A34A1360A34B00221A60BEE7802109027D
:10490000A24802F0CFF90128BBD19D4B1B68052BB3
:1049100002DD013B9A4A13609A4B00221A60B0E70D
:104920009B4A1268272AB0D9954A1268632AACDCE0
:10493000013293490A60A8E7904B1C221A70013299
:104940005A700C2199700131D9701A718D4B1B6806
:10495000012B12D08B4B1B68042B15D0894B1B6885
:10496000022B17D0874B1B68032B01D0FEF707FDE6
:10497000844B00221A60FEF702FD804B08329A71C8
:10498000804B00221A60E5E700237C4A93717D4A40
:104990001360E3E77B4B00221A60E3E7774B0A22C0
:1049A0001A707C4B1868063A0121FDF733FD754BF0
:1049B0001B68012B25D0734B1B68042B2DD0714B2A
:1049C0001B68022B2FD06F4B1B68032B3ED06D4B07
:1049D0001B68022B4DD0032B01D0FEF7D0FC6A4B95
:1049E0001B68272B01D8FEF7CAFC6A4B1B686A4A72
:1049F000934201DAFEF7C3FC013B664A1360FEF7FF
:104A0000BEFC5E4B26229A715E4B00221A60043275
:104A10006049042000F0B6FACDE70023574A9371AD
:104A2000584A1360CBE780214901584802F03AF90F
:104A30000128C8D1574B1B68584A934202DC013306
:104A4000544A13604F4B00221A60BCE780210902D0
:104A50004E4802F027F90128B9D14E4B1B684E4A47
:104A6000934202DB013B4B4A1360464B00221A6023
:104A7000ADE7474A1268272AADD9464A1268474926
:104A80008A42A8DC013243490A60A4E73B4B0B226F
:104A90001A70434B1868073A0121FDF7BBFC394BEC
:104AA0001B68012B25D0374B1B68042B2DD0354BB1
:104AB0001B68022B2FD0334B1B68032B3ED0314B8E
:104AC0001B68022B4DD0032B01D0FEF758FC2E4B58
:104AD0001B68272B01D8FEF752FC314B1B682E4A6E
:104AE000934201DAFEF74BFC013B2D4A1360FEF7BF
:104AF00046FC224B27229A71224B00221A60043274
:104B00002749082000F03EFACDE700231B4A9371A5
:104B10001C4A1360CBE7802149011C4802F0C2F80F
:104B20000128C8D11E4B1B681C4A934202DC01338A
:104B30001B4A1360134B00221A60BCE78021090254
:104B4000124802F0AFF80128B9D1154B1B68124A80
:104B5000934202DB013B124A13600A4B00221A60A7
:104B6000ADE70B4A1268272AADD90D4A12680B49E6
:104B70008A42A8DC01320A490A60A4E7081300202F
:104B80007800002094120020C81200200004004881
:104B9000C4120020A41200201AFCFFFFE60300004C
:104BA000A8120020694B0C221A70694B1868083A49
:104BB0000121FDF72FFC674B1B68012B25D0654BAE
:104BC0001B68042B2DD0634B1B68022B2FD0614B2D
:104BD0001B68032B3ED05F4B1B68022B4DD0032B71
:104BE00001D0FEF7CCFB5C4B1B68272B01D8FEF7EE
:104BF000C6FB574B1B68594A934201DAFEF7BFFBCD
:104C0000013B534A1360FEF7BAFB504B03229A71E3
:104C1000504B00221A6004324D490C2000F0B2F9CA
:104C2000CDE70023494A93714A4A1360CBE78021BC
:104C300049014B4802F036F80128C8D1444B1B68A3
:104C4000484A934202DC0133414A1360414B00223F
:104C50001A60BCE780210902414802F023F80128CC
:104C6000B9D13B4B1B683D4A934202DB013B384ABA
:104C70001360384B00221A60ADE73B4A1268272ABE
:104C8000ADD9334A126837498A42A8DC013230492B
:104C90000A60A4E7354B00221A702C4B1D321A70A3
:104CA000334B18681B3A0021FDF7B4FB314B1B68EE
:104CB000272B05D8274A0021116001332D4A1360A4
:104CC000244B1B68012B19D0224B1B68042B2BD0C3
:104CD000204B1B68022B2DD01E4B1B68032B01D0D1
:104CE000FEF74DFB224B1B68012B02DD013B204AE6
:104CF0001360184B00221A60FEF741FB1D4B1B6826
:104D0000272BE1D91B4B00221A60194B1B68122B71
:104D100006D00E4B03229A710E4B00221A60D3E785
:104D20000A4B0A329A71F7E70023084A9371094A3D
:104D30001360CDE70E4B1B68122B02DC01330C4ACB
:104D40001360044B00221A60C6E7C0460813002017
:104D5000AC12002094120020C81200201AFCFFFFA1
:104D600000040048E6030000C4120020B012002036
:104D7000040000209C12002000B587B014220021FE
:104D800001A802F02AFF402301933D3B049301A9AF
:104D9000024801F0C1FE07B000BDC0460014004843
:104DA00000B587B01422002101A802F016FF4023AD
:104DB00001933E3B02930133049301A9024801F0A1
:104DC000ABFE07B000BDC0460014004810B5FFF7A9
:104DD000E7FF064C00224021200001F06AFF01227B
:104DE0004021200001F065FF10BDC04600140048BE
:104DF00010B5FFF7C1FF00244021104801F052FF19
:104E0000002804D1C72C02D80134A4B2F4E7C72C7F
:104E10000FD8002401E00134A4B24021074801F07A
:104E200041FF002801D0EF2CF5D9EF2C03D800204A
:104E300010BD0120FCE70120FAE7C046001400483D
:104E400010B5FFF7ADFF0B4C00224021200001F010
:104E500030FF01224021200001F02BFFFFF78CFFE3
:104E60004021200001F01EFF002801D1013010BDBB
:104E70000020FCE70014004870B50024012507E07D
:104E8000FFF7DEFFC00164080443E4B20135EDB270
:104E9000082DF5D9200070BD70B50500FFF780FF23
:104EA00001240CE0104E00224021300001F001FFEF
:104EB00001224021300001F0FCFE0134E4B2082C54
:104EC00010D801232B406D08002BEBD0064E00229A
:104ED0004021300001F0EDFE01224021300001F0C0
:104EE000E8FEEAE770BDC0460014004810B5FFF7C1
:104EF0006DFFFFF77DFFCC20FFF7CEFF4420FFF7CB
:104F0000CBFF10BD10B501224021044801F0D1FEB5
:104F1000FFF75CFFFFF76CFF10BDC04600140048B0
:104F200070B5FFF7E3FFFFF751FFFFF761FFCC20FC
:104F3000FFF7B2FFBE20FFF7AFFFFFF79DFF0500B1
:104F40000400FFF799FF0300072817D9C043C3B235
:104F5000EC43E4B200251802201800B2FBF714FF5E
:104F6000FCF744FA0022064BFBF79EFFFCF708FA19
:104F700000B2002D01D1404200B270BD0125EAE728
:104F80000000E43FF0B5C64600B584B004000F0051
:104F90001500821880231B019A423FDA43420F22F8
:104FA0001E001640134200D11026B3B2AB4220D9E6
:104FB000EEB21EE0A023B2B29046FF22224099B288
:104FC000202302934346019300970123144801F0E4
:104FD000A9FB002819D14444A4B24346ED1AADB24E
:104FE000BF192E1C102D00D91026F6B2052001F095
:104FF00063F9002D0DD0230ADCD0E10949B20E235C
:1050000019406E3B0B43DBB2D5E7052001F054F9A4
:10501000EFE7002004B080BCB846F0BD0120F9E7FE
:10502000D4040020F0B5C64600B584B004000F00DB
:105030001500821880231B019A423CDA43420F225A
:105040001E001640134200D11026B3B2AB421DD948
:10505000EEB21BE0A123B2B29046FF22224099B2E9
:10506000142302934346019300970123134801F050
:1050700029FC002816D14444A4B24346ED1AADB22F
:10508000BF192E1C102D00D91026F6B2002D0DD000
:10509000230ADFD0E10949B20E2319406D3B0B43CF
:1050A000DBB2D8E7064802F013FEEFE7002004B0B9
:1050B00080BCB846F0BD0120F9E7C046D40400200A
:1050C0009091000810B580211C4C8901200001F04E
:1050D000E9FD80214901200001F0E4FD8021090261
:1050E000200001F0DFFD8021C901200001F0DAFD80
:1050F000134B1B68002B0CD1114B1B68002B0ED0DF
:10510000FDF75CFA0F4B1A68FA235B009A420CD841
:1051100010BD012280210C4801F0CBFDECE70022FC
:105120008021094801F0C5FDEAE7064B00221A601C
:10513000FFF7F6FE054B1880EAE7C046000400487A
:105140003413002030130020001400482C130020DA
:105150007047FEE77047704710B501F09BF8184A9A
:10516000136801331360174A136801331360164A3A
:10517000136801331360154A136801331360144B2D
:105180001B78013BDBB2022B03D8124A13680133B0
:105190001360114A136801331360104A934206D911
:1051A0000D4B00221A600E4A1368013313600D4B39
:1051B0001B68002B02D0013B0A4A136010BDC04699
:1051C0003013002004130020F01200209812002059
:1051D00000000020901200203813002060EA000038
:1051E000F41200203413002010B5024801F038FEFC
:1051F00010BDC0460804002010B5024801F030FE82
:1052000010BDC0464C04002010B5024801F028FE35
:1052100010BDC0469004002010B5024801F0B4FF54
:1052200010BDC0462805002010B5034801F0ACFFB2
:10523000FCF780FB10BDC046B005002082B00A4BD1
:10524000996901221143996199690A400092009A73
:10525000DA69802149050A43DA61DB690B40019371
:10526000019B02B07047C0460010024010B588B0E4
:1052700004001422002103A802F0AFFC1E4B226898
:105280009A4201D008B010BD1C4B99698020800063
:10529000014399619A6902400192019A5A698021F9
:1052A00089020A435A615B690B400293029BE02327
:1052B0000393DD3B04937138FF3803A9C00501F067
:1052C0002BFC0F480F4B0360002343608360802258
:1052D000C260803202618022D2004261202282615B
:1052E000C36101F013FD002803D1054B23635C6209
:1052F000C8E7FCF73BFDF8E700240140001002403E
:10530000080400200800024010B588B004001422F0
:10531000002103A802F061FC2268134B9A4201D0DD
:1053200008B010BD114C62698021C9020A43626154
:1053300063690B400193019BC0239B0003931223DD
:105340000493113B059303220692079303A908488F
:1053500001F0E2FBE269802189030A43E261E3692B
:105360000B400293029BDBE7005400400010024018
:105370000004004810B58AB004001422002105A8DA
:1053800002F02BFC2368404A934204D03F4A9342E8
:105390003DD00AB010BD3E4B99698020C001014349
:1053A00099619A6902400192019A5A698021C90261
:1053B0000A435A615B690B400293029BC023059329
:1053C000BE3B06930133089305A9324801F0A4FBC4
:1053D0003148324B03600023436083608022C26007
:1053E000036143618361C36101F090FC00280BD12C
:1053F000294B63675C62002200211B2001F088FDBD
:105400001B2001F0B5FDC4E7FCF7B0FCF0E7204B32
:10541000D969802292021143D961D969114003915F
:1054200003995969114359615B691A400492049BBD
:105430000C2305930A3B069301330893023B09931F
:10544000902005A9C00501F067FB1548154B0360C6
:105450000023436083608022C260036143618361F3
:10546000C36101F053FC00280BD10D4B63675C62F4
:10547000002200211C2001F04BFD1C2001F078FDD2
:1054800087E7FCF773FCF0E7003801400044004078
:1054900000100240000400484C040020300002408C
:1054A000900400205800024070B5040003689A6818
:1054B000520725D59A68520706D59A68920703D4F1
:1054C0009A6810210A439A6000F0F0FE05002368F4
:1054D0009B685B0712D500F0E9FE401B0228F6D955
:1054E00023689B685B07F2D5A36B10221343A36369
:1054F000E36B0F3A1343E363012002E0002000E076
:10550000002070BD70B504000268916803230B4051
:10551000012B01D0002070BD1368DB0702D4D368D3
:105520001B0431D5916805230B40012B09D0A36BD7
:1055300010221343A363E36B0F3A1343E363012089
:10554000E9E7936802210B439360236803221A6002
:1055500000F0ACFE050023689B68DB0712D500F065
:10556000A5FE401B0228F6D923689B68DB07F2D50D
:10557000A36B10221343A363E36B0F3A1343E3635C
:105580000120C8E70020C6E70020C4E730B583B09B
:105590000400002301930368996803220A40012A4A
:1055A00014D09968224A114218D19A6801210A43FD
:1055B0009A60204B18682049FAF7B0FD0190019BD2
:1055C000002B15D0019B013B0193F8E71A68D20725
:1055D0002BD4DA681204E4D5002024E0A36B102257
:1055E0001343A363E36B0F3A1343E36301201AE011
:1055F00000F05CFE050023681B68DB0712D400F096
:1056000055FE401B0228F6D923681B68DB07F2D43D
:10561000A36B10221343A363E36B0F3A1343E363BB
:10562000012000E0002003B030BD0020FBE7C046B1
:10563000170000808400002040420F0070B5041E57
:1056400000D1B4E0836B002B00D180E0A36BDB06BC
:1056500000D5A6E022689168042005000D400842AC
:1056600000D09EE0A16B534B19400633FF33194322
:10567000A163916801330B40012B6ED0D3681821D0
:105680008B43A1680B43D360226813699B009B087E
:1056900061680B4313612268D36847490B40D360AC
:1056A000237E9B03627ED2031343A17E4A031343EE
:1056B000A26A012A58D0802252011343E2681343A0
:1056C0002269022A52D02B432422A25C52001343A7
:1056D000E27E012A4CD0E269C221FF318A4202D027
:1056E000216A0A4313432168CA681A43CA60E26AFE
:1056F000802149058A420DD0012A0BD0022A09D007
:10570000032A07D0042A05D0052A03D0062A01D08F
:10571000072A0AD120684169072291434161206824
:105720004169E56A2A400A4342612268D2682349F6
:105730000A409A422BD0A36B12229343023A13439E
:10574000A363E36B0F3A1343E36301202EE0C363CB
:1057500034228354FFF78AFD78E71368DB079AD475
:10576000D3681B0497D489E72A00A6E70425AAE793
:10577000002903D1802252021343ACE7A26B2021FF
:105780000A43A263E26B1F390A43E263A3E70023E3
:10579000E363A36B03229343023A1343A363002002
:1057A00004E0A36B10221343A363012070BD01200A
:1057B000FCE7C046FDFEFFFF1902FEFFE7FF3F8347
:1057C000F8B504000D00160003689B685B073ED423
:1057D0003423C35C012B3CD034230122C254437ECA
:1057E000012B04D0FFF7D2FE071E2ED100E00027C8
:1057F000A36B194A1A4080235B001343A363002361
:10580000E3633422A354236B144A9A62236B144A31
:10581000DA62236B134A1A6323681C221A60226817
:10582000536810210B4353602268D3680F390B4330
:10583000D3602168403133002A00206B01F08EFADA
:105840002268936804210B4393603800F8BD022757
:10585000FBE70227F9E7C046FEF0FFFFED5800081E
:105860005F5900086B59000870B504003423C35C0D
:10587000012B36D034230122C254FFF715FE051E3A
:105880001DD12268D36801218B43D360206B212373
:10589000C35C022B18D02268536810218B435360DD
:1058A000002D1AD12000FFF72DFE0500002D06D196
:1058B000A36B0D4A13400432FF321343A363342316
:1058C0000022E254280070BD01F083FA051EE2D0E8
:1058D000A36B40221343A363DDE72000FFF712FE12
:1058E000E4E70225EEE7C046FEFEFFFF10B5436A7F
:1058F0009A6B502111422BD1996B802292000A435E
:105900009A631A68D068C0210901084213D1997EB0
:10591000002910D1116809070DD5916849070ED4E7
:1059200051680C20814351609A6B0B490A40043145
:10593000FF310A439A631800FCF722FC10BD9A6BF2
:1059400020210A439A63DA6B1F390A43DA63F2E7CC
:105950001B6B1B6B9847F1E7FEFEFFFF704710B50E
:10596000406AFFF7FBFF10BD704710B5406A836BBC
:10597000402213438363C36B3C3A1343C363FFF773
:10598000F3FF10BD30B583B004000023019334331E
:10599000C35C012B00D181E034230122C25403688F
:1059A0009A68520770D43E4A4868904253D09A6A27
:1059B00001200D68A84002439A62E36A80225205E2
:1059C00093421ED0012B1CD0022B1AD0032B18D0CF
:1059D000042B16D0052B14D0062B12D0072B10D079
:1059E00022685069072303408868984209D05069AB
:1059F000072398435061206842698D682B40134308
:105A000043610B681A00103A012A01D9002040E0D6
:105A1000244A1268102B09D08023DB031343214A48
:105A200013600B68102B04D0002032E080231B048D
:105A3000F4E71D4B18681D49FAF770FB83001B182B
:105A40005B00019302E0019B013B0193019B002B52
:105A5000F9D100201DE09A6A01200D68A840824318
:105A60009A620B681A00103A012A01D9002010E04E
:105A70000C4A1268102B05D00D4B1340094A1360D5
:105A8000002006E00B4BF8E7836B2022134383636F
:105A9000012034230022E25403B030BD0220FBE792
:105AA00001100000082701408400002040420F0040
:105AB000FFFFBFFFFFFF7FFF70B582B0041E00D164
:105AC0002EE20368DB0726D5AE4B5A680C23134041
:105AD000042B18D0AB4B5A680C231340082B0ED064
